{
	"contracts/OrganizationRegistry.sol": {
		"OrganizationRegistry": {
			"abi": [
				{
					"anonymous": false,
					"inputs": [
						{
							"indexed": false,
							"internalType": "uint256",
							"name": "orgId",
							"type": "uint256"
						},
						{
							"indexed": false,
							"internalType": "bool",
							"name": "isActive",
							"type": "bool"
						}
					],
					"name": "OrgStatusUpdated",
					"type": "event"
				},
				{
					"anonymous": false,
					"inputs": [
						{
							"indexed": false,
							"internalType": "uint256",
							"name": "orgId",
							"type": "uint256"
						},
						{
							"indexed": false,
							"internalType": "address",
							"name": "admin",
							"type": "address"
						}
					],
					"name": "OrganizationRegistered",
					"type": "event"
				},
				{
					"inputs": [],
					"name": "orgCount",
					"outputs": [
						{
							"internalType": "uint256",
							"name": "",
							"type": "uint256"
						}
					],
					"stateMutability": "view",
					"type": "function"
				},
				{
					"inputs": [
						{
							"internalType": "uint256",
							"name": "",
							"type": "uint256"
						}
					],
					"name": "organizations",
					"outputs": [
						{
							"internalType": "bytes32",
							"name": "nameHash",
							"type": "bytes32"
						},
						{
							"internalType": "string",
							"name": "countryCode",
							"type": "string"
						},
						{
							"internalType": "address",
							"name": "admin",
							"type": "address"
						},
						{
							"internalType": "bool",
							"name": "isActive",
							"type": "bool"
						}
					],
					"stateMutability": "view",
					"type": "function"
				},
				{
					"inputs": [
						{
							"internalType": "bytes32",
							"name": "_nameHash",
							"type": "bytes32"
						},
						{
							"internalType": "string",
							"name": "_countryCode",
							"type": "string"
						},
						{
							"internalType": "address",
							"name": "_admin",
							"type": "address"
						}
					],
					"name": "registerOrganization",
					"outputs": [],
					"stateMutability": "nonpayable",
					"type": "function"
				},
				{
					"inputs": [
						{
							"internalType": "uint256",
							"name": "orgId",
							"type": "uint256"
						},
						{
							"internalType": "bool",
							"name": "_status",
							"type": "bool"
						}
					],
					"name": "setOrgStatus",
					"outputs": [],
					"stateMutability": "nonpayable",
					"type": "function"
				}
			],
			"devdoc": {
				"kind": "dev",
				"methods": {},
				"version": 1
			},
			"evm": {
				"assembly": "    /* \"contracts/OrganizationRegistry.sol\":61:987  contract OrganizationRegistry {... */\n  mstore(0x40, 0x80)\n  callvalue\n  dup1\n  iszero\n  tag_1\n  jumpi\n  revert(0x00, 0x00)\ntag_1:\n  pop\n  dataSize(sub_0)\n  dup1\n  dataOffset(sub_0)\n  0x00\n  codecopy\n  0x00\n  return\nstop\n\nsub_0: assembly {\n        /* \"contracts/OrganizationRegistry.sol\":61:987  contract OrganizationRegistry {... */\n      mstore(0x40, 0x80)\n      callvalue\n      dup1\n      iszero\n      tag_1\n      jumpi\n      revert(0x00, 0x00)\n    tag_1:\n      pop\n      jumpi(tag_2, lt(calldatasize, 0x04))\n      shr(0xe0, calldataload(0x00))\n      dup1\n      0x8bb7796a\n      eq\n      tag_3\n      jumpi\n      dup1\n      0xc9a49cd8\n      eq\n      tag_4\n      jumpi\n      dup1\n      0xd8106690\n      eq\n      tag_5\n      jumpi\n      dup1\n      0xe792dd8a\n      eq\n      tag_6\n      jumpi\n    tag_2:\n      revert(0x00, 0x00)\n        /* \"contracts/OrganizationRegistry.sol\":741:984  function setOrgStatus(uint256 orgId, bool _status) external {... */\n    tag_3:\n      tag_7\n      0x04\n      dup1\n      calldatasize\n      sub\n      dup2\n      add\n      swap1\n      tag_8\n      swap2\n      swap1\n      tag_9\n      jump\t// in\n    tag_8:\n      tag_10\n      jump\t// in\n    tag_7:\n      stop\n        /* \"contracts/OrganizationRegistry.sol\":458:733  function registerOrganization(bytes32 _nameHash, string memory _countryCode, address _admin) external {... */\n    tag_4:\n      tag_11\n      0x04\n      dup1\n      calldatasize\n      sub\n      dup2\n      add\n      swap1\n      tag_12\n      swap2\n      swap1\n      tag_13\n      jump\t// in\n    tag_12:\n      tag_14\n      jump\t// in\n    tag_11:\n      stop\n        /* \"contracts/OrganizationRegistry.sol\":300:323  uint256 public orgCount */\n    tag_5:\n      tag_15\n      tag_16\n      jump\t// in\n    tag_15:\n      mload(0x40)\n      tag_17\n      swap2\n      swap1\n      tag_18\n      jump\t// in\n    tag_17:\n      mload(0x40)\n      dup1\n      swap2\n      sub\n      swap1\n      return\n        /* \"contracts/OrganizationRegistry.sol\":240:293  mapping(uint256 => Organization) public organizations */\n    tag_6:\n      tag_19\n      0x04\n      dup1\n      calldatasize\n      sub\n      dup2\n      add\n      swap1\n      tag_20\n      swap2\n      swap1\n      tag_21\n      jump\t// in\n    tag_20:\n      tag_22\n      jump\t// in\n    tag_19:\n      mload(0x40)\n      tag_23\n      swap5\n      swap4\n      swap3\n      swap2\n      swap1\n      tag_24\n      jump\t// in\n    tag_23:\n      mload(0x40)\n      dup1\n      swap2\n      sub\n      swap1\n      return\n        /* \"contracts/OrganizationRegistry.sol\":741:984  function setOrgStatus(uint256 orgId, bool _status) external {... */\n    tag_10:\n        /* \"contracts/OrganizationRegistry.sol\":850:860  msg.sender */\n      caller\n        /* \"contracts/OrganizationRegistry.sol\":820:860  organizations[orgId].admin == msg.sender */\n      0xffffffffffffffffffffffffffffffffffffffff\n      and\n        /* \"contracts/OrganizationRegistry.sol\":820:833  organizations */\n      0x00\n        /* \"contracts/OrganizationRegistry.sol\":820:840  organizations[orgId] */\n      0x00\n        /* \"contracts/OrganizationRegistry.sol\":834:839  orgId */\n      dup5\n        /* \"contracts/OrganizationRegistry.sol\":820:840  organizations[orgId] */\n      dup2\n      mstore\n      0x20\n      add\n      swap1\n      dup2\n      mstore\n      0x20\n      add\n      0x00\n      keccak256\n        /* \"contracts/OrganizationRegistry.sol\":820:846  organizations[orgId].admin */\n      0x02\n      add\n      0x00\n      swap1\n      sload\n      swap1\n      0x0100\n      exp\n      swap1\n      div\n      0xffffffffffffffffffffffffffffffffffffffff\n      and\n        /* \"contracts/OrganizationRegistry.sol\":820:860  organizations[orgId].admin == msg.sender */\n      0xffffffffffffffffffffffffffffffffffffffff\n      and\n      eq\n        /* \"contracts/OrganizationRegistry.sol\":812:878  require(organizations[orgId].admin == msg.sender, \"Not org admin\") */\n      tag_26\n      jumpi\n      mload(0x40)\n      0x08c379a000000000000000000000000000000000000000000000000000000000\n      dup2\n      mstore\n      0x04\n      add\n      tag_27\n      swap1\n      tag_28\n      jump\t// in\n    tag_27:\n      mload(0x40)\n      dup1\n      swap2\n      sub\n      swap1\n      revert\n    tag_26:\n        /* \"contracts/OrganizationRegistry.sol\":921:928  _status */\n      dup1\n        /* \"contracts/OrganizationRegistry.sol\":889:902  organizations */\n      0x00\n        /* \"contracts/OrganizationRegistry.sol\":889:909  organizations[orgId] */\n      0x00\n        /* \"contracts/OrganizationRegistry.sol\":903:908  orgId */\n      dup5\n        /* \"contracts/OrganizationRegistry.sol\":889:909  organizations[orgId] */\n      dup2\n      mstore\n      0x20\n      add\n      swap1\n      dup2\n      mstore\n      0x20\n      add\n      0x00\n      keccak256\n        /* \"contracts/OrganizationRegistry.sol\":889:918  organizations[orgId].isActive */\n      0x02\n      add\n      0x14\n        /* \"contracts/OrganizationRegistry.sol\":889:928  organizations[orgId].isActive = _status */\n      0x0100\n      exp\n      dup2\n      sload\n      dup2\n      0xff\n      mul\n      not\n      and\n      swap1\n      dup4\n      iszero\n      iszero\n      mul\n      or\n      swap1\n      sstore\n      pop\n        /* \"contracts/OrganizationRegistry.sol\":944:976  OrgStatusUpdated(orgId, _status) */\n      0x3440ef9891ec4251d2fc050161c99925b429eae6c5a6cd2b9f8e1c10b06d97ad\n        /* \"contracts/OrganizationRegistry.sol\":961:966  orgId */\n      dup3\n        /* \"contracts/OrganizationRegistry.sol\":968:975  _status */\n      dup3\n        /* \"contracts/OrganizationRegistry.sol\":944:976  OrgStatusUpdated(orgId, _status) */\n      mload(0x40)\n      tag_29\n      swap3\n      swap2\n      swap1\n      tag_30\n      jump\t// in\n    tag_29:\n      mload(0x40)\n      dup1\n      swap2\n      sub\n      swap1\n      log1\n        /* \"contracts/OrganizationRegistry.sol\":741:984  function setOrgStatus(uint256 orgId, bool _status) external {... */\n      pop\n      pop\n      jump\t// out\n        /* \"contracts/OrganizationRegistry.sol\":458:733  function registerOrganization(bytes32 _nameHash, string memory _countryCode, address _admin) external {... */\n    tag_14:\n        /* \"contracts/OrganizationRegistry.sol\":571:579  orgCount */\n      0x01\n      0x00\n        /* \"contracts/OrganizationRegistry.sol\":571:581  orgCount++ */\n      dup2\n      sload\n      dup1\n      swap3\n      swap2\n      swap1\n      tag_32\n      swap1\n      tag_33\n      jump\t// in\n    tag_32:\n      swap2\n      swap1\n      pop\n      sstore\n      pop\n        /* \"contracts/OrganizationRegistry.sol\":618:669  Organization(_nameHash, _countryCode, _admin, true) */\n      mload(0x40)\n      dup1\n      0x80\n      add\n      0x40\n      mstore\n      dup1\n        /* \"contracts/OrganizationRegistry.sol\":631:640  _nameHash */\n      dup5\n        /* \"contracts/OrganizationRegistry.sol\":618:669  Organization(_nameHash, _countryCode, _admin, true) */\n      dup2\n      mstore\n      0x20\n      add\n        /* \"contracts/OrganizationRegistry.sol\":642:654  _countryCode */\n      dup4\n        /* \"contracts/OrganizationRegistry.sol\":618:669  Organization(_nameHash, _countryCode, _admin, true) */\n      dup2\n      mstore\n      0x20\n      add\n        /* \"contracts/OrganizationRegistry.sol\":656:662  _admin */\n      dup3\n        /* \"contracts/OrganizationRegistry.sol\":618:669  Organization(_nameHash, _countryCode, _admin, true) */\n      0xffffffffffffffffffffffffffffffffffffffff\n      and\n      dup2\n      mstore\n      0x20\n      add\n        /* \"contracts/OrganizationRegistry.sol\":664:668  true */\n      0x01\n        /* \"contracts/OrganizationRegistry.sol\":618:669  Organization(_nameHash, _countryCode, _admin, true) */\n      iszero\n      iszero\n      dup2\n      mstore\n      pop\n        /* \"contracts/OrganizationRegistry.sol\":592:605  organizations */\n      0x00\n        /* \"contracts/OrganizationRegistry.sol\":592:615  organizations[orgCount] */\n      0x00\n        /* \"contracts/OrganizationRegistry.sol\":606:614  orgCount */\n      sload(0x01)\n        /* \"contracts/OrganizationRegistry.sol\":592:615  organizations[orgCount] */\n      dup2\n      mstore\n      0x20\n      add\n      swap1\n      dup2\n      mstore\n      0x20\n      add\n      0x00\n      keccak256\n        /* \"contracts/OrganizationRegistry.sol\":592:669  organizations[orgCount] = Organization(_nameHash, _countryCode, _admin, true) */\n      0x00\n      dup3\n      add\n      mload\n      dup2\n      0x00\n      add\n      sstore\n      0x20\n      dup3\n      add\n      mload\n      dup2\n      0x01\n      add\n      swap1\n      dup2\n      tag_34\n      swap2\n      swap1\n      tag_35\n      jump\t// in\n    tag_34:\n      pop\n      0x40\n      dup3\n      add\n      mload\n      dup2\n      0x02\n      add\n      exp(0x0100, 0x00)\n      dup2\n      sload\n      dup2\n      0xffffffffffffffffffffffffffffffffffffffff\n      mul\n      not\n      and\n      swap1\n      dup4\n      0xffffffffffffffffffffffffffffffffffffffff\n      and\n      mul\n      or\n      swap1\n      sstore\n      pop\n      0x60\n      dup3\n      add\n      mload\n      dup2\n      0x02\n      add\n      exp(0x0100, 0x14)\n      dup2\n      sload\n      dup2\n      0xff\n      mul\n      not\n      and\n      swap1\n      dup4\n      iszero\n      iszero\n      mul\n      or\n      swap1\n      sstore\n      pop\n      swap1\n      pop\n      pop\n        /* \"contracts/OrganizationRegistry.sol\":685:725  OrganizationRegistered(orgCount, _admin) */\n      0xa50731478e093ef812ad88f0ac4a2f95748f45d0bfa999ea1ec9578d64bcccbc\n        /* \"contracts/OrganizationRegistry.sol\":708:716  orgCount */\n      sload(0x01)\n        /* \"contracts/OrganizationRegistry.sol\":718:724  _admin */\n      dup3\n        /* \"contracts/OrganizationRegistry.sol\":685:725  OrganizationRegistered(orgCount, _admin) */\n      mload(0x40)\n      tag_36\n      swap3\n      swap2\n      swap1\n      tag_37\n      jump\t// in\n    tag_36:\n      mload(0x40)\n      dup1\n      swap2\n      sub\n      swap1\n      log1\n        /* \"contracts/OrganizationRegistry.sol\":458:733  function registerOrganization(bytes32 _nameHash, string memory _countryCode, address _admin) external {... */\n      pop\n      pop\n      pop\n      jump\t// out\n        /* \"contracts/OrganizationRegistry.sol\":300:323  uint256 public orgCount */\n    tag_16:\n      sload(0x01)\n      dup2\n      jump\t// out\n        /* \"contracts/OrganizationRegistry.sol\":240:293  mapping(uint256 => Organization) public organizations */\n    tag_22:\n      mstore(0x20, 0x00)\n      dup1\n      0x00\n      mstore\n      keccak256(0x00, 0x40)\n      0x00\n      swap2\n      pop\n      swap1\n      pop\n      dup1\n      0x00\n      add\n      sload\n      swap1\n      dup1\n      0x01\n      add\n      dup1\n      sload\n      tag_38\n      swap1\n      tag_39\n      jump\t// in\n    tag_38:\n      dup1\n      0x1f\n      add\n      0x20\n      dup1\n      swap2\n      div\n      mul\n      0x20\n      add\n      mload(0x40)\n      swap1\n      dup2\n      add\n      0x40\n      mstore\n      dup1\n      swap3\n      swap2\n      swap1\n      dup2\n      dup2\n      mstore\n      0x20\n      add\n      dup3\n      dup1\n      sload\n      tag_40\n      swap1\n      tag_39\n      jump\t// in\n    tag_40:\n      dup1\n      iszero\n      tag_41\n      jumpi\n      dup1\n      0x1f\n      lt\n      tag_42\n      jumpi\n      0x0100\n      dup1\n      dup4\n      sload\n      div\n      mul\n      dup4\n      mstore\n      swap2\n      0x20\n      add\n      swap2\n      jump(tag_41)\n    tag_42:\n      dup3\n      add\n      swap2\n      swap1\n      0x00\n      mstore\n      keccak256(0x00, 0x20)\n      swap1\n    tag_43:\n      dup2\n      sload\n      dup2\n      mstore\n      swap1\n      0x01\n      add\n      swap1\n      0x20\n      add\n      dup1\n      dup4\n      gt\n      tag_43\n      jumpi\n      dup3\n      swap1\n      sub\n      0x1f\n      and\n      dup3\n      add\n      swap2\n    tag_41:\n      pop\n      pop\n      pop\n      pop\n      pop\n      swap1\n      dup1\n      0x02\n      add\n      0x00\n      swap1\n      sload\n      swap1\n      0x0100\n      exp\n      swap1\n      div\n      0xffffffffffffffffffffffffffffffffffffffff\n      and\n      swap1\n      dup1\n      0x02\n      add\n      0x14\n      swap1\n      sload\n      swap1\n      0x0100\n      exp\n      swap1\n      div\n      0xff\n      and\n      swap1\n      pop\n      dup5\n      jump\t// out\n        /* \"#utility.yul\":7:82   */\n    tag_44:\n        /* \"#utility.yul\":40:46   */\n      0x00\n        /* \"#utility.yul\":73:75   */\n      0x40\n        /* \"#utility.yul\":67:76   */\n      mload\n        /* \"#utility.yul\":57:76   */\n      swap1\n      pop\n        /* \"#utility.yul\":7:82   */\n      swap1\n      jump\t// out\n        /* \"#utility.yul\":88:205   */\n    tag_45:\n        /* \"#utility.yul\":197:198   */\n      0x00\n        /* \"#utility.yul\":194:195   */\n      0x00\n        /* \"#utility.yul\":187:199   */\n      revert\n        /* \"#utility.yul\":211:328   */\n    tag_46:\n        /* \"#utility.yul\":320:321   */\n      0x00\n        /* \"#utility.yul\":317:318   */\n      0x00\n        /* \"#utility.yul\":310:322   */\n      revert\n        /* \"#utility.yul\":334:411   */\n    tag_47:\n        /* \"#utility.yul\":371:378   */\n      0x00\n        /* \"#utility.yul\":400:405   */\n      dup2\n        /* \"#utility.yul\":389:405   */\n      swap1\n      pop\n        /* \"#utility.yul\":334:411   */\n      swap2\n      swap1\n      pop\n      jump\t// out\n        /* \"#utility.yul\":417:539   */\n    tag_48:\n        /* \"#utility.yul\":490:514   */\n      tag_103\n        /* \"#utility.yul\":508:513   */\n      dup2\n        /* \"#utility.yul\":490:514   */\n      tag_47\n      jump\t// in\n    tag_103:\n        /* \"#utility.yul\":483:488   */\n      dup2\n        /* \"#utility.yul\":480:515   */\n      eq\n        /* \"#utility.yul\":470:533   */\n      tag_104\n      jumpi\n        /* \"#utility.yul\":529:530   */\n      0x00\n        /* \"#utility.yul\":526:527   */\n      0x00\n        /* \"#utility.yul\":519:531   */\n      revert\n        /* \"#utility.yul\":470:533   */\n    tag_104:\n        /* \"#utility.yul\":417:539   */\n      pop\n      jump\t// out\n        /* \"#utility.yul\":545:684   */\n    tag_49:\n        /* \"#utility.yul\":591:596   */\n      0x00\n        /* \"#utility.yul\":629:635   */\n      dup2\n        /* \"#utility.yul\":616:636   */\n      calldataload\n        /* \"#utility.yul\":607:636   */\n      swap1\n      pop\n        /* \"#utility.yul\":645:678   */\n      tag_106\n        /* \"#utility.yul\":672:677   */\n      dup2\n        /* \"#utility.yul\":645:678   */\n      tag_48\n      jump\t// in\n    tag_106:\n        /* \"#utility.yul\":545:684   */\n      swap3\n      swap2\n      pop\n      pop\n      jump\t// out\n        /* \"#utility.yul\":690:780   */\n    tag_50:\n        /* \"#utility.yul\":724:731   */\n      0x00\n        /* \"#utility.yul\":767:772   */\n      dup2\n        /* \"#utility.yul\":760:773   */\n      iszero\n        /* \"#utility.yul\":753:774   */\n      iszero\n        /* \"#utility.yul\":742:774   */\n      swap1\n      pop\n        /* \"#utility.yul\":690:780   */\n      swap2\n      swap1\n      pop\n      jump\t// out\n        /* \"#utility.yul\":786:902   */\n    tag_51:\n        /* \"#utility.yul\":856:877   */\n      tag_109\n        /* \"#utility.yul\":871:876   */\n      dup2\n        /* \"#utility.yul\":856:877   */\n      tag_50\n      jump\t// in\n    tag_109:\n        /* \"#utility.yul\":849:854   */\n      dup2\n        /* \"#utility.yul\":846:878   */\n      eq\n        /* \"#utility.yul\":836:896   */\n      tag_110\n      jumpi\n        /* \"#utility.yul\":892:893   */\n      0x00\n        /* \"#utility.yul\":889:890   */\n      0x00\n        /* \"#utility.yul\":882:894   */\n      revert\n        /* \"#utility.yul\":836:896   */\n    tag_110:\n        /* \"#utility.yul\":786:902   */\n      pop\n      jump\t// out\n        /* \"#utility.yul\":908:1041   */\n    tag_52:\n        /* \"#utility.yul\":951:956   */\n      0x00\n        /* \"#utility.yul\":989:995   */\n      dup2\n        /* \"#utility.yul\":976:996   */\n      calldataload\n        /* \"#utility.yul\":967:996   */\n      swap1\n      pop\n        /* \"#utility.yul\":1005:1035   */\n      tag_112\n        /* \"#utility.yul\":1029:1034   */\n      dup2\n        /* \"#utility.yul\":1005:1035   */\n      tag_51\n      jump\t// in\n    tag_112:\n        /* \"#utility.yul\":908:1041   */\n      swap3\n      swap2\n      pop\n      pop\n      jump\t// out\n        /* \"#utility.yul\":1047:1515   */\n    tag_9:\n        /* \"#utility.yul\":1112:1118   */\n      0x00\n        /* \"#utility.yul\":1120:1126   */\n      0x00\n        /* \"#utility.yul\":1169:1171   */\n      0x40\n        /* \"#utility.yul\":1157:1166   */\n      dup4\n        /* \"#utility.yul\":1148:1155   */\n      dup6\n        /* \"#utility.yul\":1144:1167   */\n      sub\n        /* \"#utility.yul\":1140:1172   */\n      slt\n        /* \"#utility.yul\":1137:1256   */\n      iszero\n      tag_114\n      jumpi\n        /* \"#utility.yul\":1175:1254   */\n      tag_115\n      tag_45\n      jump\t// in\n    tag_115:\n        /* \"#utility.yul\":1137:1256   */\n    tag_114:\n        /* \"#utility.yul\":1295:1296   */\n      0x00\n        /* \"#utility.yul\":1320:1373   */\n      tag_116\n        /* \"#utility.yul\":1365:1372   */\n      dup6\n        /* \"#utility.yul\":1356:1362   */\n      dup3\n        /* \"#utility.yul\":1345:1354   */\n      dup7\n        /* \"#utility.yul\":1341:1363   */\n      add\n        /* \"#utility.yul\":1320:1373   */\n      tag_49\n      jump\t// in\n    tag_116:\n        /* \"#utility.yul\":1310:1373   */\n      swap3\n      pop\n        /* \"#utility.yul\":1266:1383   */\n      pop\n        /* \"#utility.yul\":1422:1424   */\n      0x20\n        /* \"#utility.yul\":1448:1498   */\n      tag_117\n        /* \"#utility.yul\":1490:1497   */\n      dup6\n        /* \"#utility.yul\":1481:1487   */\n      dup3\n        /* \"#utility.yul\":1470:1479   */\n      dup7\n        /* \"#utility.yul\":1466:1488   */\n      add\n        /* \"#utility.yul\":1448:1498   */\n      tag_52\n      jump\t// in\n    tag_117:\n        /* \"#utility.yul\":1438:1498   */\n      swap2\n      pop\n        /* \"#utility.yul\":1393:1508   */\n      pop\n        /* \"#utility.yul\":1047:1515   */\n      swap3\n      pop\n      swap3\n      swap1\n      pop\n      jump\t// out\n        /* \"#utility.yul\":1521:1598   */\n    tag_53:\n        /* \"#utility.yul\":1558:1565   */\n      0x00\n        /* \"#utility.yul\":1587:1592   */\n      dup2\n        /* \"#utility.yul\":1576:1592   */\n      swap1\n      pop\n        /* \"#utility.yul\":1521:1598   */\n      swap2\n      swap1\n      pop\n      jump\t// out\n        /* \"#utility.yul\":1604:1726   */\n    tag_54:\n        /* \"#utility.yul\":1677:1701   */\n      tag_120\n        /* \"#utility.yul\":1695:1700   */\n      dup2\n        /* \"#utility.yul\":1677:1701   */\n      tag_53\n      jump\t// in\n    tag_120:\n        /* \"#utility.yul\":1670:1675   */\n      dup2\n        /* \"#utility.yul\":1667:1702   */\n      eq\n        /* \"#utility.yul\":1657:1720   */\n      tag_121\n      jumpi\n        /* \"#utility.yul\":1716:1717   */\n      0x00\n        /* \"#utility.yul\":1713:1714   */\n      0x00\n        /* \"#utility.yul\":1706:1718   */\n      revert\n        /* \"#utility.yul\":1657:1720   */\n    tag_121:\n        /* \"#utility.yul\":1604:1726   */\n      pop\n      jump\t// out\n        /* \"#utility.yul\":1732:1871   */\n    tag_55:\n        /* \"#utility.yul\":1778:1783   */\n      0x00\n        /* \"#utility.yul\":1816:1822   */\n      dup2\n        /* \"#utility.yul\":1803:1823   */\n      calldataload\n        /* \"#utility.yul\":1794:1823   */\n      swap1\n      pop\n        /* \"#utility.yul\":1832:1865   */\n      tag_123\n        /* \"#utility.yul\":1859:1864   */\n      dup2\n        /* \"#utility.yul\":1832:1865   */\n      tag_54\n      jump\t// in\n    tag_123:\n        /* \"#utility.yul\":1732:1871   */\n      swap3\n      swap2\n      pop\n      pop\n      jump\t// out\n        /* \"#utility.yul\":1877:1994   */\n    tag_56:\n        /* \"#utility.yul\":1986:1987   */\n      0x00\n        /* \"#utility.yul\":1983:1984   */\n      0x00\n        /* \"#utility.yul\":1976:1988   */\n      revert\n        /* \"#utility.yul\":2000:2117   */\n    tag_57:\n        /* \"#utility.yul\":2109:2110   */\n      0x00\n        /* \"#utility.yul\":2106:2107   */\n      0x00\n        /* \"#utility.yul\":2099:2111   */\n      revert\n        /* \"#utility.yul\":2123:2225   */\n    tag_58:\n        /* \"#utility.yul\":2164:2170   */\n      0x00\n        /* \"#utility.yul\":2215:2217   */\n      0x1f\n        /* \"#utility.yul\":2211:2218   */\n      not\n        /* \"#utility.yul\":2206:2208   */\n      0x1f\n        /* \"#utility.yul\":2199:2204   */\n      dup4\n        /* \"#utility.yul\":2195:2209   */\n      add\n        /* \"#utility.yul\":2191:2219   */\n      and\n        /* \"#utility.yul\":2181:2219   */\n      swap1\n      pop\n        /* \"#utility.yul\":2123:2225   */\n      swap2\n      swap1\n      pop\n      jump\t// out\n        /* \"#utility.yul\":2231:2411   */\n    tag_59:\n        /* \"#utility.yul\":2279:2356   */\n      0x4e487b7100000000000000000000000000000000000000000000000000000000\n        /* \"#utility.yul\":2276:2277   */\n      0x00\n        /* \"#utility.yul\":2269:2357   */\n      mstore\n        /* \"#utility.yul\":2376:2380   */\n      0x41\n        /* \"#utility.yul\":2373:2374   */\n      0x04\n        /* \"#utility.yul\":2366:2381   */\n      mstore\n        /* \"#utility.yul\":2400:2404   */\n      0x24\n        /* \"#utility.yul\":2397:2398   */\n      0x00\n        /* \"#utility.yul\":2390:2405   */\n      revert\n        /* \"#utility.yul\":2417:2698   */\n    tag_60:\n        /* \"#utility.yul\":2500:2527   */\n      tag_129\n        /* \"#utility.yul\":2522:2526   */\n      dup3\n        /* \"#utility.yul\":2500:2527   */\n      tag_58\n      jump\t// in\n    tag_129:\n        /* \"#utility.yul\":2492:2498   */\n      dup2\n        /* \"#utility.yul\":2488:2528   */\n      add\n        /* \"#utility.yul\":2630:2636   */\n      dup2\n        /* \"#utility.yul\":2618:2628   */\n      dup2\n        /* \"#utility.yul\":2615:2637   */\n      lt\n        /* \"#utility.yul\":2594:2612   */\n      0xffffffffffffffff\n        /* \"#utility.yul\":2582:2592   */\n      dup3\n        /* \"#utility.yul\":2579:2613   */\n      gt\n        /* \"#utility.yul\":2576:2638   */\n      or\n        /* \"#utility.yul\":2573:2661   */\n      iszero\n      tag_130\n      jumpi\n        /* \"#utility.yul\":2641:2659   */\n      tag_131\n      tag_59\n      jump\t// in\n    tag_131:\n        /* \"#utility.yul\":2573:2661   */\n    tag_130:\n        /* \"#utility.yul\":2681:2691   */\n      dup1\n        /* \"#utility.yul\":2677:2679   */\n      0x40\n        /* \"#utility.yul\":2670:2692   */\n      mstore\n        /* \"#utility.yul\":2460:2698   */\n      pop\n        /* \"#utility.yul\":2417:2698   */\n      pop\n      pop\n      jump\t// out\n        /* \"#utility.yul\":2704:2833   */\n    tag_61:\n        /* \"#utility.yul\":2738:2744   */\n      0x00\n        /* \"#utility.yul\":2765:2785   */\n      tag_133\n      tag_44\n      jump\t// in\n    tag_133:\n        /* \"#utility.yul\":2755:2785   */\n      swap1\n      pop\n        /* \"#utility.yul\":2794:2827   */\n      tag_134\n        /* \"#utility.yul\":2822:2826   */\n      dup3\n        /* \"#utility.yul\":2814:2820   */\n      dup3\n        /* \"#utility.yul\":2794:2827   */\n      tag_60\n      jump\t// in\n    tag_134:\n        /* \"#utility.yul\":2704:2833   */\n      swap2\n      swap1\n      pop\n      jump\t// out\n        /* \"#utility.yul\":2839:3147   */\n    tag_62:\n        /* \"#utility.yul\":2901:2905   */\n      0x00\n        /* \"#utility.yul\":2991:3009   */\n      0xffffffffffffffff\n        /* \"#utility.yul\":2983:2989   */\n      dup3\n        /* \"#utility.yul\":2980:3010   */\n      gt\n        /* \"#utility.yul\":2977:3033   */\n      iszero\n      tag_136\n      jumpi\n        /* \"#utility.yul\":3013:3031   */\n      tag_137\n      tag_59\n      jump\t// in\n    tag_137:\n        /* \"#utility.yul\":2977:3033   */\n    tag_136:\n        /* \"#utility.yul\":3051:3080   */\n      tag_138\n        /* \"#utility.yul\":3073:3079   */\n      dup3\n        /* \"#utility.yul\":3051:3080   */\n      tag_58\n      jump\t// in\n    tag_138:\n        /* \"#utility.yul\":3043:3080   */\n      swap1\n      pop\n        /* \"#utility.yul\":3135:3139   */\n      0x20\n        /* \"#utility.yul\":3129:3133   */\n      dup2\n        /* \"#utility.yul\":3125:3140   */\n      add\n        /* \"#utility.yul\":3117:3140   */\n      swap1\n      pop\n        /* \"#utility.yul\":2839:3147   */\n      swap2\n      swap1\n      pop\n      jump\t// out\n        /* \"#utility.yul\":3153:3301   */\n    tag_63:\n        /* \"#utility.yul\":3251:3257   */\n      dup3\n        /* \"#utility.yul\":3246:3249   */\n      dup2\n        /* \"#utility.yul\":3241:3244   */\n      dup4\n        /* \"#utility.yul\":3228:3258   */\n      calldatacopy\n        /* \"#utility.yul\":3292:3293   */\n      0x00\n        /* \"#utility.yul\":3283:3289   */\n      dup4\n        /* \"#utility.yul\":3278:3281   */\n      dup4\n        /* \"#utility.yul\":3274:3290   */\n      add\n        /* \"#utility.yul\":3267:3294   */\n      mstore\n        /* \"#utility.yul\":3153:3301   */\n      pop\n      pop\n      pop\n      jump\t// out\n        /* \"#utility.yul\":3307:3732   */\n    tag_64:\n        /* \"#utility.yul\":3385:3390   */\n      0x00\n        /* \"#utility.yul\":3410:3476   */\n      tag_141\n        /* \"#utility.yul\":3426:3475   */\n      tag_142\n        /* \"#utility.yul\":3468:3474   */\n      dup5\n        /* \"#utility.yul\":3426:3475   */\n      tag_62\n      jump\t// in\n    tag_142:\n        /* \"#utility.yul\":3410:3476   */\n      tag_61\n      jump\t// in\n    tag_141:\n        /* \"#utility.yul\":3401:3476   */\n      swap1\n      pop\n        /* \"#utility.yul\":3499:3505   */\n      dup3\n        /* \"#utility.yul\":3492:3497   */\n      dup2\n        /* \"#utility.yul\":3485:3506   */\n      mstore\n        /* \"#utility.yul\":3537:3541   */\n      0x20\n        /* \"#utility.yul\":3530:3535   */\n      dup2\n        /* \"#utility.yul\":3526:3542   */\n      add\n        /* \"#utility.yul\":3575:3578   */\n      dup5\n        /* \"#utility.yul\":3566:3572   */\n      dup5\n        /* \"#utility.yul\":3561:3564   */\n      dup5\n        /* \"#utility.yul\":3557:3573   */\n      add\n        /* \"#utility.yul\":3554:3579   */\n      gt\n        /* \"#utility.yul\":3551:3663   */\n      iszero\n      tag_143\n      jumpi\n        /* \"#utility.yul\":3582:3661   */\n      tag_144\n      tag_57\n      jump\t// in\n    tag_144:\n        /* \"#utility.yul\":3551:3663   */\n    tag_143:\n        /* \"#utility.yul\":3672:3726   */\n      tag_145\n        /* \"#utility.yul\":3719:3725   */\n      dup5\n        /* \"#utility.yul\":3714:3717   */\n      dup3\n        /* \"#utility.yul\":3709:3712   */\n      dup6\n        /* \"#utility.yul\":3672:3726   */\n      tag_63\n      jump\t// in\n    tag_145:\n        /* \"#utility.yul\":3391:3732   */\n      pop\n        /* \"#utility.yul\":3307:3732   */\n      swap4\n      swap3\n      pop\n      pop\n      pop\n      jump\t// out\n        /* \"#utility.yul\":3752:4092   */\n    tag_65:\n        /* \"#utility.yul\":3808:3813   */\n      0x00\n        /* \"#utility.yul\":3857:3860   */\n      dup3\n        /* \"#utility.yul\":3850:3854   */\n      0x1f\n        /* \"#utility.yul\":3842:3848   */\n      dup4\n        /* \"#utility.yul\":3838:3855   */\n      add\n        /* \"#utility.yul\":3834:3861   */\n      slt\n        /* \"#utility.yul\":3824:3946   */\n      tag_147\n      jumpi\n        /* \"#utility.yul\":3865:3944   */\n      tag_148\n      tag_56\n      jump\t// in\n    tag_148:\n        /* \"#utility.yul\":3824:3946   */\n    tag_147:\n        /* \"#utility.yul\":3982:3988   */\n      dup2\n        /* \"#utility.yul\":3969:3989   */\n      calldataload\n        /* \"#utility.yul\":4007:4086   */\n      tag_149\n        /* \"#utility.yul\":4082:4085   */\n      dup5\n        /* \"#utility.yul\":4074:4080   */\n      dup3\n        /* \"#utility.yul\":4067:4071   */\n      0x20\n        /* \"#utility.yul\":4059:4065   */\n      dup7\n        /* \"#utility.yul\":4055:4072   */\n      add\n        /* \"#utility.yul\":4007:4086   */\n      tag_64\n      jump\t// in\n    tag_149:\n        /* \"#utility.yul\":3998:4086   */\n      swap2\n      pop\n        /* \"#utility.yul\":3814:4092   */\n      pop\n        /* \"#utility.yul\":3752:4092   */\n      swap3\n      swap2\n      pop\n      pop\n      jump\t// out\n        /* \"#utility.yul\":4098:4224   */\n    tag_66:\n        /* \"#utility.yul\":4135:4142   */\n      0x00\n        /* \"#utility.yul\":4175:4217   */\n      0xffffffffffffffffffffffffffffffffffffffff\n        /* \"#utility.yul\":4168:4173   */\n      dup3\n        /* \"#utility.yul\":4164:4218   */\n      and\n        /* \"#utility.yul\":4153:4218   */\n      swap1\n      pop\n        /* \"#utility.yul\":4098:4224   */\n      swap2\n      swap1\n      pop\n      jump\t// out\n        /* \"#utility.yul\":4230:4326   */\n    tag_67:\n        /* \"#utility.yul\":4267:4274   */\n      0x00\n        /* \"#utility.yul\":4296:4320   */\n      tag_152\n        /* \"#utility.yul\":4314:4319   */\n      dup3\n        /* \"#utility.yul\":4296:4320   */\n      tag_66\n      jump\t// in\n    tag_152:\n        /* \"#utility.yul\":4285:4320   */\n      swap1\n      pop\n        /* \"#utility.yul\":4230:4326   */\n      swap2\n      swap1\n      pop\n      jump\t// out\n        /* \"#utility.yul\":4332:4454   */\n    tag_68:\n        /* \"#utility.yul\":4405:4429   */\n      tag_154\n        /* \"#utility.yul\":4423:4428   */\n      dup2\n        /* \"#utility.yul\":4405:4429   */\n      tag_67\n      jump\t// in\n    tag_154:\n        /* \"#utility.yul\":4398:4403   */\n      dup2\n        /* \"#utility.yul\":4395:4430   */\n      eq\n        /* \"#utility.yul\":4385:4448   */\n      tag_155\n      jumpi\n        /* \"#utility.yul\":4444:4445   */\n      0x00\n        /* \"#utility.yul\":4441:4442   */\n      0x00\n        /* \"#utility.yul\":4434:4446   */\n      revert\n        /* \"#utility.yul\":4385:4448   */\n    tag_155:\n        /* \"#utility.yul\":4332:4454   */\n      pop\n      jump\t// out\n        /* \"#utility.yul\":4460:4599   */\n    tag_69:\n        /* \"#utility.yul\":4506:4511   */\n      0x00\n        /* \"#utility.yul\":4544:4550   */\n      dup2\n        /* \"#utility.yul\":4531:4551   */\n      calldataload\n        /* \"#utility.yul\":4522:4551   */\n      swap1\n      pop\n        /* \"#utility.yul\":4560:4593   */\n      tag_157\n        /* \"#utility.yul\":4587:4592   */\n      dup2\n        /* \"#utility.yul\":4560:4593   */\n      tag_68\n      jump\t// in\n    tag_157:\n        /* \"#utility.yul\":4460:4599   */\n      swap3\n      swap2\n      pop\n      pop\n      jump\t// out\n        /* \"#utility.yul\":4605:5404   */\n    tag_13:\n        /* \"#utility.yul\":4692:4698   */\n      0x00\n        /* \"#utility.yul\":4700:4706   */\n      0x00\n        /* \"#utility.yul\":4708:4714   */\n      0x00\n        /* \"#utility.yul\":4757:4759   */\n      0x60\n        /* \"#utility.yul\":4745:4754   */\n      dup5\n        /* \"#utility.yul\":4736:4743   */\n      dup7\n        /* \"#utility.yul\":4732:4755   */\n      sub\n        /* \"#utility.yul\":4728:4760   */\n      slt\n        /* \"#utility.yul\":4725:4844   */\n      iszero\n      tag_159\n      jumpi\n        /* \"#utility.yul\":4763:4842   */\n      tag_160\n      tag_45\n      jump\t// in\n    tag_160:\n        /* \"#utility.yul\":4725:4844   */\n    tag_159:\n        /* \"#utility.yul\":4883:4884   */\n      0x00\n        /* \"#utility.yul\":4908:4961   */\n      tag_161\n        /* \"#utility.yul\":4953:4960   */\n      dup7\n        /* \"#utility.yul\":4944:4950   */\n      dup3\n        /* \"#utility.yul\":4933:4942   */\n      dup8\n        /* \"#utility.yul\":4929:4951   */\n      add\n        /* \"#utility.yul\":4908:4961   */\n      tag_55\n      jump\t// in\n    tag_161:\n        /* \"#utility.yul\":4898:4961   */\n      swap4\n      pop\n        /* \"#utility.yul\":4854:4971   */\n      pop\n        /* \"#utility.yul\":5038:5040   */\n      0x20\n        /* \"#utility.yul\":5027:5036   */\n      dup5\n        /* \"#utility.yul\":5023:5041   */\n      add\n        /* \"#utility.yul\":5010:5042   */\n      calldataload\n        /* \"#utility.yul\":5069:5087   */\n      0xffffffffffffffff\n        /* \"#utility.yul\":5061:5067   */\n      dup2\n        /* \"#utility.yul\":5058:5088   */\n      gt\n        /* \"#utility.yul\":5055:5172   */\n      iszero\n      tag_162\n      jumpi\n        /* \"#utility.yul\":5091:5170   */\n      tag_163\n      tag_46\n      jump\t// in\n    tag_163:\n        /* \"#utility.yul\":5055:5172   */\n    tag_162:\n        /* \"#utility.yul\":5196:5259   */\n      tag_164\n        /* \"#utility.yul\":5251:5258   */\n      dup7\n        /* \"#utility.yul\":5242:5248   */\n      dup3\n        /* \"#utility.yul\":5231:5240   */\n      dup8\n        /* \"#utility.yul\":5227:5249   */\n      add\n        /* \"#utility.yul\":5196:5259   */\n      tag_65\n      jump\t// in\n    tag_164:\n        /* \"#utility.yul\":5186:5259   */\n      swap3\n      pop\n        /* \"#utility.yul\":4981:5269   */\n      pop\n        /* \"#utility.yul\":5308:5310   */\n      0x40\n        /* \"#utility.yul\":5334:5387   */\n      tag_165\n        /* \"#utility.yul\":5379:5386   */\n      dup7\n        /* \"#utility.yul\":5370:5376   */\n      dup3\n        /* \"#utility.yul\":5359:5368   */\n      dup8\n        /* \"#utility.yul\":5355:5377   */\n      add\n        /* \"#utility.yul\":5334:5387   */\n      tag_69\n      jump\t// in\n    tag_165:\n        /* \"#utility.yul\":5324:5387   */\n      swap2\n      pop\n        /* \"#utility.yul\":5279:5397   */\n      pop\n        /* \"#utility.yul\":4605:5404   */\n      swap3\n      pop\n      swap3\n      pop\n      swap3\n      jump\t// out\n        /* \"#utility.yul\":5410:5528   */\n    tag_70:\n        /* \"#utility.yul\":5497:5521   */\n      tag_167\n        /* \"#utility.yul\":5515:5520   */\n      dup2\n        /* \"#utility.yul\":5497:5521   */\n      tag_47\n      jump\t// in\n    tag_167:\n        /* \"#utility.yul\":5492:5495   */\n      dup3\n        /* \"#utility.yul\":5485:5522   */\n      mstore\n        /* \"#utility.yul\":5410:5528   */\n      pop\n      pop\n      jump\t// out\n        /* \"#utility.yul\":5534:5756   */\n    tag_18:\n        /* \"#utility.yul\":5627:5631   */\n      0x00\n        /* \"#utility.yul\":5665:5667   */\n      0x20\n        /* \"#utility.yul\":5654:5663   */\n      dup3\n        /* \"#utility.yul\":5650:5668   */\n      add\n        /* \"#utility.yul\":5642:5668   */\n      swap1\n      pop\n        /* \"#utility.yul\":5678:5749   */\n      tag_169\n        /* \"#utility.yul\":5746:5747   */\n      0x00\n        /* \"#utility.yul\":5735:5744   */\n      dup4\n        /* \"#utility.yul\":5731:5748   */\n      add\n        /* \"#utility.yul\":5722:5728   */\n      dup5\n        /* \"#utility.yul\":5678:5749   */\n      tag_70\n      jump\t// in\n    tag_169:\n        /* \"#utility.yul\":5534:5756   */\n      swap3\n      swap2\n      pop\n      pop\n      jump\t// out\n        /* \"#utility.yul\":5762:6091   */\n    tag_21:\n        /* \"#utility.yul\":5821:5827   */\n      0x00\n        /* \"#utility.yul\":5870:5872   */\n      0x20\n        /* \"#utility.yul\":5858:5867   */\n      dup3\n        /* \"#utility.yul\":5849:5856   */\n      dup5\n        /* \"#utility.yul\":5845:5868   */\n      sub\n        /* \"#utility.yul\":5841:5873   */\n      slt\n        /* \"#utility.yul\":5838:5957   */\n      iszero\n      tag_171\n      jumpi\n        /* \"#utility.yul\":5876:5955   */\n      tag_172\n      tag_45\n      jump\t// in\n    tag_172:\n        /* \"#utility.yul\":5838:5957   */\n    tag_171:\n        /* \"#utility.yul\":5996:5997   */\n      0x00\n        /* \"#utility.yul\":6021:6074   */\n      tag_173\n        /* \"#utility.yul\":6066:6073   */\n      dup5\n        /* \"#utility.yul\":6057:6063   */\n      dup3\n        /* \"#utility.yul\":6046:6055   */\n      dup6\n        /* \"#utility.yul\":6042:6064   */\n      add\n        /* \"#utility.yul\":6021:6074   */\n      tag_49\n      jump\t// in\n    tag_173:\n        /* \"#utility.yul\":6011:6074   */\n      swap2\n      pop\n        /* \"#utility.yul\":5967:6084   */\n      pop\n        /* \"#utility.yul\":5762:6091   */\n      swap3\n      swap2\n      pop\n      pop\n      jump\t// out\n        /* \"#utility.yul\":6097:6215   */\n    tag_71:\n        /* \"#utility.yul\":6184:6208   */\n      tag_175\n        /* \"#utility.yul\":6202:6207   */\n      dup2\n        /* \"#utility.yul\":6184:6208   */\n      tag_53\n      jump\t// in\n    tag_175:\n        /* \"#utility.yul\":6179:6182   */\n      dup3\n        /* \"#utility.yul\":6172:6209   */\n      mstore\n        /* \"#utility.yul\":6097:6215   */\n      pop\n      pop\n      jump\t// out\n        /* \"#utility.yul\":6221:6320   */\n    tag_72:\n        /* \"#utility.yul\":6273:6279   */\n      0x00\n        /* \"#utility.yul\":6307:6312   */\n      dup2\n        /* \"#utility.yul\":6301:6313   */\n      mload\n        /* \"#utility.yul\":6291:6313   */\n      swap1\n      pop\n        /* \"#utility.yul\":6221:6320   */\n      swap2\n      swap1\n      pop\n      jump\t// out\n        /* \"#utility.yul\":6326:6495   */\n    tag_73:\n        /* \"#utility.yul\":6410:6421   */\n      0x00\n        /* \"#utility.yul\":6444:6450   */\n      dup3\n        /* \"#utility.yul\":6439:6442   */\n      dup3\n        /* \"#utility.yul\":6432:6451   */\n      mstore\n        /* \"#utility.yul\":6484:6488   */\n      0x20\n        /* \"#utility.yul\":6479:6482   */\n      dup3\n        /* \"#utility.yul\":6475:6489   */\n      add\n        /* \"#utility.yul\":6460:6489   */\n      swap1\n      pop\n        /* \"#utility.yul\":6326:6495   */\n      swap3\n      swap2\n      pop\n      pop\n      jump\t// out\n        /* \"#utility.yul\":6501:6640   */\n    tag_74:\n        /* \"#utility.yul\":6590:6596   */\n      dup3\n        /* \"#utility.yul\":6585:6588   */\n      dup2\n        /* \"#utility.yul\":6580:6583   */\n      dup4\n        /* \"#utility.yul\":6574:6597   */\n      mcopy\n        /* \"#utility.yul\":6631:6632   */\n      0x00\n        /* \"#utility.yul\":6622:6628   */\n      dup4\n        /* \"#utility.yul\":6617:6620   */\n      dup4\n        /* \"#utility.yul\":6613:6629   */\n      add\n        /* \"#utility.yul\":6606:6633   */\n      mstore\n        /* \"#utility.yul\":6501:6640   */\n      pop\n      pop\n      pop\n      jump\t// out\n        /* \"#utility.yul\":6646:7023   */\n    tag_75:\n        /* \"#utility.yul\":6734:6737   */\n      0x00\n        /* \"#utility.yul\":6762:6801   */\n      tag_180\n        /* \"#utility.yul\":6795:6800   */\n      dup3\n        /* \"#utility.yul\":6762:6801   */\n      tag_72\n      jump\t// in\n    tag_180:\n        /* \"#utility.yul\":6817:6888   */\n      tag_181\n        /* \"#utility.yul\":6881:6887   */\n      dup2\n        /* \"#utility.yul\":6876:6879   */\n      dup6\n        /* \"#utility.yul\":6817:6888   */\n      tag_73\n      jump\t// in\n    tag_181:\n        /* \"#utility.yul\":6810:6888   */\n      swap4\n      pop\n        /* \"#utility.yul\":6897:6962   */\n      tag_182\n        /* \"#utility.yul\":6955:6961   */\n      dup2\n        /* \"#utility.yul\":6950:6953   */\n      dup6\n        /* \"#utility.yul\":6943:6947   */\n      0x20\n        /* \"#utility.yul\":6936:6941   */\n      dup7\n        /* \"#utility.yul\":6932:6948   */\n      add\n        /* \"#utility.yul\":6897:6962   */\n      tag_74\n      jump\t// in\n    tag_182:\n        /* \"#utility.yul\":6987:7016   */\n      tag_183\n        /* \"#utility.yul\":7009:7015   */\n      dup2\n        /* \"#utility.yul\":6987:7016   */\n      tag_58\n      jump\t// in\n    tag_183:\n        /* \"#utility.yul\":6982:6985   */\n      dup5\n        /* \"#utility.yul\":6978:7017   */\n      add\n        /* \"#utility.yul\":6971:7017   */\n      swap2\n      pop\n        /* \"#utility.yul\":6738:7023   */\n      pop\n        /* \"#utility.yul\":6646:7023   */\n      swap3\n      swap2\n      pop\n      pop\n      jump\t// out\n        /* \"#utility.yul\":7029:7147   */\n    tag_76:\n        /* \"#utility.yul\":7116:7140   */\n      tag_185\n        /* \"#utility.yul\":7134:7139   */\n      dup2\n        /* \"#utility.yul\":7116:7140   */\n      tag_67\n      jump\t// in\n    tag_185:\n        /* \"#utility.yul\":7111:7114   */\n      dup3\n        /* \"#utility.yul\":7104:7141   */\n      mstore\n        /* \"#utility.yul\":7029:7147   */\n      pop\n      pop\n      jump\t// out\n        /* \"#utility.yul\":7153:7262   */\n    tag_77:\n        /* \"#utility.yul\":7234:7255   */\n      tag_187\n        /* \"#utility.yul\":7249:7254   */\n      dup2\n        /* \"#utility.yul\":7234:7255   */\n      tag_50\n      jump\t// in\n    tag_187:\n        /* \"#utility.yul\":7229:7232   */\n      dup3\n        /* \"#utility.yul\":7222:7256   */\n      mstore\n        /* \"#utility.yul\":7153:7262   */\n      pop\n      pop\n      jump\t// out\n        /* \"#utility.yul\":7268:7900   */\n    tag_24:\n        /* \"#utility.yul\":7459:7463   */\n      0x00\n        /* \"#utility.yul\":7497:7500   */\n      0x80\n        /* \"#utility.yul\":7486:7495   */\n      dup3\n        /* \"#utility.yul\":7482:7501   */\n      add\n        /* \"#utility.yul\":7474:7501   */\n      swap1\n      pop\n        /* \"#utility.yul\":7511:7582   */\n      tag_189\n        /* \"#utility.yul\":7579:7580   */\n      0x00\n        /* \"#utility.yul\":7568:7577   */\n      dup4\n        /* \"#utility.yul\":7564:7581   */\n      add\n        /* \"#utility.yul\":7555:7561   */\n      dup8\n        /* \"#utility.yul\":7511:7582   */\n      tag_71\n      jump\t// in\n    tag_189:\n        /* \"#utility.yul\":7629:7638   */\n      dup2\n        /* \"#utility.yul\":7623:7627   */\n      dup2\n        /* \"#utility.yul\":7619:7639   */\n      sub\n        /* \"#utility.yul\":7614:7616   */\n      0x20\n        /* \"#utility.yul\":7603:7612   */\n      dup4\n        /* \"#utility.yul\":7599:7617   */\n      add\n        /* \"#utility.yul\":7592:7640   */\n      mstore\n        /* \"#utility.yul\":7657:7735   */\n      tag_190\n        /* \"#utility.yul\":7730:7734   */\n      dup2\n        /* \"#utility.yul\":7721:7727   */\n      dup7\n        /* \"#utility.yul\":7657:7735   */\n      tag_75\n      jump\t// in\n    tag_190:\n        /* \"#utility.yul\":7649:7735   */\n      swap1\n      pop\n        /* \"#utility.yul\":7745:7817   */\n      tag_191\n        /* \"#utility.yul\":7813:7815   */\n      0x40\n        /* \"#utility.yul\":7802:7811   */\n      dup4\n        /* \"#utility.yul\":7798:7816   */\n      add\n        /* \"#utility.yul\":7789:7795   */\n      dup6\n        /* \"#utility.yul\":7745:7817   */\n      tag_76\n      jump\t// in\n    tag_191:\n        /* \"#utility.yul\":7827:7893   */\n      tag_192\n        /* \"#utility.yul\":7889:7891   */\n      0x60\n        /* \"#utility.yul\":7878:7887   */\n      dup4\n        /* \"#utility.yul\":7874:7892   */\n      add\n        /* \"#utility.yul\":7865:7871   */\n      dup5\n        /* \"#utility.yul\":7827:7893   */\n      tag_77\n      jump\t// in\n    tag_192:\n        /* \"#utility.yul\":7268:7900   */\n      swap6\n      swap5\n      pop\n      pop\n      pop\n      pop\n      pop\n      jump\t// out\n        /* \"#utility.yul\":7906:8069   */\n    tag_78:\n        /* \"#utility.yul\":8046:8061   */\n      0x4e6f74206f72672061646d696e00000000000000000000000000000000000000\n        /* \"#utility.yul\":8042:8043   */\n      0x00\n        /* \"#utility.yul\":8034:8040   */\n      dup3\n        /* \"#utility.yul\":8030:8044   */\n      add\n        /* \"#utility.yul\":8023:8062   */\n      mstore\n        /* \"#utility.yul\":7906:8069   */\n      pop\n      jump\t// out\n        /* \"#utility.yul\":8075:8441   */\n    tag_79:\n        /* \"#utility.yul\":8217:8220   */\n      0x00\n        /* \"#utility.yul\":8238:8305   */\n      tag_195\n        /* \"#utility.yul\":8302:8304   */\n      0x0d\n        /* \"#utility.yul\":8297:8300   */\n      dup4\n        /* \"#utility.yul\":8238:8305   */\n      tag_73\n      jump\t// in\n    tag_195:\n        /* \"#utility.yul\":8231:8305   */\n      swap2\n      pop\n        /* \"#utility.yul\":8314:8407   */\n      tag_196\n        /* \"#utility.yul\":8403:8406   */\n      dup3\n        /* \"#utility.yul\":8314:8407   */\n      tag_78\n      jump\t// in\n    tag_196:\n        /* \"#utility.yul\":8432:8434   */\n      0x20\n        /* \"#utility.yul\":8427:8430   */\n      dup3\n        /* \"#utility.yul\":8423:8435   */\n      add\n        /* \"#utility.yul\":8416:8435   */\n      swap1\n      pop\n        /* \"#utility.yul\":8075:8441   */\n      swap2\n      swap1\n      pop\n      jump\t// out\n        /* \"#utility.yul\":8447:8866   */\n    tag_28:\n        /* \"#utility.yul\":8613:8617   */\n      0x00\n        /* \"#utility.yul\":8651:8653   */\n      0x20\n        /* \"#utility.yul\":8640:8649   */\n      dup3\n        /* \"#utility.yul\":8636:8654   */\n      add\n        /* \"#utility.yul\":8628:8654   */\n      swap1\n      pop\n        /* \"#utility.yul\":8700:8709   */\n      dup2\n        /* \"#utility.yul\":8694:8698   */\n      dup2\n        /* \"#utility.yul\":8690:8710   */\n      sub\n        /* \"#utility.yul\":8686:8687   */\n      0x00\n        /* \"#utility.yul\":8675:8684   */\n      dup4\n        /* \"#utility.yul\":8671:8688   */\n      add\n        /* \"#utility.yul\":8664:8711   */\n      mstore\n        /* \"#utility.yul\":8728:8859   */\n      tag_198\n        /* \"#utility.yul\":8854:8858   */\n      dup2\n        /* \"#utility.yul\":8728:8859   */\n      tag_79\n      jump\t// in\n    tag_198:\n        /* \"#utility.yul\":8720:8859   */\n      swap1\n      pop\n        /* \"#utility.yul\":8447:8866   */\n      swap2\n      swap1\n      pop\n      jump\t// out\n        /* \"#utility.yul\":8872:9192   */\n    tag_30:\n        /* \"#utility.yul\":8987:8991   */\n      0x00\n        /* \"#utility.yul\":9025:9027   */\n      0x40\n        /* \"#utility.yul\":9014:9023   */\n      dup3\n        /* \"#utility.yul\":9010:9028   */\n      add\n        /* \"#utility.yul\":9002:9028   */\n      swap1\n      pop\n        /* \"#utility.yul\":9038:9109   */\n      tag_200\n        /* \"#utility.yul\":9106:9107   */\n      0x00\n        /* \"#utility.yul\":9095:9104   */\n      dup4\n        /* \"#utility.yul\":9091:9108   */\n      add\n        /* \"#utility.yul\":9082:9088   */\n      dup6\n        /* \"#utility.yul\":9038:9109   */\n      tag_70\n      jump\t// in\n    tag_200:\n        /* \"#utility.yul\":9119:9185   */\n      tag_201\n        /* \"#utility.yul\":9181:9183   */\n      0x20\n        /* \"#utility.yul\":9170:9179   */\n      dup4\n        /* \"#utility.yul\":9166:9184   */\n      add\n        /* \"#utility.yul\":9157:9163   */\n      dup5\n        /* \"#utility.yul\":9119:9185   */\n      tag_77\n      jump\t// in\n    tag_201:\n        /* \"#utility.yul\":8872:9192   */\n      swap4\n      swap3\n      pop\n      pop\n      pop\n      jump\t// out\n        /* \"#utility.yul\":9198:9378   */\n    tag_80:\n        /* \"#utility.yul\":9246:9323   */\n      0x4e487b7100000000000000000000000000000000000000000000000000000000\n        /* \"#utility.yul\":9243:9244   */\n      0x00\n        /* \"#utility.yul\":9236:9324   */\n      mstore\n        /* \"#utility.yul\":9343:9347   */\n      0x11\n        /* \"#utility.yul\":9340:9341   */\n      0x04\n        /* \"#utility.yul\":9333:9348   */\n      mstore\n        /* \"#utility.yul\":9367:9371   */\n      0x24\n        /* \"#utility.yul\":9364:9365   */\n      0x00\n        /* \"#utility.yul\":9357:9372   */\n      revert\n        /* \"#utility.yul\":9384:9617   */\n    tag_33:\n        /* \"#utility.yul\":9423:9426   */\n      0x00\n        /* \"#utility.yul\":9446:9470   */\n      tag_204\n        /* \"#utility.yul\":9464:9469   */\n      dup3\n        /* \"#utility.yul\":9446:9470   */\n      tag_47\n      jump\t// in\n    tag_204:\n        /* \"#utility.yul\":9437:9470   */\n      swap2\n      pop\n        /* \"#utility.yul\":9492:9558   */\n      0xffffffffffffffffffffffffffffffffffffffffffffffffffffffffffffffff\n        /* \"#utility.yul\":9485:9490   */\n      dup3\n        /* \"#utility.yul\":9482:9559   */\n      sub\n        /* \"#utility.yul\":9479:9582   */\n      tag_205\n      jumpi\n        /* \"#utility.yul\":9562:9580   */\n      tag_206\n      tag_80\n      jump\t// in\n    tag_206:\n        /* \"#utility.yul\":9479:9582   */\n    tag_205:\n        /* \"#utility.yul\":9609:9610   */\n      0x01\n        /* \"#utility.yul\":9602:9607   */\n      dup3\n        /* \"#utility.yul\":9598:9611   */\n      add\n        /* \"#utility.yul\":9591:9611   */\n      swap1\n      pop\n        /* \"#utility.yul\":9384:9617   */\n      swap2\n      swap1\n      pop\n      jump\t// out\n        /* \"#utility.yul\":9623:9803   */\n    tag_81:\n        /* \"#utility.yul\":9671:9748   */\n      0x4e487b7100000000000000000000000000000000000000000000000000000000\n        /* \"#utility.yul\":9668:9669   */\n      0x00\n        /* \"#utility.yul\":9661:9749   */\n      mstore\n        /* \"#utility.yul\":9768:9772   */\n      0x22\n        /* \"#utility.yul\":9765:9766   */\n      0x04\n        /* \"#utility.yul\":9758:9773   */\n      mstore\n        /* \"#utility.yul\":9792:9796   */\n      0x24\n        /* \"#utility.yul\":9789:9790   */\n      0x00\n        /* \"#utility.yul\":9782:9797   */\n      revert\n        /* \"#utility.yul\":9809:10129   */\n    tag_39:\n        /* \"#utility.yul\":9853:9859   */\n      0x00\n        /* \"#utility.yul\":9890:9891   */\n      0x02\n        /* \"#utility.yul\":9884:9888   */\n      dup3\n        /* \"#utility.yul\":9880:9892   */\n      div\n        /* \"#utility.yul\":9870:9892   */\n      swap1\n      pop\n        /* \"#utility.yul\":9937:9938   */\n      0x01\n        /* \"#utility.yul\":9931:9935   */\n      dup3\n        /* \"#utility.yul\":9927:9939   */\n      and\n        /* \"#utility.yul\":9958:9976   */\n      dup1\n        /* \"#utility.yul\":9948:10029   */\n      tag_209\n      jumpi\n        /* \"#utility.yul\":10014:10018   */\n      0x7f\n        /* \"#utility.yul\":10006:10012   */\n      dup3\n        /* \"#utility.yul\":10002:10019   */\n      and\n        /* \"#utility.yul\":9992:10019   */\n      swap2\n      pop\n        /* \"#utility.yul\":9948:10029   */\n    tag_209:\n        /* \"#utility.yul\":10076:10078   */\n      0x20\n        /* \"#utility.yul\":10068:10074   */\n      dup3\n        /* \"#utility.yul\":10065:10079   */\n      lt\n        /* \"#utility.yul\":10045:10063   */\n      dup2\n        /* \"#utility.yul\":10042:10080   */\n      sub\n        /* \"#utility.yul\":10039:10123   */\n      tag_210\n      jumpi\n        /* \"#utility.yul\":10095:10113   */\n      tag_211\n      tag_81\n      jump\t// in\n    tag_211:\n        /* \"#utility.yul\":10039:10123   */\n    tag_210:\n        /* \"#utility.yul\":9860:10129   */\n      pop\n        /* \"#utility.yul\":9809:10129   */\n      swap2\n      swap1\n      pop\n      jump\t// out\n        /* \"#utility.yul\":10135:10276   */\n    tag_82:\n        /* \"#utility.yul\":10184:10188   */\n      0x00\n        /* \"#utility.yul\":10207:10210   */\n      dup2\n        /* \"#utility.yul\":10199:10210   */\n      swap1\n      pop\n        /* \"#utility.yul\":10230:10233   */\n      dup2\n        /* \"#utility.yul\":10227:10228   */\n      0x00\n        /* \"#utility.yul\":10220:10234   */\n      mstore\n        /* \"#utility.yul\":10264:10268   */\n      0x20\n        /* \"#utility.yul\":10261:10262   */\n      0x00\n        /* \"#utility.yul\":10251:10269   */\n      keccak256\n        /* \"#utility.yul\":10243:10269   */\n      swap1\n      pop\n        /* \"#utility.yul\":10135:10276   */\n      swap2\n      swap1\n      pop\n      jump\t// out\n        /* \"#utility.yul\":10282:10375   */\n    tag_83:\n        /* \"#utility.yul\":10319:10325   */\n      0x00\n        /* \"#utility.yul\":10366:10368   */\n      0x20\n        /* \"#utility.yul\":10361:10363   */\n      0x1f\n        /* \"#utility.yul\":10354:10359   */\n      dup4\n        /* \"#utility.yul\":10350:10364   */\n      add\n        /* \"#utility.yul\":10346:10369   */\n      div\n        /* \"#utility.yul\":10336:10369   */\n      swap1\n      pop\n        /* \"#utility.yul\":10282:10375   */\n      swap2\n      swap1\n      pop\n      jump\t// out\n        /* \"#utility.yul\":10381:10488   */\n    tag_84:\n        /* \"#utility.yul\":10425:10433   */\n      0x00\n        /* \"#utility.yul\":10475:10480   */\n      dup3\n        /* \"#utility.yul\":10469:10473   */\n      dup3\n        /* \"#utility.yul\":10465:10481   */\n      shl\n        /* \"#utility.yul\":10444:10481   */\n      swap1\n      pop\n        /* \"#utility.yul\":10381:10488   */\n      swap3\n      swap2\n      pop\n      pop\n      jump\t// out\n        /* \"#utility.yul\":10494:10887   */\n    tag_85:\n        /* \"#utility.yul\":10563:10569   */\n      0x00\n        /* \"#utility.yul\":10613:10614   */\n      0x08\n        /* \"#utility.yul\":10601:10611   */\n      dup4\n        /* \"#utility.yul\":10597:10615   */\n      mul\n        /* \"#utility.yul\":10636:10733   */\n      tag_216\n        /* \"#utility.yul\":10666:10732   */\n      0xffffffffffffffffffffffffffffffffffffffffffffffffffffffffffffffff\n        /* \"#utility.yul\":10655:10664   */\n      dup3\n        /* \"#utility.yul\":10636:10733   */\n      tag_84\n      jump\t// in\n    tag_216:\n        /* \"#utility.yul\":10754:10793   */\n      tag_217\n        /* \"#utility.yul\":10784:10792   */\n      dup7\n        /* \"#utility.yul\":10773:10782   */\n      dup4\n        /* \"#utility.yul\":10754:10793   */\n      tag_84\n      jump\t// in\n    tag_217:\n        /* \"#utility.yul\":10742:10793   */\n      swap6\n      pop\n        /* \"#utility.yul\":10826:10830   */\n      dup1\n        /* \"#utility.yul\":10822:10831   */\n      not\n        /* \"#utility.yul\":10815:10820   */\n      dup5\n        /* \"#utility.yul\":10811:10832   */\n      and\n        /* \"#utility.yul\":10802:10832   */\n      swap4\n      pop\n        /* \"#utility.yul\":10875:10879   */\n      dup1\n        /* \"#utility.yul\":10865:10873   */\n      dup7\n        /* \"#utility.yul\":10861:10880   */\n      and\n        /* \"#utility.yul\":10854:10859   */\n      dup5\n        /* \"#utility.yul\":10851:10881   */\n      or\n        /* \"#utility.yul\":10841:10881   */\n      swap3\n      pop\n        /* \"#utility.yul\":10570:10887   */\n      pop\n      pop\n        /* \"#utility.yul\":10494:10887   */\n      swap4\n      swap3\n      pop\n      pop\n      pop\n      jump\t// out\n        /* \"#utility.yul\":10893:10953   */\n    tag_86:\n        /* \"#utility.yul\":10921:10924   */\n      0x00\n        /* \"#utility.yul\":10942:10947   */\n      dup2\n        /* \"#utility.yul\":10935:10947   */\n      swap1\n      pop\n        /* \"#utility.yul\":10893:10953   */\n      swap2\n      swap1\n      pop\n      jump\t// out\n        /* \"#utility.yul\":10959:11101   */\n    tag_87:\n        /* \"#utility.yul\":11009:11018   */\n      0x00\n        /* \"#utility.yul\":11042:11095   */\n      tag_220\n        /* \"#utility.yul\":11060:11094   */\n      tag_221\n        /* \"#utility.yul\":11069:11093   */\n      tag_222\n        /* \"#utility.yul\":11087:11092   */\n      dup5\n        /* \"#utility.yul\":11069:11093   */\n      tag_47\n      jump\t// in\n    tag_222:\n        /* \"#utility.yul\":11060:11094   */\n      tag_86\n      jump\t// in\n    tag_221:\n        /* \"#utility.yul\":11042:11095   */\n      tag_47\n      jump\t// in\n    tag_220:\n        /* \"#utility.yul\":11029:11095   */\n      swap1\n      pop\n        /* \"#utility.yul\":10959:11101   */\n      swap2\n      swap1\n      pop\n      jump\t// out\n        /* \"#utility.yul\":11107:11182   */\n    tag_88:\n        /* \"#utility.yul\":11150:11153   */\n      0x00\n        /* \"#utility.yul\":11171:11176   */\n      dup2\n        /* \"#utility.yul\":11164:11176   */\n      swap1\n      pop\n        /* \"#utility.yul\":11107:11182   */\n      swap2\n      swap1\n      pop\n      jump\t// out\n        /* \"#utility.yul\":11188:11457   */\n    tag_89:\n        /* \"#utility.yul\":11298:11337   */\n      tag_225\n        /* \"#utility.yul\":11329:11336   */\n      dup4\n        /* \"#utility.yul\":11298:11337   */\n      tag_87\n      jump\t// in\n    tag_225:\n        /* \"#utility.yul\":11359:11450   */\n      tag_226\n        /* \"#utility.yul\":11408:11449   */\n      tag_227\n        /* \"#utility.yul\":11432:11448   */\n      dup3\n        /* \"#utility.yul\":11408:11449   */\n      tag_88\n      jump\t// in\n    tag_227:\n        /* \"#utility.yul\":11400:11406   */\n      dup5\n        /* \"#utility.yul\":11393:11397   */\n      dup5\n        /* \"#utility.yul\":11387:11398   */\n      sload\n        /* \"#utility.yul\":11359:11450   */\n      tag_85\n      jump\t// in\n    tag_226:\n        /* \"#utility.yul\":11353:11357   */\n      dup3\n        /* \"#utility.yul\":11346:11451   */\n      sstore\n        /* \"#utility.yul\":11264:11457   */\n      pop\n        /* \"#utility.yul\":11188:11457   */\n      pop\n      pop\n      pop\n      jump\t// out\n        /* \"#utility.yul\":11463:11536   */\n    tag_90:\n        /* \"#utility.yul\":11508:11511   */\n      0x00\n        /* \"#utility.yul\":11529:11530   */\n      0x00\n        /* \"#utility.yul\":11522:11530   */\n      swap1\n      pop\n        /* \"#utility.yul\":11463:11536   */\n      swap1\n      jump\t// out\n        /* \"#utility.yul\":11542:11731   */\n    tag_91:\n        /* \"#utility.yul\":11619:11651   */\n      tag_230\n      tag_90\n      jump\t// in\n    tag_230:\n        /* \"#utility.yul\":11660:11725   */\n      tag_231\n        /* \"#utility.yul\":11718:11724   */\n      dup2\n        /* \"#utility.yul\":11710:11716   */\n      dup5\n        /* \"#utility.yul\":11704:11708   */\n      dup5\n        /* \"#utility.yul\":11660:11725   */\n      tag_89\n      jump\t// in\n    tag_231:\n        /* \"#utility.yul\":11595:11731   */\n      pop\n        /* \"#utility.yul\":11542:11731   */\n      pop\n      pop\n      jump\t// out\n        /* \"#utility.yul\":11737:11923   */\n    tag_92:\n        /* \"#utility.yul\":11797:11917   */\n    tag_233:\n        /* \"#utility.yul\":11814:11817   */\n      dup2\n        /* \"#utility.yul\":11807:11812   */\n      dup2\n        /* \"#utility.yul\":11804:11818   */\n      lt\n        /* \"#utility.yul\":11797:11917   */\n      iszero\n      tag_235\n      jumpi\n        /* \"#utility.yul\":11868:11907   */\n      tag_236\n        /* \"#utility.yul\":11905:11906   */\n      0x00\n        /* \"#utility.yul\":11898:11903   */\n      dup3\n        /* \"#utility.yul\":11868:11907   */\n      tag_91\n      jump\t// in\n    tag_236:\n        /* \"#utility.yul\":11841:11842   */\n      0x01\n        /* \"#utility.yul\":11834:11839   */\n      dup2\n        /* \"#utility.yul\":11830:11843   */\n      add\n        /* \"#utility.yul\":11821:11843   */\n      swap1\n      pop\n        /* \"#utility.yul\":11797:11917   */\n      jump(tag_233)\n    tag_235:\n        /* \"#utility.yul\":11737:11923   */\n      pop\n      pop\n      jump\t// out\n        /* \"#utility.yul\":11929:12472   */\n    tag_93:\n        /* \"#utility.yul\":12030:12032   */\n      0x1f\n        /* \"#utility.yul\":12025:12028   */\n      dup3\n        /* \"#utility.yul\":12022:12033   */\n      gt\n        /* \"#utility.yul\":12019:12465   */\n      iszero\n      tag_238\n      jumpi\n        /* \"#utility.yul\":12064:12102   */\n      tag_239\n        /* \"#utility.yul\":12096:12101   */\n      dup2\n        /* \"#utility.yul\":12064:12102   */\n      tag_82\n      jump\t// in\n    tag_239:\n        /* \"#utility.yul\":12148:12177   */\n      tag_240\n        /* \"#utility.yul\":12166:12176   */\n      dup5\n        /* \"#utility.yul\":12148:12177   */\n      tag_83\n      jump\t// in\n    tag_240:\n        /* \"#utility.yul\":12138:12146   */\n      dup2\n        /* \"#utility.yul\":12134:12178   */\n      add\n        /* \"#utility.yul\":12331:12333   */\n      0x20\n        /* \"#utility.yul\":12319:12329   */\n      dup6\n        /* \"#utility.yul\":12316:12334   */\n      lt\n        /* \"#utility.yul\":12313:12362   */\n      iszero\n      tag_241\n      jumpi\n        /* \"#utility.yul\":12352:12360   */\n      dup2\n        /* \"#utility.yul\":12337:12360   */\n      swap1\n      pop\n        /* \"#utility.yul\":12313:12362   */\n    tag_241:\n        /* \"#utility.yul\":12375:12455   */\n      tag_242\n        /* \"#utility.yul\":12431:12453   */\n      tag_243\n        /* \"#utility.yul\":12449:12452   */\n      dup6\n        /* \"#utility.yul\":12431:12453   */\n      tag_83\n      jump\t// in\n    tag_243:\n        /* \"#utility.yul\":12421:12429   */\n      dup4\n        /* \"#utility.yul\":12417:12454   */\n      add\n        /* \"#utility.yul\":12404:12415   */\n      dup3\n        /* \"#utility.yul\":12375:12455   */\n      tag_92\n      jump\t// in\n    tag_242:\n        /* \"#utility.yul\":12034:12465   */\n      pop\n      pop\n        /* \"#utility.yul\":12019:12465   */\n    tag_238:\n        /* \"#utility.yul\":11929:12472   */\n      pop\n      pop\n      pop\n      jump\t// out\n        /* \"#utility.yul\":12478:12595   */\n    tag_94:\n        /* \"#utility.yul\":12532:12540   */\n      0x00\n        /* \"#utility.yul\":12582:12587   */\n      dup3\n        /* \"#utility.yul\":12576:12580   */\n      dup3\n        /* \"#utility.yul\":12572:12588   */\n      shr\n        /* \"#utility.yul\":12551:12588   */\n      swap1\n      pop\n        /* \"#utility.yul\":12478:12595   */\n      swap3\n      swap2\n      pop\n      pop\n      jump\t// out\n        /* \"#utility.yul\":12601:12770   */\n    tag_95:\n        /* \"#utility.yul\":12645:12651   */\n      0x00\n        /* \"#utility.yul\":12678:12729   */\n      tag_246\n        /* \"#utility.yul\":12726:12727   */\n      0x00\n        /* \"#utility.yul\":12722:12728   */\n      not\n        /* \"#utility.yul\":12714:12719   */\n      dup5\n        /* \"#utility.yul\":12711:12712   */\n      0x08\n        /* \"#utility.yul\":12707:12720   */\n      mul\n        /* \"#utility.yul\":12678:12729   */\n      tag_94\n      jump\t// in\n    tag_246:\n        /* \"#utility.yul\":12674:12730   */\n      not\n        /* \"#utility.yul\":12759:12763   */\n      dup1\n        /* \"#utility.yul\":12753:12757   */\n      dup4\n        /* \"#utility.yul\":12749:12764   */\n      and\n        /* \"#utility.yul\":12739:12764   */\n      swap2\n      pop\n        /* \"#utility.yul\":12652:12770   */\n      pop\n        /* \"#utility.yul\":12601:12770   */\n      swap3\n      swap2\n      pop\n      pop\n      jump\t// out\n        /* \"#utility.yul\":12775:13070   */\n    tag_96:\n        /* \"#utility.yul\":12851:12855   */\n      0x00\n        /* \"#utility.yul\":12997:13026   */\n      tag_248\n        /* \"#utility.yul\":13022:13025   */\n      dup4\n        /* \"#utility.yul\":13016:13020   */\n      dup4\n        /* \"#utility.yul\":12997:13026   */\n      tag_95\n      jump\t// in\n    tag_248:\n        /* \"#utility.yul\":12989:13026   */\n      swap2\n      pop\n        /* \"#utility.yul\":13059:13062   */\n      dup3\n        /* \"#utility.yul\":13056:13057   */\n      0x02\n        /* \"#utility.yul\":13052:13063   */\n      mul\n        /* \"#utility.yul\":13046:13050   */\n      dup3\n        /* \"#utility.yul\":13043:13064   */\n      or\n        /* \"#utility.yul\":13035:13064   */\n      swap1\n      pop\n        /* \"#utility.yul\":12775:13070   */\n      swap3\n      swap2\n      pop\n      pop\n      jump\t// out\n        /* \"#utility.yul\":13075:14470   */\n    tag_35:\n        /* \"#utility.yul\":13192:13229   */\n      tag_250\n        /* \"#utility.yul\":13225:13228   */\n      dup3\n        /* \"#utility.yul\":13192:13229   */\n      tag_72\n      jump\t// in\n    tag_250:\n        /* \"#utility.yul\":13294:13312   */\n      0xffffffffffffffff\n        /* \"#utility.yul\":13286:13292   */\n      dup2\n        /* \"#utility.yul\":13283:13313   */\n      gt\n        /* \"#utility.yul\":13280:13336   */\n      iszero\n      tag_251\n      jumpi\n        /* \"#utility.yul\":13316:13334   */\n      tag_252\n      tag_59\n      jump\t// in\n    tag_252:\n        /* \"#utility.yul\":13280:13336   */\n    tag_251:\n        /* \"#utility.yul\":13360:13398   */\n      tag_253\n        /* \"#utility.yul\":13392:13396   */\n      dup3\n        /* \"#utility.yul\":13386:13397   */\n      sload\n        /* \"#utility.yul\":13360:13398   */\n      tag_39\n      jump\t// in\n    tag_253:\n        /* \"#utility.yul\":13445:13512   */\n      tag_254\n        /* \"#utility.yul\":13505:13511   */\n      dup3\n        /* \"#utility.yul\":13497:13503   */\n      dup3\n        /* \"#utility.yul\":13491:13495   */\n      dup6\n        /* \"#utility.yul\":13445:13512   */\n      tag_93\n      jump\t// in\n    tag_254:\n        /* \"#utility.yul\":13539:13540   */\n      0x00\n        /* \"#utility.yul\":13563:13567   */\n      0x20\n        /* \"#utility.yul\":13550:13567   */\n      swap1\n      pop\n        /* \"#utility.yul\":13595:13597   */\n      0x1f\n        /* \"#utility.yul\":13587:13593   */\n      dup4\n        /* \"#utility.yul\":13584:13598   */\n      gt\n        /* \"#utility.yul\":13612:13613   */\n      0x01\n        /* \"#utility.yul\":13607:14225   */\n      dup2\n      eq\n      tag_256\n      jumpi\n        /* \"#utility.yul\":14269:14270   */\n      0x00\n        /* \"#utility.yul\":14286:14292   */\n      dup5\n        /* \"#utility.yul\":14283:14360   */\n      iszero\n      tag_257\n      jumpi\n        /* \"#utility.yul\":14335:14344   */\n      dup3\n        /* \"#utility.yul\":14330:14333   */\n      dup8\n        /* \"#utility.yul\":14326:14345   */\n      add\n        /* \"#utility.yul\":14320:14346   */\n      mload\n        /* \"#utility.yul\":14311:14346   */\n      swap1\n      pop\n        /* \"#utility.yul\":14283:14360   */\n    tag_257:\n        /* \"#utility.yul\":14386:14453   */\n      tag_258\n        /* \"#utility.yul\":14446:14452   */\n      dup6\n        /* \"#utility.yul\":14439:14444   */\n      dup3\n        /* \"#utility.yul\":14386:14453   */\n      tag_96\n      jump\t// in\n    tag_258:\n        /* \"#utility.yul\":14380:14384   */\n      dup7\n        /* \"#utility.yul\":14373:14454   */\n      sstore\n        /* \"#utility.yul\":14242:14464   */\n      pop\n        /* \"#utility.yul\":13577:14464   */\n      jump(tag_255)\n        /* \"#utility.yul\":13607:14225   */\n    tag_256:\n        /* \"#utility.yul\":13659:13663   */\n      0x1f\n        /* \"#utility.yul\":13655:13664   */\n      not\n        /* \"#utility.yul\":13647:13653   */\n      dup5\n        /* \"#utility.yul\":13643:13665   */\n      and\n        /* \"#utility.yul\":13693:13730   */\n      tag_259\n        /* \"#utility.yul\":13725:13729   */\n      dup7\n        /* \"#utility.yul\":13693:13730   */\n      tag_82\n      jump\t// in\n    tag_259:\n        /* \"#utility.yul\":13752:13753   */\n      0x00\n        /* \"#utility.yul\":13766:13974   */\n    tag_260:\n        /* \"#utility.yul\":13780:13787   */\n      dup3\n        /* \"#utility.yul\":13777:13778   */\n      dup2\n        /* \"#utility.yul\":13774:13788   */\n      lt\n        /* \"#utility.yul\":13766:13974   */\n      iszero\n      tag_262\n      jumpi\n        /* \"#utility.yul\":13859:13868   */\n      dup5\n        /* \"#utility.yul\":13854:13857   */\n      dup10\n        /* \"#utility.yul\":13850:13869   */\n      add\n        /* \"#utility.yul\":13844:13870   */\n      mload\n        /* \"#utility.yul\":13836:13842   */\n      dup3\n        /* \"#utility.yul\":13829:13871   */\n      sstore\n        /* \"#utility.yul\":13910:13911   */\n      0x01\n        /* \"#utility.yul\":13902:13908   */\n      dup3\n        /* \"#utility.yul\":13898:13912   */\n      add\n        /* \"#utility.yul\":13888:13912   */\n      swap2\n      pop\n        /* \"#utility.yul\":13957:13959   */\n      0x20\n        /* \"#utility.yul\":13946:13955   */\n      dup6\n        /* \"#utility.yul\":13942:13960   */\n      add\n        /* \"#utility.yul\":13929:13960   */\n      swap5\n      pop\n        /* \"#utility.yul\":13803:13807   */\n      0x20\n        /* \"#utility.yul\":13800:13801   */\n      dup2\n        /* \"#utility.yul\":13796:13808   */\n      add\n        /* \"#utility.yul\":13791:13808   */\n      swap1\n      pop\n        /* \"#utility.yul\":13766:13974   */\n      jump(tag_260)\n    tag_262:\n        /* \"#utility.yul\":14002:14008   */\n      dup7\n        /* \"#utility.yul\":13993:14000   */\n      dup4\n        /* \"#utility.yul\":13990:14009   */\n      lt\n        /* \"#utility.yul\":13987:14166   */\n      iszero\n      tag_263\n      jumpi\n        /* \"#utility.yul\":14060:14069   */\n      dup5\n        /* \"#utility.yul\":14055:14058   */\n      dup10\n        /* \"#utility.yul\":14051:14070   */\n      add\n        /* \"#utility.yul\":14045:14071   */\n      mload\n        /* \"#utility.yul\":14103:14151   */\n      tag_264\n        /* \"#utility.yul\":14145:14149   */\n      0x1f\n        /* \"#utility.yul\":14137:14143   */\n      dup10\n        /* \"#utility.yul\":14133:14150   */\n      and\n        /* \"#utility.yul\":14122:14131   */\n      dup3\n        /* \"#utility.yul\":14103:14151   */\n      tag_95\n      jump\t// in\n    tag_264:\n        /* \"#utility.yul\":14095:14101   */\n      dup4\n        /* \"#utility.yul\":14088:14152   */\n      sstore\n        /* \"#utility.yul\":14010:14166   */\n      pop\n        /* \"#utility.yul\":13987:14166   */\n    tag_263:\n        /* \"#utility.yul\":14212:14213   */\n      0x01\n        /* \"#utility.yul\":14208:14209   */\n      0x02\n        /* \"#utility.yul\":14200:14206   */\n      dup9\n        /* \"#utility.yul\":14196:14210   */\n      mul\n        /* \"#utility.yul\":14192:14214   */\n      add\n        /* \"#utility.yul\":14186:14190   */\n      dup9\n        /* \"#utility.yul\":14179:14215   */\n      sstore\n        /* \"#utility.yul\":13614:14225   */\n      pop\n      pop\n      pop\n        /* \"#utility.yul\":13577:14464   */\n    tag_255:\n      pop\n        /* \"#utility.yul\":13167:14470   */\n      pop\n      pop\n      pop\n        /* \"#utility.yul\":13075:14470   */\n      pop\n      pop\n      jump\t// out\n        /* \"#utility.yul\":14476:14808   */\n    tag_37:\n        /* \"#utility.yul\":14597:14601   */\n      0x00\n        /* \"#utility.yul\":14635:14637   */\n      0x40\n        /* \"#utility.yul\":14624:14633   */\n      dup3\n        /* \"#utility.yul\":14620:14638   */\n      add\n        /* \"#utility.yul\":14612:14638   */\n      swap1\n      pop\n        /* \"#utility.yul\":14648:14719   */\n      tag_266\n        /* \"#utility.yul\":14716:14717   */\n      0x00\n        /* \"#utility.yul\":14705:14714   */\n      dup4\n        /* \"#utility.yul\":14701:14718   */\n      add\n        /* \"#utility.yul\":14692:14698   */\n      dup6\n        /* \"#utility.yul\":14648:14719   */\n      tag_70\n      jump\t// in\n    tag_266:\n        /* \"#utility.yul\":14729:14801   */\n      tag_267\n        /* \"#utility.yul\":14797:14799   */\n      0x20\n        /* \"#utility.yul\":14786:14795   */\n      dup4\n        /* \"#utility.yul\":14782:14800   */\n      add\n        /* \"#utility.yul\":14773:14779   */\n      dup5\n        /* \"#utility.yul\":14729:14801   */\n      tag_76\n      jump\t// in\n    tag_267:\n        /* \"#utility.yul\":14476:14808   */\n      swap4\n      swap3\n      pop\n      pop\n      pop\n      jump\t// out\n\n    auxdata: 0xa2646970667358221220f3c944b896ca277a5cfdd7cce1edcf121628ad7cd7f31581a3f6f0081d9f28a564736f6c634300081e0033\n}\n",
				"bytecode": {
					"linkReferences": {},
					"object": "6080604052348015600e575f5ffd5b50610c2e8061001c5f395ff3fe608060405234801561000f575f5ffd5b506004361061004a575f3560e01c80638bb7796a1461004e578063c9a49cd81461006a578063d810669014610086578063e792dd8a146100a4575b5f5ffd5b61006860048036038101906100639190610465565b6100d7565b005b610084600480360381019061007f919061066c565b6101df565b005b61008e610309565b60405161009b91906106e7565b60405180910390f35b6100be60048036038101906100b99190610700565b61030f565b6040516100ce94939291906107b8565b60405180910390f35b3373ffffffffffffffffffffffffffffffffffffffff165f5f8481526020019081526020015f206002015f9054906101000a900473ffffffffffffffffffffffffffffffffffffffff1673ffffffffffffffffffffffffffffffffffffffff1614610177576040517f08c379a000000000000000000000000000000000000000000000000000000000815260040161016e9061084c565b60405180910390fd5b805f5f8481526020019081526020015f2060020160146101000a81548160ff0219169083151502179055507f3440ef9891ec4251d2fc050161c99925b429eae6c5a6cd2b9f8e1c10b06d97ad82826040516101d392919061086a565b60405180910390a15050565b60015f8154809291906101f1906108be565b919050555060405180608001604052808481526020018381526020018273ffffffffffffffffffffffffffffffffffffffff168152602001600115158152505f5f60015481526020019081526020015f205f820151815f0155602082015181600101908161025f9190610b02565b506040820151816002015f6101000a81548173ffffffffffffffffffffffffffffffffffffffff021916908373ffffffffffffffffffffffffffffffffffffffff16021790555060608201518160020160146101000a81548160ff0219169083151502179055509050507fa50731478e093ef812ad88f0ac4a2f95748f45d0bfa999ea1ec9578d64bcccbc600154826040516102fc929190610bd1565b60405180910390a1505050565b60015481565b5f602052805f5260405f205f91509050805f01549080600101805461033390610932565b80601f016020809104026020016040519081016040528092919081815260200182805461035f90610932565b80156103aa5780601f10610381576101008083540402835291602001916103aa565b820191905f5260205f20905b81548152906001019060200180831161038d57829003601f168201915b505050505090806002015f9054906101000a900473ffffffffffffffffffffffffffffffffffffffff16908060020160149054906101000a900460ff16905084565b5f604051905090565b5f5ffd5b5f5ffd5b5f819050919050565b61040f816103fd565b8114610419575f5ffd5b50565b5f8135905061042a81610406565b92915050565b5f8115159050919050565b61044481610430565b811461044e575f5ffd5b50565b5f8135905061045f8161043b565b92915050565b5f5f6040838503121561047b5761047a6103f5565b5b5f6104888582860161041c565b925050602061049985828601610451565b9150509250929050565b5f819050919050565b6104b5816104a3565b81146104bf575f5ffd5b50565b5f813590506104d0816104ac565b92915050565b5f5ffd5b5f5ffd5b5f601f19601f8301169050919050565b7f4e487b71000000000000000000000000000000000000000000000000000000005f52604160045260245ffd5b610524826104de565b810181811067ffffffffffffffff82111715610543576105426104ee565b5b80604052505050565b5f6105556103ec565b9050610561828261051b565b919050565b5f67ffffffffffffffff8211156105805761057f6104ee565b5b610589826104de565b9050602081019050919050565b828183375f83830152505050565b5f6105b66105b184610566565b61054c565b9050828152602081018484840111156105d2576105d16104da565b5b6105dd848285610596565b509392505050565b5f82601f8301126105f9576105f86104d6565b5b81356106098482602086016105a4565b91505092915050565b5f73ffffffffffffffffffffffffffffffffffffffff82169050919050565b5f61063b82610612565b9050919050565b61064b81610631565b8114610655575f5ffd5b50565b5f8135905061066681610642565b92915050565b5f5f5f60608486031215610683576106826103f5565b5b5f610690868287016104c2565b935050602084013567ffffffffffffffff8111156106b1576106b06103f9565b5b6106bd868287016105e5565b92505060406106ce86828701610658565b9150509250925092565b6106e1816103fd565b82525050565b5f6020820190506106fa5f8301846106d8565b92915050565b5f60208284031215610715576107146103f5565b5b5f6107228482850161041c565b91505092915050565b610734816104a3565b82525050565b5f81519050919050565b5f82825260208201905092915050565b8281835e5f83830152505050565b5f61076c8261073a565b6107768185610744565b9350610786818560208601610754565b61078f816104de565b840191505092915050565b6107a381610631565b82525050565b6107b281610430565b82525050565b5f6080820190506107cb5f83018761072b565b81810360208301526107dd8186610762565b90506107ec604083018561079a565b6107f960608301846107a9565b95945050505050565b7f4e6f74206f72672061646d696e000000000000000000000000000000000000005f82015250565b5f610836600d83610744565b915061084182610802565b602082019050919050565b5f6020820190508181035f8301526108638161082a565b9050919050565b5f60408201905061087d5f8301856106d8565b61088a60208301846107a9565b9392505050565b7f4e487b71000000000000000000000000000000000000000000000000000000005f52601160045260245ffd5b5f6108c8826103fd565b91507fffffffffffffffffffffffffffffffffffffffffffffffffffffffffffffffff82036108fa576108f9610891565b5b600182019050919050565b7f4e487b71000000000000000000000000000000000000000000000000000000005f52602260045260245ffd5b5f600282049050600182168061094957607f821691505b60208210810361095c5761095b610905565b5b50919050565b5f819050815f5260205f209050919050565b5f6020601f8301049050919050565b5f82821b905092915050565b5f600883026109be7fffffffffffffffffffffffffffffffffffffffffffffffffffffffffffffffff82610983565b6109c88683610983565b95508019841693508086168417925050509392505050565b5f819050919050565b5f610a036109fe6109f9846103fd565b6109e0565b6103fd565b9050919050565b5f819050919050565b610a1c836109e9565b610a30610a2882610a0a565b84845461098f565b825550505050565b5f5f905090565b610a47610a38565b610a52818484610a13565b505050565b5b81811015610a7557610a6a5f82610a3f565b600181019050610a58565b5050565b601f821115610aba57610a8b81610962565b610a9484610974565b81016020851015610aa3578190505b610ab7610aaf85610974565b830182610a57565b50505b505050565b5f82821c905092915050565b5f610ada5f1984600802610abf565b1980831691505092915050565b5f610af28383610acb565b9150826002028217905092915050565b610b0b8261073a565b67ffffffffffffffff811115610b2457610b236104ee565b5b610b2e8254610932565b610b39828285610a79565b5f60209050601f831160018114610b6a575f8415610b58578287015190505b610b628582610ae7565b865550610bc9565b601f198416610b7886610962565b5f5b82811015610b9f57848901518255600182019150602085019450602081019050610b7a565b86831015610bbc5784890151610bb8601f891682610acb565b8355505b6001600288020188555050505b505050505050565b5f604082019050610be45f8301856106d8565b610bf1602083018461079a565b939250505056fea2646970667358221220f3c944b896ca277a5cfdd7cce1edcf121628ad7cd7f31581a3f6f0081d9f28a564736f6c634300081e0033",
					"opcodes": "PUSH1 0x80 PUSH1 0x40 MSTORE CALLVALUE DUP1 ISZERO PUSH1 0xE JUMPI PUSH0 PUSH0 REVERT JUMPDEST POP PUSH2 0xC2E DUP1 PUSH2 0x1C PUSH0 CODECOPY PUSH0 RETURN INVALID PUSH1 0x80 PUSH1 0x40 MSTORE CALLVALUE DUP1 ISZERO PUSH2 0xF JUMPI PUSH0 PUSH0 REVERT JUMPDEST POP PUSH1 0x4 CALLDATASIZE LT PUSH2 0x4A JUMPI PUSH0 CALLDATALOAD PUSH1 0xE0 SHR DUP1 PUSH4 0x8BB7796A EQ PUSH2 0x4E JUMPI DUP1 PUSH4 0xC9A49CD8 EQ PUSH2 0x6A JUMPI DUP1 PUSH4 0xD8106690 EQ PUSH2 0x86 JUMPI DUP1 PUSH4 0xE792DD8A EQ PUSH2 0xA4 JUMPI JUMPDEST PUSH0 PUSH0 REVERT JUMPDEST PUSH2 0x68 PUSH1 0x4 DUP1 CALLDATASIZE SUB DUP2 ADD SWAP1 PUSH2 0x63 SWAP2 SWAP1 PUSH2 0x465 JUMP JUMPDEST PUSH2 0xD7 JUMP JUMPDEST STOP JUMPDEST PUSH2 0x84 PUSH1 0x4 DUP1 CALLDATASIZE SUB DUP2 ADD SWAP1 PUSH2 0x7F SWAP2 SWAP1 PUSH2 0x66C JUMP JUMPDEST PUSH2 0x1DF JUMP JUMPDEST STOP JUMPDEST PUSH2 0x8E PUSH2 0x309 JUMP JUMPDEST PUSH1 0x40 MLOAD PUSH2 0x9B SWAP2 SWAP1 PUSH2 0x6E7 JUMP JUMPDEST PUSH1 0x40 MLOAD DUP1 SWAP2 SUB SWAP1 RETURN JUMPDEST PUSH2 0xBE PUSH1 0x4 DUP1 CALLDATASIZE SUB DUP2 ADD SWAP1 PUSH2 0xB9 SWAP2 SWAP1 PUSH2 0x700 JUMP JUMPDEST PUSH2 0x30F JUMP JUMPDEST PUSH1 0x40 MLOAD PUSH2 0xCE SWAP5 SWAP4 SWAP3 SWAP2 SWAP1 PUSH2 0x7B8 JUMP JUMPDEST PUSH1 0x40 MLOAD DUP1 SWAP2 SUB SWAP1 RETURN JUMPDEST CALLER PUSH20 0xFFFFFFFFFFFFFFFFFFFFFFFFFFFFFFFFFFFFFFFF AND PUSH0 PUSH0 DUP5 DUP2 MSTORE PUSH1 0x20 ADD SWAP1 DUP2 MSTORE PUSH1 0x20 ADD PUSH0 KECCAK256 PUSH1 0x2 ADD PUSH0 SWAP1 SLOAD SWAP1 PUSH2 0x100 EXP SWAP1 DIV PUSH20 0xFFFFFFFFFFFFFFFFFFFFFFFFFFFFFFFFFFFFFFFF AND PUSH20 0xFFFFFFFFFFFFFFFFFFFFFFFFFFFFFFFFFFFFFFFF AND EQ PUSH2 0x177 JUMPI PUSH1 0x40 MLOAD PUSH32 0x8C379A000000000000000000000000000000000000000000000000000000000 DUP2 MSTORE PUSH1 0x4 ADD PUSH2 0x16E SWAP1 PUSH2 0x84C JUMP JUMPDEST PUSH1 0x40 MLOAD DUP1 SWAP2 SUB SWAP1 REVERT JUMPDEST DUP1 PUSH0 PUSH0 DUP5 DUP2 MSTORE PUSH1 0x20 ADD SWAP1 DUP2 MSTORE PUSH1 0x20 ADD PUSH0 KECCAK256 PUSH1 0x2 ADD PUSH1 0x14 PUSH2 0x100 EXP DUP2 SLOAD DUP2 PUSH1 0xFF MUL NOT AND SWAP1 DUP4 ISZERO ISZERO MUL OR SWAP1 SSTORE POP PUSH32 0x3440EF9891EC4251D2FC050161C99925B429EAE6C5A6CD2B9F8E1C10B06D97AD DUP3 DUP3 PUSH1 0x40 MLOAD PUSH2 0x1D3 SWAP3 SWAP2 SWAP1 PUSH2 0x86A JUMP JUMPDEST PUSH1 0x40 MLOAD DUP1 SWAP2 SUB SWAP1 LOG1 POP POP JUMP JUMPDEST PUSH1 0x1 PUSH0 DUP2 SLOAD DUP1 SWAP3 SWAP2 SWAP1 PUSH2 0x1F1 SWAP1 PUSH2 0x8BE JUMP JUMPDEST SWAP2 SWAP1 POP SSTORE POP PUSH1 0x40 MLOAD DUP1 PUSH1 0x80 ADD PUSH1 0x40 MSTORE DUP1 DUP5 DUP2 MSTORE PUSH1 0x20 ADD DUP4 DUP2 MSTORE PUSH1 0x20 ADD DUP3 PUSH20 0xFFFFFFFFFFFFFFFFFFFFFFFFFFFFFFFFFFFFFFFF AND DUP2 MSTORE PUSH1 0x20 ADD PUSH1 0x1 ISZERO ISZERO DUP2 MSTORE POP PUSH0 PUSH0 PUSH1 0x1 SLOAD DUP2 MSTORE PUSH1 0x20 ADD SWAP1 DUP2 MSTORE PUSH1 0x20 ADD PUSH0 KECCAK256 PUSH0 DUP3 ADD MLOAD DUP2 PUSH0 ADD SSTORE PUSH1 0x20 DUP3 ADD MLOAD DUP2 PUSH1 0x1 ADD SWAP1 DUP2 PUSH2 0x25F SWAP2 SWAP1 PUSH2 0xB02 JUMP JUMPDEST POP PUSH1 0x40 DUP3 ADD MLOAD DUP2 PUSH1 0x2 ADD PUSH0 PUSH2 0x100 EXP DUP2 SLOAD DUP2 PUSH20 0xFFFFFFFFFFFFFFFFFFFFFFFFFFFFFFFFFFFFFFFF MUL NOT AND SWAP1 DUP4 PUSH20 0xFFFFFFFFFFFFFFFFFFFFFFFFFFFFFFFFFFFFFFFF AND MUL OR SWAP1 SSTORE POP PUSH1 0x60 DUP3 ADD MLOAD DUP2 PUSH1 0x2 ADD PUSH1 0x14 PUSH2 0x100 EXP DUP2 SLOAD DUP2 PUSH1 0xFF MUL NOT AND SWAP1 DUP4 ISZERO ISZERO MUL OR SWAP1 SSTORE POP SWAP1 POP POP PUSH32 0xA50731478E093EF812AD88F0AC4A2F95748F45D0BFA999EA1EC9578D64BCCCBC PUSH1 0x1 SLOAD DUP3 PUSH1 0x40 MLOAD PUSH2 0x2FC SWAP3 SWAP2 SWAP1 PUSH2 0xBD1 JUMP JUMPDEST PUSH1 0x40 MLOAD DUP1 SWAP2 SUB SWAP1 LOG1 POP POP POP JUMP JUMPDEST PUSH1 0x1 SLOAD DUP2 JUMP JUMPDEST PUSH0 PUSH1 0x20 MSTORE DUP1 PUSH0 MSTORE PUSH1 0x40 PUSH0 KECCAK256 PUSH0 SWAP2 POP SWAP1 POP DUP1 PUSH0 ADD SLOAD SWAP1 DUP1 PUSH1 0x1 ADD DUP1 SLOAD PUSH2 0x333 SWAP1 PUSH2 0x932 JUMP JUMPDEST DUP1 PUSH1 0x1F ADD PUSH1 0x20 DUP1 SWAP2 DIV MUL PUSH1 0x20 ADD PUSH1 0x40 MLOAD SWAP1 DUP2 ADD PUSH1 0x40 MSTORE DUP1 SWAP3 SWAP2 SWAP1 DUP2 DUP2 MSTORE PUSH1 0x20 ADD DUP3 DUP1 SLOAD PUSH2 0x35F SWAP1 PUSH2 0x932 JUMP JUMPDEST DUP1 ISZERO PUSH2 0x3AA JUMPI DUP1 PUSH1 0x1F LT PUSH2 0x381 JUMPI PUSH2 0x100 DUP1 DUP4 SLOAD DIV MUL DUP4 MSTORE SWAP2 PUSH1 0x20 ADD SWAP2 PUSH2 0x3AA JUMP JUMPDEST DUP3 ADD SWAP2 SWAP1 PUSH0 MSTORE PUSH1 0x20 PUSH0 KECCAK256 SWAP1 JUMPDEST DUP2 SLOAD DUP2 MSTORE SWAP1 PUSH1 0x1 ADD SWAP1 PUSH1 0x20 ADD DUP1 DUP4 GT PUSH2 0x38D JUMPI DUP3 SWAP1 SUB PUSH1 0x1F AND DUP3 ADD SWAP2 JUMPDEST POP POP POP POP POP SWAP1 DUP1 PUSH1 0x2 ADD PUSH0 SWAP1 SLOAD SWAP1 PUSH2 0x100 EXP SWAP1 DIV PUSH20 0xFFFFFFFFFFFFFFFFFFFFFFFFFFFFFFFFFFFFFFFF AND SWAP1 DUP1 PUSH1 0x2 ADD PUSH1 0x14 SWAP1 SLOAD SWAP1 PUSH2 0x100 EXP SWAP1 DIV PUSH1 0xFF AND SWAP1 POP DUP5 JUMP JUMPDEST PUSH0 PUSH1 0x40 MLOAD SWAP1 POP SWAP1 JUMP JUMPDEST PUSH0 PUSH0 REVERT JUMPDEST PUSH0 PUSH0 REVERT JUMPDEST PUSH0 DUP2 SWAP1 POP SWAP2 SWAP1 POP JUMP JUMPDEST PUSH2 0x40F DUP2 PUSH2 0x3FD JUMP JUMPDEST DUP2 EQ PUSH2 0x419 JUMPI PUSH0 PUSH0 REVERT JUMPDEST POP JUMP JUMPDEST PUSH0 DUP2 CALLDATALOAD SWAP1 POP PUSH2 0x42A DUP2 PUSH2 0x406 JUMP JUMPDEST SWAP3 SWAP2 POP POP JUMP JUMPDEST PUSH0 DUP2 ISZERO ISZERO SWAP1 POP SWAP2 SWAP1 POP JUMP JUMPDEST PUSH2 0x444 DUP2 PUSH2 0x430 JUMP JUMPDEST DUP2 EQ PUSH2 0x44E JUMPI PUSH0 PUSH0 REVERT JUMPDEST POP JUMP JUMPDEST PUSH0 DUP2 CALLDATALOAD SWAP1 POP PUSH2 0x45F DUP2 PUSH2 0x43B JUMP JUMPDEST SWAP3 SWAP2 POP POP JUMP JUMPDEST PUSH0 PUSH0 PUSH1 0x40 DUP4 DUP6 SUB SLT ISZERO PUSH2 0x47B JUMPI PUSH2 0x47A PUSH2 0x3F5 JUMP JUMPDEST JUMPDEST PUSH0 PUSH2 0x488 DUP6 DUP3 DUP7 ADD PUSH2 0x41C JUMP JUMPDEST SWAP3 POP POP PUSH1 0x20 PUSH2 0x499 DUP6 DUP3 DUP7 ADD PUSH2 0x451 JUMP JUMPDEST SWAP2 POP POP SWAP3 POP SWAP3 SWAP1 POP JUMP JUMPDEST PUSH0 DUP2 SWAP1 POP SWAP2 SWAP1 POP JUMP JUMPDEST PUSH2 0x4B5 DUP2 PUSH2 0x4A3 JUMP JUMPDEST DUP2 EQ PUSH2 0x4BF JUMPI PUSH0 PUSH0 REVERT JUMPDEST POP JUMP JUMPDEST PUSH0 DUP2 CALLDATALOAD SWAP1 POP PUSH2 0x4D0 DUP2 PUSH2 0x4AC JUMP JUMPDEST SWAP3 SWAP2 POP POP JUMP JUMPDEST PUSH0 PUSH0 REVERT JUMPDEST PUSH0 PUSH0 REVERT JUMPDEST PUSH0 PUSH1 0x1F NOT PUSH1 0x1F DUP4 ADD AND SWAP1 POP SWAP2 SWAP1 POP JUMP JUMPDEST PUSH32 0x4E487B7100000000000000000000000000000000000000000000000000000000 PUSH0 MSTORE PUSH1 0x41 PUSH1 0x4 MSTORE PUSH1 0x24 PUSH0 REVERT JUMPDEST PUSH2 0x524 DUP3 PUSH2 0x4DE JUMP JUMPDEST DUP2 ADD DUP2 DUP2 LT PUSH8 0xFFFFFFFFFFFFFFFF DUP3 GT OR ISZERO PUSH2 0x543 JUMPI PUSH2 0x542 PUSH2 0x4EE JUMP JUMPDEST JUMPDEST DUP1 PUSH1 0x40 MSTORE POP POP POP JUMP JUMPDEST PUSH0 PUSH2 0x555 PUSH2 0x3EC JUMP JUMPDEST SWAP1 POP PUSH2 0x561 DUP3 DUP3 PUSH2 0x51B JUMP JUMPDEST SWAP2 SWAP1 POP JUMP JUMPDEST PUSH0 PUSH8 0xFFFFFFFFFFFFFFFF DUP3 GT ISZERO PUSH2 0x580 JUMPI PUSH2 0x57F PUSH2 0x4EE JUMP JUMPDEST JUMPDEST PUSH2 0x589 DUP3 PUSH2 0x4DE JUMP JUMPDEST SWAP1 POP PUSH1 0x20 DUP2 ADD SWAP1 POP SWAP2 SWAP1 POP JUMP JUMPDEST DUP3 DUP2 DUP4 CALLDATACOPY PUSH0 DUP4 DUP4 ADD MSTORE POP POP POP JUMP JUMPDEST PUSH0 PUSH2 0x5B6 PUSH2 0x5B1 DUP5 PUSH2 0x566 JUMP JUMPDEST PUSH2 0x54C JUMP JUMPDEST SWAP1 POP DUP3 DUP2 MSTORE PUSH1 0x20 DUP2 ADD DUP5 DUP5 DUP5 ADD GT ISZERO PUSH2 0x5D2 JUMPI PUSH2 0x5D1 PUSH2 0x4DA JUMP JUMPDEST JUMPDEST PUSH2 0x5DD DUP5 DUP3 DUP6 PUSH2 0x596 JUMP JUMPDEST POP SWAP4 SWAP3 POP POP POP JUMP JUMPDEST PUSH0 DUP3 PUSH1 0x1F DUP4 ADD SLT PUSH2 0x5F9 JUMPI PUSH2 0x5F8 PUSH2 0x4D6 JUMP JUMPDEST JUMPDEST DUP2 CALLDATALOAD PUSH2 0x609 DUP5 DUP3 PUSH1 0x20 DUP7 ADD PUSH2 0x5A4 JUMP JUMPDEST SWAP2 POP POP SWAP3 SWAP2 POP POP JUMP JUMPDEST PUSH0 PUSH20 0xFFFFFFFFFFFFFFFFFFFFFFFFFFFFFFFFFFFFFFFF DUP3 AND SWAP1 POP SWAP2 SWAP1 POP JUMP JUMPDEST PUSH0 PUSH2 0x63B DUP3 PUSH2 0x612 JUMP JUMPDEST SWAP1 POP SWAP2 SWAP1 POP JUMP JUMPDEST PUSH2 0x64B DUP2 PUSH2 0x631 JUMP JUMPDEST DUP2 EQ PUSH2 0x655 JUMPI PUSH0 PUSH0 REVERT JUMPDEST POP JUMP JUMPDEST PUSH0 DUP2 CALLDATALOAD SWAP1 POP PUSH2 0x666 DUP2 PUSH2 0x642 JUMP JUMPDEST SWAP3 SWAP2 POP POP JUMP JUMPDEST PUSH0 PUSH0 PUSH0 PUSH1 0x60 DUP5 DUP7 SUB SLT ISZERO PUSH2 0x683 JUMPI PUSH2 0x682 PUSH2 0x3F5 JUMP JUMPDEST JUMPDEST PUSH0 PUSH2 0x690 DUP7 DUP3 DUP8 ADD PUSH2 0x4C2 JUMP JUMPDEST SWAP4 POP POP PUSH1 0x20 DUP5 ADD CALLDATALOAD PUSH8 0xFFFFFFFFFFFFFFFF DUP2 GT ISZERO PUSH2 0x6B1 JUMPI PUSH2 0x6B0 PUSH2 0x3F9 JUMP JUMPDEST JUMPDEST PUSH2 0x6BD DUP7 DUP3 DUP8 ADD PUSH2 0x5E5 JUMP JUMPDEST SWAP3 POP POP PUSH1 0x40 PUSH2 0x6CE DUP7 DUP3 DUP8 ADD PUSH2 0x658 JUMP JUMPDEST SWAP2 POP POP SWAP3 POP SWAP3 POP SWAP3 JUMP JUMPDEST PUSH2 0x6E1 DUP2 PUSH2 0x3FD JUMP JUMPDEST DUP3 MSTORE POP POP JUMP JUMPDEST PUSH0 PUSH1 0x20 DUP3 ADD SWAP1 POP PUSH2 0x6FA PUSH0 DUP4 ADD DUP5 PUSH2 0x6D8 JUMP JUMPDEST SWAP3 SWAP2 POP POP JUMP JUMPDEST PUSH0 PUSH1 0x20 DUP3 DUP5 SUB SLT ISZERO PUSH2 0x715 JUMPI PUSH2 0x714 PUSH2 0x3F5 JUMP JUMPDEST JUMPDEST PUSH0 PUSH2 0x722 DUP5 DUP3 DUP6 ADD PUSH2 0x41C JUMP JUMPDEST SWAP2 POP POP SWAP3 SWAP2 POP POP JUMP JUMPDEST PUSH2 0x734 DUP2 PUSH2 0x4A3 JUMP JUMPDEST DUP3 MSTORE POP POP JUMP JUMPDEST PUSH0 DUP2 MLOAD SWAP1 POP SWAP2 SWAP1 POP JUMP JUMPDEST PUSH0 DUP3 DUP3 MSTORE PUSH1 0x20 DUP3 ADD SWAP1 POP SWAP3 SWAP2 POP POP JUMP JUMPDEST DUP3 DUP2 DUP4 MCOPY PUSH0 DUP4 DUP4 ADD MSTORE POP POP POP JUMP JUMPDEST PUSH0 PUSH2 0x76C DUP3 PUSH2 0x73A JUMP JUMPDEST PUSH2 0x776 DUP2 DUP6 PUSH2 0x744 JUMP JUMPDEST SWAP4 POP PUSH2 0x786 DUP2 DUP6 PUSH1 0x20 DUP7 ADD PUSH2 0x754 JUMP JUMPDEST PUSH2 0x78F DUP2 PUSH2 0x4DE JUMP JUMPDEST DUP5 ADD SWAP2 POP POP SWAP3 SWAP2 POP POP JUMP JUMPDEST PUSH2 0x7A3 DUP2 PUSH2 0x631 JUMP JUMPDEST DUP3 MSTORE POP POP JUMP JUMPDEST PUSH2 0x7B2 DUP2 PUSH2 0x430 JUMP JUMPDEST DUP3 MSTORE POP POP JUMP JUMPDEST PUSH0 PUSH1 0x80 DUP3 ADD SWAP1 POP PUSH2 0x7CB PUSH0 DUP4 ADD DUP8 PUSH2 0x72B JUMP JUMPDEST DUP2 DUP2 SUB PUSH1 0x20 DUP4 ADD MSTORE PUSH2 0x7DD DUP2 DUP7 PUSH2 0x762 JUMP JUMPDEST SWAP1 POP PUSH2 0x7EC PUSH1 0x40 DUP4 ADD DUP6 PUSH2 0x79A JUMP JUMPDEST PUSH2 0x7F9 PUSH1 0x60 DUP4 ADD DUP5 PUSH2 0x7A9 JUMP JUMPDEST SWAP6 SWAP5 POP POP POP POP POP JUMP JUMPDEST PUSH32 0x4E6F74206F72672061646D696E00000000000000000000000000000000000000 PUSH0 DUP3 ADD MSTORE POP JUMP JUMPDEST PUSH0 PUSH2 0x836 PUSH1 0xD DUP4 PUSH2 0x744 JUMP JUMPDEST SWAP2 POP PUSH2 0x841 DUP3 PUSH2 0x802 JUMP JUMPDEST PUSH1 0x20 DUP3 ADD SWAP1 POP SWAP2 SWAP1 POP JUMP JUMPDEST PUSH0 PUSH1 0x20 DUP3 ADD SWAP1 POP DUP2 DUP2 SUB PUSH0 DUP4 ADD MSTORE PUSH2 0x863 DUP2 PUSH2 0x82A JUMP JUMPDEST SWAP1 POP SWAP2 SWAP1 POP JUMP JUMPDEST PUSH0 PUSH1 0x40 DUP3 ADD SWAP1 POP PUSH2 0x87D PUSH0 DUP4 ADD DUP6 PUSH2 0x6D8 JUMP JUMPDEST PUSH2 0x88A PUSH1 0x20 DUP4 ADD DUP5 PUSH2 0x7A9 JUMP JUMPDEST SWAP4 SWAP3 POP POP POP JUMP JUMPDEST PUSH32 0x4E487B7100000000000000000000000000000000000000000000000000000000 PUSH0 MSTORE PUSH1 0x11 PUSH1 0x4 MSTORE PUSH1 0x24 PUSH0 REVERT JUMPDEST PUSH0 PUSH2 0x8C8 DUP3 PUSH2 0x3FD JUMP JUMPDEST SWAP2 POP PUSH32 0xFFFFFFFFFFFFFFFFFFFFFFFFFFFFFFFFFFFFFFFFFFFFFFFFFFFFFFFFFFFFFFFF DUP3 SUB PUSH2 0x8FA JUMPI PUSH2 0x8F9 PUSH2 0x891 JUMP JUMPDEST JUMPDEST PUSH1 0x1 DUP3 ADD SWAP1 POP SWAP2 SWAP1 POP JUMP JUMPDEST PUSH32 0x4E487B7100000000000000000000000000000000000000000000000000000000 PUSH0 MSTORE PUSH1 0x22 PUSH1 0x4 MSTORE PUSH1 0x24 PUSH0 REVERT JUMPDEST PUSH0 PUSH1 0x2 DUP3 DIV SWAP1 POP PUSH1 0x1 DUP3 AND DUP1 PUSH2 0x949 JUMPI PUSH1 0x7F DUP3 AND SWAP2 POP JUMPDEST PUSH1 0x20 DUP3 LT DUP2 SUB PUSH2 0x95C JUMPI PUSH2 0x95B PUSH2 0x905 JUMP JUMPDEST JUMPDEST POP SWAP2 SWAP1 POP JUMP JUMPDEST PUSH0 DUP2 SWAP1 POP DUP2 PUSH0 MSTORE PUSH1 0x20 PUSH0 KECCAK256 SWAP1 POP SWAP2 SWAP1 POP JUMP JUMPDEST PUSH0 PUSH1 0x20 PUSH1 0x1F DUP4 ADD DIV SWAP1 POP SWAP2 SWAP1 POP JUMP JUMPDEST PUSH0 DUP3 DUP3 SHL SWAP1 POP SWAP3 SWAP2 POP POP JUMP JUMPDEST PUSH0 PUSH1 0x8 DUP4 MUL PUSH2 0x9BE PUSH32 0xFFFFFFFFFFFFFFFFFFFFFFFFFFFFFFFFFFFFFFFFFFFFFFFFFFFFFFFFFFFFFFFF DUP3 PUSH2 0x983 JUMP JUMPDEST PUSH2 0x9C8 DUP7 DUP4 PUSH2 0x983 JUMP JUMPDEST SWAP6 POP DUP1 NOT DUP5 AND SWAP4 POP DUP1 DUP7 AND DUP5 OR SWAP3 POP POP POP SWAP4 SWAP3 POP POP POP JUMP JUMPDEST PUSH0 DUP2 SWAP1 POP SWAP2 SWAP1 POP JUMP JUMPDEST PUSH0 PUSH2 0xA03 PUSH2 0x9FE PUSH2 0x9F9 DUP5 PUSH2 0x3FD JUMP JUMPDEST PUSH2 0x9E0 JUMP JUMPDEST PUSH2 0x3FD JUMP JUMPDEST SWAP1 POP SWAP2 SWAP1 POP JUMP JUMPDEST PUSH0 DUP2 SWAP1 POP SWAP2 SWAP1 POP JUMP JUMPDEST PUSH2 0xA1C DUP4 PUSH2 0x9E9 JUMP JUMPDEST PUSH2 0xA30 PUSH2 0xA28 DUP3 PUSH2 0xA0A JUMP JUMPDEST DUP5 DUP5 SLOAD PUSH2 0x98F JUMP JUMPDEST DUP3 SSTORE POP POP POP POP JUMP JUMPDEST PUSH0 PUSH0 SWAP1 POP SWAP1 JUMP JUMPDEST PUSH2 0xA47 PUSH2 0xA38 JUMP JUMPDEST PUSH2 0xA52 DUP2 DUP5 DUP5 PUSH2 0xA13 JUMP JUMPDEST POP POP POP JUMP JUMPDEST JUMPDEST DUP2 DUP2 LT ISZERO PUSH2 0xA75 JUMPI PUSH2 0xA6A PUSH0 DUP3 PUSH2 0xA3F JUMP JUMPDEST PUSH1 0x1 DUP2 ADD SWAP1 POP PUSH2 0xA58 JUMP JUMPDEST POP POP JUMP JUMPDEST PUSH1 0x1F DUP3 GT ISZERO PUSH2 0xABA JUMPI PUSH2 0xA8B DUP2 PUSH2 0x962 JUMP JUMPDEST PUSH2 0xA94 DUP5 PUSH2 0x974 JUMP JUMPDEST DUP2 ADD PUSH1 0x20 DUP6 LT ISZERO PUSH2 0xAA3 JUMPI DUP2 SWAP1 POP JUMPDEST PUSH2 0xAB7 PUSH2 0xAAF DUP6 PUSH2 0x974 JUMP JUMPDEST DUP4 ADD DUP3 PUSH2 0xA57 JUMP JUMPDEST POP POP JUMPDEST POP POP POP JUMP JUMPDEST PUSH0 DUP3 DUP3 SHR SWAP1 POP SWAP3 SWAP2 POP POP JUMP JUMPDEST PUSH0 PUSH2 0xADA PUSH0 NOT DUP5 PUSH1 0x8 MUL PUSH2 0xABF JUMP JUMPDEST NOT DUP1 DUP4 AND SWAP2 POP POP SWAP3 SWAP2 POP POP JUMP JUMPDEST PUSH0 PUSH2 0xAF2 DUP4 DUP4 PUSH2 0xACB JUMP JUMPDEST SWAP2 POP DUP3 PUSH1 0x2 MUL DUP3 OR SWAP1 POP SWAP3 SWAP2 POP POP JUMP JUMPDEST PUSH2 0xB0B DUP3 PUSH2 0x73A JUMP JUMPDEST PUSH8 0xFFFFFFFFFFFFFFFF DUP2 GT ISZERO PUSH2 0xB24 JUMPI PUSH2 0xB23 PUSH2 0x4EE JUMP JUMPDEST JUMPDEST PUSH2 0xB2E DUP3 SLOAD PUSH2 0x932 JUMP JUMPDEST PUSH2 0xB39 DUP3 DUP3 DUP6 PUSH2 0xA79 JUMP JUMPDEST PUSH0 PUSH1 0x20 SWAP1 POP PUSH1 0x1F DUP4 GT PUSH1 0x1 DUP2 EQ PUSH2 0xB6A JUMPI PUSH0 DUP5 ISZERO PUSH2 0xB58 JUMPI DUP3 DUP8 ADD MLOAD SWAP1 POP JUMPDEST PUSH2 0xB62 DUP6 DUP3 PUSH2 0xAE7 JUMP JUMPDEST DUP7 SSTORE POP PUSH2 0xBC9 JUMP JUMPDEST PUSH1 0x1F NOT DUP5 AND PUSH2 0xB78 DUP7 PUSH2 0x962 JUMP JUMPDEST PUSH0 JUMPDEST DUP3 DUP2 LT ISZERO PUSH2 0xB9F JUMPI DUP5 DUP10 ADD MLOAD DUP3 SSTORE PUSH1 0x1 DUP3 ADD SWAP2 POP PUSH1 0x20 DUP6 ADD SWAP5 POP PUSH1 0x20 DUP2 ADD SWAP1 POP PUSH2 0xB7A JUMP JUMPDEST DUP7 DUP4 LT ISZERO PUSH2 0xBBC JUMPI DUP5 DUP10 ADD MLOAD PUSH2 0xBB8 PUSH1 0x1F DUP10 AND DUP3 PUSH2 0xACB JUMP JUMPDEST DUP4 SSTORE POP JUMPDEST PUSH1 0x1 PUSH1 0x2 DUP9 MUL ADD DUP9 SSTORE POP POP POP JUMPDEST POP POP POP POP POP POP JUMP JUMPDEST PUSH0 PUSH1 0x40 DUP3 ADD SWAP1 POP PUSH2 0xBE4 PUSH0 DUP4 ADD DUP6 PUSH2 0x6D8 JUMP JUMPDEST PUSH2 0xBF1 PUSH1 0x20 DUP4 ADD DUP5 PUSH2 0x79A JUMP JUMPDEST SWAP4 SWAP3 POP POP POP JUMP INVALID LOG2 PUSH5 0x6970667358 0x22 SLT KECCAK256 RETURN 0xC9 PREVRANDAO 0xB8 SWAP7 0xCA 0x27 PUSH27 0x5CFDD7CCE1EDCF121628AD7CD7F31581A3F6F0081D9F28A564736F PUSH13 0x634300081E0033000000000000 "
				},
				"gasEstimates": {
					"creation": {
						"codeDepositCost": "623600",
						"executionCost": "655",
						"totalCost": "624255"
					},
					"external": {
						"orgCount()": "2447",
						"organizations(uint256)": "infinite",
						"registerOrganization(bytes32,string,address)": "infinite",
						"setOrgStatus(uint256,bool)": "infinite"
					}
				},
				"methodIdentifiers": {
					"orgCount()": "d8106690",
					"organizations(uint256)": "e792dd8a",
					"registerOrganization(bytes32,string,address)": "c9a49cd8",
					"setOrgStatus(uint256,bool)": "8bb7796a"
				}
			},
			"storageLayout": {
				"storage": [
					{
						"astId": 15,
						"contract": "contracts/OrganizationRegistry.sol:OrganizationRegistry",
						"label": "organizations",
						"offset": 0,
						"slot": "0",
						"type": "t_mapping(t_uint256,t_struct(Organization)10_storage)"
					},
					{
						"astId": 17,
						"contract": "contracts/OrganizationRegistry.sol:OrganizationRegistry",
						"label": "orgCount",
						"offset": 0,
						"slot": "1",
						"type": "t_uint256"
					}
				],
				"types": {
					"t_address": {
						"encoding": "inplace",
						"label": "address",
						"numberOfBytes": "20"
					},
					"t_bool": {
						"encoding": "inplace",
						"label": "bool",
						"numberOfBytes": "1"
					},
					"t_bytes32": {
						"encoding": "inplace",
						"label": "bytes32",
						"numberOfBytes": "32"
					},
					"t_mapping(t_uint256,t_struct(Organization)10_storage)": {
						"encoding": "mapping",
						"key": "t_uint256",
						"label": "mapping(uint256 => struct OrganizationRegistry.Organization)",
						"numberOfBytes": "32",
						"value": "t_struct(Organization)10_storage"
					},
					"t_string_storage": {
						"encoding": "bytes",
						"label": "string",
						"numberOfBytes": "32"
					},
					"t_struct(Organization)10_storage": {
						"encoding": "inplace",
						"label": "struct OrganizationRegistry.Organization",
						"members": [
							{
								"astId": 3,
								"contract": "contracts/OrganizationRegistry.sol:OrganizationRegistry",
								"label": "nameHash",
								"offset": 0,
								"slot": "0",
								"type": "t_bytes32"
							},
							{
								"astId": 5,
								"contract": "contracts/OrganizationRegistry.sol:OrganizationRegistry",
								"label": "countryCode",
								"offset": 0,
								"slot": "1",
								"type": "t_string_storage"
							},
							{
								"astId": 7,
								"contract": "contracts/OrganizationRegistry.sol:OrganizationRegistry",
								"label": "admin",
								"offset": 0,
								"slot": "2",
								"type": "t_address"
							},
							{
								"astId": 9,
								"contract": "contracts/OrganizationRegistry.sol:OrganizationRegistry",
								"label": "isActive",
								"offset": 20,
								"slot": "2",
								"type": "t_bool"
							}
						],
						"numberOfBytes": "96"
					},
					"t_uint256": {
						"encoding": "inplace",
						"label": "uint256",
						"numberOfBytes": "32"
					}
				}
			},
			"userdoc": {
				"kind": "user",
				"methods": {},
				"version": 1
			}
		}
	}
}