{
	"contracts/DigitalIdentityRegistry.sol": {
		"DigitalIdentityRegistry": {
			"abi": [
				{
					"anonymous": false,
					"inputs": [
						{
							"indexed": false,
							"internalType": "address",
							"name": "user",
							"type": "address"
						},
						{
							"indexed": false,
							"internalType": "enum DigitalIdentityRegistry.Role",
							"name": "role",
							"type": "uint8"
						}
					],
					"name": "UserRegistered",
					"type": "event"
				},
				{
					"inputs": [
						{
							"internalType": "address",
							"name": "_addr",
							"type": "address"
						}
					],
					"name": "getUser",
					"outputs": [
						{
							"components": [
								{
									"internalType": "address",
									"name": "userAddress",
									"type": "address"
								},
								{
									"internalType": "enum DigitalIdentityRegistry.Role",
									"name": "role",
									"type": "uint8"
								},
								{
									"internalType": "bytes32",
									"name": "hashID",
									"type": "bytes32"
								},
								{
									"internalType": "bool",
									"name": "isRegistered",
									"type": "bool"
								}
							],
							"internalType": "struct DigitalIdentityRegistry.User",
							"name": "",
							"type": "tuple"
						}
					],
					"stateMutability": "view",
					"type": "function"
				},
				{
					"inputs": [
						{
							"internalType": "bytes32",
							"name": "_hashID",
							"type": "bytes32"
						}
					],
					"name": "registerDoctor",
					"outputs": [],
					"stateMutability": "nonpayable",
					"type": "function"
				},
				{
					"inputs": [
						{
							"internalType": "bytes32",
							"name": "_hashID",
							"type": "bytes32"
						}
					],
					"name": "registerPatient",
					"outputs": [],
					"stateMutability": "nonpayable",
					"type": "function"
				},
				{
					"inputs": [
						{
							"internalType": "address",
							"name": "",
							"type": "address"
						}
					],
					"name": "users",
					"outputs": [
						{
							"internalType": "address",
							"name": "userAddress",
							"type": "address"
						},
						{
							"internalType": "enum DigitalIdentityRegistry.Role",
							"name": "role",
							"type": "uint8"
						},
						{
							"internalType": "bytes32",
							"name": "hashID",
							"type": "bytes32"
						},
						{
							"internalType": "bool",
							"name": "isRegistered",
							"type": "bool"
						}
					],
					"stateMutability": "view",
					"type": "function"
				}
			],
			"devdoc": {
				"kind": "dev",
				"methods": {},
				"version": 1
			},
			"evm": {
				"assembly": "    /* \"contracts/DigitalIdentityRegistry.sol\":61:904  contract DigitalIdentityRegistry {... */\n  mstore(0x40, 0x80)\n  callvalue\n  dup1\n  iszero\n  tag_1\n  jumpi\n  revert(0x00, 0x00)\ntag_1:\n  pop\n  dataSize(sub_0)\n  dup1\n  dataOffset(sub_0)\n  0x00\n  codecopy\n  0x00\n  return\nstop\n\nsub_0: assembly {\n        /* \"contracts/DigitalIdentityRegistry.sol\":61:904  contract DigitalIdentityRegistry {... */\n      mstore(0x40, 0x80)\n      callvalue\n      dup1\n      iszero\n      tag_1\n      jumpi\n      revert(0x00, 0x00)\n    tag_1:\n      pop\n      jumpi(tag_2, lt(calldatasize, 0x04))\n      shr(0xe0, calldataload(0x00))\n      dup1\n      0x6f77926b\n      eq\n      tag_3\n      jumpi\n      dup1\n      0x8ebc10d9\n      eq\n      tag_4\n      jumpi\n      dup1\n      0xa0083b7f\n      eq\n      tag_5\n      jumpi\n      dup1\n      0xa87430ba\n      eq\n      tag_6\n      jumpi\n    tag_2:\n      revert(0x00, 0x00)\n        /* \"contracts/DigitalIdentityRegistry.sol\":795:901  function getUser(address _addr) external view returns (User memory) {... */\n    tag_3:\n      tag_7\n      0x04\n      dup1\n      calldatasize\n      sub\n      dup2\n      add\n      swap1\n      tag_8\n      swap2\n      swap1\n      tag_9\n      jump\t// in\n    tag_8:\n      tag_10\n      jump\t// in\n    tag_7:\n      mload(0x40)\n      tag_11\n      swap2\n      swap1\n      tag_12\n      jump\t// in\n    tag_11:\n      mload(0x40)\n      dup1\n      swap2\n      sub\n      swap1\n      return\n        /* \"contracts/DigitalIdentityRegistry.sol\":400:591  function registerPatient(bytes32 _hashID) external {... */\n    tag_4:\n      tag_13\n      0x04\n      dup1\n      calldatasize\n      sub\n      dup2\n      add\n      swap1\n      tag_14\n      swap2\n      swap1\n      tag_15\n      jump\t// in\n    tag_14:\n      tag_16\n      jump\t// in\n    tag_13:\n      stop\n        /* \"contracts/DigitalIdentityRegistry.sol\":599:787  function registerDoctor(bytes32 _hashID) external {... */\n    tag_5:\n      tag_17\n      0x04\n      dup1\n      calldatasize\n      sub\n      dup2\n      add\n      swap1\n      tag_18\n      swap2\n      swap1\n      tag_15\n      jump\t// in\n    tag_18:\n      tag_19\n      jump\t// in\n    tag_17:\n      stop\n        /* \"contracts/DigitalIdentityRegistry.sol\":300:337  mapping(address => User) public users */\n    tag_6:\n      tag_20\n      0x04\n      dup1\n      calldatasize\n      sub\n      dup2\n      add\n      swap1\n      tag_21\n      swap2\n      swap1\n      tag_9\n      jump\t// in\n    tag_21:\n      tag_22\n      jump\t// in\n    tag_20:\n      mload(0x40)\n      tag_23\n      swap5\n      swap4\n      swap3\n      swap2\n      swap1\n      tag_24\n      jump\t// in\n    tag_23:\n      mload(0x40)\n      dup1\n      swap2\n      sub\n      swap1\n      return\n        /* \"contracts/DigitalIdentityRegistry.sol\":795:901  function getUser(address _addr) external view returns (User memory) {... */\n    tag_10:\n        /* \"contracts/DigitalIdentityRegistry.sol\":850:861  User memory */\n      tag_25\n      tag_26\n      jump\t// in\n    tag_25:\n        /* \"contracts/DigitalIdentityRegistry.sol\":881:886  users */\n      0x00\n        /* \"contracts/DigitalIdentityRegistry.sol\":881:893  users[_addr] */\n      0x00\n        /* \"contracts/DigitalIdentityRegistry.sol\":887:892  _addr */\n      dup4\n        /* \"contracts/DigitalIdentityRegistry.sol\":881:893  users[_addr] */\n      0xffffffffffffffffffffffffffffffffffffffff\n      and\n      0xffffffffffffffffffffffffffffffffffffffff\n      and\n      dup2\n      mstore\n      0x20\n      add\n      swap1\n      dup2\n      mstore\n      0x20\n      add\n      0x00\n      keccak256\n        /* \"contracts/DigitalIdentityRegistry.sol\":874:893  return users[_addr] */\n      mload(0x40)\n      dup1\n      0x80\n      add\n      0x40\n      mstore\n      swap1\n      dup2\n      0x00\n      dup3\n      add\n      0x00\n      swap1\n      sload\n      swap1\n      0x0100\n      exp\n      swap1\n      div\n      0xffffffffffffffffffffffffffffffffffffffff\n      and\n      0xffffffffffffffffffffffffffffffffffffffff\n      and\n      0xffffffffffffffffffffffffffffffffffffffff\n      and\n      dup2\n      mstore\n      0x20\n      add\n      0x00\n      dup3\n      add\n      0x14\n      swap1\n      sload\n      swap1\n      0x0100\n      exp\n      swap1\n      div\n      0xff\n      and\n      0x04\n      dup2\n      gt\n      iszero\n      tag_28\n      jumpi\n      tag_29\n      tag_30\n      jump\t// in\n    tag_29:\n    tag_28:\n      0x04\n      dup2\n      gt\n      iszero\n      tag_31\n      jumpi\n      tag_32\n      tag_30\n      jump\t// in\n    tag_32:\n    tag_31:\n      dup2\n      mstore\n      0x20\n      add\n      0x01\n      dup3\n      add\n      sload\n      dup2\n      mstore\n      0x20\n      add\n      0x02\n      dup3\n      add\n      0x00\n      swap1\n      sload\n      swap1\n      0x0100\n      exp\n      swap1\n      div\n      0xff\n      and\n      iszero\n      iszero\n      iszero\n      iszero\n      dup2\n      mstore\n      pop\n      pop\n      swap1\n      pop\n        /* \"contracts/DigitalIdentityRegistry.sol\":795:901  function getUser(address _addr) external view returns (User memory) {... */\n      swap2\n      swap1\n      pop\n      jump\t// out\n        /* \"contracts/DigitalIdentityRegistry.sol\":400:591  function registerPatient(bytes32 _hashID) external {... */\n    tag_16:\n        /* \"contracts/DigitalIdentityRegistry.sol\":482:527  User(msg.sender, Role.PATIENT, _hashID, true) */\n      mload(0x40)\n      dup1\n      0x80\n      add\n      0x40\n      mstore\n      dup1\n        /* \"contracts/DigitalIdentityRegistry.sol\":487:497  msg.sender */\n      caller\n        /* \"contracts/DigitalIdentityRegistry.sol\":482:527  User(msg.sender, Role.PATIENT, _hashID, true) */\n      0xffffffffffffffffffffffffffffffffffffffff\n      and\n      dup2\n      mstore\n      0x20\n      add\n        /* \"contracts/DigitalIdentityRegistry.sol\":499:511  Role.PATIENT */\n      0x01\n        /* \"contracts/DigitalIdentityRegistry.sol\":482:527  User(msg.sender, Role.PATIENT, _hashID, true) */\n      0x04\n      dup2\n      gt\n      iszero\n      tag_34\n      jumpi\n      tag_35\n      tag_30\n      jump\t// in\n    tag_35:\n    tag_34:\n      dup2\n      mstore\n      0x20\n      add\n        /* \"contracts/DigitalIdentityRegistry.sol\":513:520  _hashID */\n      dup3\n        /* \"contracts/DigitalIdentityRegistry.sol\":482:527  User(msg.sender, Role.PATIENT, _hashID, true) */\n      dup2\n      mstore\n      0x20\n      add\n        /* \"contracts/DigitalIdentityRegistry.sol\":522:526  true */\n      0x01\n        /* \"contracts/DigitalIdentityRegistry.sol\":482:527  User(msg.sender, Role.PATIENT, _hashID, true) */\n      iszero\n      iszero\n      dup2\n      mstore\n      pop\n        /* \"contracts/DigitalIdentityRegistry.sol\":462:467  users */\n      0x00\n        /* \"contracts/DigitalIdentityRegistry.sol\":462:479  users[msg.sender] */\n      0x00\n        /* \"contracts/DigitalIdentityRegistry.sol\":468:478  msg.sender */\n      caller\n        /* \"contracts/DigitalIdentityRegistry.sol\":462:479  users[msg.sender] */\n      0xffffffffffffffffffffffffffffffffffffffff\n      and\n      0xffffffffffffffffffffffffffffffffffffffff\n      and\n      dup2\n      mstore\n      0x20\n      add\n      swap1\n      dup2\n      mstore\n      0x20\n      add\n      0x00\n      keccak256\n        /* \"contracts/DigitalIdentityRegistry.sol\":462:527  users[msg.sender] = User(msg.sender, Role.PATIENT, _hashID, true) */\n      0x00\n      dup3\n      add\n      mload\n      dup2\n      0x00\n      add\n      exp(0x0100, 0x00)\n      dup2\n      sload\n      dup2\n      0xffffffffffffffffffffffffffffffffffffffff\n      mul\n      not\n      and\n      swap1\n      dup4\n      0xffffffffffffffffffffffffffffffffffffffff\n      and\n      mul\n      or\n      swap1\n      sstore\n      pop\n      0x20\n      dup3\n      add\n      mload\n      dup2\n      0x00\n      add\n      exp(0x0100, 0x14)\n      dup2\n      sload\n      dup2\n      0xff\n      mul\n      not\n      and\n      swap1\n      dup4\n      0x04\n      dup2\n      gt\n      iszero\n      tag_36\n      jumpi\n      tag_37\n      tag_30\n      jump\t// in\n    tag_37:\n    tag_36:\n      mul\n      or\n      swap1\n      sstore\n      pop\n      0x40\n      dup3\n      add\n      mload\n      dup2\n      0x01\n      add\n      sstore\n      0x60\n      dup3\n      add\n      mload\n      dup2\n      0x02\n      add\n      exp(0x0100, 0x00)\n      dup2\n      sload\n      dup2\n      0xff\n      mul\n      not\n      and\n      swap1\n      dup4\n      iszero\n      iszero\n      mul\n      or\n      swap1\n      sstore\n      pop\n      swap1\n      pop\n      pop\n        /* \"contracts/DigitalIdentityRegistry.sol\":543:583  UserRegistered(msg.sender, Role.PATIENT) */\n      0x8e18574f8a7333e6a87112742a55853a643e2f0550f4e1a3a2c3f1bb2994441d\n        /* \"contracts/DigitalIdentityRegistry.sol\":558:568  msg.sender */\n      caller\n        /* \"contracts/DigitalIdentityRegistry.sol\":570:582  Role.PATIENT */\n      0x01\n        /* \"contracts/DigitalIdentityRegistry.sol\":543:583  UserRegistered(msg.sender, Role.PATIENT) */\n      mload(0x40)\n      tag_38\n      swap3\n      swap2\n      swap1\n      tag_39\n      jump\t// in\n    tag_38:\n      mload(0x40)\n      dup1\n      swap2\n      sub\n      swap1\n      log1\n        /* \"contracts/DigitalIdentityRegistry.sol\":400:591  function registerPatient(bytes32 _hashID) external {... */\n      pop\n      jump\t// out\n        /* \"contracts/DigitalIdentityRegistry.sol\":599:787  function registerDoctor(bytes32 _hashID) external {... */\n    tag_19:\n        /* \"contracts/DigitalIdentityRegistry.sol\":680:724  User(msg.sender, Role.DOCTOR, _hashID, true) */\n      mload(0x40)\n      dup1\n      0x80\n      add\n      0x40\n      mstore\n      dup1\n        /* \"contracts/DigitalIdentityRegistry.sol\":685:695  msg.sender */\n      caller\n        /* \"contracts/DigitalIdentityRegistry.sol\":680:724  User(msg.sender, Role.DOCTOR, _hashID, true) */\n      0xffffffffffffffffffffffffffffffffffffffff\n      and\n      dup2\n      mstore\n      0x20\n      add\n        /* \"contracts/DigitalIdentityRegistry.sol\":697:708  Role.DOCTOR */\n      0x02\n        /* \"contracts/DigitalIdentityRegistry.sol\":680:724  User(msg.sender, Role.DOCTOR, _hashID, true) */\n      0x04\n      dup2\n      gt\n      iszero\n      tag_41\n      jumpi\n      tag_42\n      tag_30\n      jump\t// in\n    tag_42:\n    tag_41:\n      dup2\n      mstore\n      0x20\n      add\n        /* \"contracts/DigitalIdentityRegistry.sol\":710:717  _hashID */\n      dup3\n        /* \"contracts/DigitalIdentityRegistry.sol\":680:724  User(msg.sender, Role.DOCTOR, _hashID, true) */\n      dup2\n      mstore\n      0x20\n      add\n        /* \"contracts/DigitalIdentityRegistry.sol\":719:723  true */\n      0x01\n        /* \"contracts/DigitalIdentityRegistry.sol\":680:724  User(msg.sender, Role.DOCTOR, _hashID, true) */\n      iszero\n      iszero\n      dup2\n      mstore\n      pop\n        /* \"contracts/DigitalIdentityRegistry.sol\":660:665  users */\n      0x00\n        /* \"contracts/DigitalIdentityRegistry.sol\":660:677  users[msg.sender] */\n      0x00\n        /* \"contracts/DigitalIdentityRegistry.sol\":666:676  msg.sender */\n      caller\n        /* \"contracts/DigitalIdentityRegistry.sol\":660:677  users[msg.sender] */\n      0xffffffffffffffffffffffffffffffffffffffff\n      and\n      0xffffffffffffffffffffffffffffffffffffffff\n      and\n      dup2\n      mstore\n      0x20\n      add\n      swap1\n      dup2\n      mstore\n      0x20\n      add\n      0x00\n      keccak256\n        /* \"contracts/DigitalIdentityRegistry.sol\":660:724  users[msg.sender] = User(msg.sender, Role.DOCTOR, _hashID, true) */\n      0x00\n      dup3\n      add\n      mload\n      dup2\n      0x00\n      add\n      exp(0x0100, 0x00)\n      dup2\n      sload\n      dup2\n      0xffffffffffffffffffffffffffffffffffffffff\n      mul\n      not\n      and\n      swap1\n      dup4\n      0xffffffffffffffffffffffffffffffffffffffff\n      and\n      mul\n      or\n      swap1\n      sstore\n      pop\n      0x20\n      dup3\n      add\n      mload\n      dup2\n      0x00\n      add\n      exp(0x0100, 0x14)\n      dup2\n      sload\n      dup2\n      0xff\n      mul\n      not\n      and\n      swap1\n      dup4\n      0x04\n      dup2\n      gt\n      iszero\n      tag_43\n      jumpi\n      tag_44\n      tag_30\n      jump\t// in\n    tag_44:\n    tag_43:\n      mul\n      or\n      swap1\n      sstore\n      pop\n      0x40\n      dup3\n      add\n      mload\n      dup2\n      0x01\n      add\n      sstore\n      0x60\n      dup3\n      add\n      mload\n      dup2\n      0x02\n      add\n      exp(0x0100, 0x00)\n      dup2\n      sload\n      dup2\n      0xff\n      mul\n      not\n      and\n      swap1\n      dup4\n      iszero\n      iszero\n      mul\n      or\n      swap1\n      sstore\n      pop\n      swap1\n      pop\n      pop\n        /* \"contracts/DigitalIdentityRegistry.sol\":740:779  UserRegistered(msg.sender, Role.DOCTOR) */\n      0x8e18574f8a7333e6a87112742a55853a643e2f0550f4e1a3a2c3f1bb2994441d\n        /* \"contracts/DigitalIdentityRegistry.sol\":755:765  msg.sender */\n      caller\n        /* \"contracts/DigitalIdentityRegistry.sol\":767:778  Role.DOCTOR */\n      0x02\n        /* \"contracts/DigitalIdentityRegistry.sol\":740:779  UserRegistered(msg.sender, Role.DOCTOR) */\n      mload(0x40)\n      tag_45\n      swap3\n      swap2\n      swap1\n      tag_39\n      jump\t// in\n    tag_45:\n      mload(0x40)\n      dup1\n      swap2\n      sub\n      swap1\n      log1\n        /* \"contracts/DigitalIdentityRegistry.sol\":599:787  function registerDoctor(bytes32 _hashID) external {... */\n      pop\n      jump\t// out\n        /* \"contracts/DigitalIdentityRegistry.sol\":300:337  mapping(address => User) public users */\n    tag_22:\n      mstore(0x20, 0x00)\n      dup1\n      0x00\n      mstore\n      keccak256(0x00, 0x40)\n      0x00\n      swap2\n      pop\n      swap1\n      pop\n      dup1\n      0x00\n      add\n      0x00\n      swap1\n      sload\n      swap1\n      0x0100\n      exp\n      swap1\n      div\n      0xffffffffffffffffffffffffffffffffffffffff\n      and\n      swap1\n      dup1\n      0x00\n      add\n      0x14\n      swap1\n      sload\n      swap1\n      0x0100\n      exp\n      swap1\n      div\n      0xff\n      and\n      swap1\n      dup1\n      0x01\n      add\n      sload\n      swap1\n      dup1\n      0x02\n      add\n      0x00\n      swap1\n      sload\n      swap1\n      0x0100\n      exp\n      swap1\n      div\n      0xff\n      and\n      swap1\n      pop\n      dup5\n      jump\t// out\n    tag_26:\n      mload(0x40)\n      dup1\n      0x80\n      add\n      0x40\n      mstore\n      dup1\n      and(0xffffffffffffffffffffffffffffffffffffffff, 0x00)\n      dup2\n      mstore\n      0x20\n      add\n      0x00\n      0x04\n      dup2\n      gt\n      iszero\n      tag_46\n      jumpi\n      tag_47\n      tag_30\n      jump\t// in\n    tag_47:\n    tag_46:\n      dup2\n      mstore\n      0x20\n      add\n      0x00\n      dup2\n      mstore\n      0x20\n      add\n      iszero(iszero(0x00))\n      dup2\n      mstore\n      pop\n      swap1\n      jump\t// out\n        /* \"#utility.yul\":88:205   */\n    tag_49:\n        /* \"#utility.yul\":197:198   */\n      0x00\n        /* \"#utility.yul\":194:195   */\n      0x00\n        /* \"#utility.yul\":187:199   */\n      revert\n        /* \"#utility.yul\":334:460   */\n    tag_51:\n        /* \"#utility.yul\":371:378   */\n      0x00\n        /* \"#utility.yul\":411:453   */\n      0xffffffffffffffffffffffffffffffffffffffff\n        /* \"#utility.yul\":404:409   */\n      dup3\n        /* \"#utility.yul\":400:454   */\n      and\n        /* \"#utility.yul\":389:454   */\n      swap1\n      pop\n        /* \"#utility.yul\":334:460   */\n      swap2\n      swap1\n      pop\n      jump\t// out\n        /* \"#utility.yul\":466:562   */\n    tag_52:\n        /* \"#utility.yul\":503:510   */\n      0x00\n        /* \"#utility.yul\":532:556   */\n      tag_77\n        /* \"#utility.yul\":550:555   */\n      dup3\n        /* \"#utility.yul\":532:556   */\n      tag_51\n      jump\t// in\n    tag_77:\n        /* \"#utility.yul\":521:556   */\n      swap1\n      pop\n        /* \"#utility.yul\":466:562   */\n      swap2\n      swap1\n      pop\n      jump\t// out\n        /* \"#utility.yul\":568:690   */\n    tag_53:\n        /* \"#utility.yul\":641:665   */\n      tag_79\n        /* \"#utility.yul\":659:664   */\n      dup2\n        /* \"#utility.yul\":641:665   */\n      tag_52\n      jump\t// in\n    tag_79:\n        /* \"#utility.yul\":634:639   */\n      dup2\n        /* \"#utility.yul\":631:666   */\n      eq\n        /* \"#utility.yul\":621:684   */\n      tag_80\n      jumpi\n        /* \"#utility.yul\":680:681   */\n      0x00\n        /* \"#utility.yul\":677:678   */\n      0x00\n        /* \"#utility.yul\":670:682   */\n      revert\n        /* \"#utility.yul\":621:684   */\n    tag_80:\n        /* \"#utility.yul\":568:690   */\n      pop\n      jump\t// out\n        /* \"#utility.yul\":696:835   */\n    tag_54:\n        /* \"#utility.yul\":742:747   */\n      0x00\n        /* \"#utility.yul\":780:786   */\n      dup2\n        /* \"#utility.yul\":767:787   */\n      calldataload\n        /* \"#utility.yul\":758:787   */\n      swap1\n      pop\n        /* \"#utility.yul\":796:829   */\n      tag_82\n        /* \"#utility.yul\":823:828   */\n      dup2\n        /* \"#utility.yul\":796:829   */\n      tag_53\n      jump\t// in\n    tag_82:\n        /* \"#utility.yul\":696:835   */\n      swap3\n      swap2\n      pop\n      pop\n      jump\t// out\n        /* \"#utility.yul\":841:1170   */\n    tag_9:\n        /* \"#utility.yul\":900:906   */\n      0x00\n        /* \"#utility.yul\":949:951   */\n      0x20\n        /* \"#utility.yul\":937:946   */\n      dup3\n        /* \"#utility.yul\":928:935   */\n      dup5\n        /* \"#utility.yul\":924:947   */\n      sub\n        /* \"#utility.yul\":920:952   */\n      slt\n        /* \"#utility.yul\":917:1036   */\n      iszero\n      tag_84\n      jumpi\n        /* \"#utility.yul\":955:1034   */\n      tag_85\n      tag_49\n      jump\t// in\n    tag_85:\n        /* \"#utility.yul\":917:1036   */\n    tag_84:\n        /* \"#utility.yul\":1075:1076   */\n      0x00\n        /* \"#utility.yul\":1100:1153   */\n      tag_86\n        /* \"#utility.yul\":1145:1152   */\n      dup5\n        /* \"#utility.yul\":1136:1142   */\n      dup3\n        /* \"#utility.yul\":1125:1134   */\n      dup6\n        /* \"#utility.yul\":1121:1143   */\n      add\n        /* \"#utility.yul\":1100:1153   */\n      tag_54\n      jump\t// in\n    tag_86:\n        /* \"#utility.yul\":1090:1153   */\n      swap2\n      pop\n        /* \"#utility.yul\":1046:1163   */\n      pop\n        /* \"#utility.yul\":841:1170   */\n      swap3\n      swap2\n      pop\n      pop\n      jump\t// out\n        /* \"#utility.yul\":1176:1284   */\n    tag_55:\n        /* \"#utility.yul\":1253:1277   */\n      tag_88\n        /* \"#utility.yul\":1271:1276   */\n      dup2\n        /* \"#utility.yul\":1253:1277   */\n      tag_52\n      jump\t// in\n    tag_88:\n        /* \"#utility.yul\":1248:1251   */\n      dup3\n        /* \"#utility.yul\":1241:1278   */\n      mstore\n        /* \"#utility.yul\":1176:1284   */\n      pop\n      pop\n      jump\t// out\n        /* \"#utility.yul\":1290:1470   */\n    tag_30:\n        /* \"#utility.yul\":1338:1415   */\n      0x4e487b7100000000000000000000000000000000000000000000000000000000\n        /* \"#utility.yul\":1335:1336   */\n      0x00\n        /* \"#utility.yul\":1328:1416   */\n      mstore\n        /* \"#utility.yul\":1435:1439   */\n      0x21\n        /* \"#utility.yul\":1432:1433   */\n      0x04\n        /* \"#utility.yul\":1425:1440   */\n      mstore\n        /* \"#utility.yul\":1459:1463   */\n      0x24\n        /* \"#utility.yul\":1456:1457   */\n      0x00\n        /* \"#utility.yul\":1449:1464   */\n      revert\n        /* \"#utility.yul\":1476:1587   */\n    tag_56:\n        /* \"#utility.yul\":1555:1556   */\n      0x05\n        /* \"#utility.yul\":1548:1553   */\n      dup2\n        /* \"#utility.yul\":1545:1557   */\n      lt\n        /* \"#utility.yul\":1535:1581   */\n      tag_91\n      jumpi\n        /* \"#utility.yul\":1561:1579   */\n      tag_92\n      tag_30\n      jump\t// in\n    tag_92:\n        /* \"#utility.yul\":1535:1581   */\n    tag_91:\n        /* \"#utility.yul\":1476:1587   */\n      pop\n      jump\t// out\n        /* \"#utility.yul\":1593:1716   */\n    tag_57:\n        /* \"#utility.yul\":1636:1643   */\n      0x00\n        /* \"#utility.yul\":1665:1670   */\n      dup2\n        /* \"#utility.yul\":1654:1670   */\n      swap1\n      pop\n        /* \"#utility.yul\":1671:1710   */\n      tag_94\n        /* \"#utility.yul\":1704:1709   */\n      dup3\n        /* \"#utility.yul\":1671:1710   */\n      tag_56\n      jump\t// in\n    tag_94:\n        /* \"#utility.yul\":1593:1716   */\n      swap2\n      swap1\n      pop\n      jump\t// out\n        /* \"#utility.yul\":1722:1845   */\n    tag_58:\n        /* \"#utility.yul\":1776:1785   */\n      0x00\n        /* \"#utility.yul\":1809:1839   */\n      tag_96\n        /* \"#utility.yul\":1833:1838   */\n      dup3\n        /* \"#utility.yul\":1809:1839   */\n      tag_57\n      jump\t// in\n    tag_96:\n        /* \"#utility.yul\":1796:1839   */\n      swap1\n      pop\n        /* \"#utility.yul\":1722:1845   */\n      swap2\n      swap1\n      pop\n      jump\t// out\n        /* \"#utility.yul\":1851:1980   */\n    tag_59:\n        /* \"#utility.yul\":1932:1973   */\n      tag_98\n        /* \"#utility.yul\":1967:1972   */\n      dup2\n        /* \"#utility.yul\":1932:1973   */\n      tag_58\n      jump\t// in\n    tag_98:\n        /* \"#utility.yul\":1927:1930   */\n      dup3\n        /* \"#utility.yul\":1920:1974   */\n      mstore\n        /* \"#utility.yul\":1851:1980   */\n      pop\n      pop\n      jump\t// out\n        /* \"#utility.yul\":1986:2063   */\n    tag_60:\n        /* \"#utility.yul\":2023:2030   */\n      0x00\n        /* \"#utility.yul\":2052:2057   */\n      dup2\n        /* \"#utility.yul\":2041:2057   */\n      swap1\n      pop\n        /* \"#utility.yul\":1986:2063   */\n      swap2\n      swap1\n      pop\n      jump\t// out\n        /* \"#utility.yul\":2069:2177   */\n    tag_61:\n        /* \"#utility.yul\":2146:2170   */\n      tag_101\n        /* \"#utility.yul\":2164:2169   */\n      dup2\n        /* \"#utility.yul\":2146:2170   */\n      tag_60\n      jump\t// in\n    tag_101:\n        /* \"#utility.yul\":2141:2144   */\n      dup3\n        /* \"#utility.yul\":2134:2171   */\n      mstore\n        /* \"#utility.yul\":2069:2177   */\n      pop\n      pop\n      jump\t// out\n        /* \"#utility.yul\":2183:2273   */\n    tag_62:\n        /* \"#utility.yul\":2217:2224   */\n      0x00\n        /* \"#utility.yul\":2260:2265   */\n      dup2\n        /* \"#utility.yul\":2253:2266   */\n      iszero\n        /* \"#utility.yul\":2246:2267   */\n      iszero\n        /* \"#utility.yul\":2235:2267   */\n      swap1\n      pop\n        /* \"#utility.yul\":2183:2273   */\n      swap2\n      swap1\n      pop\n      jump\t// out\n        /* \"#utility.yul\":2279:2378   */\n    tag_63:\n        /* \"#utility.yul\":2350:2371   */\n      tag_104\n        /* \"#utility.yul\":2365:2370   */\n      dup2\n        /* \"#utility.yul\":2350:2371   */\n      tag_62\n      jump\t// in\n    tag_104:\n        /* \"#utility.yul\":2345:2348   */\n      dup3\n        /* \"#utility.yul\":2338:2372   */\n      mstore\n        /* \"#utility.yul\":2279:2378   */\n      pop\n      pop\n      jump\t// out\n        /* \"#utility.yul\":2466:3326   */\n    tag_64:\n        /* \"#utility.yul\":2603:2607   */\n      0x80\n        /* \"#utility.yul\":2598:2601   */\n      dup3\n        /* \"#utility.yul\":2594:2608   */\n      add\n        /* \"#utility.yul\":2697:2701   */\n      0x00\n        /* \"#utility.yul\":2690:2695   */\n      dup3\n        /* \"#utility.yul\":2686:2702   */\n      add\n        /* \"#utility.yul\":2680:2703   */\n      mload\n        /* \"#utility.yul\":2716:2779   */\n      tag_106\n        /* \"#utility.yul\":2773:2777   */\n      0x00\n        /* \"#utility.yul\":2768:2771   */\n      dup6\n        /* \"#utility.yul\":2764:2778   */\n      add\n        /* \"#utility.yul\":2750:2762   */\n      dup3\n        /* \"#utility.yul\":2716:2779   */\n      tag_55\n      jump\t// in\n    tag_106:\n        /* \"#utility.yul\":2618:2789   */\n      pop\n        /* \"#utility.yul\":2871:2875   */\n      0x20\n        /* \"#utility.yul\":2864:2869   */\n      dup3\n        /* \"#utility.yul\":2860:2876   */\n      add\n        /* \"#utility.yul\":2854:2877   */\n      mload\n        /* \"#utility.yul\":2890:2957   */\n      tag_107\n        /* \"#utility.yul\":2951:2955   */\n      0x20\n        /* \"#utility.yul\":2946:2949   */\n      dup6\n        /* \"#utility.yul\":2942:2956   */\n      add\n        /* \"#utility.yul\":2928:2940   */\n      dup3\n        /* \"#utility.yul\":2890:2957   */\n      tag_59\n      jump\t// in\n    tag_107:\n        /* \"#utility.yul\":2799:2967   */\n      pop\n        /* \"#utility.yul\":3051:3055   */\n      0x40\n        /* \"#utility.yul\":3044:3049   */\n      dup3\n        /* \"#utility.yul\":3040:3056   */\n      add\n        /* \"#utility.yul\":3034:3057   */\n      mload\n        /* \"#utility.yul\":3070:3133   */\n      tag_108\n        /* \"#utility.yul\":3127:3131   */\n      0x40\n        /* \"#utility.yul\":3122:3125   */\n      dup6\n        /* \"#utility.yul\":3118:3132   */\n      add\n        /* \"#utility.yul\":3104:3116   */\n      dup3\n        /* \"#utility.yul\":3070:3133   */\n      tag_61\n      jump\t// in\n    tag_108:\n        /* \"#utility.yul\":2977:3143   */\n      pop\n        /* \"#utility.yul\":3233:3237   */\n      0x60\n        /* \"#utility.yul\":3226:3231   */\n      dup3\n        /* \"#utility.yul\":3222:3238   */\n      add\n        /* \"#utility.yul\":3216:3239   */\n      mload\n        /* \"#utility.yul\":3252:3309   */\n      tag_109\n        /* \"#utility.yul\":3303:3307   */\n      0x60\n        /* \"#utility.yul\":3298:3301   */\n      dup6\n        /* \"#utility.yul\":3294:3308   */\n      add\n        /* \"#utility.yul\":3280:3292   */\n      dup3\n        /* \"#utility.yul\":3252:3309   */\n      tag_63\n      jump\t// in\n    tag_109:\n        /* \"#utility.yul\":3153:3319   */\n      pop\n        /* \"#utility.yul\":2572:3326   */\n      pop\n        /* \"#utility.yul\":2466:3326   */\n      pop\n      pop\n      jump\t// out\n        /* \"#utility.yul\":3332:3635   */\n    tag_12:\n        /* \"#utility.yul\":3465:3469   */\n      0x00\n        /* \"#utility.yul\":3503:3506   */\n      0x80\n        /* \"#utility.yul\":3492:3501   */\n      dup3\n        /* \"#utility.yul\":3488:3507   */\n      add\n        /* \"#utility.yul\":3480:3507   */\n      swap1\n      pop\n        /* \"#utility.yul\":3517:3628   */\n      tag_111\n        /* \"#utility.yul\":3625:3626   */\n      0x00\n        /* \"#utility.yul\":3614:3623   */\n      dup4\n        /* \"#utility.yul\":3610:3627   */\n      add\n        /* \"#utility.yul\":3601:3607   */\n      dup5\n        /* \"#utility.yul\":3517:3628   */\n      tag_64\n      jump\t// in\n    tag_111:\n        /* \"#utility.yul\":3332:3635   */\n      swap3\n      swap2\n      pop\n      pop\n      jump\t// out\n        /* \"#utility.yul\":3641:3763   */\n    tag_65:\n        /* \"#utility.yul\":3714:3738   */\n      tag_113\n        /* \"#utility.yul\":3732:3737   */\n      dup2\n        /* \"#utility.yul\":3714:3738   */\n      tag_60\n      jump\t// in\n    tag_113:\n        /* \"#utility.yul\":3707:3712   */\n      dup2\n        /* \"#utility.yul\":3704:3739   */\n      eq\n        /* \"#utility.yul\":3694:3757   */\n      tag_114\n      jumpi\n        /* \"#utility.yul\":3753:3754   */\n      0x00\n        /* \"#utility.yul\":3750:3751   */\n      0x00\n        /* \"#utility.yul\":3743:3755   */\n      revert\n        /* \"#utility.yul\":3694:3757   */\n    tag_114:\n        /* \"#utility.yul\":3641:3763   */\n      pop\n      jump\t// out\n        /* \"#utility.yul\":3769:3908   */\n    tag_66:\n        /* \"#utility.yul\":3815:3820   */\n      0x00\n        /* \"#utility.yul\":3853:3859   */\n      dup2\n        /* \"#utility.yul\":3840:3860   */\n      calldataload\n        /* \"#utility.yul\":3831:3860   */\n      swap1\n      pop\n        /* \"#utility.yul\":3869:3902   */\n      tag_116\n        /* \"#utility.yul\":3896:3901   */\n      dup2\n        /* \"#utility.yul\":3869:3902   */\n      tag_65\n      jump\t// in\n    tag_116:\n        /* \"#utility.yul\":3769:3908   */\n      swap3\n      swap2\n      pop\n      pop\n      jump\t// out\n        /* \"#utility.yul\":3914:4243   */\n    tag_15:\n        /* \"#utility.yul\":3973:3979   */\n      0x00\n        /* \"#utility.yul\":4022:4024   */\n      0x20\n        /* \"#utility.yul\":4010:4019   */\n      dup3\n        /* \"#utility.yul\":4001:4008   */\n      dup5\n        /* \"#utility.yul\":3997:4020   */\n      sub\n        /* \"#utility.yul\":3993:4025   */\n      slt\n        /* \"#utility.yul\":3990:4109   */\n      iszero\n      tag_118\n      jumpi\n        /* \"#utility.yul\":4028:4107   */\n      tag_119\n      tag_49\n      jump\t// in\n    tag_119:\n        /* \"#utility.yul\":3990:4109   */\n    tag_118:\n        /* \"#utility.yul\":4148:4149   */\n      0x00\n        /* \"#utility.yul\":4173:4226   */\n      tag_120\n        /* \"#utility.yul\":4218:4225   */\n      dup5\n        /* \"#utility.yul\":4209:4215   */\n      dup3\n        /* \"#utility.yul\":4198:4207   */\n      dup6\n        /* \"#utility.yul\":4194:4216   */\n      add\n        /* \"#utility.yul\":4173:4226   */\n      tag_66\n      jump\t// in\n    tag_120:\n        /* \"#utility.yul\":4163:4226   */\n      swap2\n      pop\n        /* \"#utility.yul\":4119:4236   */\n      pop\n        /* \"#utility.yul\":3914:4243   */\n      swap3\n      swap2\n      pop\n      pop\n      jump\t// out\n        /* \"#utility.yul\":4249:4367   */\n    tag_67:\n        /* \"#utility.yul\":4336:4360   */\n      tag_122\n        /* \"#utility.yul\":4354:4359   */\n      dup2\n        /* \"#utility.yul\":4336:4360   */\n      tag_52\n      jump\t// in\n    tag_122:\n        /* \"#utility.yul\":4331:4334   */\n      dup3\n        /* \"#utility.yul\":4324:4361   */\n      mstore\n        /* \"#utility.yul\":4249:4367   */\n      pop\n      pop\n      jump\t// out\n        /* \"#utility.yul\":4373:4512   */\n    tag_68:\n        /* \"#utility.yul\":4464:4505   */\n      tag_124\n        /* \"#utility.yul\":4499:4504   */\n      dup2\n        /* \"#utility.yul\":4464:4505   */\n      tag_58\n      jump\t// in\n    tag_124:\n        /* \"#utility.yul\":4459:4462   */\n      dup3\n        /* \"#utility.yul\":4452:4506   */\n      mstore\n        /* \"#utility.yul\":4373:4512   */\n      pop\n      pop\n      jump\t// out\n        /* \"#utility.yul\":4518:4636   */\n    tag_69:\n        /* \"#utility.yul\":4605:4629   */\n      tag_126\n        /* \"#utility.yul\":4623:4628   */\n      dup2\n        /* \"#utility.yul\":4605:4629   */\n      tag_60\n      jump\t// in\n    tag_126:\n        /* \"#utility.yul\":4600:4603   */\n      dup3\n        /* \"#utility.yul\":4593:4630   */\n      mstore\n        /* \"#utility.yul\":4518:4636   */\n      pop\n      pop\n      jump\t// out\n        /* \"#utility.yul\":4642:4751   */\n    tag_70:\n        /* \"#utility.yul\":4723:4744   */\n      tag_128\n        /* \"#utility.yul\":4738:4743   */\n      dup2\n        /* \"#utility.yul\":4723:4744   */\n      tag_62\n      jump\t// in\n    tag_128:\n        /* \"#utility.yul\":4718:4721   */\n      dup3\n        /* \"#utility.yul\":4711:4745   */\n      mstore\n        /* \"#utility.yul\":4642:4751   */\n      pop\n      pop\n      jump\t// out\n        /* \"#utility.yul\":4757:5306   */\n    tag_24:\n        /* \"#utility.yul\":4932:4936   */\n      0x00\n        /* \"#utility.yul\":4970:4973   */\n      0x80\n        /* \"#utility.yul\":4959:4968   */\n      dup3\n        /* \"#utility.yul\":4955:4974   */\n      add\n        /* \"#utility.yul\":4947:4974   */\n      swap1\n      pop\n        /* \"#utility.yul\":4984:5055   */\n      tag_130\n        /* \"#utility.yul\":5052:5053   */\n      0x00\n        /* \"#utility.yul\":5041:5050   */\n      dup4\n        /* \"#utility.yul\":5037:5054   */\n      add\n        /* \"#utility.yul\":5028:5034   */\n      dup8\n        /* \"#utility.yul\":4984:5055   */\n      tag_67\n      jump\t// in\n    tag_130:\n        /* \"#utility.yul\":5065:5141   */\n      tag_131\n        /* \"#utility.yul\":5137:5139   */\n      0x20\n        /* \"#utility.yul\":5126:5135   */\n      dup4\n        /* \"#utility.yul\":5122:5140   */\n      add\n        /* \"#utility.yul\":5113:5119   */\n      dup7\n        /* \"#utility.yul\":5065:5141   */\n      tag_68\n      jump\t// in\n    tag_131:\n        /* \"#utility.yul\":5151:5223   */\n      tag_132\n        /* \"#utility.yul\":5219:5221   */\n      0x40\n        /* \"#utility.yul\":5208:5217   */\n      dup4\n        /* \"#utility.yul\":5204:5222   */\n      add\n        /* \"#utility.yul\":5195:5201   */\n      dup6\n        /* \"#utility.yul\":5151:5223   */\n      tag_69\n      jump\t// in\n    tag_132:\n        /* \"#utility.yul\":5233:5299   */\n      tag_133\n        /* \"#utility.yul\":5295:5297   */\n      0x60\n        /* \"#utility.yul\":5284:5293   */\n      dup4\n        /* \"#utility.yul\":5280:5298   */\n      add\n        /* \"#utility.yul\":5271:5277   */\n      dup5\n        /* \"#utility.yul\":5233:5299   */\n      tag_70\n      jump\t// in\n    tag_133:\n        /* \"#utility.yul\":4757:5306   */\n      swap6\n      swap5\n      pop\n      pop\n      pop\n      pop\n      pop\n      jump\t// out\n        /* \"#utility.yul\":5312:5652   */\n    tag_39:\n        /* \"#utility.yul\":5437:5441   */\n      0x00\n        /* \"#utility.yul\":5475:5477   */\n      0x40\n        /* \"#utility.yul\":5464:5473   */\n      dup3\n        /* \"#utility.yul\":5460:5478   */\n      add\n        /* \"#utility.yul\":5452:5478   */\n      swap1\n      pop\n        /* \"#utility.yul\":5488:5559   */\n      tag_135\n        /* \"#utility.yul\":5556:5557   */\n      0x00\n        /* \"#utility.yul\":5545:5554   */\n      dup4\n        /* \"#utility.yul\":5541:5558   */\n      add\n        /* \"#utility.yul\":5532:5538   */\n      dup6\n        /* \"#utility.yul\":5488:5559   */\n      tag_67\n      jump\t// in\n    tag_135:\n        /* \"#utility.yul\":5569:5645   */\n      tag_136\n        /* \"#utility.yul\":5641:5643   */\n      0x20\n        /* \"#utility.yul\":5630:5639   */\n      dup4\n        /* \"#utility.yul\":5626:5644   */\n      add\n        /* \"#utility.yul\":5617:5623   */\n      dup5\n        /* \"#utility.yul\":5569:5645   */\n      tag_68\n      jump\t// in\n    tag_136:\n        /* \"#utility.yul\":5312:5652   */\n      swap4\n      swap3\n      pop\n      pop\n      pop\n      jump\t// out\n\n    auxdata: 0xa2646970667358221220fbe6ad80e0747d95c8167c4afcf9a8205b77a4ec8f72b4a42c3ad08e01662c8964736f6c634300081e0033\n}\n",
				"bytecode": {
					"linkReferences": {},
					"object": "6080604052348015600e575f5ffd5b506108458061001c5f395ff3fe608060405234801561000f575f5ffd5b506004361061004a575f3560e01c80636f77926b1461004e5780638ebc10d91461007e578063a0083b7f1461009a578063a87430ba146100b6575b5f5ffd5b610068600480360381019061006391906105c9565b6100e9565b60405161007591906106fb565b60405180910390f35b6100986004803603810190610093919061073e565b6101f1565b005b6100b460048036038101906100af919061073e565b610356565b005b6100d060048036038101906100cb91906105c9565b6104bb565b6040516100e094939291906107a5565b60405180910390f35b6100f161051d565b5f5f8373ffffffffffffffffffffffffffffffffffffffff1673ffffffffffffffffffffffffffffffffffffffff1681526020019081526020015f206040518060800160405290815f82015f9054906101000a900473ffffffffffffffffffffffffffffffffffffffff1673ffffffffffffffffffffffffffffffffffffffff1673ffffffffffffffffffffffffffffffffffffffff1681526020015f820160149054906101000a900460ff1660048111156101b0576101af610603565b5b60048111156101c2576101c1610603565b5b815260200160018201548152602001600282015f9054906101000a900460ff1615151515815250509050919050565b60405180608001604052803373ffffffffffffffffffffffffffffffffffffffff1681526020016001600481111561022c5761022b610603565b5b8152602001828152602001600115158152505f5f3373ffffffffffffffffffffffffffffffffffffffff1673ffffffffffffffffffffffffffffffffffffffff1681526020019081526020015f205f820151815f015f6101000a81548173ffffffffffffffffffffffffffffffffffffffff021916908373ffffffffffffffffffffffffffffffffffffffff1602179055506020820151815f0160146101000a81548160ff021916908360048111156102e8576102e7610603565b5b0217905550604082015181600101556060820151816002015f6101000a81548160ff0219169083151502179055509050507f8e18574f8a7333e6a87112742a55853a643e2f0550f4e1a3a2c3f1bb2994441d33600160405161034b9291906107e8565b60405180910390a150565b60405180608001604052803373ffffffffffffffffffffffffffffffffffffffff1681526020016002600481111561039157610390610603565b5b8152602001828152602001600115158152505f5f3373ffffffffffffffffffffffffffffffffffffffff1673ffffffffffffffffffffffffffffffffffffffff1681526020019081526020015f205f820151815f015f6101000a81548173ffffffffffffffffffffffffffffffffffffffff021916908373ffffffffffffffffffffffffffffffffffffffff1602179055506020820151815f0160146101000a81548160ff0219169083600481111561044d5761044c610603565b5b0217905550604082015181600101556060820151816002015f6101000a81548160ff0219169083151502179055509050507f8e18574f8a7333e6a87112742a55853a643e2f0550f4e1a3a2c3f1bb2994441d3360026040516104b09291906107e8565b60405180910390a150565b5f602052805f5260405f205f91509050805f015f9054906101000a900473ffffffffffffffffffffffffffffffffffffffff1690805f0160149054906101000a900460ff1690806001015490806002015f9054906101000a900460ff16905084565b60405180608001604052805f73ffffffffffffffffffffffffffffffffffffffff1681526020015f600481111561055757610556610603565b5b81526020015f81526020015f151581525090565b5f5ffd5b5f73ffffffffffffffffffffffffffffffffffffffff82169050919050565b5f6105988261056f565b9050919050565b6105a88161058e565b81146105b2575f5ffd5b50565b5f813590506105c38161059f565b92915050565b5f602082840312156105de576105dd61056b565b5b5f6105eb848285016105b5565b91505092915050565b6105fd8161058e565b82525050565b7f4e487b71000000000000000000000000000000000000000000000000000000005f52602160045260245ffd5b6005811061064157610640610603565b5b50565b5f81905061065182610630565b919050565b5f61066082610644565b9050919050565b61067081610656565b82525050565b5f819050919050565b61068881610676565b82525050565b5f8115159050919050565b6106a28161068e565b82525050565b608082015f8201516106bc5f8501826105f4565b5060208201516106cf6020850182610667565b5060408201516106e2604085018261067f565b5060608201516106f56060850182610699565b50505050565b5f60808201905061070e5f8301846106a8565b92915050565b61071d81610676565b8114610727575f5ffd5b50565b5f8135905061073881610714565b92915050565b5f602082840312156107535761075261056b565b5b5f6107608482850161072a565b91505092915050565b6107728161058e565b82525050565b61078181610656565b82525050565b61079081610676565b82525050565b61079f8161068e565b82525050565b5f6080820190506107b85f830187610769565b6107c56020830186610778565b6107d26040830185610787565b6107df6060830184610796565b95945050505050565b5f6040820190506107fb5f830185610769565b6108086020830184610778565b939250505056fea2646970667358221220fbe6ad80e0747d95c8167c4afcf9a8205b77a4ec8f72b4a42c3ad08e01662c8964736f6c634300081e0033",
					"opcodes": "PUSH1 0x80 PUSH1 0x40 MSTORE CALLVALUE DUP1 ISZERO PUSH1 0xE JUMPI PUSH0 PUSH0 REVERT JUMPDEST POP PUSH2 0x845 DUP1 PUSH2 0x1C PUSH0 CODECOPY PUSH0 RETURN INVALID PUSH1 0x80 PUSH1 0x40 MSTORE CALLVALUE DUP1 ISZERO PUSH2 0xF JUMPI PUSH0 PUSH0 REVERT JUMPDEST POP PUSH1 0x4 CALLDATASIZE LT PUSH2 0x4A JUMPI PUSH0 CALLDATALOAD PUSH1 0xE0 SHR DUP1 PUSH4 0x6F77926B EQ PUSH2 0x4E JUMPI DUP1 PUSH4 0x8EBC10D9 EQ PUSH2 0x7E JUMPI DUP1 PUSH4 0xA0083B7F EQ PUSH2 0x9A JUMPI DUP1 PUSH4 0xA87430BA EQ PUSH2 0xB6 JUMPI JUMPDEST PUSH0 PUSH0 REVERT JUMPDEST PUSH2 0x68 PUSH1 0x4 DUP1 CALLDATASIZE SUB DUP2 ADD SWAP1 PUSH2 0x63 SWAP2 SWAP1 PUSH2 0x5C9 JUMP JUMPDEST PUSH2 0xE9 JUMP JUMPDEST PUSH1 0x40 MLOAD PUSH2 0x75 SWAP2 SWAP1 PUSH2 0x6FB JUMP JUMPDEST PUSH1 0x40 MLOAD DUP1 SWAP2 SUB SWAP1 RETURN JUMPDEST PUSH2 0x98 PUSH1 0x4 DUP1 CALLDATASIZE SUB DUP2 ADD SWAP1 PUSH2 0x93 SWAP2 SWAP1 PUSH2 0x73E JUMP JUMPDEST PUSH2 0x1F1 JUMP JUMPDEST STOP JUMPDEST PUSH2 0xB4 PUSH1 0x4 DUP1 CALLDATASIZE SUB DUP2 ADD SWAP1 PUSH2 0xAF SWAP2 SWAP1 PUSH2 0x73E JUMP JUMPDEST PUSH2 0x356 JUMP JUMPDEST STOP JUMPDEST PUSH2 0xD0 PUSH1 0x4 DUP1 CALLDATASIZE SUB DUP2 ADD SWAP1 PUSH2 0xCB SWAP2 SWAP1 PUSH2 0x5C9 JUMP JUMPDEST PUSH2 0x4BB JUMP JUMPDEST PUSH1 0x40 MLOAD PUSH2 0xE0 SWAP5 SWAP4 SWAP3 SWAP2 SWAP1 PUSH2 0x7A5 JUMP JUMPDEST PUSH1 0x40 MLOAD DUP1 SWAP2 SUB SWAP1 RETURN JUMPDEST PUSH2 0xF1 PUSH2 0x51D JUMP JUMPDEST PUSH0 PUSH0 DUP4 PUSH20 0xFFFFFFFFFFFFFFFFFFFFFFFFFFFFFFFFFFFFFFFF AND PUSH20 0xFFFFFFFFFFFFFFFFFFFFFFFFFFFFFFFFFFFFFFFF AND DUP2 MSTORE PUSH1 0x20 ADD SWAP1 DUP2 MSTORE PUSH1 0x20 ADD PUSH0 KECCAK256 PUSH1 0x40 MLOAD DUP1 PUSH1 0x80 ADD PUSH1 0x40 MSTORE SWAP1 DUP2 PUSH0 DUP3 ADD PUSH0 SWAP1 SLOAD SWAP1 PUSH2 0x100 EXP SWAP1 DIV PUSH20 0xFFFFFFFFFFFFFFFFFFFFFFFFFFFFFFFFFFFFFFFF AND PUSH20 0xFFFFFFFFFFFFFFFFFFFFFFFFFFFFFFFFFFFFFFFF AND PUSH20 0xFFFFFFFFFFFFFFFFFFFFFFFFFFFFFFFFFFFFFFFF AND DUP2 MSTORE PUSH1 0x20 ADD PUSH0 DUP3 ADD PUSH1 0x14 SWAP1 SLOAD SWAP1 PUSH2 0x100 EXP SWAP1 DIV PUSH1 0xFF AND PUSH1 0x4 DUP2 GT ISZERO PUSH2 0x1B0 JUMPI PUSH2 0x1AF PUSH2 0x603 JUMP JUMPDEST JUMPDEST PUSH1 0x4 DUP2 GT ISZERO PUSH2 0x1C2 JUMPI PUSH2 0x1C1 PUSH2 0x603 JUMP JUMPDEST JUMPDEST DUP2 MSTORE PUSH1 0x20 ADD PUSH1 0x1 DUP3 ADD SLOAD DUP2 MSTORE PUSH1 0x20 ADD PUSH1 0x2 DUP3 ADD PUSH0 SWAP1 SLOAD SWAP1 PUSH2 0x100 EXP SWAP1 DIV PUSH1 0xFF AND ISZERO ISZERO ISZERO ISZERO DUP2 MSTORE POP POP SWAP1 POP SWAP2 SWAP1 POP JUMP JUMPDEST PUSH1 0x40 MLOAD DUP1 PUSH1 0x80 ADD PUSH1 0x40 MSTORE DUP1 CALLER PUSH20 0xFFFFFFFFFFFFFFFFFFFFFFFFFFFFFFFFFFFFFFFF AND DUP2 MSTORE PUSH1 0x20 ADD PUSH1 0x1 PUSH1 0x4 DUP2 GT ISZERO PUSH2 0x22C JUMPI PUSH2 0x22B PUSH2 0x603 JUMP JUMPDEST JUMPDEST DUP2 MSTORE PUSH1 0x20 ADD DUP3 DUP2 MSTORE PUSH1 0x20 ADD PUSH1 0x1 ISZERO ISZERO DUP2 MSTORE POP PUSH0 PUSH0 CALLER PUSH20 0xFFFFFFFFFFFFFFFFFFFFFFFFFFFFFFFFFFFFFFFF AND PUSH20 0xFFFFFFFFFFFFFFFFFFFFFFFFFFFFFFFFFFFFFFFF AND DUP2 MSTORE PUSH1 0x20 ADD SWAP1 DUP2 MSTORE PUSH1 0x20 ADD PUSH0 KECCAK256 PUSH0 DUP3 ADD MLOAD DUP2 PUSH0 ADD PUSH0 PUSH2 0x100 EXP DUP2 SLOAD DUP2 PUSH20 0xFFFFFFFFFFFFFFFFFFFFFFFFFFFFFFFFFFFFFFFF MUL NOT AND SWAP1 DUP4 PUSH20 0xFFFFFFFFFFFFFFFFFFFFFFFFFFFFFFFFFFFFFFFF AND MUL OR SWAP1 SSTORE POP PUSH1 0x20 DUP3 ADD MLOAD DUP2 PUSH0 ADD PUSH1 0x14 PUSH2 0x100 EXP DUP2 SLOAD DUP2 PUSH1 0xFF MUL NOT AND SWAP1 DUP4 PUSH1 0x4 DUP2 GT ISZERO PUSH2 0x2E8 JUMPI PUSH2 0x2E7 PUSH2 0x603 JUMP JUMPDEST JUMPDEST MUL OR SWAP1 SSTORE POP PUSH1 0x40 DUP3 ADD MLOAD DUP2 PUSH1 0x1 ADD SSTORE PUSH1 0x60 DUP3 ADD MLOAD DUP2 PUSH1 0x2 ADD PUSH0 PUSH2 0x100 EXP DUP2 SLOAD DUP2 PUSH1 0xFF MUL NOT AND SWAP1 DUP4 ISZERO ISZERO MUL OR SWAP1 SSTORE POP SWAP1 POP POP PUSH32 0x8E18574F8A7333E6A87112742A55853A643E2F0550F4E1A3A2C3F1BB2994441D CALLER PUSH1 0x1 PUSH1 0x40 MLOAD PUSH2 0x34B SWAP3 SWAP2 SWAP1 PUSH2 0x7E8 JUMP JUMPDEST PUSH1 0x40 MLOAD DUP1 SWAP2 SUB SWAP1 LOG1 POP JUMP JUMPDEST PUSH1 0x40 MLOAD DUP1 PUSH1 0x80 ADD PUSH1 0x40 MSTORE DUP1 CALLER PUSH20 0xFFFFFFFFFFFFFFFFFFFFFFFFFFFFFFFFFFFFFFFF AND DUP2 MSTORE PUSH1 0x20 ADD PUSH1 0x2 PUSH1 0x4 DUP2 GT ISZERO PUSH2 0x391 JUMPI PUSH2 0x390 PUSH2 0x603 JUMP JUMPDEST JUMPDEST DUP2 MSTORE PUSH1 0x20 ADD DUP3 DUP2 MSTORE PUSH1 0x20 ADD PUSH1 0x1 ISZERO ISZERO DUP2 MSTORE POP PUSH0 PUSH0 CALLER PUSH20 0xFFFFFFFFFFFFFFFFFFFFFFFFFFFFFFFFFFFFFFFF AND PUSH20 0xFFFFFFFFFFFFFFFFFFFFFFFFFFFFFFFFFFFFFFFF AND DUP2 MSTORE PUSH1 0x20 ADD SWAP1 DUP2 MSTORE PUSH1 0x20 ADD PUSH0 KECCAK256 PUSH0 DUP3 ADD MLOAD DUP2 PUSH0 ADD PUSH0 PUSH2 0x100 EXP DUP2 SLOAD DUP2 PUSH20 0xFFFFFFFFFFFFFFFFFFFFFFFFFFFFFFFFFFFFFFFF MUL NOT AND SWAP1 DUP4 PUSH20 0xFFFFFFFFFFFFFFFFFFFFFFFFFFFFFFFFFFFFFFFF AND MUL OR SWAP1 SSTORE POP PUSH1 0x20 DUP3 ADD MLOAD DUP2 PUSH0 ADD PUSH1 0x14 PUSH2 0x100 EXP DUP2 SLOAD DUP2 PUSH1 0xFF MUL NOT AND SWAP1 DUP4 PUSH1 0x4 DUP2 GT ISZERO PUSH2 0x44D JUMPI PUSH2 0x44C PUSH2 0x603 JUMP JUMPDEST JUMPDEST MUL OR SWAP1 SSTORE POP PUSH1 0x40 DUP3 ADD MLOAD DUP2 PUSH1 0x1 ADD SSTORE PUSH1 0x60 DUP3 ADD MLOAD DUP2 PUSH1 0x2 ADD PUSH0 PUSH2 0x100 EXP DUP2 SLOAD DUP2 PUSH1 0xFF MUL NOT AND SWAP1 DUP4 ISZERO ISZERO MUL OR SWAP1 SSTORE POP SWAP1 POP POP PUSH32 0x8E18574F8A7333E6A87112742A55853A643E2F0550F4E1A3A2C3F1BB2994441D CALLER PUSH1 0x2 PUSH1 0x40 MLOAD PUSH2 0x4B0 SWAP3 SWAP2 SWAP1 PUSH2 0x7E8 JUMP JUMPDEST PUSH1 0x40 MLOAD DUP1 SWAP2 SUB SWAP1 LOG1 POP JUMP JUMPDEST PUSH0 PUSH1 0x20 MSTORE DUP1 PUSH0 MSTORE PUSH1 0x40 PUSH0 KECCAK256 PUSH0 SWAP2 POP SWAP1 POP DUP1 PUSH0 ADD PUSH0 SWAP1 SLOAD SWAP1 PUSH2 0x100 EXP SWAP1 DIV PUSH20 0xFFFFFFFFFFFFFFFFFFFFFFFFFFFFFFFFFFFFFFFF AND SWAP1 DUP1 PUSH0 ADD PUSH1 0x14 SWAP1 SLOAD SWAP1 PUSH2 0x100 EXP SWAP1 DIV PUSH1 0xFF AND SWAP1 DUP1 PUSH1 0x1 ADD SLOAD SWAP1 DUP1 PUSH1 0x2 ADD PUSH0 SWAP1 SLOAD SWAP1 PUSH2 0x100 EXP SWAP1 DIV PUSH1 0xFF AND SWAP1 POP DUP5 JUMP JUMPDEST PUSH1 0x40 MLOAD DUP1 PUSH1 0x80 ADD PUSH1 0x40 MSTORE DUP1 PUSH0 PUSH20 0xFFFFFFFFFFFFFFFFFFFFFFFFFFFFFFFFFFFFFFFF AND DUP2 MSTORE PUSH1 0x20 ADD PUSH0 PUSH1 0x4 DUP2 GT ISZERO PUSH2 0x557 JUMPI PUSH2 0x556 PUSH2 0x603 JUMP JUMPDEST JUMPDEST DUP2 MSTORE PUSH1 0x20 ADD PUSH0 DUP2 MSTORE PUSH1 0x20 ADD PUSH0 ISZERO ISZERO DUP2 MSTORE POP SWAP1 JUMP JUMPDEST PUSH0 PUSH0 REVERT JUMPDEST PUSH0 PUSH20 0xFFFFFFFFFFFFFFFFFFFFFFFFFFFFFFFFFFFFFFFF DUP3 AND SWAP1 POP SWAP2 SWAP1 POP JUMP JUMPDEST PUSH0 PUSH2 0x598 DUP3 PUSH2 0x56F JUMP JUMPDEST SWAP1 POP SWAP2 SWAP1 POP JUMP JUMPDEST PUSH2 0x5A8 DUP2 PUSH2 0x58E JUMP JUMPDEST DUP2 EQ PUSH2 0x5B2 JUMPI PUSH0 PUSH0 REVERT JUMPDEST POP JUMP JUMPDEST PUSH0 DUP2 CALLDATALOAD SWAP1 POP PUSH2 0x5C3 DUP2 PUSH2 0x59F JUMP JUMPDEST SWAP3 SWAP2 POP POP JUMP JUMPDEST PUSH0 PUSH1 0x20 DUP3 DUP5 SUB SLT ISZERO PUSH2 0x5DE JUMPI PUSH2 0x5DD PUSH2 0x56B JUMP JUMPDEST JUMPDEST PUSH0 PUSH2 0x5EB DUP5 DUP3 DUP6 ADD PUSH2 0x5B5 JUMP JUMPDEST SWAP2 POP POP SWAP3 SWAP2 POP POP JUMP JUMPDEST PUSH2 0x5FD DUP2 PUSH2 0x58E JUMP JUMPDEST DUP3 MSTORE POP POP JUMP JUMPDEST PUSH32 0x4E487B7100000000000000000000000000000000000000000000000000000000 PUSH0 MSTORE PUSH1 0x21 PUSH1 0x4 MSTORE PUSH1 0x24 PUSH0 REVERT JUMPDEST PUSH1 0x5 DUP2 LT PUSH2 0x641 JUMPI PUSH2 0x640 PUSH2 0x603 JUMP JUMPDEST JUMPDEST POP JUMP JUMPDEST PUSH0 DUP2 SWAP1 POP PUSH2 0x651 DUP3 PUSH2 0x630 JUMP JUMPDEST SWAP2 SWAP1 POP JUMP JUMPDEST PUSH0 PUSH2 0x660 DUP3 PUSH2 0x644 JUMP JUMPDEST SWAP1 POP SWAP2 SWAP1 POP JUMP JUMPDEST PUSH2 0x670 DUP2 PUSH2 0x656 JUMP JUMPDEST DUP3 MSTORE POP POP JUMP JUMPDEST PUSH0 DUP2 SWAP1 POP SWAP2 SWAP1 POP JUMP JUMPDEST PUSH2 0x688 DUP2 PUSH2 0x676 JUMP JUMPDEST DUP3 MSTORE POP POP JUMP JUMPDEST PUSH0 DUP2 ISZERO ISZERO SWAP1 POP SWAP2 SWAP1 POP JUMP JUMPDEST PUSH2 0x6A2 DUP2 PUSH2 0x68E JUMP JUMPDEST DUP3 MSTORE POP POP JUMP JUMPDEST PUSH1 0x80 DUP3 ADD PUSH0 DUP3 ADD MLOAD PUSH2 0x6BC PUSH0 DUP6 ADD DUP3 PUSH2 0x5F4 JUMP JUMPDEST POP PUSH1 0x20 DUP3 ADD MLOAD PUSH2 0x6CF PUSH1 0x20 DUP6 ADD DUP3 PUSH2 0x667 JUMP JUMPDEST POP PUSH1 0x40 DUP3 ADD MLOAD PUSH2 0x6E2 PUSH1 0x40 DUP6 ADD DUP3 PUSH2 0x67F JUMP JUMPDEST POP PUSH1 0x60 DUP3 ADD MLOAD PUSH2 0x6F5 PUSH1 0x60 DUP6 ADD DUP3 PUSH2 0x699 JUMP JUMPDEST POP POP POP POP JUMP JUMPDEST PUSH0 PUSH1 0x80 DUP3 ADD SWAP1 POP PUSH2 0x70E PUSH0 DUP4 ADD DUP5 PUSH2 0x6A8 JUMP JUMPDEST SWAP3 SWAP2 POP POP JUMP JUMPDEST PUSH2 0x71D DUP2 PUSH2 0x676 JUMP JUMPDEST DUP2 EQ PUSH2 0x727 JUMPI PUSH0 PUSH0 REVERT JUMPDEST POP JUMP JUMPDEST PUSH0 DUP2 CALLDATALOAD SWAP1 POP PUSH2 0x738 DUP2 PUSH2 0x714 JUMP JUMPDEST SWAP3 SWAP2 POP POP JUMP JUMPDEST PUSH0 PUSH1 0x20 DUP3 DUP5 SUB SLT ISZERO PUSH2 0x753 JUMPI PUSH2 0x752 PUSH2 0x56B JUMP JUMPDEST JUMPDEST PUSH0 PUSH2 0x760 DUP5 DUP3 DUP6 ADD PUSH2 0x72A JUMP JUMPDEST SWAP2 POP POP SWAP3 SWAP2 POP POP JUMP JUMPDEST PUSH2 0x772 DUP2 PUSH2 0x58E JUMP JUMPDEST DUP3 MSTORE POP POP JUMP JUMPDEST PUSH2 0x781 DUP2 PUSH2 0x656 JUMP JUMPDEST DUP3 MSTORE POP POP JUMP JUMPDEST PUSH2 0x790 DUP2 PUSH2 0x676 JUMP JUMPDEST DUP3 MSTORE POP POP JUMP JUMPDEST PUSH2 0x79F DUP2 PUSH2 0x68E JUMP JUMPDEST DUP3 MSTORE POP POP JUMP JUMPDEST PUSH0 PUSH1 0x80 DUP3 ADD SWAP1 POP PUSH2 0x7B8 PUSH0 DUP4 ADD DUP8 PUSH2 0x769 JUMP JUMPDEST PUSH2 0x7C5 PUSH1 0x20 DUP4 ADD DUP7 PUSH2 0x778 JUMP JUMPDEST PUSH2 0x7D2 PUSH1 0x40 DUP4 ADD DUP6 PUSH2 0x787 JUMP JUMPDEST PUSH2 0x7DF PUSH1 0x60 DUP4 ADD DUP5 PUSH2 0x796 JUMP JUMPDEST SWAP6 SWAP5 POP POP POP POP POP JUMP JUMPDEST PUSH0 PUSH1 0x40 DUP3 ADD SWAP1 POP PUSH2 0x7FB PUSH0 DUP4 ADD DUP6 PUSH2 0x769 JUMP JUMPDEST PUSH2 0x808 PUSH1 0x20 DUP4 ADD DUP5 PUSH2 0x778 JUMP JUMPDEST SWAP4 SWAP3 POP POP POP JUMP INVALID LOG2 PUSH5 0x6970667358 0x22 SLT KECCAK256 EXTSTATICCALL DUPN 0xAD DUP1 RJUMP 0x747D SWAP6 0xC8 AND PUSH29 0x4AFCF9A8205B77A4EC8F72B4A42C3AD08E01662C8964736F6C63430008 0x1E STOP CALLER "
				},
				"gasEstimates": {
					"creation": {
						"codeDepositCost": "423400",
						"executionCost": "459",
						"totalCost": "423859"
					},
					"external": {
						"getUser(address)": "infinite",
						"registerDoctor(bytes32)": "97367",
						"registerPatient(bytes32)": "97345",
						"users(address)": "infinite"
					}
				},
				"methodIdentifiers": {
					"getUser(address)": "6f77926b",
					"registerDoctor(bytes32)": "a0083b7f",
					"registerPatient(bytes32)": "8ebc10d9",
					"users(address)": "a87430ba"
				}
			},
			"storageLayout": {
				"storage": [
					{
						"astId": 22,
						"contract": "contracts/DigitalIdentityRegistry.sol:DigitalIdentityRegistry",
						"label": "users",
						"offset": 0,
						"slot": "0",
						"type": "t_mapping(t_address,t_struct(User)17_storage)"
					}
				],
				"types": {
					"t_address": {
						"encoding": "inplace",
						"label": "address",
						"numberOfBytes": "20"
					},
					"t_bool": {
						"encoding": "inplace",
						"label": "bool",
						"numberOfBytes": "1"
					},
					"t_bytes32": {
						"encoding": "inplace",
						"label": "bytes32",
						"numberOfBytes": "32"
					},
					"t_enum(Role)7": {
						"encoding": "inplace",
						"label": "enum DigitalIdentityRegistry.Role",
						"numberOfBytes": "1"
					},
					"t_mapping(t_address,t_struct(User)17_storage)": {
						"encoding": "mapping",
						"key": "t_address",
						"label": "mapping(address => struct DigitalIdentityRegistry.User)",
						"numberOfBytes": "32",
						"value": "t_struct(User)17_storage"
					},
					"t_struct(User)17_storage": {
						"encoding": "inplace",
						"label": "struct DigitalIdentityRegistry.User",
						"members": [
							{
								"astId": 9,
								"contract": "contracts/DigitalIdentityRegistry.sol:DigitalIdentityRegistry",
								"label": "userAddress",
								"offset": 0,
								"slot": "0",
								"type": "t_address"
							},
							{
								"astId": 12,
								"contract": "contracts/DigitalIdentityRegistry.sol:DigitalIdentityRegistry",
								"label": "role",
								"offset": 20,
								"slot": "0",
								"type": "t_enum(Role)7"
							},
							{
								"astId": 14,
								"contract": "contracts/DigitalIdentityRegistry.sol:DigitalIdentityRegistry",
								"label": "hashID",
								"offset": 0,
								"slot": "1",
								"type": "t_bytes32"
							},
							{
								"astId": 16,
								"contract": "contracts/DigitalIdentityRegistry.sol:DigitalIdentityRegistry",
								"label": "isRegistered",
								"offset": 0,
								"slot": "2",
								"type": "t_bool"
							}
						],
						"numberOfBytes": "96"
					}
				}
			},
			"userdoc": {
				"kind": "user",
				"methods": {},
				"version": 1
			}
		}
	}
}