{
	"contracts/AccessController.sol": {
		"AccessController": {
			"abi": [
				{
					"inputs": [
						{
							"internalType": "address",
							"name": "_consentManager",
							"type": "address"
						},
						{
							"internalType": "address",
							"name": "_dataRegistry",
							"type": "address"
						}
					],
					"stateMutability": "nonpayable",
					"type": "constructor"
				},
				{
					"anonymous": false,
					"inputs": [
						{
							"indexed": false,
							"internalType": "address",
							"name": "requester",
							"type": "address"
						},
						{
							"indexed": false,
							"internalType": "address",
							"name": "patient",
							"type": "address"
						},
						{
							"indexed": false,
							"internalType": "uint8",
							"name": "dataType",
							"type": "uint8"
						},
						{
							"indexed": false,
							"internalType": "bool",
							"name": "success",
							"type": "bool"
						}
					],
					"name": "AccessLogged",
					"type": "event"
				},
				{
					"inputs": [
						{
							"internalType": "address",
							"name": "patient",
							"type": "address"
						},
						{
							"internalType": "uint8",
							"name": "dataType",
							"type": "uint8"
						},
						{
							"internalType": "uint8",
							"name": "purpose",
							"type": "uint8"
						}
					],
					"name": "accessData",
					"outputs": [
						{
							"internalType": "bytes32",
							"name": "",
							"type": "bytes32"
						}
					],
					"stateMutability": "nonpayable",
					"type": "function"
				}
			],
			"devdoc": {
				"kind": "dev",
				"methods": {},
				"version": 1
			},
			"evm": {
				"assembly": "    /* \"contracts/AccessController.sol\":364:1277  contract AccessController {... */\n  mstore(0x40, 0x80)\n    /* \"contracts/AccessController.sol\":564:746  constructor(address _consentManager, address _dataRegistry) {... */\n  callvalue\n  dup1\n  iszero\n  tag_1\n  jumpi\n  revert(0x00, 0x00)\ntag_1:\n  pop\n  mload(0x40)\n  sub(codesize, bytecodeSize)\n  dup1\n  bytecodeSize\n  dup4\n  codecopy\n  dup2\n  dup2\n  add\n  0x40\n  mstore\n  dup2\n  add\n  swap1\n  tag_2\n  swap2\n  swap1\n  tag_3\n  jump\t// in\ntag_2:\n    /* \"contracts/AccessController.sol\":668:683  _consentManager */\n  dup2\n    /* \"contracts/AccessController.sol\":635:649  consentManager */\n  0x00\n  0x00\n    /* \"contracts/AccessController.sol\":635:684  consentManager = IConsentManager(_consentManager) */\n  0x0100\n  exp\n  dup2\n  sload\n  dup2\n  0xffffffffffffffffffffffffffffffffffffffff\n  mul\n  not\n  and\n  swap1\n  dup4\n  0xffffffffffffffffffffffffffffffffffffffff\n  and\n  mul\n  or\n  swap1\n  sstore\n  pop\n    /* \"contracts/AccessController.sol\":724:737  _dataRegistry */\n  dup1\n    /* \"contracts/AccessController.sol\":695:707  dataRegistry */\n  0x01\n  0x00\n    /* \"contracts/AccessController.sol\":695:738  dataRegistry = IDataRegistry(_dataRegistry) */\n  0x0100\n  exp\n  dup2\n  sload\n  dup2\n  0xffffffffffffffffffffffffffffffffffffffff\n  mul\n  not\n  and\n  swap1\n  dup4\n  0xffffffffffffffffffffffffffffffffffffffff\n  and\n  mul\n  or\n  swap1\n  sstore\n  pop\n    /* \"contracts/AccessController.sol\":564:746  constructor(address _consentManager, address _dataRegistry) {... */\n  pop\n  pop\n    /* \"contracts/AccessController.sol\":364:1277  contract AccessController {... */\n  jump(tag_6)\n    /* \"#utility.yul\":88:205   */\ntag_8:\n    /* \"#utility.yul\":197:198   */\n  0x00\n    /* \"#utility.yul\":194:195   */\n  0x00\n    /* \"#utility.yul\":187:199   */\n  revert\n    /* \"#utility.yul\":334:460   */\ntag_10:\n    /* \"#utility.yul\":371:378   */\n  0x00\n    /* \"#utility.yul\":411:453   */\n  0xffffffffffffffffffffffffffffffffffffffff\n    /* \"#utility.yul\":404:409   */\n  dup3\n    /* \"#utility.yul\":400:454   */\n  and\n    /* \"#utility.yul\":389:454   */\n  swap1\n  pop\n    /* \"#utility.yul\":334:460   */\n  swap2\n  swap1\n  pop\n  jump\t// out\n    /* \"#utility.yul\":466:562   */\ntag_11:\n    /* \"#utility.yul\":503:510   */\n  0x00\n    /* \"#utility.yul\":532:556   */\n  tag_20\n    /* \"#utility.yul\":550:555   */\n  dup3\n    /* \"#utility.yul\":532:556   */\n  tag_10\n  jump\t// in\ntag_20:\n    /* \"#utility.yul\":521:556   */\n  swap1\n  pop\n    /* \"#utility.yul\":466:562   */\n  swap2\n  swap1\n  pop\n  jump\t// out\n    /* \"#utility.yul\":568:690   */\ntag_12:\n    /* \"#utility.yul\":641:665   */\n  tag_22\n    /* \"#utility.yul\":659:664   */\n  dup2\n    /* \"#utility.yul\":641:665   */\n  tag_11\n  jump\t// in\ntag_22:\n    /* \"#utility.yul\":634:639   */\n  dup2\n    /* \"#utility.yul\":631:666   */\n  eq\n    /* \"#utility.yul\":621:684   */\n  tag_23\n  jumpi\n    /* \"#utility.yul\":680:681   */\n  0x00\n    /* \"#utility.yul\":677:678   */\n  0x00\n    /* \"#utility.yul\":670:682   */\n  revert\n    /* \"#utility.yul\":621:684   */\ntag_23:\n    /* \"#utility.yul\":568:690   */\n  pop\n  jump\t// out\n    /* \"#utility.yul\":696:839   */\ntag_13:\n    /* \"#utility.yul\":753:758   */\n  0x00\n    /* \"#utility.yul\":784:790   */\n  dup2\n    /* \"#utility.yul\":778:791   */\n  mload\n    /* \"#utility.yul\":769:791   */\n  swap1\n  pop\n    /* \"#utility.yul\":800:833   */\n  tag_25\n    /* \"#utility.yul\":827:832   */\n  dup2\n    /* \"#utility.yul\":800:833   */\n  tag_12\n  jump\t// in\ntag_25:\n    /* \"#utility.yul\":696:839   */\n  swap3\n  swap2\n  pop\n  pop\n  jump\t// out\n    /* \"#utility.yul\":845:1352   */\ntag_3:\n    /* \"#utility.yul\":924:930   */\n  0x00\n    /* \"#utility.yul\":932:938   */\n  0x00\n    /* \"#utility.yul\":981:983   */\n  0x40\n    /* \"#utility.yul\":969:978   */\n  dup4\n    /* \"#utility.yul\":960:967   */\n  dup6\n    /* \"#utility.yul\":956:979   */\n  sub\n    /* \"#utility.yul\":952:984   */\n  slt\n    /* \"#utility.yul\":949:1068   */\n  iszero\n  tag_27\n  jumpi\n    /* \"#utility.yul\":987:1066   */\n  tag_28\n  tag_8\n  jump\t// in\ntag_28:\n    /* \"#utility.yul\":949:1068   */\ntag_27:\n    /* \"#utility.yul\":1107:1108   */\n  0x00\n    /* \"#utility.yul\":1132:1196   */\n  tag_29\n    /* \"#utility.yul\":1188:1195   */\n  dup6\n    /* \"#utility.yul\":1179:1185   */\n  dup3\n    /* \"#utility.yul\":1168:1177   */\n  dup7\n    /* \"#utility.yul\":1164:1186   */\n  add\n    /* \"#utility.yul\":1132:1196   */\n  tag_13\n  jump\t// in\ntag_29:\n    /* \"#utility.yul\":1122:1196   */\n  swap3\n  pop\n    /* \"#utility.yul\":1078:1206   */\n  pop\n    /* \"#utility.yul\":1245:1247   */\n  0x20\n    /* \"#utility.yul\":1271:1335   */\n  tag_30\n    /* \"#utility.yul\":1327:1334   */\n  dup6\n    /* \"#utility.yul\":1318:1324   */\n  dup3\n    /* \"#utility.yul\":1307:1316   */\n  dup7\n    /* \"#utility.yul\":1303:1325   */\n  add\n    /* \"#utility.yul\":1271:1335   */\n  tag_13\n  jump\t// in\ntag_30:\n    /* \"#utility.yul\":1261:1335   */\n  swap2\n  pop\n    /* \"#utility.yul\":1216:1345   */\n  pop\n    /* \"#utility.yul\":845:1352   */\n  swap3\n  pop\n  swap3\n  swap1\n  pop\n  jump\t// out\n    /* \"contracts/AccessController.sol\":364:1277  contract AccessController {... */\ntag_6:\n  dataSize(sub_0)\n  dup1\n  dataOffset(sub_0)\n  0x00\n  codecopy\n  0x00\n  return\nstop\n\nsub_0: assembly {\n        /* \"contracts/AccessController.sol\":364:1277  contract AccessController {... */\n      mstore(0x40, 0x80)\n      callvalue\n      dup1\n      iszero\n      tag_1\n      jumpi\n      revert(0x00, 0x00)\n    tag_1:\n      pop\n      jumpi(tag_2, lt(calldatasize, 0x04))\n      shr(0xe0, calldataload(0x00))\n      dup1\n      0x42871105\n      eq\n      tag_3\n      jumpi\n    tag_2:\n      revert(0x00, 0x00)\n        /* \"contracts/AccessController.sol\":754:1274  function accessData(address patient, uint8 dataType, uint8 purpose) external returns (bytes32) {... */\n    tag_3:\n      tag_4\n      0x04\n      dup1\n      calldatasize\n      sub\n      dup2\n      add\n      swap1\n      tag_5\n      swap2\n      swap1\n      tag_6\n      jump\t// in\n    tag_5:\n      tag_7\n      jump\t// in\n    tag_4:\n      mload(0x40)\n      tag_8\n      swap2\n      swap1\n      tag_9\n      jump\t// in\n    tag_8:\n      mload(0x40)\n      dup1\n      swap2\n      sub\n      swap1\n      return\n    tag_7:\n        /* \"contracts/AccessController.sol\":840:847  bytes32 */\n      0x00\n        /* \"contracts/AccessController.sol\":860:870  bool valid */\n      0x00\n        /* \"contracts/AccessController.sol\":873:887  consentManager */\n      0x00\n      0x00\n      swap1\n      sload\n      swap1\n      0x0100\n      exp\n      swap1\n      div\n      0xffffffffffffffffffffffffffffffffffffffff\n      and\n        /* \"contracts/AccessController.sol\":873:903  consentManager.hasValidConsent */\n      0xffffffffffffffffffffffffffffffffffffffff\n      and\n      0x7ba8478c\n        /* \"contracts/AccessController.sol\":904:911  patient */\n      dup7\n        /* \"contracts/AccessController.sol\":913:923  msg.sender */\n      caller\n        /* \"contracts/AccessController.sol\":925:933  dataType */\n      dup8\n        /* \"contracts/AccessController.sol\":935:942  purpose */\n      dup8\n        /* \"contracts/AccessController.sol\":873:943  consentManager.hasValidConsent(patient, msg.sender, dataType, purpose) */\n      mload(0x40)\n      dup6\n      0xffffffff\n      and\n      0xe0\n      shl\n      dup2\n      mstore\n      0x04\n      add\n      tag_11\n      swap5\n      swap4\n      swap3\n      swap2\n      swap1\n      tag_12\n      jump\t// in\n    tag_11:\n      0x20\n      mload(0x40)\n      dup1\n      dup4\n      sub\n      dup2\n      dup7\n      gas\n      staticcall\n      iszero\n      dup1\n      iszero\n      tag_14\n      jumpi\n      returndatacopy(0x00, 0x00, returndatasize)\n      revert(0x00, returndatasize)\n    tag_14:\n      pop\n      pop\n      pop\n      pop\n      mload(0x40)\n      returndatasize\n      not(0x1f)\n      0x1f\n      dup3\n      add\n      and\n      dup3\n      add\n      dup1\n      0x40\n      mstore\n      pop\n      dup2\n      add\n      swap1\n      tag_15\n      swap2\n      swap1\n      tag_16\n      jump\t// in\n    tag_15:\n        /* \"contracts/AccessController.sol\":860:943  bool valid = consentManager.hasValidConsent(patient, msg.sender, dataType, purpose) */\n      swap1\n      pop\n        /* \"contracts/AccessController.sol\":961:966  valid */\n      dup1\n        /* \"contracts/AccessController.sol\":956:1082  if (!valid) {... */\n      tag_17\n      jumpi\n        /* \"contracts/AccessController.sol\":988:1038  AccessLogged(msg.sender, patient, dataType, false) */\n      0x3b069242f251d19eb8ef494dc540f026ea21aa2eb81808b766ab040cbcc39a89\n        /* \"contracts/AccessController.sol\":1001:1011  msg.sender */\n      caller\n        /* \"contracts/AccessController.sol\":1013:1020  patient */\n      dup7\n        /* \"contracts/AccessController.sol\":1022:1030  dataType */\n      dup7\n        /* \"contracts/AccessController.sol\":1032:1037  false */\n      0x00\n        /* \"contracts/AccessController.sol\":988:1038  AccessLogged(msg.sender, patient, dataType, false) */\n      mload(0x40)\n      tag_18\n      swap5\n      swap4\n      swap3\n      swap2\n      swap1\n      tag_19\n      jump\t// in\n    tag_18:\n      mload(0x40)\n      dup1\n      swap2\n      sub\n      swap1\n      log1\n        /* \"contracts/AccessController.sol\":1068:1069  0 */\n      0x00\n        /* \"contracts/AccessController.sol\":1060:1070  bytes32(0) */\n      0x00\n      shl\n        /* \"contracts/AccessController.sol\":1053:1070  return bytes32(0) */\n      swap2\n      pop\n      pop\n      jump(tag_10)\n        /* \"contracts/AccessController.sol\":956:1082  if (!valid) {... */\n    tag_17:\n        /* \"contracts/AccessController.sol\":1095:1114  bytes32 pointerHash */\n      0x00\n        /* \"contracts/AccessController.sol\":1120:1132  dataRegistry */\n      0x01\n      0x00\n      swap1\n      sload\n      swap1\n      0x0100\n      exp\n      swap1\n      div\n      0xffffffffffffffffffffffffffffffffffffffff\n      and\n        /* \"contracts/AccessController.sol\":1120:1153  dataRegistry.getLatestDataPointer */\n      0xffffffffffffffffffffffffffffffffffffffff\n      and\n      0xe9b465a8\n        /* \"contracts/AccessController.sol\":1154:1161  patient */\n      dup8\n        /* \"contracts/AccessController.sol\":1163:1171  dataType */\n      dup8\n        /* \"contracts/AccessController.sol\":1120:1172  dataRegistry.getLatestDataPointer(patient, dataType) */\n      mload(0x40)\n      dup4\n      0xffffffff\n      and\n      0xe0\n      shl\n      dup2\n      mstore\n      0x04\n      add\n      tag_20\n      swap3\n      swap2\n      swap1\n      tag_21\n      jump\t// in\n    tag_20:\n      0x40\n      dup1\n      mload\n      dup1\n      dup4\n      sub\n      dup2\n      dup7\n      gas\n      staticcall\n      iszero\n      dup1\n      iszero\n      tag_23\n      jumpi\n      returndatacopy(0x00, 0x00, returndatasize)\n      revert(0x00, returndatasize)\n    tag_23:\n      pop\n      pop\n      pop\n      pop\n      mload(0x40)\n      returndatasize\n      not(0x1f)\n      0x1f\n      dup3\n      add\n      and\n      dup3\n      add\n      dup1\n      0x40\n      mstore\n      pop\n      dup2\n      add\n      swap1\n      tag_24\n      swap2\n      swap1\n      tag_25\n      jump\t// in\n    tag_24:\n        /* \"contracts/AccessController.sol\":1094:1172  (bytes32 pointerHash, ) = dataRegistry.getLatestDataPointer(patient, dataType) */\n      pop\n      swap1\n      pop\n        /* \"contracts/AccessController.sol\":1188:1237  AccessLogged(msg.sender, patient, dataType, true) */\n      0x3b069242f251d19eb8ef494dc540f026ea21aa2eb81808b766ab040cbcc39a89\n        /* \"contracts/AccessController.sol\":1201:1211  msg.sender */\n      caller\n        /* \"contracts/AccessController.sol\":1213:1220  patient */\n      dup8\n        /* \"contracts/AccessController.sol\":1222:1230  dataType */\n      dup8\n        /* \"contracts/AccessController.sol\":1232:1236  true */\n      0x01\n        /* \"contracts/AccessController.sol\":1188:1237  AccessLogged(msg.sender, patient, dataType, true) */\n      mload(0x40)\n      tag_26\n      swap5\n      swap4\n      swap3\n      swap2\n      swap1\n      tag_19\n      jump\t// in\n    tag_26:\n      mload(0x40)\n      dup1\n      swap2\n      sub\n      swap1\n      log1\n        /* \"contracts/AccessController.sol\":1255:1266  pointerHash */\n      dup1\n        /* \"contracts/AccessController.sol\":1248:1266  return pointerHash */\n      swap3\n      pop\n      pop\n      pop\n        /* \"contracts/AccessController.sol\":754:1274  function accessData(address patient, uint8 dataType, uint8 purpose) external returns (bytes32) {... */\n    tag_10:\n      swap4\n      swap3\n      pop\n      pop\n      pop\n      jump\t// out\n        /* \"#utility.yul\":88:205   */\n    tag_28:\n        /* \"#utility.yul\":197:198   */\n      0x00\n        /* \"#utility.yul\":194:195   */\n      0x00\n        /* \"#utility.yul\":187:199   */\n      revert\n        /* \"#utility.yul\":334:460   */\n    tag_30:\n        /* \"#utility.yul\":371:378   */\n      0x00\n        /* \"#utility.yul\":411:453   */\n      0xffffffffffffffffffffffffffffffffffffffff\n        /* \"#utility.yul\":404:409   */\n      dup3\n        /* \"#utility.yul\":400:454   */\n      and\n        /* \"#utility.yul\":389:454   */\n      swap1\n      pop\n        /* \"#utility.yul\":334:460   */\n      swap2\n      swap1\n      pop\n      jump\t// out\n        /* \"#utility.yul\":466:562   */\n    tag_31:\n        /* \"#utility.yul\":503:510   */\n      0x00\n        /* \"#utility.yul\":532:556   */\n      tag_56\n        /* \"#utility.yul\":550:555   */\n      dup3\n        /* \"#utility.yul\":532:556   */\n      tag_30\n      jump\t// in\n    tag_56:\n        /* \"#utility.yul\":521:556   */\n      swap1\n      pop\n        /* \"#utility.yul\":466:562   */\n      swap2\n      swap1\n      pop\n      jump\t// out\n        /* \"#utility.yul\":568:690   */\n    tag_32:\n        /* \"#utility.yul\":641:665   */\n      tag_58\n        /* \"#utility.yul\":659:664   */\n      dup2\n        /* \"#utility.yul\":641:665   */\n      tag_31\n      jump\t// in\n    tag_58:\n        /* \"#utility.yul\":634:639   */\n      dup2\n        /* \"#utility.yul\":631:666   */\n      eq\n        /* \"#utility.yul\":621:684   */\n      tag_59\n      jumpi\n        /* \"#utility.yul\":680:681   */\n      0x00\n        /* \"#utility.yul\":677:678   */\n      0x00\n        /* \"#utility.yul\":670:682   */\n      revert\n        /* \"#utility.yul\":621:684   */\n    tag_59:\n        /* \"#utility.yul\":568:690   */\n      pop\n      jump\t// out\n        /* \"#utility.yul\":696:835   */\n    tag_33:\n        /* \"#utility.yul\":742:747   */\n      0x00\n        /* \"#utility.yul\":780:786   */\n      dup2\n        /* \"#utility.yul\":767:787   */\n      calldataload\n        /* \"#utility.yul\":758:787   */\n      swap1\n      pop\n        /* \"#utility.yul\":796:829   */\n      tag_61\n        /* \"#utility.yul\":823:828   */\n      dup2\n        /* \"#utility.yul\":796:829   */\n      tag_32\n      jump\t// in\n    tag_61:\n        /* \"#utility.yul\":696:835   */\n      swap3\n      swap2\n      pop\n      pop\n      jump\t// out\n        /* \"#utility.yul\":841:927   */\n    tag_34:\n        /* \"#utility.yul\":876:883   */\n      0x00\n        /* \"#utility.yul\":916:920   */\n      0xff\n        /* \"#utility.yul\":909:914   */\n      dup3\n        /* \"#utility.yul\":905:921   */\n      and\n        /* \"#utility.yul\":894:921   */\n      swap1\n      pop\n        /* \"#utility.yul\":841:927   */\n      swap2\n      swap1\n      pop\n      jump\t// out\n        /* \"#utility.yul\":933:1051   */\n    tag_35:\n        /* \"#utility.yul\":1004:1026   */\n      tag_64\n        /* \"#utility.yul\":1020:1025   */\n      dup2\n        /* \"#utility.yul\":1004:1026   */\n      tag_34\n      jump\t// in\n    tag_64:\n        /* \"#utility.yul\":997:1002   */\n      dup2\n        /* \"#utility.yul\":994:1027   */\n      eq\n        /* \"#utility.yul\":984:1045   */\n      tag_65\n      jumpi\n        /* \"#utility.yul\":1041:1042   */\n      0x00\n        /* \"#utility.yul\":1038:1039   */\n      0x00\n        /* \"#utility.yul\":1031:1043   */\n      revert\n        /* \"#utility.yul\":984:1045   */\n    tag_65:\n        /* \"#utility.yul\":933:1051   */\n      pop\n      jump\t// out\n        /* \"#utility.yul\":1057:1192   */\n    tag_36:\n        /* \"#utility.yul\":1101:1106   */\n      0x00\n        /* \"#utility.yul\":1139:1145   */\n      dup2\n        /* \"#utility.yul\":1126:1146   */\n      calldataload\n        /* \"#utility.yul\":1117:1146   */\n      swap1\n      pop\n        /* \"#utility.yul\":1155:1186   */\n      tag_67\n        /* \"#utility.yul\":1180:1185   */\n      dup2\n        /* \"#utility.yul\":1155:1186   */\n      tag_35\n      jump\t// in\n    tag_67:\n        /* \"#utility.yul\":1057:1192   */\n      swap3\n      swap2\n      pop\n      pop\n      jump\t// out\n        /* \"#utility.yul\":1198:1809   */\n    tag_6:\n        /* \"#utility.yul\":1271:1277   */\n      0x00\n        /* \"#utility.yul\":1279:1285   */\n      0x00\n        /* \"#utility.yul\":1287:1293   */\n      0x00\n        /* \"#utility.yul\":1336:1338   */\n      0x60\n        /* \"#utility.yul\":1324:1333   */\n      dup5\n        /* \"#utility.yul\":1315:1322   */\n      dup7\n        /* \"#utility.yul\":1311:1334   */\n      sub\n        /* \"#utility.yul\":1307:1339   */\n      slt\n        /* \"#utility.yul\":1304:1423   */\n      iszero\n      tag_69\n      jumpi\n        /* \"#utility.yul\":1342:1421   */\n      tag_70\n      tag_28\n      jump\t// in\n    tag_70:\n        /* \"#utility.yul\":1304:1423   */\n    tag_69:\n        /* \"#utility.yul\":1462:1463   */\n      0x00\n        /* \"#utility.yul\":1487:1540   */\n      tag_71\n        /* \"#utility.yul\":1532:1539   */\n      dup7\n        /* \"#utility.yul\":1523:1529   */\n      dup3\n        /* \"#utility.yul\":1512:1521   */\n      dup8\n        /* \"#utility.yul\":1508:1530   */\n      add\n        /* \"#utility.yul\":1487:1540   */\n      tag_33\n      jump\t// in\n    tag_71:\n        /* \"#utility.yul\":1477:1540   */\n      swap4\n      pop\n        /* \"#utility.yul\":1433:1550   */\n      pop\n        /* \"#utility.yul\":1589:1591   */\n      0x20\n        /* \"#utility.yul\":1615:1666   */\n      tag_72\n        /* \"#utility.yul\":1658:1665   */\n      dup7\n        /* \"#utility.yul\":1649:1655   */\n      dup3\n        /* \"#utility.yul\":1638:1647   */\n      dup8\n        /* \"#utility.yul\":1634:1656   */\n      add\n        /* \"#utility.yul\":1615:1666   */\n      tag_36\n      jump\t// in\n    tag_72:\n        /* \"#utility.yul\":1605:1666   */\n      swap3\n      pop\n        /* \"#utility.yul\":1560:1676   */\n      pop\n        /* \"#utility.yul\":1715:1717   */\n      0x40\n        /* \"#utility.yul\":1741:1792   */\n      tag_73\n        /* \"#utility.yul\":1784:1791   */\n      dup7\n        /* \"#utility.yul\":1775:1781   */\n      dup3\n        /* \"#utility.yul\":1764:1773   */\n      dup8\n        /* \"#utility.yul\":1760:1782   */\n      add\n        /* \"#utility.yul\":1741:1792   */\n      tag_36\n      jump\t// in\n    tag_73:\n        /* \"#utility.yul\":1731:1792   */\n      swap2\n      pop\n        /* \"#utility.yul\":1686:1802   */\n      pop\n        /* \"#utility.yul\":1198:1809   */\n      swap3\n      pop\n      swap3\n      pop\n      swap3\n      jump\t// out\n        /* \"#utility.yul\":1815:1892   */\n    tag_37:\n        /* \"#utility.yul\":1852:1859   */\n      0x00\n        /* \"#utility.yul\":1881:1886   */\n      dup2\n        /* \"#utility.yul\":1870:1886   */\n      swap1\n      pop\n        /* \"#utility.yul\":1815:1892   */\n      swap2\n      swap1\n      pop\n      jump\t// out\n        /* \"#utility.yul\":1898:2016   */\n    tag_38:\n        /* \"#utility.yul\":1985:2009   */\n      tag_76\n        /* \"#utility.yul\":2003:2008   */\n      dup2\n        /* \"#utility.yul\":1985:2009   */\n      tag_37\n      jump\t// in\n    tag_76:\n        /* \"#utility.yul\":1980:1983   */\n      dup3\n        /* \"#utility.yul\":1973:2010   */\n      mstore\n        /* \"#utility.yul\":1898:2016   */\n      pop\n      pop\n      jump\t// out\n        /* \"#utility.yul\":2022:2244   */\n    tag_9:\n        /* \"#utility.yul\":2115:2119   */\n      0x00\n        /* \"#utility.yul\":2153:2155   */\n      0x20\n        /* \"#utility.yul\":2142:2151   */\n      dup3\n        /* \"#utility.yul\":2138:2156   */\n      add\n        /* \"#utility.yul\":2130:2156   */\n      swap1\n      pop\n        /* \"#utility.yul\":2166:2237   */\n      tag_78\n        /* \"#utility.yul\":2234:2235   */\n      0x00\n        /* \"#utility.yul\":2223:2232   */\n      dup4\n        /* \"#utility.yul\":2219:2236   */\n      add\n        /* \"#utility.yul\":2210:2216   */\n      dup5\n        /* \"#utility.yul\":2166:2237   */\n      tag_38\n      jump\t// in\n    tag_78:\n        /* \"#utility.yul\":2022:2244   */\n      swap3\n      swap2\n      pop\n      pop\n      jump\t// out\n        /* \"#utility.yul\":2250:2368   */\n    tag_39:\n        /* \"#utility.yul\":2337:2361   */\n      tag_80\n        /* \"#utility.yul\":2355:2360   */\n      dup2\n        /* \"#utility.yul\":2337:2361   */\n      tag_31\n      jump\t// in\n    tag_80:\n        /* \"#utility.yul\":2332:2335   */\n      dup3\n        /* \"#utility.yul\":2325:2362   */\n      mstore\n        /* \"#utility.yul\":2250:2368   */\n      pop\n      pop\n      jump\t// out\n        /* \"#utility.yul\":2374:2486   */\n    tag_40:\n        /* \"#utility.yul\":2457:2479   */\n      tag_82\n        /* \"#utility.yul\":2473:2478   */\n      dup2\n        /* \"#utility.yul\":2457:2479   */\n      tag_34\n      jump\t// in\n    tag_82:\n        /* \"#utility.yul\":2452:2455   */\n      dup3\n        /* \"#utility.yul\":2445:2480   */\n      mstore\n        /* \"#utility.yul\":2374:2486   */\n      pop\n      pop\n      jump\t// out\n        /* \"#utility.yul\":2492:3029   */\n    tag_12:\n        /* \"#utility.yul\":2661:2665   */\n      0x00\n        /* \"#utility.yul\":2699:2702   */\n      0x80\n        /* \"#utility.yul\":2688:2697   */\n      dup3\n        /* \"#utility.yul\":2684:2703   */\n      add\n        /* \"#utility.yul\":2676:2703   */\n      swap1\n      pop\n        /* \"#utility.yul\":2713:2784   */\n      tag_84\n        /* \"#utility.yul\":2781:2782   */\n      0x00\n        /* \"#utility.yul\":2770:2779   */\n      dup4\n        /* \"#utility.yul\":2766:2783   */\n      add\n        /* \"#utility.yul\":2757:2763   */\n      dup8\n        /* \"#utility.yul\":2713:2784   */\n      tag_39\n      jump\t// in\n    tag_84:\n        /* \"#utility.yul\":2794:2866   */\n      tag_85\n        /* \"#utility.yul\":2862:2864   */\n      0x20\n        /* \"#utility.yul\":2851:2860   */\n      dup4\n        /* \"#utility.yul\":2847:2865   */\n      add\n        /* \"#utility.yul\":2838:2844   */\n      dup7\n        /* \"#utility.yul\":2794:2866   */\n      tag_39\n      jump\t// in\n    tag_85:\n        /* \"#utility.yul\":2876:2944   */\n      tag_86\n        /* \"#utility.yul\":2940:2942   */\n      0x40\n        /* \"#utility.yul\":2929:2938   */\n      dup4\n        /* \"#utility.yul\":2925:2943   */\n      add\n        /* \"#utility.yul\":2916:2922   */\n      dup6\n        /* \"#utility.yul\":2876:2944   */\n      tag_40\n      jump\t// in\n    tag_86:\n        /* \"#utility.yul\":2954:3022   */\n      tag_87\n        /* \"#utility.yul\":3018:3020   */\n      0x60\n        /* \"#utility.yul\":3007:3016   */\n      dup4\n        /* \"#utility.yul\":3003:3021   */\n      add\n        /* \"#utility.yul\":2994:3000   */\n      dup5\n        /* \"#utility.yul\":2954:3022   */\n      tag_40\n      jump\t// in\n    tag_87:\n        /* \"#utility.yul\":2492:3029   */\n      swap6\n      swap5\n      pop\n      pop\n      pop\n      pop\n      pop\n      jump\t// out\n        /* \"#utility.yul\":3035:3125   */\n    tag_41:\n        /* \"#utility.yul\":3069:3076   */\n      0x00\n        /* \"#utility.yul\":3112:3117   */\n      dup2\n        /* \"#utility.yul\":3105:3118   */\n      iszero\n        /* \"#utility.yul\":3098:3119   */\n      iszero\n        /* \"#utility.yul\":3087:3119   */\n      swap1\n      pop\n        /* \"#utility.yul\":3035:3125   */\n      swap2\n      swap1\n      pop\n      jump\t// out\n        /* \"#utility.yul\":3131:3247   */\n    tag_42:\n        /* \"#utility.yul\":3201:3222   */\n      tag_90\n        /* \"#utility.yul\":3216:3221   */\n      dup2\n        /* \"#utility.yul\":3201:3222   */\n      tag_41\n      jump\t// in\n    tag_90:\n        /* \"#utility.yul\":3194:3199   */\n      dup2\n        /* \"#utility.yul\":3191:3223   */\n      eq\n        /* \"#utility.yul\":3181:3241   */\n      tag_91\n      jumpi\n        /* \"#utility.yul\":3237:3238   */\n      0x00\n        /* \"#utility.yul\":3234:3235   */\n      0x00\n        /* \"#utility.yul\":3227:3239   */\n      revert\n        /* \"#utility.yul\":3181:3241   */\n    tag_91:\n        /* \"#utility.yul\":3131:3247   */\n      pop\n      jump\t// out\n        /* \"#utility.yul\":3253:3390   */\n    tag_43:\n        /* \"#utility.yul\":3307:3312   */\n      0x00\n        /* \"#utility.yul\":3338:3344   */\n      dup2\n        /* \"#utility.yul\":3332:3345   */\n      mload\n        /* \"#utility.yul\":3323:3345   */\n      swap1\n      pop\n        /* \"#utility.yul\":3354:3384   */\n      tag_93\n        /* \"#utility.yul\":3378:3383   */\n      dup2\n        /* \"#utility.yul\":3354:3384   */\n      tag_42\n      jump\t// in\n    tag_93:\n        /* \"#utility.yul\":3253:3390   */\n      swap3\n      swap2\n      pop\n      pop\n      jump\t// out\n        /* \"#utility.yul\":3396:3741   */\n    tag_16:\n        /* \"#utility.yul\":3463:3469   */\n      0x00\n        /* \"#utility.yul\":3512:3514   */\n      0x20\n        /* \"#utility.yul\":3500:3509   */\n      dup3\n        /* \"#utility.yul\":3491:3498   */\n      dup5\n        /* \"#utility.yul\":3487:3510   */\n      sub\n        /* \"#utility.yul\":3483:3515   */\n      slt\n        /* \"#utility.yul\":3480:3599   */\n      iszero\n      tag_95\n      jumpi\n        /* \"#utility.yul\":3518:3597   */\n      tag_96\n      tag_28\n      jump\t// in\n    tag_96:\n        /* \"#utility.yul\":3480:3599   */\n    tag_95:\n        /* \"#utility.yul\":3638:3639   */\n      0x00\n        /* \"#utility.yul\":3663:3724   */\n      tag_97\n        /* \"#utility.yul\":3716:3723   */\n      dup5\n        /* \"#utility.yul\":3707:3713   */\n      dup3\n        /* \"#utility.yul\":3696:3705   */\n      dup6\n        /* \"#utility.yul\":3692:3714   */\n      add\n        /* \"#utility.yul\":3663:3724   */\n      tag_43\n      jump\t// in\n    tag_97:\n        /* \"#utility.yul\":3653:3724   */\n      swap2\n      pop\n        /* \"#utility.yul\":3609:3734   */\n      pop\n        /* \"#utility.yul\":3396:3741   */\n      swap3\n      swap2\n      pop\n      pop\n      jump\t// out\n        /* \"#utility.yul\":3747:3856   */\n    tag_44:\n        /* \"#utility.yul\":3828:3849   */\n      tag_99\n        /* \"#utility.yul\":3843:3848   */\n      dup2\n        /* \"#utility.yul\":3828:3849   */\n      tag_41\n      jump\t// in\n    tag_99:\n        /* \"#utility.yul\":3823:3826   */\n      dup3\n        /* \"#utility.yul\":3816:3850   */\n      mstore\n        /* \"#utility.yul\":3747:3856   */\n      pop\n      pop\n      jump\t// out\n        /* \"#utility.yul\":3862:4395   */\n    tag_19:\n        /* \"#utility.yul\":4029:4033   */\n      0x00\n        /* \"#utility.yul\":4067:4070   */\n      0x80\n        /* \"#utility.yul\":4056:4065   */\n      dup3\n        /* \"#utility.yul\":4052:4071   */\n      add\n        /* \"#utility.yul\":4044:4071   */\n      swap1\n      pop\n        /* \"#utility.yul\":4081:4152   */\n      tag_101\n        /* \"#utility.yul\":4149:4150   */\n      0x00\n        /* \"#utility.yul\":4138:4147   */\n      dup4\n        /* \"#utility.yul\":4134:4151   */\n      add\n        /* \"#utility.yul\":4125:4131   */\n      dup8\n        /* \"#utility.yul\":4081:4152   */\n      tag_39\n      jump\t// in\n    tag_101:\n        /* \"#utility.yul\":4162:4234   */\n      tag_102\n        /* \"#utility.yul\":4230:4232   */\n      0x20\n        /* \"#utility.yul\":4219:4228   */\n      dup4\n        /* \"#utility.yul\":4215:4233   */\n      add\n        /* \"#utility.yul\":4206:4212   */\n      dup7\n        /* \"#utility.yul\":4162:4234   */\n      tag_39\n      jump\t// in\n    tag_102:\n        /* \"#utility.yul\":4244:4312   */\n      tag_103\n        /* \"#utility.yul\":4308:4310   */\n      0x40\n        /* \"#utility.yul\":4297:4306   */\n      dup4\n        /* \"#utility.yul\":4293:4311   */\n      add\n        /* \"#utility.yul\":4284:4290   */\n      dup6\n        /* \"#utility.yul\":4244:4312   */\n      tag_40\n      jump\t// in\n    tag_103:\n        /* \"#utility.yul\":4322:4388   */\n      tag_104\n        /* \"#utility.yul\":4384:4386   */\n      0x60\n        /* \"#utility.yul\":4373:4382   */\n      dup4\n        /* \"#utility.yul\":4369:4387   */\n      add\n        /* \"#utility.yul\":4360:4366   */\n      dup5\n        /* \"#utility.yul\":4322:4388   */\n      tag_44\n      jump\t// in\n    tag_104:\n        /* \"#utility.yul\":3862:4395   */\n      swap6\n      swap5\n      pop\n      pop\n      pop\n      pop\n      pop\n      jump\t// out\n        /* \"#utility.yul\":4401:4725   */\n    tag_21:\n        /* \"#utility.yul\":4518:4522   */\n      0x00\n        /* \"#utility.yul\":4556:4558   */\n      0x40\n        /* \"#utility.yul\":4545:4554   */\n      dup3\n        /* \"#utility.yul\":4541:4559   */\n      add\n        /* \"#utility.yul\":4533:4559   */\n      swap1\n      pop\n        /* \"#utility.yul\":4569:4640   */\n      tag_106\n        /* \"#utility.yul\":4637:4638   */\n      0x00\n        /* \"#utility.yul\":4626:4635   */\n      dup4\n        /* \"#utility.yul\":4622:4639   */\n      add\n        /* \"#utility.yul\":4613:4619   */\n      dup6\n        /* \"#utility.yul\":4569:4640   */\n      tag_39\n      jump\t// in\n    tag_106:\n        /* \"#utility.yul\":4650:4718   */\n      tag_107\n        /* \"#utility.yul\":4714:4716   */\n      0x20\n        /* \"#utility.yul\":4703:4712   */\n      dup4\n        /* \"#utility.yul\":4699:4717   */\n      add\n        /* \"#utility.yul\":4690:4696   */\n      dup5\n        /* \"#utility.yul\":4650:4718   */\n      tag_40\n      jump\t// in\n    tag_107:\n        /* \"#utility.yul\":4401:4725   */\n      swap4\n      swap3\n      pop\n      pop\n      pop\n      jump\t// out\n        /* \"#utility.yul\":4731:4853   */\n    tag_45:\n        /* \"#utility.yul\":4804:4828   */\n      tag_109\n        /* \"#utility.yul\":4822:4827   */\n      dup2\n        /* \"#utility.yul\":4804:4828   */\n      tag_37\n      jump\t// in\n    tag_109:\n        /* \"#utility.yul\":4797:4802   */\n      dup2\n        /* \"#utility.yul\":4794:4829   */\n      eq\n        /* \"#utility.yul\":4784:4847   */\n      tag_110\n      jumpi\n        /* \"#utility.yul\":4843:4844   */\n      0x00\n        /* \"#utility.yul\":4840:4841   */\n      0x00\n        /* \"#utility.yul\":4833:4845   */\n      revert\n        /* \"#utility.yul\":4784:4847   */\n    tag_110:\n        /* \"#utility.yul\":4731:4853   */\n      pop\n      jump\t// out\n        /* \"#utility.yul\":4859:5002   */\n    tag_46:\n        /* \"#utility.yul\":4916:4921   */\n      0x00\n        /* \"#utility.yul\":4947:4953   */\n      dup2\n        /* \"#utility.yul\":4941:4954   */\n      mload\n        /* \"#utility.yul\":4932:4954   */\n      swap1\n      pop\n        /* \"#utility.yul\":4963:4996   */\n      tag_112\n        /* \"#utility.yul\":4990:4995   */\n      dup2\n        /* \"#utility.yul\":4963:4996   */\n      tag_45\n      jump\t// in\n    tag_112:\n        /* \"#utility.yul\":4859:5002   */\n      swap3\n      swap2\n      pop\n      pop\n      jump\t// out\n        /* \"#utility.yul\":5008:5085   */\n    tag_47:\n        /* \"#utility.yul\":5045:5052   */\n      0x00\n        /* \"#utility.yul\":5074:5079   */\n      dup2\n        /* \"#utility.yul\":5063:5079   */\n      swap1\n      pop\n        /* \"#utility.yul\":5008:5085   */\n      swap2\n      swap1\n      pop\n      jump\t// out\n        /* \"#utility.yul\":5091:5213   */\n    tag_48:\n        /* \"#utility.yul\":5164:5188   */\n      tag_115\n        /* \"#utility.yul\":5182:5187   */\n      dup2\n        /* \"#utility.yul\":5164:5188   */\n      tag_47\n      jump\t// in\n    tag_115:\n        /* \"#utility.yul\":5157:5162   */\n      dup2\n        /* \"#utility.yul\":5154:5189   */\n      eq\n        /* \"#utility.yul\":5144:5207   */\n      tag_116\n      jumpi\n        /* \"#utility.yul\":5203:5204   */\n      0x00\n        /* \"#utility.yul\":5200:5201   */\n      0x00\n        /* \"#utility.yul\":5193:5205   */\n      revert\n        /* \"#utility.yul\":5144:5207   */\n    tag_116:\n        /* \"#utility.yul\":5091:5213   */\n      pop\n      jump\t// out\n        /* \"#utility.yul\":5219:5362   */\n    tag_49:\n        /* \"#utility.yul\":5276:5281   */\n      0x00\n        /* \"#utility.yul\":5307:5313   */\n      dup2\n        /* \"#utility.yul\":5301:5314   */\n      mload\n        /* \"#utility.yul\":5292:5314   */\n      swap1\n      pop\n        /* \"#utility.yul\":5323:5356   */\n      tag_118\n        /* \"#utility.yul\":5350:5355   */\n      dup2\n        /* \"#utility.yul\":5323:5356   */\n      tag_48\n      jump\t// in\n    tag_118:\n        /* \"#utility.yul\":5219:5362   */\n      swap3\n      swap2\n      pop\n      pop\n      jump\t// out\n        /* \"#utility.yul\":5368:5875   */\n    tag_25:\n        /* \"#utility.yul\":5447:5453   */\n      0x00\n        /* \"#utility.yul\":5455:5461   */\n      0x00\n        /* \"#utility.yul\":5504:5506   */\n      0x40\n        /* \"#utility.yul\":5492:5501   */\n      dup4\n        /* \"#utility.yul\":5483:5490   */\n      dup6\n        /* \"#utility.yul\":5479:5502   */\n      sub\n        /* \"#utility.yul\":5475:5507   */\n      slt\n        /* \"#utility.yul\":5472:5591   */\n      iszero\n      tag_120\n      jumpi\n        /* \"#utility.yul\":5510:5589   */\n      tag_121\n      tag_28\n      jump\t// in\n    tag_121:\n        /* \"#utility.yul\":5472:5591   */\n    tag_120:\n        /* \"#utility.yul\":5630:5631   */\n      0x00\n        /* \"#utility.yul\":5655:5719   */\n      tag_122\n        /* \"#utility.yul\":5711:5718   */\n      dup6\n        /* \"#utility.yul\":5702:5708   */\n      dup3\n        /* \"#utility.yul\":5691:5700   */\n      dup7\n        /* \"#utility.yul\":5687:5709   */\n      add\n        /* \"#utility.yul\":5655:5719   */\n      tag_46\n      jump\t// in\n    tag_122:\n        /* \"#utility.yul\":5645:5719   */\n      swap3\n      pop\n        /* \"#utility.yul\":5601:5729   */\n      pop\n        /* \"#utility.yul\":5768:5770   */\n      0x20\n        /* \"#utility.yul\":5794:5858   */\n      tag_123\n        /* \"#utility.yul\":5850:5857   */\n      dup6\n        /* \"#utility.yul\":5841:5847   */\n      dup3\n        /* \"#utility.yul\":5830:5839   */\n      dup7\n        /* \"#utility.yul\":5826:5848   */\n      add\n        /* \"#utility.yul\":5794:5858   */\n      tag_49\n      jump\t// in\n    tag_123:\n        /* \"#utility.yul\":5784:5858   */\n      swap2\n      pop\n        /* \"#utility.yul\":5739:5868   */\n      pop\n        /* \"#utility.yul\":5368:5875   */\n      swap3\n      pop\n      swap3\n      swap1\n      pop\n      jump\t// out\n\n    auxdata: 0xa2646970667358221220dfd0d1b94f51c4e33a3f63e943e68a4f034c22bb41f1f4de2f7f0c8d474e6a8764736f6c634300081e0033\n}\n",
				"bytecode": {
					"linkReferences": {},
					"object": "608060405234801561000f575f5ffd5b506040516106b53803806106b583398181016040528101906100319190610115565b815f5f6101000a81548173ffffffffffffffffffffffffffffffffffffffff021916908373ffffffffffffffffffffffffffffffffffffffff1602179055508060015f6101000a81548173ffffffffffffffffffffffffffffffffffffffff021916908373ffffffffffffffffffffffffffffffffffffffff1602179055505050610153565b5f5ffd5b5f73ffffffffffffffffffffffffffffffffffffffff82169050919050565b5f6100e4826100bb565b9050919050565b6100f4816100da565b81146100fe575f5ffd5b50565b5f8151905061010f816100eb565b92915050565b5f5f6040838503121561012b5761012a6100b7565b5b5f61013885828601610101565b925050602061014985828601610101565b9150509250929050565b610555806101605f395ff3fe608060405234801561000f575f5ffd5b5060043610610029575f3560e01c8063428711051461002d575b5f5ffd5b610047600480360381019061004291906102c9565b61005d565b6040516100549190610331565b60405180910390f35b5f5f5f5f9054906101000a900473ffffffffffffffffffffffffffffffffffffffff1673ffffffffffffffffffffffffffffffffffffffff16637ba8478c863387876040518563ffffffff1660e01b81526004016100be9493929190610368565b602060405180830381865afa1580156100d9573d5f5f3e3d5ffd5b505050506040513d601f19601f820116820180604052508101906100fd91906103e0565b90508061014c577f3b069242f251d19eb8ef494dc540f026ea21aa2eb81808b766ab040cbcc39a893386865f604051610139949392919061041a565b60405180910390a15f5f1b91505061022e565b5f60015f9054906101000a900473ffffffffffffffffffffffffffffffffffffffff1673ffffffffffffffffffffffffffffffffffffffff1663e9b465a887876040518363ffffffff1660e01b81526004016101a992919061045d565b6040805180830381865afa1580156101c3573d5f5f3e3d5ffd5b505050506040513d601f19601f820116820180604052508101906101e791906104e1565b5090507f3b069242f251d19eb8ef494dc540f026ea21aa2eb81808b766ab040cbcc39a893387876001604051610220949392919061041a565b60405180910390a180925050505b9392505050565b5f5ffd5b5f73ffffffffffffffffffffffffffffffffffffffff82169050919050565b5f61026282610239565b9050919050565b61027281610258565b811461027c575f5ffd5b50565b5f8135905061028d81610269565b92915050565b5f60ff82169050919050565b6102a881610293565b81146102b2575f5ffd5b50565b5f813590506102c38161029f565b92915050565b5f5f5f606084860312156102e0576102df610235565b5b5f6102ed8682870161027f565b93505060206102fe868287016102b5565b925050604061030f868287016102b5565b9150509250925092565b5f819050919050565b61032b81610319565b82525050565b5f6020820190506103445f830184610322565b92915050565b61035381610258565b82525050565b61036281610293565b82525050565b5f60808201905061037b5f83018761034a565b610388602083018661034a565b6103956040830185610359565b6103a26060830184610359565b95945050505050565b5f8115159050919050565b6103bf816103ab565b81146103c9575f5ffd5b50565b5f815190506103da816103b6565b92915050565b5f602082840312156103f5576103f4610235565b5b5f610402848285016103cc565b91505092915050565b610414816103ab565b82525050565b5f60808201905061042d5f83018761034a565b61043a602083018661034a565b6104476040830185610359565b610454606083018461040b565b95945050505050565b5f6040820190506104705f83018561034a565b61047d6020830184610359565b9392505050565b61048d81610319565b8114610497575f5ffd5b50565b5f815190506104a881610484565b92915050565b5f819050919050565b6104c0816104ae565b81146104ca575f5ffd5b50565b5f815190506104db816104b7565b92915050565b5f5f604083850312156104f7576104f6610235565b5b5f6105048582860161049a565b9250506020610515858286016104cd565b915050925092905056fea2646970667358221220dfd0d1b94f51c4e33a3f63e943e68a4f034c22bb41f1f4de2f7f0c8d474e6a8764736f6c634300081e0033",
					"opcodes": "PUSH1 0x80 PUSH1 0x40 MSTORE CALLVALUE DUP1 ISZERO PUSH2 0xF JUMPI PUSH0 PUSH0 REVERT JUMPDEST POP PUSH1 0x40 MLOAD PUSH2 0x6B5 CODESIZE SUB DUP1 PUSH2 0x6B5 DUP4 CODECOPY DUP2 DUP2 ADD PUSH1 0x40 MSTORE DUP2 ADD SWAP1 PUSH2 0x31 SWAP2 SWAP1 PUSH2 0x115 JUMP JUMPDEST DUP2 PUSH0 PUSH0 PUSH2 0x100 EXP DUP2 SLOAD DUP2 PUSH20 0xFFFFFFFFFFFFFFFFFFFFFFFFFFFFFFFFFFFFFFFF MUL NOT AND SWAP1 DUP4 PUSH20 0xFFFFFFFFFFFFFFFFFFFFFFFFFFFFFFFFFFFFFFFF AND MUL OR SWAP1 SSTORE POP DUP1 PUSH1 0x1 PUSH0 PUSH2 0x100 EXP DUP2 SLOAD DUP2 PUSH20 0xFFFFFFFFFFFFFFFFFFFFFFFFFFFFFFFFFFFFFFFF MUL NOT AND SWAP1 DUP4 PUSH20 0xFFFFFFFFFFFFFFFFFFFFFFFFFFFFFFFFFFFFFFFF AND MUL OR SWAP1 SSTORE POP POP POP PUSH2 0x153 JUMP JUMPDEST PUSH0 PUSH0 REVERT JUMPDEST PUSH0 PUSH20 0xFFFFFFFFFFFFFFFFFFFFFFFFFFFFFFFFFFFFFFFF DUP3 AND SWAP1 POP SWAP2 SWAP1 POP JUMP JUMPDEST PUSH0 PUSH2 0xE4 DUP3 PUSH2 0xBB JUMP JUMPDEST SWAP1 POP SWAP2 SWAP1 POP JUMP JUMPDEST PUSH2 0xF4 DUP2 PUSH2 0xDA JUMP JUMPDEST DUP2 EQ PUSH2 0xFE JUMPI PUSH0 PUSH0 REVERT JUMPDEST POP JUMP JUMPDEST PUSH0 DUP2 MLOAD SWAP1 POP PUSH2 0x10F DUP2 PUSH2 0xEB JUMP JUMPDEST SWAP3 SWAP2 POP POP JUMP JUMPDEST PUSH0 PUSH0 PUSH1 0x40 DUP4 DUP6 SUB SLT ISZERO PUSH2 0x12B JUMPI PUSH2 0x12A PUSH2 0xB7 JUMP JUMPDEST JUMPDEST PUSH0 PUSH2 0x138 DUP6 DUP3 DUP7 ADD PUSH2 0x101 JUMP JUMPDEST SWAP3 POP POP PUSH1 0x20 PUSH2 0x149 DUP6 DUP3 DUP7 ADD PUSH2 0x101 JUMP JUMPDEST SWAP2 POP POP SWAP3 POP SWAP3 SWAP1 POP JUMP JUMPDEST PUSH2 0x555 DUP1 PUSH2 0x160 PUSH0 CODECOPY PUSH0 RETURN INVALID PUSH1 0x80 PUSH1 0x40 MSTORE CALLVALUE DUP1 ISZERO PUSH2 0xF JUMPI PUSH0 PUSH0 REVERT JUMPDEST POP PUSH1 0x4 CALLDATASIZE LT PUSH2 0x29 JUMPI PUSH0 CALLDATALOAD PUSH1 0xE0 SHR DUP1 PUSH4 0x42871105 EQ PUSH2 0x2D JUMPI JUMPDEST PUSH0 PUSH0 REVERT JUMPDEST PUSH2 0x47 PUSH1 0x4 DUP1 CALLDATASIZE SUB DUP2 ADD SWAP1 PUSH2 0x42 SWAP2 SWAP1 PUSH2 0x2C9 JUMP JUMPDEST PUSH2 0x5D JUMP JUMPDEST PUSH1 0x40 MLOAD PUSH2 0x54 SWAP2 SWAP1 PUSH2 0x331 JUMP JUMPDEST PUSH1 0x40 MLOAD DUP1 SWAP2 SUB SWAP1 RETURN JUMPDEST PUSH0 PUSH0 PUSH0 PUSH0 SWAP1 SLOAD SWAP1 PUSH2 0x100 EXP SWAP1 DIV PUSH20 0xFFFFFFFFFFFFFFFFFFFFFFFFFFFFFFFFFFFFFFFF AND PUSH20 0xFFFFFFFFFFFFFFFFFFFFFFFFFFFFFFFFFFFFFFFF AND PUSH4 0x7BA8478C DUP7 CALLER DUP8 DUP8 PUSH1 0x40 MLOAD DUP6 PUSH4 0xFFFFFFFF AND PUSH1 0xE0 SHL DUP2 MSTORE PUSH1 0x4 ADD PUSH2 0xBE SWAP5 SWAP4 SWAP3 SWAP2 SWAP1 PUSH2 0x368 JUMP JUMPDEST PUSH1 0x20 PUSH1 0x40 MLOAD DUP1 DUP4 SUB DUP2 DUP7 GAS STATICCALL ISZERO DUP1 ISZERO PUSH2 0xD9 JUMPI RETURNDATASIZE PUSH0 PUSH0 RETURNDATACOPY RETURNDATASIZE PUSH0 REVERT JUMPDEST POP POP POP POP PUSH1 0x40 MLOAD RETURNDATASIZE PUSH1 0x1F NOT PUSH1 0x1F DUP3 ADD AND DUP3 ADD DUP1 PUSH1 0x40 MSTORE POP DUP2 ADD SWAP1 PUSH2 0xFD SWAP2 SWAP1 PUSH2 0x3E0 JUMP JUMPDEST SWAP1 POP DUP1 PUSH2 0x14C JUMPI PUSH32 0x3B069242F251D19EB8EF494DC540F026EA21AA2EB81808B766AB040CBCC39A89 CALLER DUP7 DUP7 PUSH0 PUSH1 0x40 MLOAD PUSH2 0x139 SWAP5 SWAP4 SWAP3 SWAP2 SWAP1 PUSH2 0x41A JUMP JUMPDEST PUSH1 0x40 MLOAD DUP1 SWAP2 SUB SWAP1 LOG1 PUSH0 PUSH0 SHL SWAP2 POP POP PUSH2 0x22E JUMP JUMPDEST PUSH0 PUSH1 0x1 PUSH0 SWAP1 SLOAD SWAP1 PUSH2 0x100 EXP SWAP1 DIV PUSH20 0xFFFFFFFFFFFFFFFFFFFFFFFFFFFFFFFFFFFFFFFF AND PUSH20 0xFFFFFFFFFFFFFFFFFFFFFFFFFFFFFFFFFFFFFFFF AND PUSH4 0xE9B465A8 DUP8 DUP8 PUSH1 0x40 MLOAD DUP4 PUSH4 0xFFFFFFFF AND PUSH1 0xE0 SHL DUP2 MSTORE PUSH1 0x4 ADD PUSH2 0x1A9 SWAP3 SWAP2 SWAP1 PUSH2 0x45D JUMP JUMPDEST PUSH1 0x40 DUP1 MLOAD DUP1 DUP4 SUB DUP2 DUP7 GAS STATICCALL ISZERO DUP1 ISZERO PUSH2 0x1C3 JUMPI RETURNDATASIZE PUSH0 PUSH0 RETURNDATACOPY RETURNDATASIZE PUSH0 REVERT JUMPDEST POP POP POP POP PUSH1 0x40 MLOAD RETURNDATASIZE PUSH1 0x1F NOT PUSH1 0x1F DUP3 ADD AND DUP3 ADD DUP1 PUSH1 0x40 MSTORE POP DUP2 ADD SWAP1 PUSH2 0x1E7 SWAP2 SWAP1 PUSH2 0x4E1 JUMP JUMPDEST POP SWAP1 POP PUSH32 0x3B069242F251D19EB8EF494DC540F026EA21AA2EB81808B766AB040CBCC39A89 CALLER DUP8 DUP8 PUSH1 0x1 PUSH1 0x40 MLOAD PUSH2 0x220 SWAP5 SWAP4 SWAP3 SWAP2 SWAP1 PUSH2 0x41A JUMP JUMPDEST PUSH1 0x40 MLOAD DUP1 SWAP2 SUB SWAP1 LOG1 DUP1 SWAP3 POP POP POP JUMPDEST SWAP4 SWAP3 POP POP POP JUMP JUMPDEST PUSH0 PUSH0 REVERT JUMPDEST PUSH0 PUSH20 0xFFFFFFFFFFFFFFFFFFFFFFFFFFFFFFFFFFFFFFFF DUP3 AND SWAP1 POP SWAP2 SWAP1 POP JUMP JUMPDEST PUSH0 PUSH2 0x262 DUP3 PUSH2 0x239 JUMP JUMPDEST SWAP1 POP SWAP2 SWAP1 POP JUMP JUMPDEST PUSH2 0x272 DUP2 PUSH2 0x258 JUMP JUMPDEST DUP2 EQ PUSH2 0x27C JUMPI PUSH0 PUSH0 REVERT JUMPDEST POP JUMP JUMPDEST PUSH0 DUP2 CALLDATALOAD SWAP1 POP PUSH2 0x28D DUP2 PUSH2 0x269 JUMP JUMPDEST SWAP3 SWAP2 POP POP JUMP JUMPDEST PUSH0 PUSH1 0xFF DUP3 AND SWAP1 POP SWAP2 SWAP1 POP JUMP JUMPDEST PUSH2 0x2A8 DUP2 PUSH2 0x293 JUMP JUMPDEST DUP2 EQ PUSH2 0x2B2 JUMPI PUSH0 PUSH0 REVERT JUMPDEST POP JUMP JUMPDEST PUSH0 DUP2 CALLDATALOAD SWAP1 POP PUSH2 0x2C3 DUP2 PUSH2 0x29F JUMP JUMPDEST SWAP3 SWAP2 POP POP JUMP JUMPDEST PUSH0 PUSH0 PUSH0 PUSH1 0x60 DUP5 DUP7 SUB SLT ISZERO PUSH2 0x2E0 JUMPI PUSH2 0x2DF PUSH2 0x235 JUMP JUMPDEST JUMPDEST PUSH0 PUSH2 0x2ED DUP7 DUP3 DUP8 ADD PUSH2 0x27F JUMP JUMPDEST SWAP4 POP POP PUSH1 0x20 PUSH2 0x2FE DUP7 DUP3 DUP8 ADD PUSH2 0x2B5 JUMP JUMPDEST SWAP3 POP POP PUSH1 0x40 PUSH2 0x30F DUP7 DUP3 DUP8 ADD PUSH2 0x2B5 JUMP JUMPDEST SWAP2 POP POP SWAP3 POP SWAP3 POP SWAP3 JUMP JUMPDEST PUSH0 DUP2 SWAP1 POP SWAP2 SWAP1 POP JUMP JUMPDEST PUSH2 0x32B DUP2 PUSH2 0x319 JUMP JUMPDEST DUP3 MSTORE POP POP JUMP JUMPDEST PUSH0 PUSH1 0x20 DUP3 ADD SWAP1 POP PUSH2 0x344 PUSH0 DUP4 ADD DUP5 PUSH2 0x322 JUMP JUMPDEST SWAP3 SWAP2 POP POP JUMP JUMPDEST PUSH2 0x353 DUP2 PUSH2 0x258 JUMP JUMPDEST DUP3 MSTORE POP POP JUMP JUMPDEST PUSH2 0x362 DUP2 PUSH2 0x293 JUMP JUMPDEST DUP3 MSTORE POP POP JUMP JUMPDEST PUSH0 PUSH1 0x80 DUP3 ADD SWAP1 POP PUSH2 0x37B PUSH0 DUP4 ADD DUP8 PUSH2 0x34A JUMP JUMPDEST PUSH2 0x388 PUSH1 0x20 DUP4 ADD DUP7 PUSH2 0x34A JUMP JUMPDEST PUSH2 0x395 PUSH1 0x40 DUP4 ADD DUP6 PUSH2 0x359 JUMP JUMPDEST PUSH2 0x3A2 PUSH1 0x60 DUP4 ADD DUP5 PUSH2 0x359 JUMP JUMPDEST SWAP6 SWAP5 POP POP POP POP POP JUMP JUMPDEST PUSH0 DUP2 ISZERO ISZERO SWAP1 POP SWAP2 SWAP1 POP JUMP JUMPDEST PUSH2 0x3BF DUP2 PUSH2 0x3AB JUMP JUMPDEST DUP2 EQ PUSH2 0x3C9 JUMPI PUSH0 PUSH0 REVERT JUMPDEST POP JUMP JUMPDEST PUSH0 DUP2 MLOAD SWAP1 POP PUSH2 0x3DA DUP2 PUSH2 0x3B6 JUMP JUMPDEST SWAP3 SWAP2 POP POP JUMP JUMPDEST PUSH0 PUSH1 0x20 DUP3 DUP5 SUB SLT ISZERO PUSH2 0x3F5 JUMPI PUSH2 0x3F4 PUSH2 0x235 JUMP JUMPDEST JUMPDEST PUSH0 PUSH2 0x402 DUP5 DUP3 DUP6 ADD PUSH2 0x3CC JUMP JUMPDEST SWAP2 POP POP SWAP3 SWAP2 POP POP JUMP JUMPDEST PUSH2 0x414 DUP2 PUSH2 0x3AB JUMP JUMPDEST DUP3 MSTORE POP POP JUMP JUMPDEST PUSH0 PUSH1 0x80 DUP3 ADD SWAP1 POP PUSH2 0x42D PUSH0 DUP4 ADD DUP8 PUSH2 0x34A JUMP JUMPDEST PUSH2 0x43A PUSH1 0x20 DUP4 ADD DUP7 PUSH2 0x34A JUMP JUMPDEST PUSH2 0x447 PUSH1 0x40 DUP4 ADD DUP6 PUSH2 0x359 JUMP JUMPDEST PUSH2 0x454 PUSH1 0x60 DUP4 ADD DUP5 PUSH2 0x40B JUMP JUMPDEST SWAP6 SWAP5 POP POP POP POP POP JUMP JUMPDEST PUSH0 PUSH1 0x40 DUP3 ADD SWAP1 POP PUSH2 0x470 PUSH0 DUP4 ADD DUP6 PUSH2 0x34A JUMP JUMPDEST PUSH2 0x47D PUSH1 0x20 DUP4 ADD DUP5 PUSH2 0x359 JUMP JUMPDEST SWAP4 SWAP3 POP POP POP JUMP JUMPDEST PUSH2 0x48D DUP2 PUSH2 0x319 JUMP JUMPDEST DUP2 EQ PUSH2 0x497 JUMPI PUSH0 PUSH0 REVERT JUMPDEST POP JUMP JUMPDEST PUSH0 DUP2 MLOAD SWAP1 POP PUSH2 0x4A8 DUP2 PUSH2 0x484 JUMP JUMPDEST SWAP3 SWAP2 POP POP JUMP JUMPDEST PUSH0 DUP2 SWAP1 POP SWAP2 SWAP1 POP JUMP JUMPDEST PUSH2 0x4C0 DUP2 PUSH2 0x4AE JUMP JUMPDEST DUP2 EQ PUSH2 0x4CA JUMPI PUSH0 PUSH0 REVERT JUMPDEST POP JUMP JUMPDEST PUSH0 DUP2 MLOAD SWAP1 POP PUSH2 0x4DB DUP2 PUSH2 0x4B7 JUMP JUMPDEST SWAP3 SWAP2 POP POP JUMP JUMPDEST PUSH0 PUSH0 PUSH1 0x40 DUP4 DUP6 SUB SLT ISZERO PUSH2 0x4F7 JUMPI PUSH2 0x4F6 PUSH2 0x235 JUMP JUMPDEST JUMPDEST PUSH0 PUSH2 0x504 DUP6 DUP3 DUP7 ADD PUSH2 0x49A JUMP JUMPDEST SWAP3 POP POP PUSH1 0x20 PUSH2 0x515 DUP6 DUP3 DUP7 ADD PUSH2 0x4CD JUMP JUMPDEST SWAP2 POP POP SWAP3 POP SWAP3 SWAP1 POP JUMP INVALID LOG2 PUSH5 0x6970667358 0x22 SLT KECCAK256 0xDF 0xD0 DATALOADN 0xB94F MLOAD 0xC4 CALLF 0x3A3F PUSH4 0xE943E68A 0x4F SUB 0x4C 0x22 0xBB COINBASE CALL DELEGATECALL 0xDE 0x2F PUSH32 0xC8D474E6A8764736F6C634300081E0033000000000000000000000000000000 "
				},
				"gasEstimates": {
					"creation": {
						"codeDepositCost": "273000",
						"executionCost": "infinite",
						"totalCost": "infinite"
					},
					"external": {
						"accessData(address,uint8,uint8)": "infinite"
					}
				},
				"methodIdentifiers": {
					"accessData(address,uint8,uint8)": "42871105"
				}
			},
			"storageLayout": {
				"storage": [
					{
						"astId": 30,
						"contract": "contracts/AccessController.sol:AccessController",
						"label": "consentManager",
						"offset": 0,
						"slot": "0",
						"type": "t_contract(IConsentManager)15"
					},
					{
						"astId": 33,
						"contract": "contracts/AccessController.sol:AccessController",
						"label": "dataRegistry",
						"offset": 0,
						"slot": "1",
						"type": "t_contract(IDataRegistry)27"
					}
				],
				"types": {
					"t_contract(IConsentManager)15": {
						"encoding": "inplace",
						"label": "contract IConsentManager",
						"numberOfBytes": "20"
					},
					"t_contract(IDataRegistry)27": {
						"encoding": "inplace",
						"label": "contract IDataRegistry",
						"numberOfBytes": "20"
					}
				}
			},
			"userdoc": {
				"kind": "user",
				"methods": {},
				"version": 1
			}
		}
	}
}