{
	"contracts/DataRegistry.sol": {
		"DataRegistry": {
			"abi": [
				{
					"anonymous": false,
					"inputs": [
						{
							"indexed": true,
							"internalType": "address",
							"name": "patient",
							"type": "address"
						},
						{
							"indexed": true,
							"internalType": "uint8",
							"name": "dataType",
							"type": "uint8"
						},
						{
							"indexed": false,
							"internalType": "uint32",
							"name": "version",
							"type": "uint32"
						},
						{
							"indexed": false,
							"internalType": "bytes32",
							"name": "dataHash",
							"type": "bytes32"
						}
					],
					"name": "DataPointerUpdated",
					"type": "event"
				},
				{
					"inputs": [
						{
							"internalType": "address",
							"name": "",
							"type": "address"
						},
						{
							"internalType": "uint8",
							"name": "",
							"type": "uint8"
						},
						{
							"internalType": "uint256",
							"name": "",
							"type": "uint256"
						}
					],
					"name": "dataPointers",
					"outputs": [
						{
							"internalType": "bytes32",
							"name": "dataHash",
							"type": "bytes32"
						},
						{
							"internalType": "uint256",
							"name": "timestamp",
							"type": "uint256"
						},
						{
							"internalType": "uint32",
							"name": "version",
							"type": "uint32"
						}
					],
					"stateMutability": "view",
					"type": "function"
				},
				{
					"inputs": [
						{
							"internalType": "address",
							"name": "patient",
							"type": "address"
						},
						{
							"internalType": "uint8",
							"name": "dataType",
							"type": "uint8"
						},
						{
							"internalType": "uint32",
							"name": "version",
							"type": "uint32"
						}
					],
					"name": "getDataPointerVersion",
					"outputs": [
						{
							"internalType": "bytes32",
							"name": "dataHash",
							"type": "bytes32"
						},
						{
							"internalType": "uint256",
							"name": "timestamp",
							"type": "uint256"
						}
					],
					"stateMutability": "view",
					"type": "function"
				},
				{
					"inputs": [
						{
							"internalType": "address",
							"name": "patient",
							"type": "address"
						},
						{
							"internalType": "uint8",
							"name": "dataType",
							"type": "uint8"
						}
					],
					"name": "getLatestDataPointer",
					"outputs": [
						{
							"internalType": "bytes32",
							"name": "dataHash",
							"type": "bytes32"
						},
						{
							"internalType": "uint256",
							"name": "timestamp",
							"type": "uint256"
						},
						{
							"internalType": "uint32",
							"name": "version",
							"type": "uint32"
						}
					],
					"stateMutability": "view",
					"type": "function"
				},
				{
					"inputs": [
						{
							"internalType": "address",
							"name": "patient",
							"type": "address"
						},
						{
							"internalType": "uint8",
							"name": "dataType",
							"type": "uint8"
						}
					],
					"name": "getVersionCount",
					"outputs": [
						{
							"internalType": "uint256",
							"name": "",
							"type": "uint256"
						}
					],
					"stateMutability": "view",
					"type": "function"
				},
				{
					"inputs": [
						{
							"internalType": "uint8",
							"name": "dataType",
							"type": "uint8"
						},
						{
							"internalType": "bytes32",
							"name": "dataHash",
							"type": "bytes32"
						}
					],
					"name": "setDataPointer",
					"outputs": [],
					"stateMutability": "nonpayable",
					"type": "function"
				}
			],
			"devdoc": {
				"kind": "dev",
				"methods": {},
				"version": 1
			},
			"evm": {
				"assembly": "    /* \"contracts/DataRegistry.sol\":61:3222  contract DataRegistry {... */\n  mstore(0x40, 0x80)\n  callvalue\n  dup1\n  iszero\n  tag_1\n  jumpi\n  revert(0x00, 0x00)\ntag_1:\n  pop\n  dataSize(sub_0)\n  dup1\n  dataOffset(sub_0)\n  0x00\n  codecopy\n  0x00\n  return\nstop\n\nsub_0: assembly {\n        /* \"contracts/DataRegistry.sol\":61:3222  contract DataRegistry {... */\n      mstore(0x40, 0x80)\n      callvalue\n      dup1\n      iszero\n      tag_1\n      jumpi\n      revert(0x00, 0x00)\n    tag_1:\n      pop\n      jumpi(tag_2, lt(calldatasize, 0x04))\n      shr(0xe0, calldataload(0x00))\n      dup1\n      0x1570b4a5\n      eq\n      tag_3\n      jumpi\n      dup1\n      0x8251baba\n      eq\n      tag_4\n      jumpi\n      dup1\n      0xc1057057\n      eq\n      tag_5\n      jumpi\n      dup1\n      0xde7e8d35\n      eq\n      tag_6\n      jumpi\n      dup1\n      0xe9b465a8\n      eq\n      tag_7\n      jumpi\n    tag_2:\n      revert(0x00, 0x00)\n        /* \"contracts/DataRegistry.sol\":2536:2966  function getDataPointerVersion(... */\n    tag_3:\n      tag_8\n      0x04\n      dup1\n      calldatasize\n      sub\n      dup2\n      add\n      swap1\n      tag_9\n      swap2\n      swap1\n      tag_10\n      jump\t// in\n    tag_9:\n      tag_11\n      jump\t// in\n    tag_8:\n      mload(0x40)\n      tag_12\n      swap3\n      swap2\n      swap1\n      tag_13\n      jump\t// in\n    tag_12:\n      mload(0x40)\n      dup1\n      swap2\n      sub\n      swap1\n      return\n        /* \"contracts/DataRegistry.sol\":3040:3219  function getVersionCount(... */\n    tag_4:\n      tag_14\n      0x04\n      dup1\n      calldatasize\n      sub\n      dup2\n      add\n      swap1\n      tag_15\n      swap2\n      swap1\n      tag_16\n      jump\t// in\n    tag_15:\n      tag_17\n      jump\t// in\n    tag_14:\n      mload(0x40)\n      tag_18\n      swap2\n      swap1\n      tag_19\n      jump\t// in\n    tag_18:\n      mload(0x40)\n      dup1\n      swap2\n      sub\n      swap1\n      return\n        /* \"contracts/DataRegistry.sol\":1409:1999  function setDataPointer(uint8 dataType, bytes32 dataHash) external {... */\n    tag_5:\n      tag_20\n      0x04\n      dup1\n      calldatasize\n      sub\n      dup2\n      add\n      swap1\n      tag_21\n      swap2\n      swap1\n      tag_22\n      jump\t// in\n    tag_21:\n      tag_23\n      jump\t// in\n    tag_20:\n      stop\n        /* \"contracts/DataRegistry.sol\":639:710  mapping(address => mapping(uint8 => DataPointer[])) public dataPointers */\n    tag_6:\n      tag_24\n      0x04\n      dup1\n      calldatasize\n      sub\n      dup2\n      add\n      swap1\n      tag_25\n      swap2\n      swap1\n      tag_26\n      jump\t// in\n    tag_25:\n      tag_27\n      jump\t// in\n    tag_24:\n      mload(0x40)\n      tag_28\n      swap4\n      swap3\n      swap2\n      swap1\n      tag_29\n      jump\t// in\n    tag_28:\n      mload(0x40)\n      dup1\n      swap2\n      sub\n      swap1\n      return\n        /* \"contracts/DataRegistry.sol\":2068:2487  function getLatestDataPointer(... */\n    tag_7:\n      tag_30\n      0x04\n      dup1\n      calldatasize\n      sub\n      dup2\n      add\n      swap1\n      tag_31\n      swap2\n      swap1\n      tag_16\n      jump\t// in\n    tag_31:\n      tag_32\n      jump\t// in\n    tag_30:\n      mload(0x40)\n      tag_33\n      swap4\n      swap3\n      swap2\n      swap1\n      tag_29\n      jump\t// in\n    tag_33:\n      mload(0x40)\n      dup1\n      swap2\n      sub\n      swap1\n      return\n        /* \"contracts/DataRegistry.sol\":2536:2966  function getDataPointerVersion(... */\n    tag_11:\n        /* \"contracts/DataRegistry.sol\":2673:2689  bytes32 dataHash */\n      0x00\n        /* \"contracts/DataRegistry.sol\":2691:2708  uint256 timestamp */\n      0x00\n        /* \"contracts/DataRegistry.sol\":2721:2747  DataPointer[] storage list */\n      0x00\n        /* \"contracts/DataRegistry.sol\":2750:2762  dataPointers */\n      0x00\n        /* \"contracts/DataRegistry.sol\":2750:2771  dataPointers[patient] */\n      0x00\n        /* \"contracts/DataRegistry.sol\":2763:2770  patient */\n      dup8\n        /* \"contracts/DataRegistry.sol\":2750:2771  dataPointers[patient] */\n      0xffffffffffffffffffffffffffffffffffffffff\n      and\n      0xffffffffffffffffffffffffffffffffffffffff\n      and\n      dup2\n      mstore\n      0x20\n      add\n      swap1\n      dup2\n      mstore\n      0x20\n      add\n      0x00\n      keccak256\n        /* \"contracts/DataRegistry.sol\":2750:2781  dataPointers[patient][dataType] */\n      0x00\n        /* \"contracts/DataRegistry.sol\":2772:2780  dataType */\n      dup7\n        /* \"contracts/DataRegistry.sol\":2750:2781  dataPointers[patient][dataType] */\n      0xff\n      and\n      0xff\n      and\n      dup2\n      mstore\n      0x20\n      add\n      swap1\n      dup2\n      mstore\n      0x20\n      add\n      0x00\n      keccak256\n        /* \"contracts/DataRegistry.sol\":2721:2781  DataPointer[] storage list = dataPointers[patient][dataType] */\n      swap1\n      pop\n        /* \"contracts/DataRegistry.sol\":2811:2812  1 */\n      0x01\n        /* \"contracts/DataRegistry.sol\":2800:2807  version */\n      dup5\n        /* \"contracts/DataRegistry.sol\":2800:2812  version >= 1 */\n      0xffffffff\n      and\n      lt\n      iszero\n        /* \"contracts/DataRegistry.sol\":2800:2838  version >= 1 && version <= list.length */\n      dup1\n      iszero\n      tag_35\n      jumpi\n      pop\n        /* \"contracts/DataRegistry.sol\":2827:2831  list */\n      dup1\n        /* \"contracts/DataRegistry.sol\":2827:2838  list.length */\n      dup1\n      sload\n      swap1\n      pop\n        /* \"contracts/DataRegistry.sol\":2816:2823  version */\n      dup5\n        /* \"contracts/DataRegistry.sol\":2816:2838  version <= list.length */\n      0xffffffff\n      and\n      gt\n      iszero\n        /* \"contracts/DataRegistry.sol\":2800:2838  version >= 1 && version <= list.length */\n    tag_35:\n        /* \"contracts/DataRegistry.sol\":2792:2858  require(version >= 1 && version <= list.length, \"Invalid version\") */\n      tag_36\n      jumpi\n      mload(0x40)\n      0x08c379a000000000000000000000000000000000000000000000000000000000\n      dup2\n      mstore\n      0x04\n      add\n      tag_37\n      swap1\n      tag_38\n      jump\t// in\n    tag_37:\n      mload(0x40)\n      dup1\n      swap2\n      sub\n      swap1\n      revert\n    tag_36:\n        /* \"contracts/DataRegistry.sol\":2871:2893  DataPointer storage dp */\n      0x00\n        /* \"contracts/DataRegistry.sol\":2896:2900  list */\n      dup2\n        /* \"contracts/DataRegistry.sol\":2911:2912  1 */\n      0x01\n        /* \"contracts/DataRegistry.sol\":2901:2908  version */\n      dup7\n        /* \"contracts/DataRegistry.sol\":2901:2912  version - 1 */\n      tag_39\n      swap2\n      swap1\n      tag_40\n      jump\t// in\n    tag_39:\n        /* \"contracts/DataRegistry.sol\":2896:2913  list[version - 1] */\n      0xffffffff\n      and\n      dup2\n      sload\n      dup2\n      lt\n      tag_41\n      jumpi\n      tag_42\n      tag_43\n      jump\t// in\n    tag_42:\n    tag_41:\n      swap1\n      0x00\n      mstore\n      keccak256(0x00, 0x20)\n      swap1\n      0x03\n      mul\n      add\n        /* \"contracts/DataRegistry.sol\":2871:2913  DataPointer storage dp = list[version - 1] */\n      swap1\n      pop\n        /* \"contracts/DataRegistry.sol\":2932:2934  dp */\n      dup1\n        /* \"contracts/DataRegistry.sol\":2932:2943  dp.dataHash */\n      0x00\n      add\n      sload\n        /* \"contracts/DataRegistry.sol\":2945:2947  dp */\n      dup2\n        /* \"contracts/DataRegistry.sol\":2945:2957  dp.timestamp */\n      0x01\n      add\n      sload\n        /* \"contracts/DataRegistry.sol\":2924:2958  return (dp.dataHash, dp.timestamp) */\n      swap4\n      pop\n      swap4\n      pop\n      pop\n      pop\n        /* \"contracts/DataRegistry.sol\":2536:2966  function getDataPointerVersion(... */\n      swap4\n      pop\n      swap4\n      swap2\n      pop\n      pop\n      jump\t// out\n        /* \"contracts/DataRegistry.sol\":3040:3219  function getVersionCount(... */\n    tag_17:\n        /* \"contracts/DataRegistry.sol\":3146:3153  uint256 */\n      0x00\n        /* \"contracts/DataRegistry.sol\":3173:3185  dataPointers */\n      0x00\n        /* \"contracts/DataRegistry.sol\":3173:3194  dataPointers[patient] */\n      0x00\n        /* \"contracts/DataRegistry.sol\":3186:3193  patient */\n      dup5\n        /* \"contracts/DataRegistry.sol\":3173:3194  dataPointers[patient] */\n      0xffffffffffffffffffffffffffffffffffffffff\n      and\n      0xffffffffffffffffffffffffffffffffffffffff\n      and\n      dup2\n      mstore\n      0x20\n      add\n      swap1\n      dup2\n      mstore\n      0x20\n      add\n      0x00\n      keccak256\n        /* \"contracts/DataRegistry.sol\":3173:3204  dataPointers[patient][dataType] */\n      0x00\n        /* \"contracts/DataRegistry.sol\":3195:3203  dataType */\n      dup4\n        /* \"contracts/DataRegistry.sol\":3173:3204  dataPointers[patient][dataType] */\n      0xff\n      and\n      0xff\n      and\n      dup2\n      mstore\n      0x20\n      add\n      swap1\n      dup2\n      mstore\n      0x20\n      add\n      0x00\n      keccak256\n        /* \"contracts/DataRegistry.sol\":3173:3211  dataPointers[patient][dataType].length */\n      dup1\n      sload\n      swap1\n      pop\n        /* \"contracts/DataRegistry.sol\":3166:3211  return dataPointers[patient][dataType].length */\n      swap1\n      pop\n        /* \"contracts/DataRegistry.sol\":3040:3219  function getVersionCount(... */\n      swap3\n      swap2\n      pop\n      pop\n      jump\t// out\n        /* \"contracts/DataRegistry.sol\":1409:1999  function setDataPointer(uint8 dataType, bytes32 dataHash) external {... */\n    tag_23:\n        /* \"contracts/DataRegistry.sol\":1507:1508  3 */\n      0x03\n        /* \"contracts/DataRegistry.sol\":1495:1503  dataType */\n      dup3\n        /* \"contracts/DataRegistry.sol\":1495:1508  dataType <= 3 */\n      0xff\n      and\n      gt\n      iszero\n        /* \"contracts/DataRegistry.sol\":1487:1529  require(dataType <= 3, \"Invalid dataType\") */\n      tag_47\n      jumpi\n      mload(0x40)\n      0x08c379a000000000000000000000000000000000000000000000000000000000\n      dup2\n      mstore\n      0x04\n      add\n      tag_48\n      swap1\n      tag_49\n      jump\t// in\n    tag_48:\n      mload(0x40)\n      dup1\n      swap2\n      sub\n      swap1\n      revert\n    tag_47:\n        /* \"contracts/DataRegistry.sol\":1568:1569  0 */\n      0x00\n        /* \"contracts/DataRegistry.sol\":1560:1570  bytes32(0) */\n      0x00\n      shl\n        /* \"contracts/DataRegistry.sol\":1548:1556  dataHash */\n      dup2\n        /* \"contracts/DataRegistry.sol\":1548:1570  dataHash != bytes32(0) */\n      sub\n        /* \"contracts/DataRegistry.sol\":1540:1585  require(dataHash != bytes32(0), \"Empty hash\") */\n      tag_50\n      jumpi\n      mload(0x40)\n      0x08c379a000000000000000000000000000000000000000000000000000000000\n      dup2\n      mstore\n      0x04\n      add\n      tag_51\n      swap1\n      tag_52\n      jump\t// in\n    tag_51:\n      mload(0x40)\n      dup1\n      swap2\n      sub\n      swap1\n      revert\n    tag_50:\n        /* \"contracts/DataRegistry.sol\":1598:1624  DataPointer[] storage list */\n      0x00\n        /* \"contracts/DataRegistry.sol\":1627:1639  dataPointers */\n      0x00\n        /* \"contracts/DataRegistry.sol\":1627:1651  dataPointers[msg.sender] */\n      0x00\n        /* \"contracts/DataRegistry.sol\":1640:1650  msg.sender */\n      caller\n        /* \"contracts/DataRegistry.sol\":1627:1651  dataPointers[msg.sender] */\n      0xffffffffffffffffffffffffffffffffffffffff\n      and\n      0xffffffffffffffffffffffffffffffffffffffff\n      and\n      dup2\n      mstore\n      0x20\n      add\n      swap1\n      dup2\n      mstore\n      0x20\n      add\n      0x00\n      keccak256\n        /* \"contracts/DataRegistry.sol\":1627:1661  dataPointers[msg.sender][dataType] */\n      0x00\n        /* \"contracts/DataRegistry.sol\":1652:1660  dataType */\n      dup5\n        /* \"contracts/DataRegistry.sol\":1627:1661  dataPointers[msg.sender][dataType] */\n      0xff\n      and\n      0xff\n      and\n      dup2\n      mstore\n      0x20\n      add\n      swap1\n      dup2\n      mstore\n      0x20\n      add\n      0x00\n      keccak256\n        /* \"contracts/DataRegistry.sol\":1598:1661  DataPointer[] storage list = dataPointers[msg.sender][dataType] */\n      swap1\n      pop\n        /* \"contracts/DataRegistry.sol\":1672:1689  uint32 newVersion */\n      0x00\n        /* \"contracts/DataRegistry.sol\":1713:1714  1 */\n      0x01\n        /* \"contracts/DataRegistry.sol\":1699:1703  list */\n      dup3\n        /* \"contracts/DataRegistry.sol\":1699:1710  list.length */\n      dup1\n      sload\n      swap1\n      pop\n        /* \"contracts/DataRegistry.sol\":1699:1714  list.length + 1 */\n      tag_53\n      swap2\n      swap1\n      tag_54\n      jump\t// in\n    tag_53:\n        /* \"contracts/DataRegistry.sol\":1672:1715  uint32 newVersion = uint32(list.length + 1) */\n      swap1\n      pop\n        /* \"contracts/DataRegistry.sol\":1728:1732  list */\n      dup2\n        /* \"contracts/DataRegistry.sol\":1752:1900  DataPointer({... */\n      mload(0x40)\n      dup1\n      0x60\n      add\n      0x40\n      mstore\n      dup1\n        /* \"contracts/DataRegistry.sol\":1793:1801  dataHash */\n      dup6\n        /* \"contracts/DataRegistry.sol\":1752:1900  DataPointer({... */\n      dup2\n      mstore\n      0x20\n      add\n        /* \"contracts/DataRegistry.sol\":1831:1846  block.timestamp */\n      timestamp\n        /* \"contracts/DataRegistry.sol\":1752:1900  DataPointer({... */\n      dup2\n      mstore\n      0x20\n      add\n        /* \"contracts/DataRegistry.sol\":1874:1884  newVersion */\n      dup4\n        /* \"contracts/DataRegistry.sol\":1752:1900  DataPointer({... */\n      0xffffffff\n      and\n      dup2\n      mstore\n      pop\n        /* \"contracts/DataRegistry.sol\":1728:1911  list.push(... */\n      swap1\n      dup1\n      0x01\n      dup2\n      sload\n      add\n      dup1\n      dup3\n      sstore\n      dup1\n      swap2\n      pop\n      pop\n      0x01\n      swap1\n      sub\n      swap1\n      0x00\n      mstore\n      keccak256(0x00, 0x20)\n      swap1\n      0x03\n      mul\n      add\n      0x00\n      swap1\n      swap2\n      swap1\n      swap2\n      swap1\n      swap2\n      pop\n      0x00\n      dup3\n      add\n      mload\n      dup2\n      0x00\n      add\n      sstore\n      0x20\n      dup3\n      add\n      mload\n      dup2\n      0x01\n      add\n      sstore\n      0x40\n      dup3\n      add\n      mload\n      dup2\n      0x02\n      add\n      exp(0x0100, 0x00)\n      dup2\n      sload\n      dup2\n      0xffffffff\n      mul\n      not\n      and\n      swap1\n      dup4\n      0xffffffff\n      and\n      mul\n      or\n      swap1\n      sstore\n      pop\n      pop\n      pop\n        /* \"contracts/DataRegistry.sol\":1960:1968  dataType */\n      dup4\n        /* \"contracts/DataRegistry.sol\":1929:1991  DataPointerUpdated(msg.sender, dataType, newVersion, dataHash) */\n      0xff\n      and\n        /* \"contracts/DataRegistry.sol\":1948:1958  msg.sender */\n      caller\n        /* \"contracts/DataRegistry.sol\":1929:1991  DataPointerUpdated(msg.sender, dataType, newVersion, dataHash) */\n      0xffffffffffffffffffffffffffffffffffffffff\n      and\n      0x4504748dc8c5d7929ef3f5e132c3452a848e60df90b2593172e7162bcb693deb\n        /* \"contracts/DataRegistry.sol\":1970:1980  newVersion */\n      dup4\n        /* \"contracts/DataRegistry.sol\":1982:1990  dataHash */\n      dup7\n        /* \"contracts/DataRegistry.sol\":1929:1991  DataPointerUpdated(msg.sender, dataType, newVersion, dataHash) */\n      mload(0x40)\n      tag_56\n      swap3\n      swap2\n      swap1\n      tag_57\n      jump\t// in\n    tag_56:\n      mload(0x40)\n      dup1\n      swap2\n      sub\n      swap1\n      log3\n        /* \"contracts/DataRegistry.sol\":1476:1999  {... */\n      pop\n      pop\n        /* \"contracts/DataRegistry.sol\":1409:1999  function setDataPointer(uint8 dataType, bytes32 dataHash) external {... */\n      pop\n      pop\n      jump\t// out\n        /* \"contracts/DataRegistry.sol\":639:710  mapping(address => mapping(uint8 => DataPointer[])) public dataPointers */\n    tag_27:\n      mstore(0x20, 0x00)\n      dup3\n      0x00\n      mstore\n      mstore(0x20, keccak256(0x00, 0x40))\n      dup2\n      0x00\n      mstore\n      keccak256(0x00, 0x40)\n      dup2\n      dup2\n      sload\n      dup2\n      lt\n      tag_58\n      jumpi\n      0x00\n      dup1\n      revert\n    tag_58:\n      swap1\n      0x00\n      mstore\n      keccak256(0x00, 0x20)\n      swap1\n      0x03\n      mul\n      add\n      0x00\n      swap3\n      pop\n      swap3\n      pop\n      pop\n      pop\n      dup1\n      0x00\n      add\n      sload\n      swap1\n      dup1\n      0x01\n      add\n      sload\n      swap1\n      dup1\n      0x02\n      add\n      0x00\n      swap1\n      sload\n      swap1\n      0x0100\n      exp\n      swap1\n      div\n      0xffffffff\n      and\n      swap1\n      pop\n      dup4\n      jump\t// out\n        /* \"contracts/DataRegistry.sol\":2068:2487  function getLatestDataPointer(... */\n    tag_32:\n        /* \"contracts/DataRegistry.sol\":2179:2195  bytes32 dataHash */\n      0x00\n        /* \"contracts/DataRegistry.sol\":2197:2214  uint256 timestamp */\n      0x00\n        /* \"contracts/DataRegistry.sol\":2216:2230  uint32 version */\n      0x00\n        /* \"contracts/DataRegistry.sol\":2243:2269  DataPointer[] storage list */\n      0x00\n        /* \"contracts/DataRegistry.sol\":2272:2284  dataPointers */\n      0x00\n        /* \"contracts/DataRegistry.sol\":2272:2293  dataPointers[patient] */\n      0x00\n        /* \"contracts/DataRegistry.sol\":2285:2292  patient */\n      dup8\n        /* \"contracts/DataRegistry.sol\":2272:2293  dataPointers[patient] */\n      0xffffffffffffffffffffffffffffffffffffffff\n      and\n      0xffffffffffffffffffffffffffffffffffffffff\n      and\n      dup2\n      mstore\n      0x20\n      add\n      swap1\n      dup2\n      mstore\n      0x20\n      add\n      0x00\n      keccak256\n        /* \"contracts/DataRegistry.sol\":2272:2303  dataPointers[patient][dataType] */\n      0x00\n        /* \"contracts/DataRegistry.sol\":2294:2302  dataType */\n      dup7\n        /* \"contracts/DataRegistry.sol\":2272:2303  dataPointers[patient][dataType] */\n      0xff\n      and\n      0xff\n      and\n      dup2\n      mstore\n      0x20\n      add\n      swap1\n      dup2\n      mstore\n      0x20\n      add\n      0x00\n      keccak256\n        /* \"contracts/DataRegistry.sol\":2243:2303  DataPointer[] storage list = dataPointers[patient][dataType] */\n      swap1\n      pop\n        /* \"contracts/DataRegistry.sol\":2336:2337  0 */\n      0x00\n        /* \"contracts/DataRegistry.sol\":2322:2326  list */\n      dup2\n        /* \"contracts/DataRegistry.sol\":2322:2333  list.length */\n      dup1\n      sload\n      swap1\n      pop\n        /* \"contracts/DataRegistry.sol\":2322:2337  list.length > 0 */\n      gt\n        /* \"contracts/DataRegistry.sol\":2314:2363  require(list.length > 0, \"No data for this type\") */\n      tag_61\n      jumpi\n      mload(0x40)\n      0x08c379a000000000000000000000000000000000000000000000000000000000\n      dup2\n      mstore\n      0x04\n      add\n      tag_62\n      swap1\n      tag_63\n      jump\t// in\n    tag_62:\n      mload(0x40)\n      dup1\n      swap2\n      sub\n      swap1\n      revert\n    tag_61:\n        /* \"contracts/DataRegistry.sol\":2376:2398  DataPointer storage dp */\n      0x00\n        /* \"contracts/DataRegistry.sol\":2401:2405  list */\n      dup2\n        /* \"contracts/DataRegistry.sol\":2420:2421  1 */\n      0x01\n        /* \"contracts/DataRegistry.sol\":2406:2410  list */\n      dup4\n        /* \"contracts/DataRegistry.sol\":2406:2417  list.length */\n      dup1\n      sload\n      swap1\n      pop\n        /* \"contracts/DataRegistry.sol\":2406:2421  list.length - 1 */\n      tag_64\n      swap2\n      swap1\n      tag_65\n      jump\t// in\n    tag_64:\n        /* \"contracts/DataRegistry.sol\":2401:2422  list[list.length - 1] */\n      dup2\n      sload\n      dup2\n      lt\n      tag_66\n      jumpi\n      tag_67\n      tag_43\n      jump\t// in\n    tag_67:\n    tag_66:\n      swap1\n      0x00\n      mstore\n      keccak256(0x00, 0x20)\n      swap1\n      0x03\n      mul\n      add\n        /* \"contracts/DataRegistry.sol\":2376:2422  DataPointer storage dp = list[list.length - 1] */\n      swap1\n      pop\n        /* \"contracts/DataRegistry.sol\":2441:2443  dp */\n      dup1\n        /* \"contracts/DataRegistry.sol\":2441:2452  dp.dataHash */\n      0x00\n      add\n      sload\n        /* \"contracts/DataRegistry.sol\":2454:2456  dp */\n      dup2\n        /* \"contracts/DataRegistry.sol\":2454:2466  dp.timestamp */\n      0x01\n      add\n      sload\n        /* \"contracts/DataRegistry.sol\":2468:2470  dp */\n      dup3\n        /* \"contracts/DataRegistry.sol\":2468:2478  dp.version */\n      0x02\n      add\n      0x00\n      swap1\n      sload\n      swap1\n      0x0100\n      exp\n      swap1\n      div\n      0xffffffff\n      and\n        /* \"contracts/DataRegistry.sol\":2433:2479  return (dp.dataHash, dp.timestamp, dp.version) */\n      swap5\n      pop\n      swap5\n      pop\n      swap5\n      pop\n      pop\n      pop\n        /* \"contracts/DataRegistry.sol\":2068:2487  function getLatestDataPointer(... */\n      swap3\n      pop\n      swap3\n      pop\n      swap3\n      jump\t// out\n        /* \"#utility.yul\":88:205   */\n    tag_70:\n        /* \"#utility.yul\":197:198   */\n      0x00\n        /* \"#utility.yul\":194:195   */\n      0x00\n        /* \"#utility.yul\":187:199   */\n      revert\n        /* \"#utility.yul\":334:460   */\n    tag_72:\n        /* \"#utility.yul\":371:378   */\n      0x00\n        /* \"#utility.yul\":411:453   */\n      0xffffffffffffffffffffffffffffffffffffffff\n        /* \"#utility.yul\":404:409   */\n      dup3\n        /* \"#utility.yul\":400:454   */\n      and\n        /* \"#utility.yul\":389:454   */\n      swap1\n      pop\n        /* \"#utility.yul\":334:460   */\n      swap2\n      swap1\n      pop\n      jump\t// out\n        /* \"#utility.yul\":466:562   */\n    tag_73:\n        /* \"#utility.yul\":503:510   */\n      0x00\n        /* \"#utility.yul\":532:556   */\n      tag_107\n        /* \"#utility.yul\":550:555   */\n      dup3\n        /* \"#utility.yul\":532:556   */\n      tag_72\n      jump\t// in\n    tag_107:\n        /* \"#utility.yul\":521:556   */\n      swap1\n      pop\n        /* \"#utility.yul\":466:562   */\n      swap2\n      swap1\n      pop\n      jump\t// out\n        /* \"#utility.yul\":568:690   */\n    tag_74:\n        /* \"#utility.yul\":641:665   */\n      tag_109\n        /* \"#utility.yul\":659:664   */\n      dup2\n        /* \"#utility.yul\":641:665   */\n      tag_73\n      jump\t// in\n    tag_109:\n        /* \"#utility.yul\":634:639   */\n      dup2\n        /* \"#utility.yul\":631:666   */\n      eq\n        /* \"#utility.yul\":621:684   */\n      tag_110\n      jumpi\n        /* \"#utility.yul\":680:681   */\n      0x00\n        /* \"#utility.yul\":677:678   */\n      0x00\n        /* \"#utility.yul\":670:682   */\n      revert\n        /* \"#utility.yul\":621:684   */\n    tag_110:\n        /* \"#utility.yul\":568:690   */\n      pop\n      jump\t// out\n        /* \"#utility.yul\":696:835   */\n    tag_75:\n        /* \"#utility.yul\":742:747   */\n      0x00\n        /* \"#utility.yul\":780:786   */\n      dup2\n        /* \"#utility.yul\":767:787   */\n      calldataload\n        /* \"#utility.yul\":758:787   */\n      swap1\n      pop\n        /* \"#utility.yul\":796:829   */\n      tag_112\n        /* \"#utility.yul\":823:828   */\n      dup2\n        /* \"#utility.yul\":796:829   */\n      tag_74\n      jump\t// in\n    tag_112:\n        /* \"#utility.yul\":696:835   */\n      swap3\n      swap2\n      pop\n      pop\n      jump\t// out\n        /* \"#utility.yul\":841:927   */\n    tag_76:\n        /* \"#utility.yul\":876:883   */\n      0x00\n        /* \"#utility.yul\":916:920   */\n      0xff\n        /* \"#utility.yul\":909:914   */\n      dup3\n        /* \"#utility.yul\":905:921   */\n      and\n        /* \"#utility.yul\":894:921   */\n      swap1\n      pop\n        /* \"#utility.yul\":841:927   */\n      swap2\n      swap1\n      pop\n      jump\t// out\n        /* \"#utility.yul\":933:1051   */\n    tag_77:\n        /* \"#utility.yul\":1004:1026   */\n      tag_115\n        /* \"#utility.yul\":1020:1025   */\n      dup2\n        /* \"#utility.yul\":1004:1026   */\n      tag_76\n      jump\t// in\n    tag_115:\n        /* \"#utility.yul\":997:1002   */\n      dup2\n        /* \"#utility.yul\":994:1027   */\n      eq\n        /* \"#utility.yul\":984:1045   */\n      tag_116\n      jumpi\n        /* \"#utility.yul\":1041:1042   */\n      0x00\n        /* \"#utility.yul\":1038:1039   */\n      0x00\n        /* \"#utility.yul\":1031:1043   */\n      revert\n        /* \"#utility.yul\":984:1045   */\n    tag_116:\n        /* \"#utility.yul\":933:1051   */\n      pop\n      jump\t// out\n        /* \"#utility.yul\":1057:1192   */\n    tag_78:\n        /* \"#utility.yul\":1101:1106   */\n      0x00\n        /* \"#utility.yul\":1139:1145   */\n      dup2\n        /* \"#utility.yul\":1126:1146   */\n      calldataload\n        /* \"#utility.yul\":1117:1146   */\n      swap1\n      pop\n        /* \"#utility.yul\":1155:1186   */\n      tag_118\n        /* \"#utility.yul\":1180:1185   */\n      dup2\n        /* \"#utility.yul\":1155:1186   */\n      tag_77\n      jump\t// in\n    tag_118:\n        /* \"#utility.yul\":1057:1192   */\n      swap3\n      swap2\n      pop\n      pop\n      jump\t// out\n        /* \"#utility.yul\":1198:1291   */\n    tag_79:\n        /* \"#utility.yul\":1234:1241   */\n      0x00\n        /* \"#utility.yul\":1274:1284   */\n      0xffffffff\n        /* \"#utility.yul\":1267:1272   */\n      dup3\n        /* \"#utility.yul\":1263:1285   */\n      and\n        /* \"#utility.yul\":1252:1285   */\n      swap1\n      pop\n        /* \"#utility.yul\":1198:1291   */\n      swap2\n      swap1\n      pop\n      jump\t// out\n        /* \"#utility.yul\":1297:1417   */\n    tag_80:\n        /* \"#utility.yul\":1369:1392   */\n      tag_121\n        /* \"#utility.yul\":1386:1391   */\n      dup2\n        /* \"#utility.yul\":1369:1392   */\n      tag_79\n      jump\t// in\n    tag_121:\n        /* \"#utility.yul\":1362:1367   */\n      dup2\n        /* \"#utility.yul\":1359:1393   */\n      eq\n        /* \"#utility.yul\":1349:1411   */\n      tag_122\n      jumpi\n        /* \"#utility.yul\":1407:1408   */\n      0x00\n        /* \"#utility.yul\":1404:1405   */\n      0x00\n        /* \"#utility.yul\":1397:1409   */\n      revert\n        /* \"#utility.yul\":1349:1411   */\n    tag_122:\n        /* \"#utility.yul\":1297:1417   */\n      pop\n      jump\t// out\n        /* \"#utility.yul\":1423:1560   */\n    tag_81:\n        /* \"#utility.yul\":1468:1473   */\n      0x00\n        /* \"#utility.yul\":1506:1512   */\n      dup2\n        /* \"#utility.yul\":1493:1513   */\n      calldataload\n        /* \"#utility.yul\":1484:1513   */\n      swap1\n      pop\n        /* \"#utility.yul\":1522:1554   */\n      tag_124\n        /* \"#utility.yul\":1548:1553   */\n      dup2\n        /* \"#utility.yul\":1522:1554   */\n      tag_80\n      jump\t// in\n    tag_124:\n        /* \"#utility.yul\":1423:1560   */\n      swap3\n      swap2\n      pop\n      pop\n      jump\t// out\n        /* \"#utility.yul\":1566:2179   */\n    tag_10:\n        /* \"#utility.yul\":1640:1646   */\n      0x00\n        /* \"#utility.yul\":1648:1654   */\n      0x00\n        /* \"#utility.yul\":1656:1662   */\n      0x00\n        /* \"#utility.yul\":1705:1707   */\n      0x60\n        /* \"#utility.yul\":1693:1702   */\n      dup5\n        /* \"#utility.yul\":1684:1691   */\n      dup7\n        /* \"#utility.yul\":1680:1703   */\n      sub\n        /* \"#utility.yul\":1676:1708   */\n      slt\n        /* \"#utility.yul\":1673:1792   */\n      iszero\n      tag_126\n      jumpi\n        /* \"#utility.yul\":1711:1790   */\n      tag_127\n      tag_70\n      jump\t// in\n    tag_127:\n        /* \"#utility.yul\":1673:1792   */\n    tag_126:\n        /* \"#utility.yul\":1831:1832   */\n      0x00\n        /* \"#utility.yul\":1856:1909   */\n      tag_128\n        /* \"#utility.yul\":1901:1908   */\n      dup7\n        /* \"#utility.yul\":1892:1898   */\n      dup3\n        /* \"#utility.yul\":1881:1890   */\n      dup8\n        /* \"#utility.yul\":1877:1899   */\n      add\n        /* \"#utility.yul\":1856:1909   */\n      tag_75\n      jump\t// in\n    tag_128:\n        /* \"#utility.yul\":1846:1909   */\n      swap4\n      pop\n        /* \"#utility.yul\":1802:1919   */\n      pop\n        /* \"#utility.yul\":1958:1960   */\n      0x20\n        /* \"#utility.yul\":1984:2035   */\n      tag_129\n        /* \"#utility.yul\":2027:2034   */\n      dup7\n        /* \"#utility.yul\":2018:2024   */\n      dup3\n        /* \"#utility.yul\":2007:2016   */\n      dup8\n        /* \"#utility.yul\":2003:2025   */\n      add\n        /* \"#utility.yul\":1984:2035   */\n      tag_78\n      jump\t// in\n    tag_129:\n        /* \"#utility.yul\":1974:2035   */\n      swap3\n      pop\n        /* \"#utility.yul\":1929:2045   */\n      pop\n        /* \"#utility.yul\":2084:2086   */\n      0x40\n        /* \"#utility.yul\":2110:2162   */\n      tag_130\n        /* \"#utility.yul\":2154:2161   */\n      dup7\n        /* \"#utility.yul\":2145:2151   */\n      dup3\n        /* \"#utility.yul\":2134:2143   */\n      dup8\n        /* \"#utility.yul\":2130:2152   */\n      add\n        /* \"#utility.yul\":2110:2162   */\n      tag_81\n      jump\t// in\n    tag_130:\n        /* \"#utility.yul\":2100:2162   */\n      swap2\n      pop\n        /* \"#utility.yul\":2055:2172   */\n      pop\n        /* \"#utility.yul\":1566:2179   */\n      swap3\n      pop\n      swap3\n      pop\n      swap3\n      jump\t// out\n        /* \"#utility.yul\":2185:2262   */\n    tag_82:\n        /* \"#utility.yul\":2222:2229   */\n      0x00\n        /* \"#utility.yul\":2251:2256   */\n      dup2\n        /* \"#utility.yul\":2240:2256   */\n      swap1\n      pop\n        /* \"#utility.yul\":2185:2262   */\n      swap2\n      swap1\n      pop\n      jump\t// out\n        /* \"#utility.yul\":2268:2386   */\n    tag_83:\n        /* \"#utility.yul\":2355:2379   */\n      tag_133\n        /* \"#utility.yul\":2373:2378   */\n      dup2\n        /* \"#utility.yul\":2355:2379   */\n      tag_82\n      jump\t// in\n    tag_133:\n        /* \"#utility.yul\":2350:2353   */\n      dup3\n        /* \"#utility.yul\":2343:2380   */\n      mstore\n        /* \"#utility.yul\":2268:2386   */\n      pop\n      pop\n      jump\t// out\n        /* \"#utility.yul\":2392:2469   */\n    tag_84:\n        /* \"#utility.yul\":2429:2436   */\n      0x00\n        /* \"#utility.yul\":2458:2463   */\n      dup2\n        /* \"#utility.yul\":2447:2463   */\n      swap1\n      pop\n        /* \"#utility.yul\":2392:2469   */\n      swap2\n      swap1\n      pop\n      jump\t// out\n        /* \"#utility.yul\":2475:2593   */\n    tag_85:\n        /* \"#utility.yul\":2562:2586   */\n      tag_136\n        /* \"#utility.yul\":2580:2585   */\n      dup2\n        /* \"#utility.yul\":2562:2586   */\n      tag_84\n      jump\t// in\n    tag_136:\n        /* \"#utility.yul\":2557:2560   */\n      dup3\n        /* \"#utility.yul\":2550:2587   */\n      mstore\n        /* \"#utility.yul\":2475:2593   */\n      pop\n      pop\n      jump\t// out\n        /* \"#utility.yul\":2599:2931   */\n    tag_13:\n        /* \"#utility.yul\":2720:2724   */\n      0x00\n        /* \"#utility.yul\":2758:2760   */\n      0x40\n        /* \"#utility.yul\":2747:2756   */\n      dup3\n        /* \"#utility.yul\":2743:2761   */\n      add\n        /* \"#utility.yul\":2735:2761   */\n      swap1\n      pop\n        /* \"#utility.yul\":2771:2842   */\n      tag_138\n        /* \"#utility.yul\":2839:2840   */\n      0x00\n        /* \"#utility.yul\":2828:2837   */\n      dup4\n        /* \"#utility.yul\":2824:2841   */\n      add\n        /* \"#utility.yul\":2815:2821   */\n      dup6\n        /* \"#utility.yul\":2771:2842   */\n      tag_83\n      jump\t// in\n    tag_138:\n        /* \"#utility.yul\":2852:2924   */\n      tag_139\n        /* \"#utility.yul\":2920:2922   */\n      0x20\n        /* \"#utility.yul\":2909:2918   */\n      dup4\n        /* \"#utility.yul\":2905:2923   */\n      add\n        /* \"#utility.yul\":2896:2902   */\n      dup5\n        /* \"#utility.yul\":2852:2924   */\n      tag_85\n      jump\t// in\n    tag_139:\n        /* \"#utility.yul\":2599:2931   */\n      swap4\n      swap3\n      pop\n      pop\n      pop\n      jump\t// out\n        /* \"#utility.yul\":2937:3407   */\n    tag_16:\n        /* \"#utility.yul\":3003:3009   */\n      0x00\n        /* \"#utility.yul\":3011:3017   */\n      0x00\n        /* \"#utility.yul\":3060:3062   */\n      0x40\n        /* \"#utility.yul\":3048:3057   */\n      dup4\n        /* \"#utility.yul\":3039:3046   */\n      dup6\n        /* \"#utility.yul\":3035:3058   */\n      sub\n        /* \"#utility.yul\":3031:3063   */\n      slt\n        /* \"#utility.yul\":3028:3147   */\n      iszero\n      tag_141\n      jumpi\n        /* \"#utility.yul\":3066:3145   */\n      tag_142\n      tag_70\n      jump\t// in\n    tag_142:\n        /* \"#utility.yul\":3028:3147   */\n    tag_141:\n        /* \"#utility.yul\":3186:3187   */\n      0x00\n        /* \"#utility.yul\":3211:3264   */\n      tag_143\n        /* \"#utility.yul\":3256:3263   */\n      dup6\n        /* \"#utility.yul\":3247:3253   */\n      dup3\n        /* \"#utility.yul\":3236:3245   */\n      dup7\n        /* \"#utility.yul\":3232:3254   */\n      add\n        /* \"#utility.yul\":3211:3264   */\n      tag_75\n      jump\t// in\n    tag_143:\n        /* \"#utility.yul\":3201:3264   */\n      swap3\n      pop\n        /* \"#utility.yul\":3157:3274   */\n      pop\n        /* \"#utility.yul\":3313:3315   */\n      0x20\n        /* \"#utility.yul\":3339:3390   */\n      tag_144\n        /* \"#utility.yul\":3382:3389   */\n      dup6\n        /* \"#utility.yul\":3373:3379   */\n      dup3\n        /* \"#utility.yul\":3362:3371   */\n      dup7\n        /* \"#utility.yul\":3358:3380   */\n      add\n        /* \"#utility.yul\":3339:3390   */\n      tag_78\n      jump\t// in\n    tag_144:\n        /* \"#utility.yul\":3329:3390   */\n      swap2\n      pop\n        /* \"#utility.yul\":3284:3400   */\n      pop\n        /* \"#utility.yul\":2937:3407   */\n      swap3\n      pop\n      swap3\n      swap1\n      pop\n      jump\t// out\n        /* \"#utility.yul\":3413:3635   */\n    tag_19:\n        /* \"#utility.yul\":3506:3510   */\n      0x00\n        /* \"#utility.yul\":3544:3546   */\n      0x20\n        /* \"#utility.yul\":3533:3542   */\n      dup3\n        /* \"#utility.yul\":3529:3547   */\n      add\n        /* \"#utility.yul\":3521:3547   */\n      swap1\n      pop\n        /* \"#utility.yul\":3557:3628   */\n      tag_146\n        /* \"#utility.yul\":3625:3626   */\n      0x00\n        /* \"#utility.yul\":3614:3623   */\n      dup4\n        /* \"#utility.yul\":3610:3627   */\n      add\n        /* \"#utility.yul\":3601:3607   */\n      dup5\n        /* \"#utility.yul\":3557:3628   */\n      tag_85\n      jump\t// in\n    tag_146:\n        /* \"#utility.yul\":3413:3635   */\n      swap3\n      swap2\n      pop\n      pop\n      jump\t// out\n        /* \"#utility.yul\":3641:3763   */\n    tag_86:\n        /* \"#utility.yul\":3714:3738   */\n      tag_148\n        /* \"#utility.yul\":3732:3737   */\n      dup2\n        /* \"#utility.yul\":3714:3738   */\n      tag_82\n      jump\t// in\n    tag_148:\n        /* \"#utility.yul\":3707:3712   */\n      dup2\n        /* \"#utility.yul\":3704:3739   */\n      eq\n        /* \"#utility.yul\":3694:3757   */\n      tag_149\n      jumpi\n        /* \"#utility.yul\":3753:3754   */\n      0x00\n        /* \"#utility.yul\":3750:3751   */\n      0x00\n        /* \"#utility.yul\":3743:3755   */\n      revert\n        /* \"#utility.yul\":3694:3757   */\n    tag_149:\n        /* \"#utility.yul\":3641:3763   */\n      pop\n      jump\t// out\n        /* \"#utility.yul\":3769:3908   */\n    tag_87:\n        /* \"#utility.yul\":3815:3820   */\n      0x00\n        /* \"#utility.yul\":3853:3859   */\n      dup2\n        /* \"#utility.yul\":3840:3860   */\n      calldataload\n        /* \"#utility.yul\":3831:3860   */\n      swap1\n      pop\n        /* \"#utility.yul\":3869:3902   */\n      tag_151\n        /* \"#utility.yul\":3896:3901   */\n      dup2\n        /* \"#utility.yul\":3869:3902   */\n      tag_86\n      jump\t// in\n    tag_151:\n        /* \"#utility.yul\":3769:3908   */\n      swap3\n      swap2\n      pop\n      pop\n      jump\t// out\n        /* \"#utility.yul\":3914:4384   */\n    tag_22:\n        /* \"#utility.yul\":3980:3986   */\n      0x00\n        /* \"#utility.yul\":3988:3994   */\n      0x00\n        /* \"#utility.yul\":4037:4039   */\n      0x40\n        /* \"#utility.yul\":4025:4034   */\n      dup4\n        /* \"#utility.yul\":4016:4023   */\n      dup6\n        /* \"#utility.yul\":4012:4035   */\n      sub\n        /* \"#utility.yul\":4008:4040   */\n      slt\n        /* \"#utility.yul\":4005:4124   */\n      iszero\n      tag_153\n      jumpi\n        /* \"#utility.yul\":4043:4122   */\n      tag_154\n      tag_70\n      jump\t// in\n    tag_154:\n        /* \"#utility.yul\":4005:4124   */\n    tag_153:\n        /* \"#utility.yul\":4163:4164   */\n      0x00\n        /* \"#utility.yul\":4188:4239   */\n      tag_155\n        /* \"#utility.yul\":4231:4238   */\n      dup6\n        /* \"#utility.yul\":4222:4228   */\n      dup3\n        /* \"#utility.yul\":4211:4220   */\n      dup7\n        /* \"#utility.yul\":4207:4229   */\n      add\n        /* \"#utility.yul\":4188:4239   */\n      tag_78\n      jump\t// in\n    tag_155:\n        /* \"#utility.yul\":4178:4239   */\n      swap3\n      pop\n        /* \"#utility.yul\":4134:4249   */\n      pop\n        /* \"#utility.yul\":4288:4290   */\n      0x20\n        /* \"#utility.yul\":4314:4367   */\n      tag_156\n        /* \"#utility.yul\":4359:4366   */\n      dup6\n        /* \"#utility.yul\":4350:4356   */\n      dup3\n        /* \"#utility.yul\":4339:4348   */\n      dup7\n        /* \"#utility.yul\":4335:4357   */\n      add\n        /* \"#utility.yul\":4314:4367   */\n      tag_87\n      jump\t// in\n    tag_156:\n        /* \"#utility.yul\":4304:4367   */\n      swap2\n      pop\n        /* \"#utility.yul\":4259:4377   */\n      pop\n        /* \"#utility.yul\":3914:4384   */\n      swap3\n      pop\n      swap3\n      swap1\n      pop\n      jump\t// out\n        /* \"#utility.yul\":4390:4512   */\n    tag_88:\n        /* \"#utility.yul\":4463:4487   */\n      tag_158\n        /* \"#utility.yul\":4481:4486   */\n      dup2\n        /* \"#utility.yul\":4463:4487   */\n      tag_84\n      jump\t// in\n    tag_158:\n        /* \"#utility.yul\":4456:4461   */\n      dup2\n        /* \"#utility.yul\":4453:4488   */\n      eq\n        /* \"#utility.yul\":4443:4506   */\n      tag_159\n      jumpi\n        /* \"#utility.yul\":4502:4503   */\n      0x00\n        /* \"#utility.yul\":4499:4500   */\n      0x00\n        /* \"#utility.yul\":4492:4504   */\n      revert\n        /* \"#utility.yul\":4443:4506   */\n    tag_159:\n        /* \"#utility.yul\":4390:4512   */\n      pop\n      jump\t// out\n        /* \"#utility.yul\":4518:4657   */\n    tag_89:\n        /* \"#utility.yul\":4564:4569   */\n      0x00\n        /* \"#utility.yul\":4602:4608   */\n      dup2\n        /* \"#utility.yul\":4589:4609   */\n      calldataload\n        /* \"#utility.yul\":4580:4609   */\n      swap1\n      pop\n        /* \"#utility.yul\":4618:4651   */\n      tag_161\n        /* \"#utility.yul\":4645:4650   */\n      dup2\n        /* \"#utility.yul\":4618:4651   */\n      tag_88\n      jump\t// in\n    tag_161:\n        /* \"#utility.yul\":4518:4657   */\n      swap3\n      swap2\n      pop\n      pop\n      jump\t// out\n        /* \"#utility.yul\":4663:5278   */\n    tag_26:\n        /* \"#utility.yul\":4738:4744   */\n      0x00\n        /* \"#utility.yul\":4746:4752   */\n      0x00\n        /* \"#utility.yul\":4754:4760   */\n      0x00\n        /* \"#utility.yul\":4803:4805   */\n      0x60\n        /* \"#utility.yul\":4791:4800   */\n      dup5\n        /* \"#utility.yul\":4782:4789   */\n      dup7\n        /* \"#utility.yul\":4778:4801   */\n      sub\n        /* \"#utility.yul\":4774:4806   */\n      slt\n        /* \"#utility.yul\":4771:4890   */\n      iszero\n      tag_163\n      jumpi\n        /* \"#utility.yul\":4809:4888   */\n      tag_164\n      tag_70\n      jump\t// in\n    tag_164:\n        /* \"#utility.yul\":4771:4890   */\n    tag_163:\n        /* \"#utility.yul\":4929:4930   */\n      0x00\n        /* \"#utility.yul\":4954:5007   */\n      tag_165\n        /* \"#utility.yul\":4999:5006   */\n      dup7\n        /* \"#utility.yul\":4990:4996   */\n      dup3\n        /* \"#utility.yul\":4979:4988   */\n      dup8\n        /* \"#utility.yul\":4975:4997   */\n      add\n        /* \"#utility.yul\":4954:5007   */\n      tag_75\n      jump\t// in\n    tag_165:\n        /* \"#utility.yul\":4944:5007   */\n      swap4\n      pop\n        /* \"#utility.yul\":4900:5017   */\n      pop\n        /* \"#utility.yul\":5056:5058   */\n      0x20\n        /* \"#utility.yul\":5082:5133   */\n      tag_166\n        /* \"#utility.yul\":5125:5132   */\n      dup7\n        /* \"#utility.yul\":5116:5122   */\n      dup3\n        /* \"#utility.yul\":5105:5114   */\n      dup8\n        /* \"#utility.yul\":5101:5123   */\n      add\n        /* \"#utility.yul\":5082:5133   */\n      tag_78\n      jump\t// in\n    tag_166:\n        /* \"#utility.yul\":5072:5133   */\n      swap3\n      pop\n        /* \"#utility.yul\":5027:5143   */\n      pop\n        /* \"#utility.yul\":5182:5184   */\n      0x40\n        /* \"#utility.yul\":5208:5261   */\n      tag_167\n        /* \"#utility.yul\":5253:5260   */\n      dup7\n        /* \"#utility.yul\":5244:5250   */\n      dup3\n        /* \"#utility.yul\":5233:5242   */\n      dup8\n        /* \"#utility.yul\":5229:5251   */\n      add\n        /* \"#utility.yul\":5208:5261   */\n      tag_89\n      jump\t// in\n    tag_167:\n        /* \"#utility.yul\":5198:5261   */\n      swap2\n      pop\n        /* \"#utility.yul\":5153:5271   */\n      pop\n        /* \"#utility.yul\":4663:5278   */\n      swap3\n      pop\n      swap3\n      pop\n      swap3\n      jump\t// out\n        /* \"#utility.yul\":5284:5399   */\n    tag_90:\n        /* \"#utility.yul\":5369:5392   */\n      tag_169\n        /* \"#utility.yul\":5386:5391   */\n      dup2\n        /* \"#utility.yul\":5369:5392   */\n      tag_79\n      jump\t// in\n    tag_169:\n        /* \"#utility.yul\":5364:5367   */\n      dup3\n        /* \"#utility.yul\":5357:5393   */\n      mstore\n        /* \"#utility.yul\":5284:5399   */\n      pop\n      pop\n      jump\t// out\n        /* \"#utility.yul\":5405:5843   */\n    tag_29:\n        /* \"#utility.yul\":5552:5556   */\n      0x00\n        /* \"#utility.yul\":5590:5592   */\n      0x60\n        /* \"#utility.yul\":5579:5588   */\n      dup3\n        /* \"#utility.yul\":5575:5593   */\n      add\n        /* \"#utility.yul\":5567:5593   */\n      swap1\n      pop\n        /* \"#utility.yul\":5603:5674   */\n      tag_171\n        /* \"#utility.yul\":5671:5672   */\n      0x00\n        /* \"#utility.yul\":5660:5669   */\n      dup4\n        /* \"#utility.yul\":5656:5673   */\n      add\n        /* \"#utility.yul\":5647:5653   */\n      dup7\n        /* \"#utility.yul\":5603:5674   */\n      tag_83\n      jump\t// in\n    tag_171:\n        /* \"#utility.yul\":5684:5756   */\n      tag_172\n        /* \"#utility.yul\":5752:5754   */\n      0x20\n        /* \"#utility.yul\":5741:5750   */\n      dup4\n        /* \"#utility.yul\":5737:5755   */\n      add\n        /* \"#utility.yul\":5728:5734   */\n      dup6\n        /* \"#utility.yul\":5684:5756   */\n      tag_85\n      jump\t// in\n    tag_172:\n        /* \"#utility.yul\":5766:5836   */\n      tag_173\n        /* \"#utility.yul\":5832:5834   */\n      0x40\n        /* \"#utility.yul\":5821:5830   */\n      dup4\n        /* \"#utility.yul\":5817:5835   */\n      add\n        /* \"#utility.yul\":5808:5814   */\n      dup5\n        /* \"#utility.yul\":5766:5836   */\n      tag_90\n      jump\t// in\n    tag_173:\n        /* \"#utility.yul\":5405:5843   */\n      swap5\n      swap4\n      pop\n      pop\n      pop\n      pop\n      jump\t// out\n        /* \"#utility.yul\":5849:6018   */\n    tag_91:\n        /* \"#utility.yul\":5933:5944   */\n      0x00\n        /* \"#utility.yul\":5967:5973   */\n      dup3\n        /* \"#utility.yul\":5962:5965   */\n      dup3\n        /* \"#utility.yul\":5955:5974   */\n      mstore\n        /* \"#utility.yul\":6007:6011   */\n      0x20\n        /* \"#utility.yul\":6002:6005   */\n      dup3\n        /* \"#utility.yul\":5998:6012   */\n      add\n        /* \"#utility.yul\":5983:6012   */\n      swap1\n      pop\n        /* \"#utility.yul\":5849:6018   */\n      swap3\n      swap2\n      pop\n      pop\n      jump\t// out\n        /* \"#utility.yul\":6024:6189   */\n    tag_92:\n        /* \"#utility.yul\":6164:6181   */\n      0x496e76616c69642076657273696f6e0000000000000000000000000000000000\n        /* \"#utility.yul\":6160:6161   */\n      0x00\n        /* \"#utility.yul\":6152:6158   */\n      dup3\n        /* \"#utility.yul\":6148:6162   */\n      add\n        /* \"#utility.yul\":6141:6182   */\n      mstore\n        /* \"#utility.yul\":6024:6189   */\n      pop\n      jump\t// out\n        /* \"#utility.yul\":6195:6561   */\n    tag_93:\n        /* \"#utility.yul\":6337:6340   */\n      0x00\n        /* \"#utility.yul\":6358:6425   */\n      tag_177\n        /* \"#utility.yul\":6422:6424   */\n      0x0f\n        /* \"#utility.yul\":6417:6420   */\n      dup4\n        /* \"#utility.yul\":6358:6425   */\n      tag_91\n      jump\t// in\n    tag_177:\n        /* \"#utility.yul\":6351:6425   */\n      swap2\n      pop\n        /* \"#utility.yul\":6434:6527   */\n      tag_178\n        /* \"#utility.yul\":6523:6526   */\n      dup3\n        /* \"#utility.yul\":6434:6527   */\n      tag_92\n      jump\t// in\n    tag_178:\n        /* \"#utility.yul\":6552:6554   */\n      0x20\n        /* \"#utility.yul\":6547:6550   */\n      dup3\n        /* \"#utility.yul\":6543:6555   */\n      add\n        /* \"#utility.yul\":6536:6555   */\n      swap1\n      pop\n        /* \"#utility.yul\":6195:6561   */\n      swap2\n      swap1\n      pop\n      jump\t// out\n        /* \"#utility.yul\":6567:6986   */\n    tag_38:\n        /* \"#utility.yul\":6733:6737   */\n      0x00\n        /* \"#utility.yul\":6771:6773   */\n      0x20\n        /* \"#utility.yul\":6760:6769   */\n      dup3\n        /* \"#utility.yul\":6756:6774   */\n      add\n        /* \"#utility.yul\":6748:6774   */\n      swap1\n      pop\n        /* \"#utility.yul\":6820:6829   */\n      dup2\n        /* \"#utility.yul\":6814:6818   */\n      dup2\n        /* \"#utility.yul\":6810:6830   */\n      sub\n        /* \"#utility.yul\":6806:6807   */\n      0x00\n        /* \"#utility.yul\":6795:6804   */\n      dup4\n        /* \"#utility.yul\":6791:6808   */\n      add\n        /* \"#utility.yul\":6784:6831   */\n      mstore\n        /* \"#utility.yul\":6848:6979   */\n      tag_180\n        /* \"#utility.yul\":6974:6978   */\n      dup2\n        /* \"#utility.yul\":6848:6979   */\n      tag_93\n      jump\t// in\n    tag_180:\n        /* \"#utility.yul\":6840:6979   */\n      swap1\n      pop\n        /* \"#utility.yul\":6567:6986   */\n      swap2\n      swap1\n      pop\n      jump\t// out\n        /* \"#utility.yul\":6992:7172   */\n    tag_94:\n        /* \"#utility.yul\":7040:7117   */\n      0x4e487b7100000000000000000000000000000000000000000000000000000000\n        /* \"#utility.yul\":7037:7038   */\n      0x00\n        /* \"#utility.yul\":7030:7118   */\n      mstore\n        /* \"#utility.yul\":7137:7141   */\n      0x11\n        /* \"#utility.yul\":7134:7135   */\n      0x04\n        /* \"#utility.yul\":7127:7142   */\n      mstore\n        /* \"#utility.yul\":7161:7165   */\n      0x24\n        /* \"#utility.yul\":7158:7159   */\n      0x00\n        /* \"#utility.yul\":7151:7166   */\n      revert\n        /* \"#utility.yul\":7178:7378   */\n    tag_40:\n        /* \"#utility.yul\":7217:7221   */\n      0x00\n        /* \"#utility.yul\":7237:7256   */\n      tag_183\n        /* \"#utility.yul\":7254:7255   */\n      dup3\n        /* \"#utility.yul\":7237:7256   */\n      tag_79\n      jump\t// in\n    tag_183:\n        /* \"#utility.yul\":7232:7256   */\n      swap2\n      pop\n        /* \"#utility.yul\":7270:7289   */\n      tag_184\n        /* \"#utility.yul\":7287:7288   */\n      dup4\n        /* \"#utility.yul\":7270:7289   */\n      tag_79\n      jump\t// in\n    tag_184:\n        /* \"#utility.yul\":7265:7289   */\n      swap3\n      pop\n        /* \"#utility.yul\":7313:7314   */\n      dup3\n        /* \"#utility.yul\":7310:7311   */\n      dup3\n        /* \"#utility.yul\":7306:7315   */\n      sub\n        /* \"#utility.yul\":7298:7315   */\n      swap1\n      pop\n        /* \"#utility.yul\":7337:7347   */\n      0xffffffff\n        /* \"#utility.yul\":7331:7335   */\n      dup2\n        /* \"#utility.yul\":7328:7348   */\n      gt\n        /* \"#utility.yul\":7325:7371   */\n      iszero\n      tag_185\n      jumpi\n        /* \"#utility.yul\":7351:7369   */\n      tag_186\n      tag_94\n      jump\t// in\n    tag_186:\n        /* \"#utility.yul\":7325:7371   */\n    tag_185:\n        /* \"#utility.yul\":7178:7378   */\n      swap3\n      swap2\n      pop\n      pop\n      jump\t// out\n        /* \"#utility.yul\":7384:7564   */\n    tag_43:\n        /* \"#utility.yul\":7432:7509   */\n      0x4e487b7100000000000000000000000000000000000000000000000000000000\n        /* \"#utility.yul\":7429:7430   */\n      0x00\n        /* \"#utility.yul\":7422:7510   */\n      mstore\n        /* \"#utility.yul\":7529:7533   */\n      0x32\n        /* \"#utility.yul\":7526:7527   */\n      0x04\n        /* \"#utility.yul\":7519:7534   */\n      mstore\n        /* \"#utility.yul\":7553:7557   */\n      0x24\n        /* \"#utility.yul\":7550:7551   */\n      0x00\n        /* \"#utility.yul\":7543:7558   */\n      revert\n        /* \"#utility.yul\":7570:7736   */\n    tag_95:\n        /* \"#utility.yul\":7710:7728   */\n      0x496e76616c696420646174615479706500000000000000000000000000000000\n        /* \"#utility.yul\":7706:7707   */\n      0x00\n        /* \"#utility.yul\":7698:7704   */\n      dup3\n        /* \"#utility.yul\":7694:7708   */\n      add\n        /* \"#utility.yul\":7687:7729   */\n      mstore\n        /* \"#utility.yul\":7570:7736   */\n      pop\n      jump\t// out\n        /* \"#utility.yul\":7742:8108   */\n    tag_96:\n        /* \"#utility.yul\":7884:7887   */\n      0x00\n        /* \"#utility.yul\":7905:7972   */\n      tag_190\n        /* \"#utility.yul\":7969:7971   */\n      0x10\n        /* \"#utility.yul\":7964:7967   */\n      dup4\n        /* \"#utility.yul\":7905:7972   */\n      tag_91\n      jump\t// in\n    tag_190:\n        /* \"#utility.yul\":7898:7972   */\n      swap2\n      pop\n        /* \"#utility.yul\":7981:8074   */\n      tag_191\n        /* \"#utility.yul\":8070:8073   */\n      dup3\n        /* \"#utility.yul\":7981:8074   */\n      tag_95\n      jump\t// in\n    tag_191:\n        /* \"#utility.yul\":8099:8101   */\n      0x20\n        /* \"#utility.yul\":8094:8097   */\n      dup3\n        /* \"#utility.yul\":8090:8102   */\n      add\n        /* \"#utility.yul\":8083:8102   */\n      swap1\n      pop\n        /* \"#utility.yul\":7742:8108   */\n      swap2\n      swap1\n      pop\n      jump\t// out\n        /* \"#utility.yul\":8114:8533   */\n    tag_49:\n        /* \"#utility.yul\":8280:8284   */\n      0x00\n        /* \"#utility.yul\":8318:8320   */\n      0x20\n        /* \"#utility.yul\":8307:8316   */\n      dup3\n        /* \"#utility.yul\":8303:8321   */\n      add\n        /* \"#utility.yul\":8295:8321   */\n      swap1\n      pop\n        /* \"#utility.yul\":8367:8376   */\n      dup2\n        /* \"#utility.yul\":8361:8365   */\n      dup2\n        /* \"#utility.yul\":8357:8377   */\n      sub\n        /* \"#utility.yul\":8353:8354   */\n      0x00\n        /* \"#utility.yul\":8342:8351   */\n      dup4\n        /* \"#utility.yul\":8338:8355   */\n      add\n        /* \"#utility.yul\":8331:8378   */\n      mstore\n        /* \"#utility.yul\":8395:8526   */\n      tag_193\n        /* \"#utility.yul\":8521:8525   */\n      dup2\n        /* \"#utility.yul\":8395:8526   */\n      tag_96\n      jump\t// in\n    tag_193:\n        /* \"#utility.yul\":8387:8526   */\n      swap1\n      pop\n        /* \"#utility.yul\":8114:8533   */\n      swap2\n      swap1\n      pop\n      jump\t// out\n        /* \"#utility.yul\":8539:8699   */\n    tag_97:\n        /* \"#utility.yul\":8679:8691   */\n      0x456d707479206861736800000000000000000000000000000000000000000000\n        /* \"#utility.yul\":8675:8676   */\n      0x00\n        /* \"#utility.yul\":8667:8673   */\n      dup3\n        /* \"#utility.yul\":8663:8677   */\n      add\n        /* \"#utility.yul\":8656:8692   */\n      mstore\n        /* \"#utility.yul\":8539:8699   */\n      pop\n      jump\t// out\n        /* \"#utility.yul\":8705:9071   */\n    tag_98:\n        /* \"#utility.yul\":8847:8850   */\n      0x00\n        /* \"#utility.yul\":8868:8935   */\n      tag_196\n        /* \"#utility.yul\":8932:8934   */\n      0x0a\n        /* \"#utility.yul\":8927:8930   */\n      dup4\n        /* \"#utility.yul\":8868:8935   */\n      tag_91\n      jump\t// in\n    tag_196:\n        /* \"#utility.yul\":8861:8935   */\n      swap2\n      pop\n        /* \"#utility.yul\":8944:9037   */\n      tag_197\n        /* \"#utility.yul\":9033:9036   */\n      dup3\n        /* \"#utility.yul\":8944:9037   */\n      tag_97\n      jump\t// in\n    tag_197:\n        /* \"#utility.yul\":9062:9064   */\n      0x20\n        /* \"#utility.yul\":9057:9060   */\n      dup3\n        /* \"#utility.yul\":9053:9065   */\n      add\n        /* \"#utility.yul\":9046:9065   */\n      swap1\n      pop\n        /* \"#utility.yul\":8705:9071   */\n      swap2\n      swap1\n      pop\n      jump\t// out\n        /* \"#utility.yul\":9077:9496   */\n    tag_52:\n        /* \"#utility.yul\":9243:9247   */\n      0x00\n        /* \"#utility.yul\":9281:9283   */\n      0x20\n        /* \"#utility.yul\":9270:9279   */\n      dup3\n        /* \"#utility.yul\":9266:9284   */\n      add\n        /* \"#utility.yul\":9258:9284   */\n      swap1\n      pop\n        /* \"#utility.yul\":9330:9339   */\n      dup2\n        /* \"#utility.yul\":9324:9328   */\n      dup2\n        /* \"#utility.yul\":9320:9340   */\n      sub\n        /* \"#utility.yul\":9316:9317   */\n      0x00\n        /* \"#utility.yul\":9305:9314   */\n      dup4\n        /* \"#utility.yul\":9301:9318   */\n      add\n        /* \"#utility.yul\":9294:9341   */\n      mstore\n        /* \"#utility.yul\":9358:9489   */\n      tag_199\n        /* \"#utility.yul\":9484:9488   */\n      dup2\n        /* \"#utility.yul\":9358:9489   */\n      tag_98\n      jump\t// in\n    tag_199:\n        /* \"#utility.yul\":9350:9489   */\n      swap1\n      pop\n        /* \"#utility.yul\":9077:9496   */\n      swap2\n      swap1\n      pop\n      jump\t// out\n        /* \"#utility.yul\":9502:9693   */\n    tag_54:\n        /* \"#utility.yul\":9542:9545   */\n      0x00\n        /* \"#utility.yul\":9561:9581   */\n      tag_201\n        /* \"#utility.yul\":9579:9580   */\n      dup3\n        /* \"#utility.yul\":9561:9581   */\n      tag_84\n      jump\t// in\n    tag_201:\n        /* \"#utility.yul\":9556:9581   */\n      swap2\n      pop\n        /* \"#utility.yul\":9595:9615   */\n      tag_202\n        /* \"#utility.yul\":9613:9614   */\n      dup4\n        /* \"#utility.yul\":9595:9615   */\n      tag_84\n      jump\t// in\n    tag_202:\n        /* \"#utility.yul\":9590:9615   */\n      swap3\n      pop\n        /* \"#utility.yul\":9638:9639   */\n      dup3\n        /* \"#utility.yul\":9635:9636   */\n      dup3\n        /* \"#utility.yul\":9631:9640   */\n      add\n        /* \"#utility.yul\":9624:9640   */\n      swap1\n      pop\n        /* \"#utility.yul\":9659:9662   */\n      dup1\n        /* \"#utility.yul\":9656:9657   */\n      dup3\n        /* \"#utility.yul\":9653:9663   */\n      gt\n        /* \"#utility.yul\":9650:9686   */\n      iszero\n      tag_203\n      jumpi\n        /* \"#utility.yul\":9666:9684   */\n      tag_204\n      tag_94\n      jump\t// in\n    tag_204:\n        /* \"#utility.yul\":9650:9686   */\n    tag_203:\n        /* \"#utility.yul\":9502:9693   */\n      swap3\n      swap2\n      pop\n      pop\n      jump\t// out\n        /* \"#utility.yul\":9699:10027   */\n    tag_57:\n        /* \"#utility.yul\":9818:9822   */\n      0x00\n        /* \"#utility.yul\":9856:9858   */\n      0x40\n        /* \"#utility.yul\":9845:9854   */\n      dup3\n        /* \"#utility.yul\":9841:9859   */\n      add\n        /* \"#utility.yul\":9833:9859   */\n      swap1\n      pop\n        /* \"#utility.yul\":9869:9938   */\n      tag_206\n        /* \"#utility.yul\":9935:9936   */\n      0x00\n        /* \"#utility.yul\":9924:9933   */\n      dup4\n        /* \"#utility.yul\":9920:9937   */\n      add\n        /* \"#utility.yul\":9911:9917   */\n      dup6\n        /* \"#utility.yul\":9869:9938   */\n      tag_90\n      jump\t// in\n    tag_206:\n        /* \"#utility.yul\":9948:10020   */\n      tag_207\n        /* \"#utility.yul\":10016:10018   */\n      0x20\n        /* \"#utility.yul\":10005:10014   */\n      dup4\n        /* \"#utility.yul\":10001:10019   */\n      add\n        /* \"#utility.yul\":9992:9998   */\n      dup5\n        /* \"#utility.yul\":9948:10020   */\n      tag_83\n      jump\t// in\n    tag_207:\n        /* \"#utility.yul\":9699:10027   */\n      swap4\n      swap3\n      pop\n      pop\n      pop\n      jump\t// out\n        /* \"#utility.yul\":10033:10204   */\n    tag_99:\n        /* \"#utility.yul\":10173:10196   */\n      0x4e6f206461746120666f72207468697320747970650000000000000000000000\n        /* \"#utility.yul\":10169:10170   */\n      0x00\n        /* \"#utility.yul\":10161:10167   */\n      dup3\n        /* \"#utility.yul\":10157:10171   */\n      add\n        /* \"#utility.yul\":10150:10197   */\n      mstore\n        /* \"#utility.yul\":10033:10204   */\n      pop\n      jump\t// out\n        /* \"#utility.yul\":10210:10576   */\n    tag_100:\n        /* \"#utility.yul\":10352:10355   */\n      0x00\n        /* \"#utility.yul\":10373:10440   */\n      tag_210\n        /* \"#utility.yul\":10437:10439   */\n      0x15\n        /* \"#utility.yul\":10432:10435   */\n      dup4\n        /* \"#utility.yul\":10373:10440   */\n      tag_91\n      jump\t// in\n    tag_210:\n        /* \"#utility.yul\":10366:10440   */\n      swap2\n      pop\n        /* \"#utility.yul\":10449:10542   */\n      tag_211\n        /* \"#utility.yul\":10538:10541   */\n      dup3\n        /* \"#utility.yul\":10449:10542   */\n      tag_99\n      jump\t// in\n    tag_211:\n        /* \"#utility.yul\":10567:10569   */\n      0x20\n        /* \"#utility.yul\":10562:10565   */\n      dup3\n        /* \"#utility.yul\":10558:10570   */\n      add\n        /* \"#utility.yul\":10551:10570   */\n      swap1\n      pop\n        /* \"#utility.yul\":10210:10576   */\n      swap2\n      swap1\n      pop\n      jump\t// out\n        /* \"#utility.yul\":10582:11001   */\n    tag_63:\n        /* \"#utility.yul\":10748:10752   */\n      0x00\n        /* \"#utility.yul\":10786:10788   */\n      0x20\n        /* \"#utility.yul\":10775:10784   */\n      dup3\n        /* \"#utility.yul\":10771:10789   */\n      add\n        /* \"#utility.yul\":10763:10789   */\n      swap1\n      pop\n        /* \"#utility.yul\":10835:10844   */\n      dup2\n        /* \"#utility.yul\":10829:10833   */\n      dup2\n        /* \"#utility.yul\":10825:10845   */\n      sub\n        /* \"#utility.yul\":10821:10822   */\n      0x00\n        /* \"#utility.yul\":10810:10819   */\n      dup4\n        /* \"#utility.yul\":10806:10823   */\n      add\n        /* \"#utility.yul\":10799:10846   */\n      mstore\n        /* \"#utility.yul\":10863:10994   */\n      tag_213\n        /* \"#utility.yul\":10989:10993   */\n      dup2\n        /* \"#utility.yul\":10863:10994   */\n      tag_100\n      jump\t// in\n    tag_213:\n        /* \"#utility.yul\":10855:10994   */\n      swap1\n      pop\n        /* \"#utility.yul\":10582:11001   */\n      swap2\n      swap1\n      pop\n      jump\t// out\n        /* \"#utility.yul\":11007:11201   */\n    tag_65:\n        /* \"#utility.yul\":11047:11051   */\n      0x00\n        /* \"#utility.yul\":11067:11087   */\n      tag_215\n        /* \"#utility.yul\":11085:11086   */\n      dup3\n        /* \"#utility.yul\":11067:11087   */\n      tag_84\n      jump\t// in\n    tag_215:\n        /* \"#utility.yul\":11062:11087   */\n      swap2\n      pop\n        /* \"#utility.yul\":11101:11121   */\n      tag_216\n        /* \"#utility.yul\":11119:11120   */\n      dup4\n        /* \"#utility.yul\":11101:11121   */\n      tag_84\n      jump\t// in\n    tag_216:\n        /* \"#utility.yul\":11096:11121   */\n      swap3\n      pop\n        /* \"#utility.yul\":11145:11146   */\n      dup3\n        /* \"#utility.yul\":11142:11143   */\n      dup3\n        /* \"#utility.yul\":11138:11147   */\n      sub\n        /* \"#utility.yul\":11130:11147   */\n      swap1\n      pop\n        /* \"#utility.yul\":11169:11170   */\n      dup2\n        /* \"#utility.yul\":11163:11167   */\n      dup2\n        /* \"#utility.yul\":11160:11171   */\n      gt\n        /* \"#utility.yul\":11157:11194   */\n      iszero\n      tag_217\n      jumpi\n        /* \"#utility.yul\":11174:11192   */\n      tag_218\n      tag_94\n      jump\t// in\n    tag_218:\n        /* \"#utility.yul\":11157:11194   */\n    tag_217:\n        /* \"#utility.yul\":11007:11201   */\n      swap3\n      swap2\n      pop\n      pop\n      jump\t// out\n\n    auxdata: 0xa264697066735822122041c8fb6ef55c31c0a898b3402f99fd7396053b34e983c2e8a576d49009c5aa0164736f6c634300081e0033\n}\n",
				"bytecode": {
					"linkReferences": {},
					"object": "6080604052348015600e575f5ffd5b50610bb18061001c5f395ff3fe608060405234801561000f575f5ffd5b5060043610610055575f3560e01c80631570b4a5146100595780638251baba1461008a578063c1057057146100ba578063de7e8d35146100d6578063e9b465a814610108575b5f5ffd5b610073600480360381019061006e9190610689565b61013a565b604051610081929190610709565b60405180910390f35b6100a4600480360381019061009f9190610730565b61023b565b6040516100b1919061076e565b60405180910390f35b6100d460048036038101906100cf91906107b1565b610299565b005b6100f060048036038101906100eb9190610819565b610468565b6040516100ff93929190610878565b60405180910390f35b610122600480360381019061011d9190610730565b6104c1565b60405161013193929190610878565b60405180910390f35b5f5f5f5f5f8773ffffffffffffffffffffffffffffffffffffffff1673ffffffffffffffffffffffffffffffffffffffff1681526020019081526020015f205f8660ff1660ff1681526020019081526020015f20905060018463ffffffff16101580156101b1575080805490508463ffffffff1611155b6101f0576040517f08c379a00000000000000000000000000000000000000000000000000000000081526004016101e790610907565b60405180910390fd5b5f816001866101ff9190610952565b63ffffffff168154811061021657610215610989565b5b905f5260205f2090600302019050805f01548160010154935093505050935093915050565b5f5f5f8473ffffffffffffffffffffffffffffffffffffffff1673ffffffffffffffffffffffffffffffffffffffff1681526020019081526020015f205f8360ff1660ff1681526020019081526020015f2080549050905092915050565b60038260ff1611156102e0576040517f08c379a00000000000000000000000000000000000000000000000000000000081526004016102d790610a00565b60405180910390fd5b5f5f1b8103610324576040517f08c379a000000000000000000000000000000000000000000000000000000000815260040161031b90610a68565b60405180910390fd5b5f5f5f3373ffffffffffffffffffffffffffffffffffffffff1673ffffffffffffffffffffffffffffffffffffffff1681526020019081526020015f205f8460ff1660ff1681526020019081526020015f2090505f6001828054905061038a9190610a86565b90508160405180606001604052808581526020014281526020018363ffffffff16815250908060018154018082558091505060019003905f5260205f2090600302015f909190919091505f820151815f0155602082015181600101556040820151816002015f6101000a81548163ffffffff021916908363ffffffff16021790555050508360ff163373ffffffffffffffffffffffffffffffffffffffff167f4504748dc8c5d7929ef3f5e132c3452a848e60df90b2593172e7162bcb693deb838660405161045a929190610ab9565b60405180910390a350505050565b5f602052825f5260405f20602052815f5260405f20818154811061048a575f80fd5b905f5260205f2090600302015f925092505050805f015490806001015490806002015f9054906101000a900463ffffffff16905083565b5f5f5f5f5f5f8773ffffffffffffffffffffffffffffffffffffffff1673ffffffffffffffffffffffffffffffffffffffff1681526020019081526020015f205f8660ff1660ff1681526020019081526020015f2090505f81805490501161055e576040517f08c379a000000000000000000000000000000000000000000000000000000000815260040161055590610b2a565b60405180910390fd5b5f81600183805490506105719190610b48565b8154811061058257610581610989565b5b905f5260205f2090600302019050805f01548160010154826002015f9054906101000a900463ffffffff1694509450945050509250925092565b5f5ffd5b5f73ffffffffffffffffffffffffffffffffffffffff82169050919050565b5f6105e9826105c0565b9050919050565b6105f9816105df565b8114610603575f5ffd5b50565b5f81359050610614816105f0565b92915050565b5f60ff82169050919050565b61062f8161061a565b8114610639575f5ffd5b50565b5f8135905061064a81610626565b92915050565b5f63ffffffff82169050919050565b61066881610650565b8114610672575f5ffd5b50565b5f813590506106838161065f565b92915050565b5f5f5f606084860312156106a05761069f6105bc565b5b5f6106ad86828701610606565b93505060206106be8682870161063c565b92505060406106cf86828701610675565b9150509250925092565b5f819050919050565b6106eb816106d9565b82525050565b5f819050919050565b610703816106f1565b82525050565b5f60408201905061071c5f8301856106e2565b61072960208301846106fa565b9392505050565b5f5f60408385031215610746576107456105bc565b5b5f61075385828601610606565b92505060206107648582860161063c565b9150509250929050565b5f6020820190506107815f8301846106fa565b92915050565b610790816106d9565b811461079a575f5ffd5b50565b5f813590506107ab81610787565b92915050565b5f5f604083850312156107c7576107c66105bc565b5b5f6107d48582860161063c565b92505060206107e58582860161079d565b9150509250929050565b6107f8816106f1565b8114610802575f5ffd5b50565b5f81359050610813816107ef565b92915050565b5f5f5f606084860312156108305761082f6105bc565b5b5f61083d86828701610606565b935050602061084e8682870161063c565b925050604061085f86828701610805565b9150509250925092565b61087281610650565b82525050565b5f60608201905061088b5f8301866106e2565b61089860208301856106fa565b6108a56040830184610869565b949350505050565b5f82825260208201905092915050565b7f496e76616c69642076657273696f6e00000000000000000000000000000000005f82015250565b5f6108f1600f836108ad565b91506108fc826108bd565b602082019050919050565b5f6020820190508181035f83015261091e816108e5565b9050919050565b7f4e487b71000000000000000000000000000000000000000000000000000000005f52601160045260245ffd5b5f61095c82610650565b915061096783610650565b9250828203905063ffffffff81111561098357610982610925565b5b92915050565b7f4e487b71000000000000000000000000000000000000000000000000000000005f52603260045260245ffd5b7f496e76616c6964206461746154797065000000000000000000000000000000005f82015250565b5f6109ea6010836108ad565b91506109f5826109b6565b602082019050919050565b5f6020820190508181035f830152610a17816109de565b9050919050565b7f456d7074792068617368000000000000000000000000000000000000000000005f82015250565b5f610a52600a836108ad565b9150610a5d82610a1e565b602082019050919050565b5f6020820190508181035f830152610a7f81610a46565b9050919050565b5f610a90826106f1565b9150610a9b836106f1565b9250828201905080821115610ab357610ab2610925565b5b92915050565b5f604082019050610acc5f830185610869565b610ad960208301846106e2565b9392505050565b7f4e6f206461746120666f722074686973207479706500000000000000000000005f82015250565b5f610b146015836108ad565b9150610b1f82610ae0565b602082019050919050565b5f6020820190508181035f830152610b4181610b08565b9050919050565b5f610b52826106f1565b9150610b5d836106f1565b9250828203905081811115610b7557610b74610925565b5b9291505056fea264697066735822122041c8fb6ef55c31c0a898b3402f99fd7396053b34e983c2e8a576d49009c5aa0164736f6c634300081e0033",
					"opcodes": "PUSH1 0x80 PUSH1 0x40 MSTORE CALLVALUE DUP1 ISZERO PUSH1 0xE JUMPI PUSH0 PUSH0 REVERT JUMPDEST POP PUSH2 0xBB1 DUP1 PUSH2 0x1C PUSH0 CODECOPY PUSH0 RETURN INVALID PUSH1 0x80 PUSH1 0x40 MSTORE CALLVALUE DUP1 ISZERO PUSH2 0xF JUMPI PUSH0 PUSH0 REVERT JUMPDEST POP PUSH1 0x4 CALLDATASIZE LT PUSH2 0x55 JUMPI PUSH0 CALLDATALOAD PUSH1 0xE0 SHR DUP1 PUSH4 0x1570B4A5 EQ PUSH2 0x59 JUMPI DUP1 PUSH4 0x8251BABA EQ PUSH2 0x8A JUMPI DUP1 PUSH4 0xC1057057 EQ PUSH2 0xBA JUMPI DUP1 PUSH4 0xDE7E8D35 EQ PUSH2 0xD6 JUMPI DUP1 PUSH4 0xE9B465A8 EQ PUSH2 0x108 JUMPI JUMPDEST PUSH0 PUSH0 REVERT JUMPDEST PUSH2 0x73 PUSH1 0x4 DUP1 CALLDATASIZE SUB DUP2 ADD SWAP1 PUSH2 0x6E SWAP2 SWAP1 PUSH2 0x689 JUMP JUMPDEST PUSH2 0x13A JUMP JUMPDEST PUSH1 0x40 MLOAD PUSH2 0x81 SWAP3 SWAP2 SWAP1 PUSH2 0x709 JUMP JUMPDEST PUSH1 0x40 MLOAD DUP1 SWAP2 SUB SWAP1 RETURN JUMPDEST PUSH2 0xA4 PUSH1 0x4 DUP1 CALLDATASIZE SUB DUP2 ADD SWAP1 PUSH2 0x9F SWAP2 SWAP1 PUSH2 0x730 JUMP JUMPDEST PUSH2 0x23B JUMP JUMPDEST PUSH1 0x40 MLOAD PUSH2 0xB1 SWAP2 SWAP1 PUSH2 0x76E JUMP JUMPDEST PUSH1 0x40 MLOAD DUP1 SWAP2 SUB SWAP1 RETURN JUMPDEST PUSH2 0xD4 PUSH1 0x4 DUP1 CALLDATASIZE SUB DUP2 ADD SWAP1 PUSH2 0xCF SWAP2 SWAP1 PUSH2 0x7B1 JUMP JUMPDEST PUSH2 0x299 JUMP JUMPDEST STOP JUMPDEST PUSH2 0xF0 PUSH1 0x4 DUP1 CALLDATASIZE SUB DUP2 ADD SWAP1 PUSH2 0xEB SWAP2 SWAP1 PUSH2 0x819 JUMP JUMPDEST PUSH2 0x468 JUMP JUMPDEST PUSH1 0x40 MLOAD PUSH2 0xFF SWAP4 SWAP3 SWAP2 SWAP1 PUSH2 0x878 JUMP JUMPDEST PUSH1 0x40 MLOAD DUP1 SWAP2 SUB SWAP1 RETURN JUMPDEST PUSH2 0x122 PUSH1 0x4 DUP1 CALLDATASIZE SUB DUP2 ADD SWAP1 PUSH2 0x11D SWAP2 SWAP1 PUSH2 0x730 JUMP JUMPDEST PUSH2 0x4C1 JUMP JUMPDEST PUSH1 0x40 MLOAD PUSH2 0x131 SWAP4 SWAP3 SWAP2 SWAP1 PUSH2 0x878 JUMP JUMPDEST PUSH1 0x40 MLOAD DUP1 SWAP2 SUB SWAP1 RETURN JUMPDEST PUSH0 PUSH0 PUSH0 PUSH0 PUSH0 DUP8 PUSH20 0xFFFFFFFFFFFFFFFFFFFFFFFFFFFFFFFFFFFFFFFF AND PUSH20 0xFFFFFFFFFFFFFFFFFFFFFFFFFFFFFFFFFFFFFFFF AND DUP2 MSTORE PUSH1 0x20 ADD SWAP1 DUP2 MSTORE PUSH1 0x20 ADD PUSH0 KECCAK256 PUSH0 DUP7 PUSH1 0xFF AND PUSH1 0xFF AND DUP2 MSTORE PUSH1 0x20 ADD SWAP1 DUP2 MSTORE PUSH1 0x20 ADD PUSH0 KECCAK256 SWAP1 POP PUSH1 0x1 DUP5 PUSH4 0xFFFFFFFF AND LT ISZERO DUP1 ISZERO PUSH2 0x1B1 JUMPI POP DUP1 DUP1 SLOAD SWAP1 POP DUP5 PUSH4 0xFFFFFFFF AND GT ISZERO JUMPDEST PUSH2 0x1F0 JUMPI PUSH1 0x40 MLOAD PUSH32 0x8C379A000000000000000000000000000000000000000000000000000000000 DUP2 MSTORE PUSH1 0x4 ADD PUSH2 0x1E7 SWAP1 PUSH2 0x907 JUMP JUMPDEST PUSH1 0x40 MLOAD DUP1 SWAP2 SUB SWAP1 REVERT JUMPDEST PUSH0 DUP2 PUSH1 0x1 DUP7 PUSH2 0x1FF SWAP2 SWAP1 PUSH2 0x952 JUMP JUMPDEST PUSH4 0xFFFFFFFF AND DUP2 SLOAD DUP2 LT PUSH2 0x216 JUMPI PUSH2 0x215 PUSH2 0x989 JUMP JUMPDEST JUMPDEST SWAP1 PUSH0 MSTORE PUSH1 0x20 PUSH0 KECCAK256 SWAP1 PUSH1 0x3 MUL ADD SWAP1 POP DUP1 PUSH0 ADD SLOAD DUP2 PUSH1 0x1 ADD SLOAD SWAP4 POP SWAP4 POP POP POP SWAP4 POP SWAP4 SWAP2 POP POP JUMP JUMPDEST PUSH0 PUSH0 PUSH0 DUP5 PUSH20 0xFFFFFFFFFFFFFFFFFFFFFFFFFFFFFFFFFFFFFFFF AND PUSH20 0xFFFFFFFFFFFFFFFFFFFFFFFFFFFFFFFFFFFFFFFF AND DUP2 MSTORE PUSH1 0x20 ADD SWAP1 DUP2 MSTORE PUSH1 0x20 ADD PUSH0 KECCAK256 PUSH0 DUP4 PUSH1 0xFF AND PUSH1 0xFF AND DUP2 MSTORE PUSH1 0x20 ADD SWAP1 DUP2 MSTORE PUSH1 0x20 ADD PUSH0 KECCAK256 DUP1 SLOAD SWAP1 POP SWAP1 POP SWAP3 SWAP2 POP POP JUMP JUMPDEST PUSH1 0x3 DUP3 PUSH1 0xFF AND GT ISZERO PUSH2 0x2E0 JUMPI PUSH1 0x40 MLOAD PUSH32 0x8C379A000000000000000000000000000000000000000000000000000000000 DUP2 MSTORE PUSH1 0x4 ADD PUSH2 0x2D7 SWAP1 PUSH2 0xA00 JUMP JUMPDEST PUSH1 0x40 MLOAD DUP1 SWAP2 SUB SWAP1 REVERT JUMPDEST PUSH0 PUSH0 SHL DUP2 SUB PUSH2 0x324 JUMPI PUSH1 0x40 MLOAD PUSH32 0x8C379A000000000000000000000000000000000000000000000000000000000 DUP2 MSTORE PUSH1 0x4 ADD PUSH2 0x31B SWAP1 PUSH2 0xA68 JUMP JUMPDEST PUSH1 0x40 MLOAD DUP1 SWAP2 SUB SWAP1 REVERT JUMPDEST PUSH0 PUSH0 PUSH0 CALLER PUSH20 0xFFFFFFFFFFFFFFFFFFFFFFFFFFFFFFFFFFFFFFFF AND PUSH20 0xFFFFFFFFFFFFFFFFFFFFFFFFFFFFFFFFFFFFFFFF AND DUP2 MSTORE PUSH1 0x20 ADD SWAP1 DUP2 MSTORE PUSH1 0x20 ADD PUSH0 KECCAK256 PUSH0 DUP5 PUSH1 0xFF AND PUSH1 0xFF AND DUP2 MSTORE PUSH1 0x20 ADD SWAP1 DUP2 MSTORE PUSH1 0x20 ADD PUSH0 KECCAK256 SWAP1 POP PUSH0 PUSH1 0x1 DUP3 DUP1 SLOAD SWAP1 POP PUSH2 0x38A SWAP2 SWAP1 PUSH2 0xA86 JUMP JUMPDEST SWAP1 POP DUP2 PUSH1 0x40 MLOAD DUP1 PUSH1 0x60 ADD PUSH1 0x40 MSTORE DUP1 DUP6 DUP2 MSTORE PUSH1 0x20 ADD TIMESTAMP DUP2 MSTORE PUSH1 0x20 ADD DUP4 PUSH4 0xFFFFFFFF AND DUP2 MSTORE POP SWAP1 DUP1 PUSH1 0x1 DUP2 SLOAD ADD DUP1 DUP3 SSTORE DUP1 SWAP2 POP POP PUSH1 0x1 SWAP1 SUB SWAP1 PUSH0 MSTORE PUSH1 0x20 PUSH0 KECCAK256 SWAP1 PUSH1 0x3 MUL ADD PUSH0 SWAP1 SWAP2 SWAP1 SWAP2 SWAP1 SWAP2 POP PUSH0 DUP3 ADD MLOAD DUP2 PUSH0 ADD SSTORE PUSH1 0x20 DUP3 ADD MLOAD DUP2 PUSH1 0x1 ADD SSTORE PUSH1 0x40 DUP3 ADD MLOAD DUP2 PUSH1 0x2 ADD PUSH0 PUSH2 0x100 EXP DUP2 SLOAD DUP2 PUSH4 0xFFFFFFFF MUL NOT AND SWAP1 DUP4 PUSH4 0xFFFFFFFF AND MUL OR SWAP1 SSTORE POP POP POP DUP4 PUSH1 0xFF AND CALLER PUSH20 0xFFFFFFFFFFFFFFFFFFFFFFFFFFFFFFFFFFFFFFFF AND PUSH32 0x4504748DC8C5D7929EF3F5E132C3452A848E60DF90B2593172E7162BCB693DEB DUP4 DUP7 PUSH1 0x40 MLOAD PUSH2 0x45A SWAP3 SWAP2 SWAP1 PUSH2 0xAB9 JUMP JUMPDEST PUSH1 0x40 MLOAD DUP1 SWAP2 SUB SWAP1 LOG3 POP POP POP POP JUMP JUMPDEST PUSH0 PUSH1 0x20 MSTORE DUP3 PUSH0 MSTORE PUSH1 0x40 PUSH0 KECCAK256 PUSH1 0x20 MSTORE DUP2 PUSH0 MSTORE PUSH1 0x40 PUSH0 KECCAK256 DUP2 DUP2 SLOAD DUP2 LT PUSH2 0x48A JUMPI PUSH0 DUP1 REVERT JUMPDEST SWAP1 PUSH0 MSTORE PUSH1 0x20 PUSH0 KECCAK256 SWAP1 PUSH1 0x3 MUL ADD PUSH0 SWAP3 POP SWAP3 POP POP POP DUP1 PUSH0 ADD SLOAD SWAP1 DUP1 PUSH1 0x1 ADD SLOAD SWAP1 DUP1 PUSH1 0x2 ADD PUSH0 SWAP1 SLOAD SWAP1 PUSH2 0x100 EXP SWAP1 DIV PUSH4 0xFFFFFFFF AND SWAP1 POP DUP4 JUMP JUMPDEST PUSH0 PUSH0 PUSH0 PUSH0 PUSH0 PUSH0 DUP8 PUSH20 0xFFFFFFFFFFFFFFFFFFFFFFFFFFFFFFFFFFFFFFFF AND PUSH20 0xFFFFFFFFFFFFFFFFFFFFFFFFFFFFFFFFFFFFFFFF AND DUP2 MSTORE PUSH1 0x20 ADD SWAP1 DUP2 MSTORE PUSH1 0x20 ADD PUSH0 KECCAK256 PUSH0 DUP7 PUSH1 0xFF AND PUSH1 0xFF AND DUP2 MSTORE PUSH1 0x20 ADD SWAP1 DUP2 MSTORE PUSH1 0x20 ADD PUSH0 KECCAK256 SWAP1 POP PUSH0 DUP2 DUP1 SLOAD SWAP1 POP GT PUSH2 0x55E JUMPI PUSH1 0x40 MLOAD PUSH32 0x8C379A000000000000000000000000000000000000000000000000000000000 DUP2 MSTORE PUSH1 0x4 ADD PUSH2 0x555 SWAP1 PUSH2 0xB2A JUMP JUMPDEST PUSH1 0x40 MLOAD DUP1 SWAP2 SUB SWAP1 REVERT JUMPDEST PUSH0 DUP2 PUSH1 0x1 DUP4 DUP1 SLOAD SWAP1 POP PUSH2 0x571 SWAP2 SWAP1 PUSH2 0xB48 JUMP JUMPDEST DUP2 SLOAD DUP2 LT PUSH2 0x582 JUMPI PUSH2 0x581 PUSH2 0x989 JUMP JUMPDEST JUMPDEST SWAP1 PUSH0 MSTORE PUSH1 0x20 PUSH0 KECCAK256 SWAP1 PUSH1 0x3 MUL ADD SWAP1 POP DUP1 PUSH0 ADD SLOAD DUP2 PUSH1 0x1 ADD SLOAD DUP3 PUSH1 0x2 ADD PUSH0 SWAP1 SLOAD SWAP1 PUSH2 0x100 EXP SWAP1 DIV PUSH4 0xFFFFFFFF AND SWAP5 POP SWAP5 POP SWAP5 POP POP POP SWAP3 POP SWAP3 POP SWAP3 JUMP JUMPDEST PUSH0 PUSH0 REVERT JUMPDEST PUSH0 PUSH20 0xFFFFFFFFFFFFFFFFFFFFFFFFFFFFFFFFFFFFFFFF DUP3 AND SWAP1 POP SWAP2 SWAP1 POP JUMP JUMPDEST PUSH0 PUSH2 0x5E9 DUP3 PUSH2 0x5C0 JUMP JUMPDEST SWAP1 POP SWAP2 SWAP1 POP JUMP JUMPDEST PUSH2 0x5F9 DUP2 PUSH2 0x5DF JUMP JUMPDEST DUP2 EQ PUSH2 0x603 JUMPI PUSH0 PUSH0 REVERT JUMPDEST POP JUMP JUMPDEST PUSH0 DUP2 CALLDATALOAD SWAP1 POP PUSH2 0x614 DUP2 PUSH2 0x5F0 JUMP JUMPDEST SWAP3 SWAP2 POP POP JUMP JUMPDEST PUSH0 PUSH1 0xFF DUP3 AND SWAP1 POP SWAP2 SWAP1 POP JUMP JUMPDEST PUSH2 0x62F DUP2 PUSH2 0x61A JUMP JUMPDEST DUP2 EQ PUSH2 0x639 JUMPI PUSH0 PUSH0 REVERT JUMPDEST POP JUMP JUMPDEST PUSH0 DUP2 CALLDATALOAD SWAP1 POP PUSH2 0x64A DUP2 PUSH2 0x626 JUMP JUMPDEST SWAP3 SWAP2 POP POP JUMP JUMPDEST PUSH0 PUSH4 0xFFFFFFFF DUP3 AND SWAP1 POP SWAP2 SWAP1 POP JUMP JUMPDEST PUSH2 0x668 DUP2 PUSH2 0x650 JUMP JUMPDEST DUP2 EQ PUSH2 0x672 JUMPI PUSH0 PUSH0 REVERT JUMPDEST POP JUMP JUMPDEST PUSH0 DUP2 CALLDATALOAD SWAP1 POP PUSH2 0x683 DUP2 PUSH2 0x65F JUMP JUMPDEST SWAP3 SWAP2 POP POP JUMP JUMPDEST PUSH0 PUSH0 PUSH0 PUSH1 0x60 DUP5 DUP7 SUB SLT ISZERO PUSH2 0x6A0 JUMPI PUSH2 0x69F PUSH2 0x5BC JUMP JUMPDEST JUMPDEST PUSH0 PUSH2 0x6AD DUP7 DUP3 DUP8 ADD PUSH2 0x606 JUMP JUMPDEST SWAP4 POP POP PUSH1 0x20 PUSH2 0x6BE DUP7 DUP3 DUP8 ADD PUSH2 0x63C JUMP JUMPDEST SWAP3 POP POP PUSH1 0x40 PUSH2 0x6CF DUP7 DUP3 DUP8 ADD PUSH2 0x675 JUMP JUMPDEST SWAP2 POP POP SWAP3 POP SWAP3 POP SWAP3 JUMP JUMPDEST PUSH0 DUP2 SWAP1 POP SWAP2 SWAP1 POP JUMP JUMPDEST PUSH2 0x6EB DUP2 PUSH2 0x6D9 JUMP JUMPDEST DUP3 MSTORE POP POP JUMP JUMPDEST PUSH0 DUP2 SWAP1 POP SWAP2 SWAP1 POP JUMP JUMPDEST PUSH2 0x703 DUP2 PUSH2 0x6F1 JUMP JUMPDEST DUP3 MSTORE POP POP JUMP JUMPDEST PUSH0 PUSH1 0x40 DUP3 ADD SWAP1 POP PUSH2 0x71C PUSH0 DUP4 ADD DUP6 PUSH2 0x6E2 JUMP JUMPDEST PUSH2 0x729 PUSH1 0x20 DUP4 ADD DUP5 PUSH2 0x6FA JUMP JUMPDEST SWAP4 SWAP3 POP POP POP JUMP JUMPDEST PUSH0 PUSH0 PUSH1 0x40 DUP4 DUP6 SUB SLT ISZERO PUSH2 0x746 JUMPI PUSH2 0x745 PUSH2 0x5BC JUMP JUMPDEST JUMPDEST PUSH0 PUSH2 0x753 DUP6 DUP3 DUP7 ADD PUSH2 0x606 JUMP JUMPDEST SWAP3 POP POP PUSH1 0x20 PUSH2 0x764 DUP6 DUP3 DUP7 ADD PUSH2 0x63C JUMP JUMPDEST SWAP2 POP POP SWAP3 POP SWAP3 SWAP1 POP JUMP JUMPDEST PUSH0 PUSH1 0x20 DUP3 ADD SWAP1 POP PUSH2 0x781 PUSH0 DUP4 ADD DUP5 PUSH2 0x6FA JUMP JUMPDEST SWAP3 SWAP2 POP POP JUMP JUMPDEST PUSH2 0x790 DUP2 PUSH2 0x6D9 JUMP JUMPDEST DUP2 EQ PUSH2 0x79A JUMPI PUSH0 PUSH0 REVERT JUMPDEST POP JUMP JUMPDEST PUSH0 DUP2 CALLDATALOAD SWAP1 POP PUSH2 0x7AB DUP2 PUSH2 0x787 JUMP JUMPDEST SWAP3 SWAP2 POP POP JUMP JUMPDEST PUSH0 PUSH0 PUSH1 0x40 DUP4 DUP6 SUB SLT ISZERO PUSH2 0x7C7 JUMPI PUSH2 0x7C6 PUSH2 0x5BC JUMP JUMPDEST JUMPDEST PUSH0 PUSH2 0x7D4 DUP6 DUP3 DUP7 ADD PUSH2 0x63C JUMP JUMPDEST SWAP3 POP POP PUSH1 0x20 PUSH2 0x7E5 DUP6 DUP3 DUP7 ADD PUSH2 0x79D JUMP JUMPDEST SWAP2 POP POP SWAP3 POP SWAP3 SWAP1 POP JUMP JUMPDEST PUSH2 0x7F8 DUP2 PUSH2 0x6F1 JUMP JUMPDEST DUP2 EQ PUSH2 0x802 JUMPI PUSH0 PUSH0 REVERT JUMPDEST POP JUMP JUMPDEST PUSH0 DUP2 CALLDATALOAD SWAP1 POP PUSH2 0x813 DUP2 PUSH2 0x7EF JUMP JUMPDEST SWAP3 SWAP2 POP POP JUMP JUMPDEST PUSH0 PUSH0 PUSH0 PUSH1 0x60 DUP5 DUP7 SUB SLT ISZERO PUSH2 0x830 JUMPI PUSH2 0x82F PUSH2 0x5BC JUMP JUMPDEST JUMPDEST PUSH0 PUSH2 0x83D DUP7 DUP3 DUP8 ADD PUSH2 0x606 JUMP JUMPDEST SWAP4 POP POP PUSH1 0x20 PUSH2 0x84E DUP7 DUP3 DUP8 ADD PUSH2 0x63C JUMP JUMPDEST SWAP3 POP POP PUSH1 0x40 PUSH2 0x85F DUP7 DUP3 DUP8 ADD PUSH2 0x805 JUMP JUMPDEST SWAP2 POP POP SWAP3 POP SWAP3 POP SWAP3 JUMP JUMPDEST PUSH2 0x872 DUP2 PUSH2 0x650 JUMP JUMPDEST DUP3 MSTORE POP POP JUMP JUMPDEST PUSH0 PUSH1 0x60 DUP3 ADD SWAP1 POP PUSH2 0x88B PUSH0 DUP4 ADD DUP7 PUSH2 0x6E2 JUMP JUMPDEST PUSH2 0x898 PUSH1 0x20 DUP4 ADD DUP6 PUSH2 0x6FA JUMP JUMPDEST PUSH2 0x8A5 PUSH1 0x40 DUP4 ADD DUP5 PUSH2 0x869 JUMP JUMPDEST SWAP5 SWAP4 POP POP POP POP JUMP JUMPDEST PUSH0 DUP3 DUP3 MSTORE PUSH1 0x20 DUP3 ADD SWAP1 POP SWAP3 SWAP2 POP POP JUMP JUMPDEST PUSH32 0x496E76616C69642076657273696F6E0000000000000000000000000000000000 PUSH0 DUP3 ADD MSTORE POP JUMP JUMPDEST PUSH0 PUSH2 0x8F1 PUSH1 0xF DUP4 PUSH2 0x8AD JUMP JUMPDEST SWAP2 POP PUSH2 0x8FC DUP3 PUSH2 0x8BD JUMP JUMPDEST PUSH1 0x20 DUP3 ADD SWAP1 POP SWAP2 SWAP1 POP JUMP JUMPDEST PUSH0 PUSH1 0x20 DUP3 ADD SWAP1 POP DUP2 DUP2 SUB PUSH0 DUP4 ADD MSTORE PUSH2 0x91E DUP2 PUSH2 0x8E5 JUMP JUMPDEST SWAP1 POP SWAP2 SWAP1 POP JUMP JUMPDEST PUSH32 0x4E487B7100000000000000000000000000000000000000000000000000000000 PUSH0 MSTORE PUSH1 0x11 PUSH1 0x4 MSTORE PUSH1 0x24 PUSH0 REVERT JUMPDEST PUSH0 PUSH2 0x95C DUP3 PUSH2 0x650 JUMP JUMPDEST SWAP2 POP PUSH2 0x967 DUP4 PUSH2 0x650 JUMP JUMPDEST SWAP3 POP DUP3 DUP3 SUB SWAP1 POP PUSH4 0xFFFFFFFF DUP2 GT ISZERO PUSH2 0x983 JUMPI PUSH2 0x982 PUSH2 0x925 JUMP JUMPDEST JUMPDEST SWAP3 SWAP2 POP POP JUMP JUMPDEST PUSH32 0x4E487B7100000000000000000000000000000000000000000000000000000000 PUSH0 MSTORE PUSH1 0x32 PUSH1 0x4 MSTORE PUSH1 0x24 PUSH0 REVERT JUMPDEST PUSH32 0x496E76616C696420646174615479706500000000000000000000000000000000 PUSH0 DUP3 ADD MSTORE POP JUMP JUMPDEST PUSH0 PUSH2 0x9EA PUSH1 0x10 DUP4 PUSH2 0x8AD JUMP JUMPDEST SWAP2 POP PUSH2 0x9F5 DUP3 PUSH2 0x9B6 JUMP JUMPDEST PUSH1 0x20 DUP3 ADD SWAP1 POP SWAP2 SWAP1 POP JUMP JUMPDEST PUSH0 PUSH1 0x20 DUP3 ADD SWAP1 POP DUP2 DUP2 SUB PUSH0 DUP4 ADD MSTORE PUSH2 0xA17 DUP2 PUSH2 0x9DE JUMP JUMPDEST SWAP1 POP SWAP2 SWAP1 POP JUMP JUMPDEST PUSH32 0x456D707479206861736800000000000000000000000000000000000000000000 PUSH0 DUP3 ADD MSTORE POP JUMP JUMPDEST PUSH0 PUSH2 0xA52 PUSH1 0xA DUP4 PUSH2 0x8AD JUMP JUMPDEST SWAP2 POP PUSH2 0xA5D DUP3 PUSH2 0xA1E JUMP JUMPDEST PUSH1 0x20 DUP3 ADD SWAP1 POP SWAP2 SWAP1 POP JUMP JUMPDEST PUSH0 PUSH1 0x20 DUP3 ADD SWAP1 POP DUP2 DUP2 SUB PUSH0 DUP4 ADD MSTORE PUSH2 0xA7F DUP2 PUSH2 0xA46 JUMP JUMPDEST SWAP1 POP SWAP2 SWAP1 POP JUMP JUMPDEST PUSH0 PUSH2 0xA90 DUP3 PUSH2 0x6F1 JUMP JUMPDEST SWAP2 POP PUSH2 0xA9B DUP4 PUSH2 0x6F1 JUMP JUMPDEST SWAP3 POP DUP3 DUP3 ADD SWAP1 POP DUP1 DUP3 GT ISZERO PUSH2 0xAB3 JUMPI PUSH2 0xAB2 PUSH2 0x925 JUMP JUMPDEST JUMPDEST SWAP3 SWAP2 POP POP JUMP JUMPDEST PUSH0 PUSH1 0x40 DUP3 ADD SWAP1 POP PUSH2 0xACC PUSH0 DUP4 ADD DUP6 PUSH2 0x869 JUMP JUMPDEST PUSH2 0xAD9 PUSH1 0x20 DUP4 ADD DUP5 PUSH2 0x6E2 JUMP JUMPDEST SWAP4 SWAP3 POP POP POP JUMP JUMPDEST PUSH32 0x4E6F206461746120666F72207468697320747970650000000000000000000000 PUSH0 DUP3 ADD MSTORE POP JUMP JUMPDEST PUSH0 PUSH2 0xB14 PUSH1 0x15 DUP4 PUSH2 0x8AD JUMP JUMPDEST SWAP2 POP PUSH2 0xB1F DUP3 PUSH2 0xAE0 JUMP JUMPDEST PUSH1 0x20 DUP3 ADD SWAP1 POP SWAP2 SWAP1 POP JUMP JUMPDEST PUSH0 PUSH1 0x20 DUP3 ADD SWAP1 POP DUP2 DUP2 SUB PUSH0 DUP4 ADD MSTORE PUSH2 0xB41 DUP2 PUSH2 0xB08 JUMP JUMPDEST SWAP1 POP SWAP2 SWAP1 POP JUMP JUMPDEST PUSH0 PUSH2 0xB52 DUP3 PUSH2 0x6F1 JUMP JUMPDEST SWAP2 POP PUSH2 0xB5D DUP4 PUSH2 0x6F1 JUMP JUMPDEST SWAP3 POP DUP3 DUP3 SUB SWAP1 POP DUP2 DUP2 GT ISZERO PUSH2 0xB75 JUMPI PUSH2 0xB74 PUSH2 0x925 JUMP JUMPDEST JUMPDEST SWAP3 SWAP2 POP POP JUMP INVALID LOG2 PUSH5 0x6970667358 0x22 SLT KECCAK256 COINBASE 0xC8 EXTSTATICCALL PUSH15 0xF55C31C0A898B3402F99FD7396053B CALLVALUE 0xE9 DUP4 0xC2 0xE8 0xA5 PUSH23 0xD49009C5AA0164736F6C634300081E0033000000000000 "
				},
				"gasEstimates": {
					"creation": {
						"codeDepositCost": "598600",
						"executionCost": "630",
						"totalCost": "599230"
					},
					"external": {
						"dataPointers(address,uint8,uint256)": "infinite",
						"getDataPointerVersion(address,uint8,uint32)": "infinite",
						"getLatestDataPointer(address,uint8)": "infinite",
						"getVersionCount(address,uint8)": "3100",
						"setDataPointer(uint8,bytes32)": "infinite"
					}
				},
				"methodIdentifiers": {
					"dataPointers(address,uint8,uint256)": "de7e8d35",
					"getDataPointerVersion(address,uint8,uint32)": "1570b4a5",
					"getLatestDataPointer(address,uint8)": "e9b465a8",
					"getVersionCount(address,uint8)": "8251baba",
					"setDataPointer(uint8,bytes32)": "c1057057"
				}
			},
			"storageLayout": {
				"storage": [
					{
						"astId": 16,
						"contract": "contracts/DataRegistry.sol:DataRegistry",
						"label": "dataPointers",
						"offset": 0,
						"slot": "0",
						"type": "t_mapping(t_address,t_mapping(t_uint8,t_array(t_struct(DataPointer)8_storage)dyn_storage))"
					}
				],
				"types": {
					"t_address": {
						"encoding": "inplace",
						"label": "address",
						"numberOfBytes": "20"
					},
					"t_array(t_struct(DataPointer)8_storage)dyn_storage": {
						"base": "t_struct(DataPointer)8_storage",
						"encoding": "dynamic_array",
						"label": "struct DataRegistry.DataPointer[]",
						"numberOfBytes": "32"
					},
					"t_bytes32": {
						"encoding": "inplace",
						"label": "bytes32",
						"numberOfBytes": "32"
					},
					"t_mapping(t_address,t_mapping(t_uint8,t_array(t_struct(DataPointer)8_storage)dyn_storage))": {
						"encoding": "mapping",
						"key": "t_address",
						"label": "mapping(address => mapping(uint8 => struct DataRegistry.DataPointer[]))",
						"numberOfBytes": "32",
						"value": "t_mapping(t_uint8,t_array(t_struct(DataPointer)8_storage)dyn_storage)"
					},
					"t_mapping(t_uint8,t_array(t_struct(DataPointer)8_storage)dyn_storage)": {
						"encoding": "mapping",
						"key": "t_uint8",
						"label": "mapping(uint8 => struct DataRegistry.DataPointer[])",
						"numberOfBytes": "32",
						"value": "t_array(t_struct(DataPointer)8_storage)dyn_storage"
					},
					"t_struct(DataPointer)8_storage": {
						"encoding": "inplace",
						"label": "struct DataRegistry.DataPointer",
						"members": [
							{
								"astId": 3,
								"contract": "contracts/DataRegistry.sol:DataRegistry",
								"label": "dataHash",
								"offset": 0,
								"slot": "0",
								"type": "t_bytes32"
							},
							{
								"astId": 5,
								"contract": "contracts/DataRegistry.sol:DataRegistry",
								"label": "timestamp",
								"offset": 0,
								"slot": "1",
								"type": "t_uint256"
							},
							{
								"astId": 7,
								"contract": "contracts/DataRegistry.sol:DataRegistry",
								"label": "version",
								"offset": 0,
								"slot": "2",
								"type": "t_uint32"
							}
						],
						"numberOfBytes": "96"
					},
					"t_uint256": {
						"encoding": "inplace",
						"label": "uint256",
						"numberOfBytes": "32"
					},
					"t_uint32": {
						"encoding": "inplace",
						"label": "uint32",
						"numberOfBytes": "4"
					},
					"t_uint8": {
						"encoding": "inplace",
						"label": "uint8",
						"numberOfBytes": "1"
					}
				}
			},
			"userdoc": {
				"kind": "user",
				"methods": {},
				"version": 1
			}
		}
	}
}