{
	"contracts/OrganizationRegistry.sol": {
		"OrganizationRegistry": {
			"abi": [
				{
					"inputs": [
						{
							"internalType": "address",
							"name": "_systemAdmin",
							"type": "address"
						}
					],
					"stateMutability": "nonpayable",
					"type": "constructor"
				},
				{
					"anonymous": false,
					"inputs": [
						{
							"indexed": true,
							"internalType": "uint256",
							"name": "orgId",
							"type": "uint256"
						},
						{
							"indexed": true,
							"internalType": "address",
							"name": "oldAdmin",
							"type": "address"
						},
						{
							"indexed": true,
							"internalType": "address",
							"name": "newAdmin",
							"type": "address"
						}
					],
					"name": "OrganizationAdminUpdated",
					"type": "event"
				},
				{
					"anonymous": false,
					"inputs": [
						{
							"indexed": true,
							"internalType": "uint256",
							"name": "orgId",
							"type": "uint256"
						},
						{
							"indexed": true,
							"internalType": "bytes32",
							"name": "hashName",
							"type": "bytes32"
						},
						{
							"indexed": false,
							"internalType": "string",
							"name": "countryCode",
							"type": "string"
						},
						{
							"indexed": true,
							"internalType": "address",
							"name": "admin",
							"type": "address"
						}
					],
					"name": "OrganizationRegistered",
					"type": "event"
				},
				{
					"anonymous": false,
					"inputs": [
						{
							"indexed": true,
							"internalType": "uint256",
							"name": "orgId",
							"type": "uint256"
						},
						{
							"indexed": false,
							"internalType": "bool",
							"name": "isActive",
							"type": "bool"
						}
					],
					"name": "OrganizationStatusUpdated",
					"type": "event"
				},
				{
					"inputs": [
						{
							"internalType": "address",
							"name": "",
							"type": "address"
						}
					],
					"name": "adminToOrgId",
					"outputs": [
						{
							"internalType": "uint256",
							"name": "",
							"type": "uint256"
						}
					],
					"stateMutability": "view",
					"type": "function"
				},
				{
					"inputs": [
						{
							"internalType": "address",
							"name": "adminAddr",
							"type": "address"
						}
					],
					"name": "getOrgIdForAdmin",
					"outputs": [
						{
							"internalType": "uint256",
							"name": "",
							"type": "uint256"
						}
					],
					"stateMutability": "view",
					"type": "function"
				},
				{
					"inputs": [
						{
							"internalType": "uint256",
							"name": "orgId",
							"type": "uint256"
						}
					],
					"name": "getOrganization",
					"outputs": [
						{
							"internalType": "bytes32",
							"name": "hashName",
							"type": "bytes32"
						},
						{
							"internalType": "string",
							"name": "countryCode",
							"type": "string"
						},
						{
							"internalType": "address",
							"name": "admin",
							"type": "address"
						},
						{
							"internalType": "bool",
							"name": "isActive",
							"type": "bool"
						}
					],
					"stateMutability": "view",
					"type": "function"
				},
				{
					"inputs": [
						{
							"internalType": "uint256",
							"name": "orgId",
							"type": "uint256"
						}
					],
					"name": "isActiveOrganization",
					"outputs": [
						{
							"internalType": "bool",
							"name": "",
							"type": "bool"
						}
					],
					"stateMutability": "view",
					"type": "function"
				},
				{
					"inputs": [
						{
							"internalType": "uint256",
							"name": "",
							"type": "uint256"
						}
					],
					"name": "organizations",
					"outputs": [
						{
							"internalType": "uint256",
							"name": "orgId",
							"type": "uint256"
						},
						{
							"internalType": "bytes32",
							"name": "hashName",
							"type": "bytes32"
						},
						{
							"internalType": "string",
							"name": "countryCode",
							"type": "string"
						},
						{
							"internalType": "address",
							"name": "admin",
							"type": "address"
						},
						{
							"internalType": "bool",
							"name": "isActive",
							"type": "bool"
						}
					],
					"stateMutability": "view",
					"type": "function"
				},
				{
					"inputs": [
						{
							"internalType": "bytes32",
							"name": "hashName",
							"type": "bytes32"
						},
						{
							"internalType": "string",
							"name": "countryCode",
							"type": "string"
						},
						{
							"internalType": "address",
							"name": "adminAddr",
							"type": "address"
						}
					],
					"name": "registerOrganization",
					"outputs": [
						{
							"internalType": "uint256",
							"name": "orgId",
							"type": "uint256"
						}
					],
					"stateMutability": "nonpayable",
					"type": "function"
				},
				{
					"inputs": [
						{
							"internalType": "uint256",
							"name": "orgId",
							"type": "uint256"
						},
						{
							"internalType": "bool",
							"name": "status",
							"type": "bool"
						}
					],
					"name": "setOrgStatus",
					"outputs": [],
					"stateMutability": "nonpayable",
					"type": "function"
				},
				{
					"inputs": [],
					"name": "systemAdmin",
					"outputs": [
						{
							"internalType": "address",
							"name": "",
							"type": "address"
						}
					],
					"stateMutability": "view",
					"type": "function"
				},
				{
					"inputs": [
						{
							"internalType": "uint256",
							"name": "orgId",
							"type": "uint256"
						},
						{
							"internalType": "address",
							"name": "newAdmin",
							"type": "address"
						}
					],
					"name": "updateOrganizationAdmin",
					"outputs": [],
					"stateMutability": "nonpayable",
					"type": "function"
				}
			],
			"devdoc": {
				"kind": "dev",
				"methods": {},
				"version": 1
			},
			"evm": {
				"assembly": "    /* \"contracts/OrganizationRegistry.sol\":61:4522  contract OrganizationRegistry {... */\n  mstore(0x40, 0x80)\n    /* \"contracts/OrganizationRegistry.sol\":1320:1462  constructor(address _systemAdmin) {... */\n  callvalue\n  dup1\n  iszero\n  tag_1\n  jumpi\n  revert(0x00, 0x00)\ntag_1:\n  pop\n  mload(0x40)\n  sub(codesize, bytecodeSize)\n  dup1\n  bytecodeSize\n  dup4\n  codecopy\n  dup2\n  dup2\n  add\n  0x40\n  mstore\n  dup2\n  add\n  swap1\n  tag_2\n  swap2\n  swap1\n  tag_3\n  jump\t// in\ntag_2:\n    /* \"contracts/OrganizationRegistry.sol\":1397:1398  0 */\n  0x00\n    /* \"contracts/OrganizationRegistry.sol\":1373:1399  _systemAdmin != address(0) */\n  0xffffffffffffffffffffffffffffffffffffffff\n  and\n    /* \"contracts/OrganizationRegistry.sol\":1373:1385  _systemAdmin */\n  dup2\n    /* \"contracts/OrganizationRegistry.sol\":1373:1399  _systemAdmin != address(0) */\n  0xffffffffffffffffffffffffffffffffffffffff\n  and\n  sub\n    /* \"contracts/OrganizationRegistry.sol\":1365:1417  require(_systemAdmin != address(0), \"Invalid admin\") */\n  tag_6\n  jumpi\n  mload(0x40)\n  0x08c379a000000000000000000000000000000000000000000000000000000000\n  dup2\n  mstore\n  0x04\n  add\n  tag_7\n  swap1\n  tag_8\n  jump\t// in\ntag_7:\n  mload(0x40)\n  dup1\n  swap2\n  sub\n  swap1\n  revert\ntag_6:\n    /* \"contracts/OrganizationRegistry.sol\":1442:1454  _systemAdmin */\n  dup1\n    /* \"contracts/OrganizationRegistry.sol\":1428:1439  systemAdmin */\n  0x00\n  0x00\n    /* \"contracts/OrganizationRegistry.sol\":1428:1454  systemAdmin = _systemAdmin */\n  0x0100\n  exp\n  dup2\n  sload\n  dup2\n  0xffffffffffffffffffffffffffffffffffffffff\n  mul\n  not\n  and\n  swap1\n  dup4\n  0xffffffffffffffffffffffffffffffffffffffff\n  and\n  mul\n  or\n  swap1\n  sstore\n  pop\n    /* \"contracts/OrganizationRegistry.sol\":1320:1462  constructor(address _systemAdmin) {... */\n  pop\n    /* \"contracts/OrganizationRegistry.sol\":61:4522  contract OrganizationRegistry {... */\n  jump(tag_9)\n    /* \"#utility.yul\":88:205   */\ntag_11:\n    /* \"#utility.yul\":197:198   */\n  0x00\n    /* \"#utility.yul\":194:195   */\n  0x00\n    /* \"#utility.yul\":187:199   */\n  revert\n    /* \"#utility.yul\":334:460   */\ntag_13:\n    /* \"#utility.yul\":371:378   */\n  0x00\n    /* \"#utility.yul\":411:453   */\n  0xffffffffffffffffffffffffffffffffffffffff\n    /* \"#utility.yul\":404:409   */\n  dup3\n    /* \"#utility.yul\":400:454   */\n  and\n    /* \"#utility.yul\":389:454   */\n  swap1\n  pop\n    /* \"#utility.yul\":334:460   */\n  swap2\n  swap1\n  pop\n  jump\t// out\n    /* \"#utility.yul\":466:562   */\ntag_14:\n    /* \"#utility.yul\":503:510   */\n  0x00\n    /* \"#utility.yul\":532:556   */\n  tag_26\n    /* \"#utility.yul\":550:555   */\n  dup3\n    /* \"#utility.yul\":532:556   */\n  tag_13\n  jump\t// in\ntag_26:\n    /* \"#utility.yul\":521:556   */\n  swap1\n  pop\n    /* \"#utility.yul\":466:562   */\n  swap2\n  swap1\n  pop\n  jump\t// out\n    /* \"#utility.yul\":568:690   */\ntag_15:\n    /* \"#utility.yul\":641:665   */\n  tag_28\n    /* \"#utility.yul\":659:664   */\n  dup2\n    /* \"#utility.yul\":641:665   */\n  tag_14\n  jump\t// in\ntag_28:\n    /* \"#utility.yul\":634:639   */\n  dup2\n    /* \"#utility.yul\":631:666   */\n  eq\n    /* \"#utility.yul\":621:684   */\n  tag_29\n  jumpi\n    /* \"#utility.yul\":680:681   */\n  0x00\n    /* \"#utility.yul\":677:678   */\n  0x00\n    /* \"#utility.yul\":670:682   */\n  revert\n    /* \"#utility.yul\":621:684   */\ntag_29:\n    /* \"#utility.yul\":568:690   */\n  pop\n  jump\t// out\n    /* \"#utility.yul\":696:839   */\ntag_16:\n    /* \"#utility.yul\":753:758   */\n  0x00\n    /* \"#utility.yul\":784:790   */\n  dup2\n    /* \"#utility.yul\":778:791   */\n  mload\n    /* \"#utility.yul\":769:791   */\n  swap1\n  pop\n    /* \"#utility.yul\":800:833   */\n  tag_31\n    /* \"#utility.yul\":827:832   */\n  dup2\n    /* \"#utility.yul\":800:833   */\n  tag_15\n  jump\t// in\ntag_31:\n    /* \"#utility.yul\":696:839   */\n  swap3\n  swap2\n  pop\n  pop\n  jump\t// out\n    /* \"#utility.yul\":845:1196   */\ntag_3:\n    /* \"#utility.yul\":915:921   */\n  0x00\n    /* \"#utility.yul\":964:966   */\n  0x20\n    /* \"#utility.yul\":952:961   */\n  dup3\n    /* \"#utility.yul\":943:950   */\n  dup5\n    /* \"#utility.yul\":939:962   */\n  sub\n    /* \"#utility.yul\":935:967   */\n  slt\n    /* \"#utility.yul\":932:1051   */\n  iszero\n  tag_33\n  jumpi\n    /* \"#utility.yul\":970:1049   */\n  tag_34\n  tag_11\n  jump\t// in\ntag_34:\n    /* \"#utility.yul\":932:1051   */\ntag_33:\n    /* \"#utility.yul\":1090:1091   */\n  0x00\n    /* \"#utility.yul\":1115:1179   */\n  tag_35\n    /* \"#utility.yul\":1171:1178   */\n  dup5\n    /* \"#utility.yul\":1162:1168   */\n  dup3\n    /* \"#utility.yul\":1151:1160   */\n  dup6\n    /* \"#utility.yul\":1147:1169   */\n  add\n    /* \"#utility.yul\":1115:1179   */\n  tag_16\n  jump\t// in\ntag_35:\n    /* \"#utility.yul\":1105:1179   */\n  swap2\n  pop\n    /* \"#utility.yul\":1061:1189   */\n  pop\n    /* \"#utility.yul\":845:1196   */\n  swap3\n  swap2\n  pop\n  pop\n  jump\t// out\n    /* \"#utility.yul\":1202:1371   */\ntag_17:\n    /* \"#utility.yul\":1286:1297   */\n  0x00\n    /* \"#utility.yul\":1320:1326   */\n  dup3\n    /* \"#utility.yul\":1315:1318   */\n  dup3\n    /* \"#utility.yul\":1308:1327   */\n  mstore\n    /* \"#utility.yul\":1360:1364   */\n  0x20\n    /* \"#utility.yul\":1355:1358   */\n  dup3\n    /* \"#utility.yul\":1351:1365   */\n  add\n    /* \"#utility.yul\":1336:1365   */\n  swap1\n  pop\n    /* \"#utility.yul\":1202:1371   */\n  swap3\n  swap2\n  pop\n  pop\n  jump\t// out\n    /* \"#utility.yul\":1377:1540   */\ntag_18:\n    /* \"#utility.yul\":1517:1532   */\n  0x496e76616c69642061646d696e00000000000000000000000000000000000000\n    /* \"#utility.yul\":1513:1514   */\n  0x00\n    /* \"#utility.yul\":1505:1511   */\n  dup3\n    /* \"#utility.yul\":1501:1515   */\n  add\n    /* \"#utility.yul\":1494:1533   */\n  mstore\n    /* \"#utility.yul\":1377:1540   */\n  pop\n  jump\t// out\n    /* \"#utility.yul\":1546:1912   */\ntag_19:\n    /* \"#utility.yul\":1688:1691   */\n  0x00\n    /* \"#utility.yul\":1709:1776   */\n  tag_39\n    /* \"#utility.yul\":1773:1775   */\n  0x0d\n    /* \"#utility.yul\":1768:1771   */\n  dup4\n    /* \"#utility.yul\":1709:1776   */\n  tag_17\n  jump\t// in\ntag_39:\n    /* \"#utility.yul\":1702:1776   */\n  swap2\n  pop\n    /* \"#utility.yul\":1785:1878   */\n  tag_40\n    /* \"#utility.yul\":1874:1877   */\n  dup3\n    /* \"#utility.yul\":1785:1878   */\n  tag_18\n  jump\t// in\ntag_40:\n    /* \"#utility.yul\":1903:1905   */\n  0x20\n    /* \"#utility.yul\":1898:1901   */\n  dup3\n    /* \"#utility.yul\":1894:1906   */\n  add\n    /* \"#utility.yul\":1887:1906   */\n  swap1\n  pop\n    /* \"#utility.yul\":1546:1912   */\n  swap2\n  swap1\n  pop\n  jump\t// out\n    /* \"#utility.yul\":1918:2337   */\ntag_8:\n    /* \"#utility.yul\":2084:2088   */\n  0x00\n    /* \"#utility.yul\":2122:2124   */\n  0x20\n    /* \"#utility.yul\":2111:2120   */\n  dup3\n    /* \"#utility.yul\":2107:2125   */\n  add\n    /* \"#utility.yul\":2099:2125   */\n  swap1\n  pop\n    /* \"#utility.yul\":2171:2180   */\n  dup2\n    /* \"#utility.yul\":2165:2169   */\n  dup2\n    /* \"#utility.yul\":2161:2181   */\n  sub\n    /* \"#utility.yul\":2157:2158   */\n  0x00\n    /* \"#utility.yul\":2146:2155   */\n  dup4\n    /* \"#utility.yul\":2142:2159   */\n  add\n    /* \"#utility.yul\":2135:2182   */\n  mstore\n    /* \"#utility.yul\":2199:2330   */\n  tag_42\n    /* \"#utility.yul\":2325:2329   */\n  dup2\n    /* \"#utility.yul\":2199:2330   */\n  tag_19\n  jump\t// in\ntag_42:\n    /* \"#utility.yul\":2191:2330   */\n  swap1\n  pop\n    /* \"#utility.yul\":1918:2337   */\n  swap2\n  swap1\n  pop\n  jump\t// out\n    /* \"contracts/OrganizationRegistry.sol\":61:4522  contract OrganizationRegistry {... */\ntag_9:\n  dataSize(sub_0)\n  dup1\n  dataOffset(sub_0)\n  0x00\n  codecopy\n  0x00\n  return\nstop\n\nsub_0: assembly {\n        /* \"contracts/OrganizationRegistry.sol\":61:4522  contract OrganizationRegistry {... */\n      mstore(0x40, 0x80)\n      callvalue\n      dup1\n      iszero\n      tag_1\n      jumpi\n      revert(0x00, 0x00)\n    tag_1:\n      pop\n      jumpi(tag_2, lt(calldatasize, 0x04))\n      shr(0xe0, calldataload(0x00))\n      dup1\n      0xa239e33d\n      gt\n      tag_12\n      jumpi\n      dup1\n      0xa239e33d\n      eq\n      tag_7\n      jumpi\n      dup1\n      0xb6e8fbbd\n      eq\n      tag_8\n      jumpi\n      dup1\n      0xc9a49cd8\n      eq\n      tag_9\n      jumpi\n      dup1\n      0xe21fc185\n      eq\n      tag_10\n      jumpi\n      dup1\n      0xe792dd8a\n      eq\n      tag_11\n      jumpi\n      jump(tag_2)\n    tag_12:\n      dup1\n      0x3876681b\n      eq\n      tag_3\n      jumpi\n      dup1\n      0x4526f690\n      eq\n      tag_4\n      jumpi\n      dup1\n      0x78a13adf\n      eq\n      tag_5\n      jumpi\n      dup1\n      0x8bb7796a\n      eq\n      tag_6\n      jumpi\n    tag_2:\n      revert(0x00, 0x00)\n        /* \"contracts/OrganizationRegistry.sol\":3236:3424  function isActiveOrganization(uint256 orgId) external view returns (bool) {... */\n    tag_3:\n      tag_13\n      0x04\n      dup1\n      calldatasize\n      sub\n      dup2\n      add\n      swap1\n      tag_14\n      swap2\n      swap1\n      tag_15\n      jump\t// in\n    tag_14:\n      tag_16\n      jump\t// in\n    tag_13:\n      mload(0x40)\n      tag_17\n      swap2\n      swap1\n      tag_18\n      jump\t// in\n    tag_17:\n      mload(0x40)\n      dup1\n      swap2\n      sub\n      swap1\n      return\n        /* \"contracts/OrganizationRegistry.sol\":2715:3164  function getOrganization(... */\n    tag_4:\n      tag_19\n      0x04\n      dup1\n      calldatasize\n      sub\n      dup2\n      add\n      swap1\n      tag_20\n      swap2\n      swap1\n      tag_15\n      jump\t// in\n    tag_20:\n      tag_21\n      jump\t// in\n    tag_19:\n      mload(0x40)\n      tag_22\n      swap5\n      swap4\n      swap3\n      swap2\n      swap1\n      tag_23\n      jump\t// in\n    tag_22:\n      mload(0x40)\n      dup1\n      swap2\n      sub\n      swap1\n      return\n        /* \"contracts/OrganizationRegistry.sol\":3557:3683  function getOrgIdForAdmin(address adminAddr) external view returns (uint256) {... */\n    tag_5:\n      tag_24\n      0x04\n      dup1\n      calldatasize\n      sub\n      dup2\n      add\n      swap1\n      tag_25\n      swap2\n      swap1\n      tag_26\n      jump\t// in\n    tag_25:\n      tag_27\n      jump\t// in\n    tag_24:\n      mload(0x40)\n      tag_28\n      swap2\n      swap1\n      tag_29\n      jump\t// in\n    tag_28:\n      mload(0x40)\n      dup1\n      swap2\n      sub\n      swap1\n      return\n        /* \"contracts/OrganizationRegistry.sol\":2355:2644  function setOrgStatus(uint256 orgId, bool status) external onlySystemAdmin {... */\n    tag_6:\n      tag_30\n      0x04\n      dup1\n      calldatasize\n      sub\n      dup2\n      add\n      swap1\n      tag_31\n      swap2\n      swap1\n      tag_32\n      jump\t// in\n    tag_31:\n      tag_33\n      jump\t// in\n    tag_30:\n      stop\n        /* \"contracts/OrganizationRegistry.sol\":156:182  address public systemAdmin */\n    tag_7:\n      tag_34\n      tag_35\n      jump\t// in\n    tag_34:\n      mload(0x40)\n      tag_36\n      swap2\n      swap1\n      tag_37\n      jump\t// in\n    tag_36:\n      mload(0x40)\n      dup1\n      swap2\n      sub\n      swap1\n      return\n        /* \"contracts/OrganizationRegistry.sol\":3849:4519  function updateOrganizationAdmin(... */\n    tag_8:\n      tag_38\n      0x04\n      dup1\n      calldatasize\n      sub\n      dup2\n      add\n      swap1\n      tag_39\n      swap2\n      swap1\n      tag_40\n      jump\t// in\n    tag_39:\n      tag_41\n      jump\t// in\n    tag_38:\n      stop\n        /* \"contracts/OrganizationRegistry.sol\":1506:2296  function registerOrganization(... */\n    tag_9:\n      tag_42\n      0x04\n      dup1\n      calldatasize\n      sub\n      dup2\n      add\n      swap1\n      tag_43\n      swap2\n      swap1\n      tag_44\n      jump\t// in\n    tag_43:\n      tag_45\n      jump\t// in\n    tag_42:\n      mload(0x40)\n      tag_46\n      swap2\n      swap1\n      tag_29\n      jump\t// in\n    tag_46:\n      mload(0x40)\n      dup1\n      swap2\n      sub\n      swap1\n      return\n        /* \"contracts/OrganizationRegistry.sol\":583:630  mapping(address => uint256) public adminToOrgId */\n    tag_10:\n      tag_47\n      0x04\n      dup1\n      calldatasize\n      sub\n      dup2\n      add\n      swap1\n      tag_48\n      swap2\n      swap1\n      tag_26\n      jump\t// in\n    tag_48:\n      tag_49\n      jump\t// in\n    tag_47:\n      mload(0x40)\n      tag_50\n      swap2\n      swap1\n      tag_29\n      jump\t// in\n    tag_50:\n      mload(0x40)\n      dup1\n      swap2\n      sub\n      swap1\n      return\n        /* \"contracts/OrganizationRegistry.sol\":521:574  mapping(uint256 => Organization) public organizations */\n    tag_11:\n      tag_51\n      0x04\n      dup1\n      calldatasize\n      sub\n      dup2\n      add\n      swap1\n      tag_52\n      swap2\n      swap1\n      tag_15\n      jump\t// in\n    tag_52:\n      tag_53\n      jump\t// in\n    tag_51:\n      mload(0x40)\n      tag_54\n      swap6\n      swap5\n      swap4\n      swap3\n      swap2\n      swap1\n      tag_55\n      jump\t// in\n    tag_54:\n      mload(0x40)\n      dup1\n      swap2\n      sub\n      swap1\n      return\n        /* \"contracts/OrganizationRegistry.sol\":3236:3424  function isActiveOrganization(uint256 orgId) external view returns (bool) {... */\n    tag_16:\n        /* \"contracts/OrganizationRegistry.sol\":3304:3308  bool */\n      0x00\n        /* \"contracts/OrganizationRegistry.sol\":3321:3345  Organization storage org */\n      0x00\n        /* \"contracts/OrganizationRegistry.sol\":3348:3361  organizations */\n      0x02\n        /* \"contracts/OrganizationRegistry.sol\":3348:3368  organizations[orgId] */\n      0x00\n        /* \"contracts/OrganizationRegistry.sol\":3362:3367  orgId */\n      dup5\n        /* \"contracts/OrganizationRegistry.sol\":3348:3368  organizations[orgId] */\n      dup2\n      mstore\n      0x20\n      add\n      swap1\n      dup2\n      mstore\n      0x20\n      add\n      0x00\n      keccak256\n        /* \"contracts/OrganizationRegistry.sol\":3321:3368  Organization storage org = organizations[orgId] */\n      swap1\n      pop\n        /* \"contracts/OrganizationRegistry.sol\":3399:3400  0 */\n      0x00\n        /* \"contracts/OrganizationRegistry.sol\":3386:3389  org */\n      dup2\n        /* \"contracts/OrganizationRegistry.sol\":3386:3395  org.orgId */\n      0x00\n      add\n      sload\n        /* \"contracts/OrganizationRegistry.sol\":3386:3400  org.orgId != 0 */\n      eq\n      iszero\n        /* \"contracts/OrganizationRegistry.sol\":3386:3416  org.orgId != 0 && org.isActive */\n      dup1\n      iszero\n      tag_57\n      jumpi\n      pop\n        /* \"contracts/OrganizationRegistry.sol\":3404:3407  org */\n      dup1\n        /* \"contracts/OrganizationRegistry.sol\":3404:3416  org.isActive */\n      0x03\n      add\n      0x14\n      swap1\n      sload\n      swap1\n      0x0100\n      exp\n      swap1\n      div\n      0xff\n      and\n        /* \"contracts/OrganizationRegistry.sol\":3386:3416  org.orgId != 0 && org.isActive */\n    tag_57:\n        /* \"contracts/OrganizationRegistry.sol\":3379:3416  return org.orgId != 0 && org.isActive */\n      swap2\n      pop\n      pop\n        /* \"contracts/OrganizationRegistry.sol\":3236:3424  function isActiveOrganization(uint256 orgId) external view returns (bool) {... */\n      swap2\n      swap1\n      pop\n      jump\t// out\n        /* \"contracts/OrganizationRegistry.sol\":2715:3164  function getOrganization(... */\n    tag_21:\n        /* \"contracts/OrganizationRegistry.sol\":2835:2851  bytes32 hashName */\n      0x00\n        /* \"contracts/OrganizationRegistry.sol\":2866:2891  string memory countryCode */\n      0x60\n        /* \"contracts/OrganizationRegistry.sol\":2906:2919  address admin */\n      0x00\n        /* \"contracts/OrganizationRegistry.sol\":2934:2947  bool isActive */\n      0x00\n        /* \"contracts/OrganizationRegistry.sol\":2975:2999  Organization storage org */\n      0x00\n        /* \"contracts/OrganizationRegistry.sol\":3002:3015  organizations */\n      0x02\n        /* \"contracts/OrganizationRegistry.sol\":3002:3022  organizations[orgId] */\n      0x00\n        /* \"contracts/OrganizationRegistry.sol\":3016:3021  orgId */\n      dup8\n        /* \"contracts/OrganizationRegistry.sol\":3002:3022  organizations[orgId] */\n      dup2\n      mstore\n      0x20\n      add\n      swap1\n      dup2\n      mstore\n      0x20\n      add\n      0x00\n      keccak256\n        /* \"contracts/OrganizationRegistry.sol\":2975:3022  Organization storage org = organizations[orgId] */\n      swap1\n      pop\n        /* \"contracts/OrganizationRegistry.sol\":3054:3055  0 */\n      0x00\n        /* \"contracts/OrganizationRegistry.sol\":3041:3044  org */\n      dup2\n        /* \"contracts/OrganizationRegistry.sol\":3041:3050  org.orgId */\n      0x00\n      add\n      sload\n        /* \"contracts/OrganizationRegistry.sol\":3041:3055  org.orgId != 0 */\n      sub\n        /* \"contracts/OrganizationRegistry.sol\":3033:3080  require(org.orgId != 0, \"Unknown organization\") */\n      tag_59\n      jumpi\n      mload(0x40)\n      0x08c379a000000000000000000000000000000000000000000000000000000000\n      dup2\n      mstore\n      0x04\n      add\n      tag_60\n      swap1\n      tag_61\n      jump\t// in\n    tag_60:\n      mload(0x40)\n      dup1\n      swap2\n      sub\n      swap1\n      revert\n    tag_59:\n        /* \"contracts/OrganizationRegistry.sol\":3101:3104  org */\n      dup1\n        /* \"contracts/OrganizationRegistry.sol\":3101:3113  org.hashName */\n      0x01\n      add\n      sload\n        /* \"contracts/OrganizationRegistry.sol\":3115:3118  org */\n      dup2\n        /* \"contracts/OrganizationRegistry.sol\":3115:3130  org.countryCode */\n      0x02\n      add\n        /* \"contracts/OrganizationRegistry.sol\":3132:3135  org */\n      dup3\n        /* \"contracts/OrganizationRegistry.sol\":3132:3141  org.admin */\n      0x03\n      add\n      0x00\n      swap1\n      sload\n      swap1\n      0x0100\n      exp\n      swap1\n      div\n      0xffffffffffffffffffffffffffffffffffffffff\n      and\n        /* \"contracts/OrganizationRegistry.sol\":3143:3146  org */\n      dup4\n        /* \"contracts/OrganizationRegistry.sol\":3143:3155  org.isActive */\n      0x03\n      add\n      0x14\n      swap1\n      sload\n      swap1\n      0x0100\n      exp\n      swap1\n      div\n      0xff\n      and\n        /* \"contracts/OrganizationRegistry.sol\":3093:3156  return (org.hashName, org.countryCode, org.admin, org.isActive) */\n      dup3\n      dup1\n      sload\n      tag_62\n      swap1\n      tag_63\n      jump\t// in\n    tag_62:\n      dup1\n      0x1f\n      add\n      0x20\n      dup1\n      swap2\n      div\n      mul\n      0x20\n      add\n      mload(0x40)\n      swap1\n      dup2\n      add\n      0x40\n      mstore\n      dup1\n      swap3\n      swap2\n      swap1\n      dup2\n      dup2\n      mstore\n      0x20\n      add\n      dup3\n      dup1\n      sload\n      tag_64\n      swap1\n      tag_63\n      jump\t// in\n    tag_64:\n      dup1\n      iszero\n      tag_65\n      jumpi\n      dup1\n      0x1f\n      lt\n      tag_66\n      jumpi\n      0x0100\n      dup1\n      dup4\n      sload\n      div\n      mul\n      dup4\n      mstore\n      swap2\n      0x20\n      add\n      swap2\n      jump(tag_65)\n    tag_66:\n      dup3\n      add\n      swap2\n      swap1\n      0x00\n      mstore\n      keccak256(0x00, 0x20)\n      swap1\n    tag_67:\n      dup2\n      sload\n      dup2\n      mstore\n      swap1\n      0x01\n      add\n      swap1\n      0x20\n      add\n      dup1\n      dup4\n      gt\n      tag_67\n      jumpi\n      dup3\n      swap1\n      sub\n      0x1f\n      and\n      dup3\n      add\n      swap2\n    tag_65:\n      pop\n      pop\n      pop\n      pop\n      pop\n      swap3\n      pop\n      swap5\n      pop\n      swap5\n      pop\n      swap5\n      pop\n      swap5\n      pop\n      pop\n        /* \"contracts/OrganizationRegistry.sol\":2715:3164  function getOrganization(... */\n      swap2\n      swap4\n      pop\n      swap2\n      swap4\n      jump\t// out\n        /* \"contracts/OrganizationRegistry.sol\":3557:3683  function getOrgIdForAdmin(address adminAddr) external view returns (uint256) {... */\n    tag_27:\n        /* \"contracts/OrganizationRegistry.sol\":3625:3632  uint256 */\n      0x00\n        /* \"contracts/OrganizationRegistry.sol\":3652:3664  adminToOrgId */\n      0x03\n        /* \"contracts/OrganizationRegistry.sol\":3652:3675  adminToOrgId[adminAddr] */\n      0x00\n        /* \"contracts/OrganizationRegistry.sol\":3665:3674  adminAddr */\n      dup4\n        /* \"contracts/OrganizationRegistry.sol\":3652:3675  adminToOrgId[adminAddr] */\n      0xffffffffffffffffffffffffffffffffffffffff\n      and\n      0xffffffffffffffffffffffffffffffffffffffff\n      and\n      dup2\n      mstore\n      0x20\n      add\n      swap1\n      dup2\n      mstore\n      0x20\n      add\n      0x00\n      keccak256\n      sload\n        /* \"contracts/OrganizationRegistry.sol\":3645:3675  return adminToOrgId[adminAddr] */\n      swap1\n      pop\n        /* \"contracts/OrganizationRegistry.sol\":3557:3683  function getOrgIdForAdmin(address adminAddr) external view returns (uint256) {... */\n      swap2\n      swap1\n      pop\n      jump\t// out\n        /* \"contracts/OrganizationRegistry.sol\":2355:2644  function setOrgStatus(uint256 orgId, bool status) external onlySystemAdmin {... */\n    tag_33:\n        /* \"contracts/OrganizationRegistry.sol\":1154:1165  systemAdmin */\n      0x00\n      0x00\n      swap1\n      sload\n      swap1\n      0x0100\n      exp\n      swap1\n      div\n      0xffffffffffffffffffffffffffffffffffffffff\n      and\n        /* \"contracts/OrganizationRegistry.sol\":1140:1165  msg.sender == systemAdmin */\n      0xffffffffffffffffffffffffffffffffffffffff\n      and\n        /* \"contracts/OrganizationRegistry.sol\":1140:1150  msg.sender */\n      caller\n        /* \"contracts/OrganizationRegistry.sol\":1140:1165  msg.sender == systemAdmin */\n      0xffffffffffffffffffffffffffffffffffffffff\n      and\n      eq\n        /* \"contracts/OrganizationRegistry.sol\":1132:1187  require(msg.sender == systemAdmin, \"Only system admin\") */\n      tag_70\n      jumpi\n      mload(0x40)\n      0x08c379a000000000000000000000000000000000000000000000000000000000\n      dup2\n      mstore\n      0x04\n      add\n      tag_71\n      swap1\n      tag_72\n      jump\t// in\n    tag_71:\n      mload(0x40)\n      dup1\n      swap2\n      sub\n      swap1\n      revert\n    tag_70:\n        /* \"contracts/OrganizationRegistry.sol\":2441:2465  Organization storage org */\n      0x00\n        /* \"contracts/OrganizationRegistry.sol\":2468:2481  organizations */\n      0x02\n        /* \"contracts/OrganizationRegistry.sol\":2468:2488  organizations[orgId] */\n      0x00\n        /* \"contracts/OrganizationRegistry.sol\":2482:2487  orgId */\n      dup5\n        /* \"contracts/OrganizationRegistry.sol\":2468:2488  organizations[orgId] */\n      dup2\n      mstore\n      0x20\n      add\n      swap1\n      dup2\n      mstore\n      0x20\n      add\n      0x00\n      keccak256\n        /* \"contracts/OrganizationRegistry.sol\":2441:2488  Organization storage org = organizations[orgId] */\n      swap1\n      pop\n        /* \"contracts/OrganizationRegistry.sol\":2520:2521  0 */\n      0x00\n        /* \"contracts/OrganizationRegistry.sol\":2507:2510  org */\n      dup2\n        /* \"contracts/OrganizationRegistry.sol\":2507:2516  org.orgId */\n      0x00\n      add\n      sload\n        /* \"contracts/OrganizationRegistry.sol\":2507:2521  org.orgId != 0 */\n      sub\n        /* \"contracts/OrganizationRegistry.sol\":2499:2546  require(org.orgId != 0, \"Unknown organization\") */\n      tag_74\n      jumpi\n      mload(0x40)\n      0x08c379a000000000000000000000000000000000000000000000000000000000\n      dup2\n      mstore\n      0x04\n      add\n      tag_75\n      swap1\n      tag_61\n      jump\t// in\n    tag_75:\n      mload(0x40)\n      dup1\n      swap2\n      sub\n      swap1\n      revert\n    tag_74:\n        /* \"contracts/OrganizationRegistry.sol\":2574:2580  status */\n      dup2\n        /* \"contracts/OrganizationRegistry.sol\":2559:2562  org */\n      dup2\n        /* \"contracts/OrganizationRegistry.sol\":2559:2571  org.isActive */\n      0x03\n      add\n      0x14\n        /* \"contracts/OrganizationRegistry.sol\":2559:2580  org.isActive = status */\n      0x0100\n      exp\n      dup2\n      sload\n      dup2\n      0xff\n      mul\n      not\n      and\n      swap1\n      dup4\n      iszero\n      iszero\n      mul\n      or\n      swap1\n      sstore\n      pop\n        /* \"contracts/OrganizationRegistry.sol\":2622:2627  orgId */\n      dup3\n        /* \"contracts/OrganizationRegistry.sol\":2596:2636  OrganizationStatusUpdated(orgId, status) */\n      0xd7f8cdc314decf9909736ed5fd160baf345e0a3e07d4da506f3983ee2a66056c\n        /* \"contracts/OrganizationRegistry.sol\":2629:2635  status */\n      dup4\n        /* \"contracts/OrganizationRegistry.sol\":2596:2636  OrganizationStatusUpdated(orgId, status) */\n      mload(0x40)\n      tag_76\n      swap2\n      swap1\n      tag_18\n      jump\t// in\n    tag_76:\n      mload(0x40)\n      dup1\n      swap2\n      sub\n      swap1\n      log2\n        /* \"contracts/OrganizationRegistry.sol\":2430:2644  {... */\n      pop\n        /* \"contracts/OrganizationRegistry.sol\":2355:2644  function setOrgStatus(uint256 orgId, bool status) external onlySystemAdmin {... */\n      pop\n      pop\n      jump\t// out\n        /* \"contracts/OrganizationRegistry.sol\":156:182  address public systemAdmin */\n    tag_35:\n      0x00\n      0x00\n      swap1\n      sload\n      swap1\n      0x0100\n      exp\n      swap1\n      div\n      0xffffffffffffffffffffffffffffffffffffffff\n      and\n      dup2\n      jump\t// out\n        /* \"contracts/OrganizationRegistry.sol\":3849:4519  function updateOrganizationAdmin(... */\n    tag_41:\n        /* \"contracts/OrganizationRegistry.sol\":1154:1165  systemAdmin */\n      0x00\n      0x00\n      swap1\n      sload\n      swap1\n      0x0100\n      exp\n      swap1\n      div\n      0xffffffffffffffffffffffffffffffffffffffff\n      and\n        /* \"contracts/OrganizationRegistry.sol\":1140:1165  msg.sender == systemAdmin */\n      0xffffffffffffffffffffffffffffffffffffffff\n      and\n        /* \"contracts/OrganizationRegistry.sol\":1140:1150  msg.sender */\n      caller\n        /* \"contracts/OrganizationRegistry.sol\":1140:1165  msg.sender == systemAdmin */\n      0xffffffffffffffffffffffffffffffffffffffff\n      and\n      eq\n        /* \"contracts/OrganizationRegistry.sol\":1132:1187  require(msg.sender == systemAdmin, \"Only system admin\") */\n      tag_78\n      jumpi\n      mload(0x40)\n      0x08c379a000000000000000000000000000000000000000000000000000000000\n      dup2\n      mstore\n      0x04\n      add\n      tag_79\n      swap1\n      tag_72\n      jump\t// in\n    tag_79:\n      mload(0x40)\n      dup1\n      swap2\n      sub\n      swap1\n      revert\n    tag_78:\n        /* \"contracts/OrganizationRegistry.sol\":4004:4005  0 */\n      0x00\n        /* \"contracts/OrganizationRegistry.sol\":3984:4006  newAdmin != address(0) */\n      0xffffffffffffffffffffffffffffffffffffffff\n      and\n        /* \"contracts/OrganizationRegistry.sol\":3984:3992  newAdmin */\n      dup2\n        /* \"contracts/OrganizationRegistry.sol\":3984:4006  newAdmin != address(0) */\n      0xffffffffffffffffffffffffffffffffffffffff\n      and\n      sub\n        /* \"contracts/OrganizationRegistry.sol\":3976:4028  require(newAdmin != address(0), \"Invalid new admin\") */\n      tag_81\n      jumpi\n      mload(0x40)\n      0x08c379a000000000000000000000000000000000000000000000000000000000\n      dup2\n      mstore\n      0x04\n      add\n      tag_82\n      swap1\n      tag_83\n      jump\t// in\n    tag_82:\n      mload(0x40)\n      dup1\n      swap2\n      sub\n      swap1\n      revert\n    tag_81:\n        /* \"contracts/OrganizationRegistry.sol\":4041:4065  Organization storage org */\n      0x00\n        /* \"contracts/OrganizationRegistry.sol\":4068:4081  organizations */\n      0x02\n        /* \"contracts/OrganizationRegistry.sol\":4068:4088  organizations[orgId] */\n      0x00\n        /* \"contracts/OrganizationRegistry.sol\":4082:4087  orgId */\n      dup5\n        /* \"contracts/OrganizationRegistry.sol\":4068:4088  organizations[orgId] */\n      dup2\n      mstore\n      0x20\n      add\n      swap1\n      dup2\n      mstore\n      0x20\n      add\n      0x00\n      keccak256\n        /* \"contracts/OrganizationRegistry.sol\":4041:4088  Organization storage org = organizations[orgId] */\n      swap1\n      pop\n        /* \"contracts/OrganizationRegistry.sol\":4120:4121  0 */\n      0x00\n        /* \"contracts/OrganizationRegistry.sol\":4107:4110  org */\n      dup2\n        /* \"contracts/OrganizationRegistry.sol\":4107:4116  org.orgId */\n      0x00\n      add\n      sload\n        /* \"contracts/OrganizationRegistry.sol\":4107:4121  org.orgId != 0 */\n      sub\n        /* \"contracts/OrganizationRegistry.sol\":4099:4146  require(org.orgId != 0, \"Unknown organization\") */\n      tag_84\n      jumpi\n      mload(0x40)\n      0x08c379a000000000000000000000000000000000000000000000000000000000\n      dup2\n      mstore\n      0x04\n      add\n      tag_85\n      swap1\n      tag_61\n      jump\t// in\n    tag_85:\n      mload(0x40)\n      dup1\n      swap2\n      sub\n      swap1\n      revert\n    tag_84:\n        /* \"contracts/OrganizationRegistry.sol\":4221:4237  address oldAdmin */\n      0x00\n        /* \"contracts/OrganizationRegistry.sol\":4240:4243  org */\n      dup2\n        /* \"contracts/OrganizationRegistry.sol\":4240:4249  org.admin */\n      0x03\n      add\n      0x00\n      swap1\n      sload\n      swap1\n      0x0100\n      exp\n      swap1\n      div\n      0xffffffffffffffffffffffffffffffffffffffff\n      and\n        /* \"contracts/OrganizationRegistry.sol\":4221:4249  address oldAdmin = org.admin */\n      swap1\n      pop\n        /* \"contracts/OrganizationRegistry.sol\":4284:4285  0 */\n      0x00\n        /* \"contracts/OrganizationRegistry.sol\":4264:4286  oldAdmin != address(0) */\n      0xffffffffffffffffffffffffffffffffffffffff\n      and\n        /* \"contracts/OrganizationRegistry.sol\":4264:4272  oldAdmin */\n      dup2\n        /* \"contracts/OrganizationRegistry.sol\":4264:4286  oldAdmin != address(0) */\n      0xffffffffffffffffffffffffffffffffffffffff\n      and\n      eq\n        /* \"contracts/OrganizationRegistry.sol\":4260:4341  if (oldAdmin != address(0)) {... */\n      tag_86\n      jumpi\n        /* \"contracts/OrganizationRegistry.sol\":4328:4329  0 */\n      0x00\n        /* \"contracts/OrganizationRegistry.sol\":4303:4315  adminToOrgId */\n      0x03\n        /* \"contracts/OrganizationRegistry.sol\":4303:4325  adminToOrgId[oldAdmin] */\n      0x00\n        /* \"contracts/OrganizationRegistry.sol\":4316:4324  oldAdmin */\n      dup4\n        /* \"contracts/OrganizationRegistry.sol\":4303:4325  adminToOrgId[oldAdmin] */\n      0xffffffffffffffffffffffffffffffffffffffff\n      and\n      0xffffffffffffffffffffffffffffffffffffffff\n      and\n      dup2\n      mstore\n      0x20\n      add\n      swap1\n      dup2\n      mstore\n      0x20\n      add\n      0x00\n      keccak256\n        /* \"contracts/OrganizationRegistry.sol\":4303:4329  adminToOrgId[oldAdmin] = 0 */\n      dup2\n      swap1\n      sstore\n      pop\n        /* \"contracts/OrganizationRegistry.sol\":4260:4341  if (oldAdmin != address(0)) {... */\n    tag_86:\n        /* \"contracts/OrganizationRegistry.sol\":4393:4401  newAdmin */\n      dup3\n        /* \"contracts/OrganizationRegistry.sol\":4381:4384  org */\n      dup3\n        /* \"contracts/OrganizationRegistry.sol\":4381:4390  org.admin */\n      0x03\n      add\n      0x00\n        /* \"contracts/OrganizationRegistry.sol\":4381:4401  org.admin = newAdmin */\n      0x0100\n      exp\n      dup2\n      sload\n      dup2\n      0xffffffffffffffffffffffffffffffffffffffff\n      mul\n      not\n      and\n      swap1\n      dup4\n      0xffffffffffffffffffffffffffffffffffffffff\n      and\n      mul\n      or\n      swap1\n      sstore\n      pop\n        /* \"contracts/OrganizationRegistry.sol\":4437:4442  orgId */\n      dup4\n        /* \"contracts/OrganizationRegistry.sol\":4412:4424  adminToOrgId */\n      0x03\n        /* \"contracts/OrganizationRegistry.sol\":4412:4434  adminToOrgId[newAdmin] */\n      0x00\n        /* \"contracts/OrganizationRegistry.sol\":4425:4433  newAdmin */\n      dup6\n        /* \"contracts/OrganizationRegistry.sol\":4412:4434  adminToOrgId[newAdmin] */\n      0xffffffffffffffffffffffffffffffffffffffff\n      and\n      0xffffffffffffffffffffffffffffffffffffffff\n      and\n      dup2\n      mstore\n      0x20\n      add\n      swap1\n      dup2\n      mstore\n      0x20\n      add\n      0x00\n      keccak256\n        /* \"contracts/OrganizationRegistry.sol\":4412:4442  adminToOrgId[newAdmin] = orgId */\n      dup2\n      swap1\n      sstore\n      pop\n        /* \"contracts/OrganizationRegistry.sol\":4502:4510  newAdmin */\n      dup3\n        /* \"contracts/OrganizationRegistry.sol\":4460:4511  OrganizationAdminUpdated(orgId, oldAdmin, newAdmin) */\n      0xffffffffffffffffffffffffffffffffffffffff\n      and\n        /* \"contracts/OrganizationRegistry.sol\":4492:4500  oldAdmin */\n      dup2\n        /* \"contracts/OrganizationRegistry.sol\":4460:4511  OrganizationAdminUpdated(orgId, oldAdmin, newAdmin) */\n      0xffffffffffffffffffffffffffffffffffffffff\n      and\n        /* \"contracts/OrganizationRegistry.sol\":4485:4490  orgId */\n      dup6\n        /* \"contracts/OrganizationRegistry.sol\":4460:4511  OrganizationAdminUpdated(orgId, oldAdmin, newAdmin) */\n      0x55113a3eec51c2635110f897a667a04457f92be821cdb19bfb549ddb0f30dabf\n      mload(0x40)\n      mload(0x40)\n      dup1\n      swap2\n      sub\n      swap1\n      log4\n        /* \"contracts/OrganizationRegistry.sol\":3965:4519  {... */\n      pop\n      pop\n        /* \"contracts/OrganizationRegistry.sol\":3849:4519  function updateOrganizationAdmin(... */\n      pop\n      pop\n      jump\t// out\n        /* \"contracts/OrganizationRegistry.sol\":1506:2296  function registerOrganization(... */\n    tag_45:\n        /* \"contracts/OrganizationRegistry.sol\":1670:1683  uint256 orgId */\n      0x00\n        /* \"contracts/OrganizationRegistry.sol\":1154:1165  systemAdmin */\n      0x00\n      0x00\n      swap1\n      sload\n      swap1\n      0x0100\n      exp\n      swap1\n      div\n      0xffffffffffffffffffffffffffffffffffffffff\n      and\n        /* \"contracts/OrganizationRegistry.sol\":1140:1165  msg.sender == systemAdmin */\n      0xffffffffffffffffffffffffffffffffffffffff\n      and\n        /* \"contracts/OrganizationRegistry.sol\":1140:1150  msg.sender */\n      caller\n        /* \"contracts/OrganizationRegistry.sol\":1140:1165  msg.sender == systemAdmin */\n      0xffffffffffffffffffffffffffffffffffffffff\n      and\n      eq\n        /* \"contracts/OrganizationRegistry.sol\":1132:1187  require(msg.sender == systemAdmin, \"Only system admin\") */\n      tag_88\n      jumpi\n      mload(0x40)\n      0x08c379a000000000000000000000000000000000000000000000000000000000\n      dup2\n      mstore\n      0x04\n      add\n      tag_89\n      swap1\n      tag_72\n      jump\t// in\n    tag_89:\n      mload(0x40)\n      dup1\n      swap2\n      sub\n      swap1\n      revert\n    tag_88:\n        /* \"contracts/OrganizationRegistry.sol\":1724:1725  0 */\n      0x00\n        /* \"contracts/OrganizationRegistry.sol\":1716:1726  bytes32(0) */\n      0x00\n      shl\n        /* \"contracts/OrganizationRegistry.sol\":1704:1712  hashName */\n      dup6\n        /* \"contracts/OrganizationRegistry.sol\":1704:1726  hashName != bytes32(0) */\n      sub\n        /* \"contracts/OrganizationRegistry.sol\":1696:1746  require(hashName != bytes32(0), \"Empty name hash\") */\n      tag_91\n      jumpi\n      mload(0x40)\n      0x08c379a000000000000000000000000000000000000000000000000000000000\n      dup2\n      mstore\n      0x04\n      add\n      tag_92\n      swap1\n      tag_93\n      jump\t// in\n    tag_92:\n      mload(0x40)\n      dup1\n      swap2\n      sub\n      swap1\n      revert\n    tag_91:\n        /* \"contracts/OrganizationRegistry.sol\":1786:1787  0 */\n      0x00\n        /* \"contracts/OrganizationRegistry.sol\":1765:1788  adminAddr != address(0) */\n      0xffffffffffffffffffffffffffffffffffffffff\n      and\n        /* \"contracts/OrganizationRegistry.sol\":1765:1774  adminAddr */\n      dup3\n        /* \"contracts/OrganizationRegistry.sol\":1765:1788  adminAddr != address(0) */\n      0xffffffffffffffffffffffffffffffffffffffff\n      and\n      sub\n        /* \"contracts/OrganizationRegistry.sol\":1757:1814  require(adminAddr != address(0), \"Invalid admin address\") */\n      tag_94\n      jumpi\n      mload(0x40)\n      0x08c379a000000000000000000000000000000000000000000000000000000000\n      dup2\n      mstore\n      0x04\n      add\n      tag_95\n      swap1\n      tag_96\n      jump\t// in\n    tag_95:\n      mload(0x40)\n      dup1\n      swap2\n      sub\n      swap1\n      revert\n    tag_94:\n        /* \"contracts/OrganizationRegistry.sol\":1860:1861  0 */\n      0x00\n        /* \"contracts/OrganizationRegistry.sol\":1833:1845  adminToOrgId */\n      0x03\n        /* \"contracts/OrganizationRegistry.sol\":1833:1856  adminToOrgId[adminAddr] */\n      0x00\n        /* \"contracts/OrganizationRegistry.sol\":1846:1855  adminAddr */\n      dup5\n        /* \"contracts/OrganizationRegistry.sol\":1833:1856  adminToOrgId[adminAddr] */\n      0xffffffffffffffffffffffffffffffffffffffff\n      and\n      0xffffffffffffffffffffffffffffffffffffffff\n      and\n      dup2\n      mstore\n      0x20\n      add\n      swap1\n      dup2\n      mstore\n      0x20\n      add\n      0x00\n      keccak256\n      sload\n        /* \"contracts/OrganizationRegistry.sol\":1833:1861  adminToOrgId[adminAddr] == 0 */\n      eq\n        /* \"contracts/OrganizationRegistry.sol\":1825:1886  require(adminToOrgId[adminAddr] == 0, \"Admin already linked\") */\n      tag_97\n      jumpi\n      mload(0x40)\n      0x08c379a000000000000000000000000000000000000000000000000000000000\n      dup2\n      mstore\n      0x04\n      add\n      tag_98\n      swap1\n      tag_99\n      jump\t// in\n    tag_98:\n      mload(0x40)\n      dup1\n      swap2\n      sub\n      swap1\n      revert\n    tag_97:\n        /* \"contracts/OrganizationRegistry.sol\":1913:1914  1 */\n      0x01\n        /* \"contracts/OrganizationRegistry.sol\":1899:1909  orgCounter */\n      dup1\n      0x00\n        /* \"contracts/OrganizationRegistry.sol\":1899:1914  orgCounter += 1 */\n      dup3\n      dup3\n      sload\n      tag_100\n      swap2\n      swap1\n      tag_101\n      jump\t// in\n    tag_100:\n      swap3\n      pop\n      pop\n      dup2\n      swap1\n      sstore\n      pop\n        /* \"contracts/OrganizationRegistry.sol\":1933:1943  orgCounter */\n      sload(0x01)\n        /* \"contracts/OrganizationRegistry.sol\":1925:1943  orgId = orgCounter */\n      swap1\n      pop\n        /* \"contracts/OrganizationRegistry.sol\":1979:2163  Organization({... */\n      mload(0x40)\n      dup1\n      0xa0\n      add\n      0x40\n      mstore\n      dup1\n        /* \"contracts/OrganizationRegistry.sol\":2014:2019  orgId */\n      dup3\n        /* \"contracts/OrganizationRegistry.sol\":1979:2163  Organization({... */\n      dup2\n      mstore\n      0x20\n      add\n        /* \"contracts/OrganizationRegistry.sol\":2044:2052  hashName */\n      dup7\n        /* \"contracts/OrganizationRegistry.sol\":1979:2163  Organization({... */\n      dup2\n      mstore\n      0x20\n      add\n        /* \"contracts/OrganizationRegistry.sol\":2080:2091  countryCode */\n      dup6\n      dup6\n        /* \"contracts/OrganizationRegistry.sol\":1979:2163  Organization({... */\n      dup1\n      dup1\n      0x1f\n      add\n      0x20\n      dup1\n      swap2\n      div\n      mul\n      0x20\n      add\n      mload(0x40)\n      swap1\n      dup2\n      add\n      0x40\n      mstore\n      dup1\n      swap4\n      swap3\n      swap2\n      swap1\n      dup2\n      dup2\n      mstore\n      0x20\n      add\n      dup4\n      dup4\n      dup1\n      dup3\n      dup5\n      calldatacopy\n      0x00\n      dup2\n      dup5\n      add\n      mstore\n      not(0x1f)\n      0x1f\n      dup3\n      add\n      and\n      swap1\n      pop\n      dup1\n      dup4\n      add\n      swap3\n      pop\n      pop\n      pop\n      pop\n      pop\n      pop\n      pop\n      dup2\n      mstore\n      0x20\n      add\n        /* \"contracts/OrganizationRegistry.sol\":2113:2122  adminAddr */\n      dup4\n        /* \"contracts/OrganizationRegistry.sol\":1979:2163  Organization({... */\n      0xffffffffffffffffffffffffffffffffffffffff\n      and\n      dup2\n      mstore\n      0x20\n      add\n        /* \"contracts/OrganizationRegistry.sol\":2147:2151  true */\n      0x01\n        /* \"contracts/OrganizationRegistry.sol\":1979:2163  Organization({... */\n      iszero\n      iszero\n      dup2\n      mstore\n      pop\n        /* \"contracts/OrganizationRegistry.sol\":1956:1969  organizations */\n      0x02\n        /* \"contracts/OrganizationRegistry.sol\":1956:1976  organizations[orgId] */\n      0x00\n        /* \"contracts/OrganizationRegistry.sol\":1970:1975  orgId */\n      dup4\n        /* \"contracts/OrganizationRegistry.sol\":1956:1976  organizations[orgId] */\n      dup2\n      mstore\n      0x20\n      add\n      swap1\n      dup2\n      mstore\n      0x20\n      add\n      0x00\n      keccak256\n        /* \"contracts/OrganizationRegistry.sol\":1956:2163  organizations[orgId] = Organization({... */\n      0x00\n      dup3\n      add\n      mload\n      dup2\n      0x00\n      add\n      sstore\n      0x20\n      dup3\n      add\n      mload\n      dup2\n      0x01\n      add\n      sstore\n      0x40\n      dup3\n      add\n      mload\n      dup2\n      0x02\n      add\n      swap1\n      dup2\n      tag_102\n      swap2\n      swap1\n      tag_103\n      jump\t// in\n    tag_102:\n      pop\n      0x60\n      dup3\n      add\n      mload\n      dup2\n      0x03\n      add\n      exp(0x0100, 0x00)\n      dup2\n      sload\n      dup2\n      0xffffffffffffffffffffffffffffffffffffffff\n      mul\n      not\n      and\n      swap1\n      dup4\n      0xffffffffffffffffffffffffffffffffffffffff\n      and\n      mul\n      or\n      swap1\n      sstore\n      pop\n      0x80\n      dup3\n      add\n      mload\n      dup2\n      0x03\n      add\n      exp(0x0100, 0x14)\n      dup2\n      sload\n      dup2\n      0xff\n      mul\n      not\n      and\n      swap1\n      dup4\n      iszero\n      iszero\n      mul\n      or\n      swap1\n      sstore\n      pop\n      swap1\n      pop\n      pop\n        /* \"contracts/OrganizationRegistry.sol\":2202:2207  orgId */\n      dup1\n        /* \"contracts/OrganizationRegistry.sol\":2176:2188  adminToOrgId */\n      0x03\n        /* \"contracts/OrganizationRegistry.sol\":2176:2199  adminToOrgId[adminAddr] */\n      0x00\n        /* \"contracts/OrganizationRegistry.sol\":2189:2198  adminAddr */\n      dup5\n        /* \"contracts/OrganizationRegistry.sol\":2176:2199  adminToOrgId[adminAddr] */\n      0xffffffffffffffffffffffffffffffffffffffff\n      and\n      0xffffffffffffffffffffffffffffffffffffffff\n      and\n      dup2\n      mstore\n      0x20\n      add\n      swap1\n      dup2\n      mstore\n      0x20\n      add\n      0x00\n      keccak256\n        /* \"contracts/OrganizationRegistry.sol\":2176:2207  adminToOrgId[adminAddr] = orgId */\n      dup2\n      swap1\n      sstore\n      pop\n        /* \"contracts/OrganizationRegistry.sol\":2278:2287  adminAddr */\n      dup2\n        /* \"contracts/OrganizationRegistry.sol\":2225:2288  OrganizationRegistered(orgId, hashName, countryCode, adminAddr) */\n      0xffffffffffffffffffffffffffffffffffffffff\n      and\n        /* \"contracts/OrganizationRegistry.sol\":2255:2263  hashName */\n      dup6\n        /* \"contracts/OrganizationRegistry.sol\":2248:2253  orgId */\n      dup3\n        /* \"contracts/OrganizationRegistry.sol\":2225:2288  OrganizationRegistered(orgId, hashName, countryCode, adminAddr) */\n      0x6dc58a50bd1af85f2a33a2e94ac0a5177a3c092ed29cfbb353c1ec0b95f92710\n        /* \"contracts/OrganizationRegistry.sol\":2265:2276  countryCode */\n      dup8\n      dup8\n        /* \"contracts/OrganizationRegistry.sol\":2225:2288  OrganizationRegistered(orgId, hashName, countryCode, adminAddr) */\n      mload(0x40)\n      tag_104\n      swap3\n      swap2\n      swap1\n      tag_105\n      jump\t// in\n    tag_104:\n      mload(0x40)\n      dup1\n      swap2\n      sub\n      swap1\n      log4\n        /* \"contracts/OrganizationRegistry.sol\":1506:2296  function registerOrganization(... */\n      swap5\n      swap4\n      pop\n      pop\n      pop\n      pop\n      jump\t// out\n        /* \"contracts/OrganizationRegistry.sol\":583:630  mapping(address => uint256) public adminToOrgId */\n    tag_49:\n      mstore(0x20, 0x03)\n      dup1\n      0x00\n      mstore\n      keccak256(0x00, 0x40)\n      0x00\n      swap2\n      pop\n      swap1\n      pop\n      sload\n      dup2\n      jump\t// out\n        /* \"contracts/OrganizationRegistry.sol\":521:574  mapping(uint256 => Organization) public organizations */\n    tag_53:\n      mstore(0x20, 0x02)\n      dup1\n      0x00\n      mstore\n      keccak256(0x00, 0x40)\n      0x00\n      swap2\n      pop\n      swap1\n      pop\n      dup1\n      0x00\n      add\n      sload\n      swap1\n      dup1\n      0x01\n      add\n      sload\n      swap1\n      dup1\n      0x02\n      add\n      dup1\n      sload\n      tag_106\n      swap1\n      tag_63\n      jump\t// in\n    tag_106:\n      dup1\n      0x1f\n      add\n      0x20\n      dup1\n      swap2\n      div\n      mul\n      0x20\n      add\n      mload(0x40)\n      swap1\n      dup2\n      add\n      0x40\n      mstore\n      dup1\n      swap3\n      swap2\n      swap1\n      dup2\n      dup2\n      mstore\n      0x20\n      add\n      dup3\n      dup1\n      sload\n      tag_107\n      swap1\n      tag_63\n      jump\t// in\n    tag_107:\n      dup1\n      iszero\n      tag_108\n      jumpi\n      dup1\n      0x1f\n      lt\n      tag_109\n      jumpi\n      0x0100\n      dup1\n      dup4\n      sload\n      div\n      mul\n      dup4\n      mstore\n      swap2\n      0x20\n      add\n      swap2\n      jump(tag_108)\n    tag_109:\n      dup3\n      add\n      swap2\n      swap1\n      0x00\n      mstore\n      keccak256(0x00, 0x20)\n      swap1\n    tag_110:\n      dup2\n      sload\n      dup2\n      mstore\n      swap1\n      0x01\n      add\n      swap1\n      0x20\n      add\n      dup1\n      dup4\n      gt\n      tag_110\n      jumpi\n      dup3\n      swap1\n      sub\n      0x1f\n      and\n      dup3\n      add\n      swap2\n    tag_108:\n      pop\n      pop\n      pop\n      pop\n      pop\n      swap1\n      dup1\n      0x03\n      add\n      0x00\n      swap1\n      sload\n      swap1\n      0x0100\n      exp\n      swap1\n      div\n      0xffffffffffffffffffffffffffffffffffffffff\n      and\n      swap1\n      dup1\n      0x03\n      add\n      0x14\n      swap1\n      sload\n      swap1\n      0x0100\n      exp\n      swap1\n      div\n      0xff\n      and\n      swap1\n      pop\n      dup6\n      jump\t// out\n        /* \"#utility.yul\":88:205   */\n    tag_112:\n        /* \"#utility.yul\":197:198   */\n      0x00\n        /* \"#utility.yul\":194:195   */\n      0x00\n        /* \"#utility.yul\":187:199   */\n      revert\n        /* \"#utility.yul\":211:328   */\n    tag_113:\n        /* \"#utility.yul\":320:321   */\n      0x00\n        /* \"#utility.yul\":317:318   */\n      0x00\n        /* \"#utility.yul\":310:322   */\n      revert\n        /* \"#utility.yul\":334:411   */\n    tag_114:\n        /* \"#utility.yul\":371:378   */\n      0x00\n        /* \"#utility.yul\":400:405   */\n      dup2\n        /* \"#utility.yul\":389:405   */\n      swap1\n      pop\n        /* \"#utility.yul\":334:411   */\n      swap2\n      swap1\n      pop\n      jump\t// out\n        /* \"#utility.yul\":417:539   */\n    tag_115:\n        /* \"#utility.yul\":490:514   */\n      tag_178\n        /* \"#utility.yul\":508:513   */\n      dup2\n        /* \"#utility.yul\":490:514   */\n      tag_114\n      jump\t// in\n    tag_178:\n        /* \"#utility.yul\":483:488   */\n      dup2\n        /* \"#utility.yul\":480:515   */\n      eq\n        /* \"#utility.yul\":470:533   */\n      tag_179\n      jumpi\n        /* \"#utility.yul\":529:530   */\n      0x00\n        /* \"#utility.yul\":526:527   */\n      0x00\n        /* \"#utility.yul\":519:531   */\n      revert\n        /* \"#utility.yul\":470:533   */\n    tag_179:\n        /* \"#utility.yul\":417:539   */\n      pop\n      jump\t// out\n        /* \"#utility.yul\":545:684   */\n    tag_116:\n        /* \"#utility.yul\":591:596   */\n      0x00\n        /* \"#utility.yul\":629:635   */\n      dup2\n        /* \"#utility.yul\":616:636   */\n      calldataload\n        /* \"#utility.yul\":607:636   */\n      swap1\n      pop\n        /* \"#utility.yul\":645:678   */\n      tag_181\n        /* \"#utility.yul\":672:677   */\n      dup2\n        /* \"#utility.yul\":645:678   */\n      tag_115\n      jump\t// in\n    tag_181:\n        /* \"#utility.yul\":545:684   */\n      swap3\n      swap2\n      pop\n      pop\n      jump\t// out\n        /* \"#utility.yul\":690:1019   */\n    tag_15:\n        /* \"#utility.yul\":749:755   */\n      0x00\n        /* \"#utility.yul\":798:800   */\n      0x20\n        /* \"#utility.yul\":786:795   */\n      dup3\n        /* \"#utility.yul\":777:784   */\n      dup5\n        /* \"#utility.yul\":773:796   */\n      sub\n        /* \"#utility.yul\":769:801   */\n      slt\n        /* \"#utility.yul\":766:885   */\n      iszero\n      tag_183\n      jumpi\n        /* \"#utility.yul\":804:883   */\n      tag_184\n      tag_112\n      jump\t// in\n    tag_184:\n        /* \"#utility.yul\":766:885   */\n    tag_183:\n        /* \"#utility.yul\":924:925   */\n      0x00\n        /* \"#utility.yul\":949:1002   */\n      tag_185\n        /* \"#utility.yul\":994:1001   */\n      dup5\n        /* \"#utility.yul\":985:991   */\n      dup3\n        /* \"#utility.yul\":974:983   */\n      dup6\n        /* \"#utility.yul\":970:992   */\n      add\n        /* \"#utility.yul\":949:1002   */\n      tag_116\n      jump\t// in\n    tag_185:\n        /* \"#utility.yul\":939:1002   */\n      swap2\n      pop\n        /* \"#utility.yul\":895:1012   */\n      pop\n        /* \"#utility.yul\":690:1019   */\n      swap3\n      swap2\n      pop\n      pop\n      jump\t// out\n        /* \"#utility.yul\":1025:1115   */\n    tag_117:\n        /* \"#utility.yul\":1059:1066   */\n      0x00\n        /* \"#utility.yul\":1102:1107   */\n      dup2\n        /* \"#utility.yul\":1095:1108   */\n      iszero\n        /* \"#utility.yul\":1088:1109   */\n      iszero\n        /* \"#utility.yul\":1077:1109   */\n      swap1\n      pop\n        /* \"#utility.yul\":1025:1115   */\n      swap2\n      swap1\n      pop\n      jump\t// out\n        /* \"#utility.yul\":1121:1230   */\n    tag_118:\n        /* \"#utility.yul\":1202:1223   */\n      tag_188\n        /* \"#utility.yul\":1217:1222   */\n      dup2\n        /* \"#utility.yul\":1202:1223   */\n      tag_117\n      jump\t// in\n    tag_188:\n        /* \"#utility.yul\":1197:1200   */\n      dup3\n        /* \"#utility.yul\":1190:1224   */\n      mstore\n        /* \"#utility.yul\":1121:1230   */\n      pop\n      pop\n      jump\t// out\n        /* \"#utility.yul\":1236:1446   */\n    tag_18:\n        /* \"#utility.yul\":1323:1327   */\n      0x00\n        /* \"#utility.yul\":1361:1363   */\n      0x20\n        /* \"#utility.yul\":1350:1359   */\n      dup3\n        /* \"#utility.yul\":1346:1364   */\n      add\n        /* \"#utility.yul\":1338:1364   */\n      swap1\n      pop\n        /* \"#utility.yul\":1374:1439   */\n      tag_190\n        /* \"#utility.yul\":1436:1437   */\n      0x00\n        /* \"#utility.yul\":1425:1434   */\n      dup4\n        /* \"#utility.yul\":1421:1438   */\n      add\n        /* \"#utility.yul\":1412:1418   */\n      dup5\n        /* \"#utility.yul\":1374:1439   */\n      tag_118\n      jump\t// in\n    tag_190:\n        /* \"#utility.yul\":1236:1446   */\n      swap3\n      swap2\n      pop\n      pop\n      jump\t// out\n        /* \"#utility.yul\":1452:1529   */\n    tag_119:\n        /* \"#utility.yul\":1489:1496   */\n      0x00\n        /* \"#utility.yul\":1518:1523   */\n      dup2\n        /* \"#utility.yul\":1507:1523   */\n      swap1\n      pop\n        /* \"#utility.yul\":1452:1529   */\n      swap2\n      swap1\n      pop\n      jump\t// out\n        /* \"#utility.yul\":1535:1653   */\n    tag_120:\n        /* \"#utility.yul\":1622:1646   */\n      tag_193\n        /* \"#utility.yul\":1640:1645   */\n      dup2\n        /* \"#utility.yul\":1622:1646   */\n      tag_119\n      jump\t// in\n    tag_193:\n        /* \"#utility.yul\":1617:1620   */\n      dup3\n        /* \"#utility.yul\":1610:1647   */\n      mstore\n        /* \"#utility.yul\":1535:1653   */\n      pop\n      pop\n      jump\t// out\n        /* \"#utility.yul\":1659:1758   */\n    tag_121:\n        /* \"#utility.yul\":1711:1717   */\n      0x00\n        /* \"#utility.yul\":1745:1750   */\n      dup2\n        /* \"#utility.yul\":1739:1751   */\n      mload\n        /* \"#utility.yul\":1729:1751   */\n      swap1\n      pop\n        /* \"#utility.yul\":1659:1758   */\n      swap2\n      swap1\n      pop\n      jump\t// out\n        /* \"#utility.yul\":1764:1933   */\n    tag_122:\n        /* \"#utility.yul\":1848:1859   */\n      0x00\n        /* \"#utility.yul\":1882:1888   */\n      dup3\n        /* \"#utility.yul\":1877:1880   */\n      dup3\n        /* \"#utility.yul\":1870:1889   */\n      mstore\n        /* \"#utility.yul\":1922:1926   */\n      0x20\n        /* \"#utility.yul\":1917:1920   */\n      dup3\n        /* \"#utility.yul\":1913:1927   */\n      add\n        /* \"#utility.yul\":1898:1927   */\n      swap1\n      pop\n        /* \"#utility.yul\":1764:1933   */\n      swap3\n      swap2\n      pop\n      pop\n      jump\t// out\n        /* \"#utility.yul\":1939:2078   */\n    tag_123:\n        /* \"#utility.yul\":2028:2034   */\n      dup3\n        /* \"#utility.yul\":2023:2026   */\n      dup2\n        /* \"#utility.yul\":2018:2021   */\n      dup4\n        /* \"#utility.yul\":2012:2035   */\n      mcopy\n        /* \"#utility.yul\":2069:2070   */\n      0x00\n        /* \"#utility.yul\":2060:2066   */\n      dup4\n        /* \"#utility.yul\":2055:2058   */\n      dup4\n        /* \"#utility.yul\":2051:2067   */\n      add\n        /* \"#utility.yul\":2044:2071   */\n      mstore\n        /* \"#utility.yul\":1939:2078   */\n      pop\n      pop\n      pop\n      jump\t// out\n        /* \"#utility.yul\":2084:2186   */\n    tag_124:\n        /* \"#utility.yul\":2125:2131   */\n      0x00\n        /* \"#utility.yul\":2176:2178   */\n      0x1f\n        /* \"#utility.yul\":2172:2179   */\n      not\n        /* \"#utility.yul\":2167:2169   */\n      0x1f\n        /* \"#utility.yul\":2160:2165   */\n      dup4\n        /* \"#utility.yul\":2156:2170   */\n      add\n        /* \"#utility.yul\":2152:2180   */\n      and\n        /* \"#utility.yul\":2142:2180   */\n      swap1\n      pop\n        /* \"#utility.yul\":2084:2186   */\n      swap2\n      swap1\n      pop\n      jump\t// out\n        /* \"#utility.yul\":2192:2569   */\n    tag_125:\n        /* \"#utility.yul\":2280:2283   */\n      0x00\n        /* \"#utility.yul\":2308:2347   */\n      tag_199\n        /* \"#utility.yul\":2341:2346   */\n      dup3\n        /* \"#utility.yul\":2308:2347   */\n      tag_121\n      jump\t// in\n    tag_199:\n        /* \"#utility.yul\":2363:2434   */\n      tag_200\n        /* \"#utility.yul\":2427:2433   */\n      dup2\n        /* \"#utility.yul\":2422:2425   */\n      dup6\n        /* \"#utility.yul\":2363:2434   */\n      tag_122\n      jump\t// in\n    tag_200:\n        /* \"#utility.yul\":2356:2434   */\n      swap4\n      pop\n        /* \"#utility.yul\":2443:2508   */\n      tag_201\n        /* \"#utility.yul\":2501:2507   */\n      dup2\n        /* \"#utility.yul\":2496:2499   */\n      dup6\n        /* \"#utility.yul\":2489:2493   */\n      0x20\n        /* \"#utility.yul\":2482:2487   */\n      dup7\n        /* \"#utility.yul\":2478:2494   */\n      add\n        /* \"#utility.yul\":2443:2508   */\n      tag_123\n      jump\t// in\n    tag_201:\n        /* \"#utility.yul\":2533:2562   */\n      tag_202\n        /* \"#utility.yul\":2555:2561   */\n      dup2\n        /* \"#utility.yul\":2533:2562   */\n      tag_124\n      jump\t// in\n    tag_202:\n        /* \"#utility.yul\":2528:2531   */\n      dup5\n        /* \"#utility.yul\":2524:2563   */\n      add\n        /* \"#utility.yul\":2517:2563   */\n      swap2\n      pop\n        /* \"#utility.yul\":2284:2569   */\n      pop\n        /* \"#utility.yul\":2192:2569   */\n      swap3\n      swap2\n      pop\n      pop\n      jump\t// out\n        /* \"#utility.yul\":2575:2701   */\n    tag_126:\n        /* \"#utility.yul\":2612:2619   */\n      0x00\n        /* \"#utility.yul\":2652:2694   */\n      0xffffffffffffffffffffffffffffffffffffffff\n        /* \"#utility.yul\":2645:2650   */\n      dup3\n        /* \"#utility.yul\":2641:2695   */\n      and\n        /* \"#utility.yul\":2630:2695   */\n      swap1\n      pop\n        /* \"#utility.yul\":2575:2701   */\n      swap2\n      swap1\n      pop\n      jump\t// out\n        /* \"#utility.yul\":2707:2803   */\n    tag_127:\n        /* \"#utility.yul\":2744:2751   */\n      0x00\n        /* \"#utility.yul\":2773:2797   */\n      tag_205\n        /* \"#utility.yul\":2791:2796   */\n      dup3\n        /* \"#utility.yul\":2773:2797   */\n      tag_126\n      jump\t// in\n    tag_205:\n        /* \"#utility.yul\":2762:2797   */\n      swap1\n      pop\n        /* \"#utility.yul\":2707:2803   */\n      swap2\n      swap1\n      pop\n      jump\t// out\n        /* \"#utility.yul\":2809:2927   */\n    tag_128:\n        /* \"#utility.yul\":2896:2920   */\n      tag_207\n        /* \"#utility.yul\":2914:2919   */\n      dup2\n        /* \"#utility.yul\":2896:2920   */\n      tag_127\n      jump\t// in\n    tag_207:\n        /* \"#utility.yul\":2891:2894   */\n      dup3\n        /* \"#utility.yul\":2884:2921   */\n      mstore\n        /* \"#utility.yul\":2809:2927   */\n      pop\n      pop\n      jump\t// out\n        /* \"#utility.yul\":2933:3565   */\n    tag_23:\n        /* \"#utility.yul\":3124:3128   */\n      0x00\n        /* \"#utility.yul\":3162:3165   */\n      0x80\n        /* \"#utility.yul\":3151:3160   */\n      dup3\n        /* \"#utility.yul\":3147:3166   */\n      add\n        /* \"#utility.yul\":3139:3166   */\n      swap1\n      pop\n        /* \"#utility.yul\":3176:3247   */\n      tag_209\n        /* \"#utility.yul\":3244:3245   */\n      0x00\n        /* \"#utility.yul\":3233:3242   */\n      dup4\n        /* \"#utility.yul\":3229:3246   */\n      add\n        /* \"#utility.yul\":3220:3226   */\n      dup8\n        /* \"#utility.yul\":3176:3247   */\n      tag_120\n      jump\t// in\n    tag_209:\n        /* \"#utility.yul\":3294:3303   */\n      dup2\n        /* \"#utility.yul\":3288:3292   */\n      dup2\n        /* \"#utility.yul\":3284:3304   */\n      sub\n        /* \"#utility.yul\":3279:3281   */\n      0x20\n        /* \"#utility.yul\":3268:3277   */\n      dup4\n        /* \"#utility.yul\":3264:3282   */\n      add\n        /* \"#utility.yul\":3257:3305   */\n      mstore\n        /* \"#utility.yul\":3322:3400   */\n      tag_210\n        /* \"#utility.yul\":3395:3399   */\n      dup2\n        /* \"#utility.yul\":3386:3392   */\n      dup7\n        /* \"#utility.yul\":3322:3400   */\n      tag_125\n      jump\t// in\n    tag_210:\n        /* \"#utility.yul\":3314:3400   */\n      swap1\n      pop\n        /* \"#utility.yul\":3410:3482   */\n      tag_211\n        /* \"#utility.yul\":3478:3480   */\n      0x40\n        /* \"#utility.yul\":3467:3476   */\n      dup4\n        /* \"#utility.yul\":3463:3481   */\n      add\n        /* \"#utility.yul\":3454:3460   */\n      dup6\n        /* \"#utility.yul\":3410:3482   */\n      tag_128\n      jump\t// in\n    tag_211:\n        /* \"#utility.yul\":3492:3558   */\n      tag_212\n        /* \"#utility.yul\":3554:3556   */\n      0x60\n        /* \"#utility.yul\":3543:3552   */\n      dup4\n        /* \"#utility.yul\":3539:3557   */\n      add\n        /* \"#utility.yul\":3530:3536   */\n      dup5\n        /* \"#utility.yul\":3492:3558   */\n      tag_118\n      jump\t// in\n    tag_212:\n        /* \"#utility.yul\":2933:3565   */\n      swap6\n      swap5\n      pop\n      pop\n      pop\n      pop\n      pop\n      jump\t// out\n        /* \"#utility.yul\":3571:3693   */\n    tag_129:\n        /* \"#utility.yul\":3644:3668   */\n      tag_214\n        /* \"#utility.yul\":3662:3667   */\n      dup2\n        /* \"#utility.yul\":3644:3668   */\n      tag_127\n      jump\t// in\n    tag_214:\n        /* \"#utility.yul\":3637:3642   */\n      dup2\n        /* \"#utility.yul\":3634:3669   */\n      eq\n        /* \"#utility.yul\":3624:3687   */\n      tag_215\n      jumpi\n        /* \"#utility.yul\":3683:3684   */\n      0x00\n        /* \"#utility.yul\":3680:3681   */\n      0x00\n        /* \"#utility.yul\":3673:3685   */\n      revert\n        /* \"#utility.yul\":3624:3687   */\n    tag_215:\n        /* \"#utility.yul\":3571:3693   */\n      pop\n      jump\t// out\n        /* \"#utility.yul\":3699:3838   */\n    tag_130:\n        /* \"#utility.yul\":3745:3750   */\n      0x00\n        /* \"#utility.yul\":3783:3789   */\n      dup2\n        /* \"#utility.yul\":3770:3790   */\n      calldataload\n        /* \"#utility.yul\":3761:3790   */\n      swap1\n      pop\n        /* \"#utility.yul\":3799:3832   */\n      tag_217\n        /* \"#utility.yul\":3826:3831   */\n      dup2\n        /* \"#utility.yul\":3799:3832   */\n      tag_129\n      jump\t// in\n    tag_217:\n        /* \"#utility.yul\":3699:3838   */\n      swap3\n      swap2\n      pop\n      pop\n      jump\t// out\n        /* \"#utility.yul\":3844:4173   */\n    tag_26:\n        /* \"#utility.yul\":3903:3909   */\n      0x00\n        /* \"#utility.yul\":3952:3954   */\n      0x20\n        /* \"#utility.yul\":3940:3949   */\n      dup3\n        /* \"#utility.yul\":3931:3938   */\n      dup5\n        /* \"#utility.yul\":3927:3950   */\n      sub\n        /* \"#utility.yul\":3923:3955   */\n      slt\n        /* \"#utility.yul\":3920:4039   */\n      iszero\n      tag_219\n      jumpi\n        /* \"#utility.yul\":3958:4037   */\n      tag_220\n      tag_112\n      jump\t// in\n    tag_220:\n        /* \"#utility.yul\":3920:4039   */\n    tag_219:\n        /* \"#utility.yul\":4078:4079   */\n      0x00\n        /* \"#utility.yul\":4103:4156   */\n      tag_221\n        /* \"#utility.yul\":4148:4155   */\n      dup5\n        /* \"#utility.yul\":4139:4145   */\n      dup3\n        /* \"#utility.yul\":4128:4137   */\n      dup6\n        /* \"#utility.yul\":4124:4146   */\n      add\n        /* \"#utility.yul\":4103:4156   */\n      tag_130\n      jump\t// in\n    tag_221:\n        /* \"#utility.yul\":4093:4156   */\n      swap2\n      pop\n        /* \"#utility.yul\":4049:4166   */\n      pop\n        /* \"#utility.yul\":3844:4173   */\n      swap3\n      swap2\n      pop\n      pop\n      jump\t// out\n        /* \"#utility.yul\":4179:4297   */\n    tag_131:\n        /* \"#utility.yul\":4266:4290   */\n      tag_223\n        /* \"#utility.yul\":4284:4289   */\n      dup2\n        /* \"#utility.yul\":4266:4290   */\n      tag_114\n      jump\t// in\n    tag_223:\n        /* \"#utility.yul\":4261:4264   */\n      dup3\n        /* \"#utility.yul\":4254:4291   */\n      mstore\n        /* \"#utility.yul\":4179:4297   */\n      pop\n      pop\n      jump\t// out\n        /* \"#utility.yul\":4303:4525   */\n    tag_29:\n        /* \"#utility.yul\":4396:4400   */\n      0x00\n        /* \"#utility.yul\":4434:4436   */\n      0x20\n        /* \"#utility.yul\":4423:4432   */\n      dup3\n        /* \"#utility.yul\":4419:4437   */\n      add\n        /* \"#utility.yul\":4411:4437   */\n      swap1\n      pop\n        /* \"#utility.yul\":4447:4518   */\n      tag_225\n        /* \"#utility.yul\":4515:4516   */\n      0x00\n        /* \"#utility.yul\":4504:4513   */\n      dup4\n        /* \"#utility.yul\":4500:4517   */\n      add\n        /* \"#utility.yul\":4491:4497   */\n      dup5\n        /* \"#utility.yul\":4447:4518   */\n      tag_131\n      jump\t// in\n    tag_225:\n        /* \"#utility.yul\":4303:4525   */\n      swap3\n      swap2\n      pop\n      pop\n      jump\t// out\n        /* \"#utility.yul\":4531:4647   */\n    tag_132:\n        /* \"#utility.yul\":4601:4622   */\n      tag_227\n        /* \"#utility.yul\":4616:4621   */\n      dup2\n        /* \"#utility.yul\":4601:4622   */\n      tag_117\n      jump\t// in\n    tag_227:\n        /* \"#utility.yul\":4594:4599   */\n      dup2\n        /* \"#utility.yul\":4591:4623   */\n      eq\n        /* \"#utility.yul\":4581:4641   */\n      tag_228\n      jumpi\n        /* \"#utility.yul\":4637:4638   */\n      0x00\n        /* \"#utility.yul\":4634:4635   */\n      0x00\n        /* \"#utility.yul\":4627:4639   */\n      revert\n        /* \"#utility.yul\":4581:4641   */\n    tag_228:\n        /* \"#utility.yul\":4531:4647   */\n      pop\n      jump\t// out\n        /* \"#utility.yul\":4653:4786   */\n    tag_133:\n        /* \"#utility.yul\":4696:4701   */\n      0x00\n        /* \"#utility.yul\":4734:4740   */\n      dup2\n        /* \"#utility.yul\":4721:4741   */\n      calldataload\n        /* \"#utility.yul\":4712:4741   */\n      swap1\n      pop\n        /* \"#utility.yul\":4750:4780   */\n      tag_230\n        /* \"#utility.yul\":4774:4779   */\n      dup2\n        /* \"#utility.yul\":4750:4780   */\n      tag_132\n      jump\t// in\n    tag_230:\n        /* \"#utility.yul\":4653:4786   */\n      swap3\n      swap2\n      pop\n      pop\n      jump\t// out\n        /* \"#utility.yul\":4792:5260   */\n    tag_32:\n        /* \"#utility.yul\":4857:4863   */\n      0x00\n        /* \"#utility.yul\":4865:4871   */\n      0x00\n        /* \"#utility.yul\":4914:4916   */\n      0x40\n        /* \"#utility.yul\":4902:4911   */\n      dup4\n        /* \"#utility.yul\":4893:4900   */\n      dup6\n        /* \"#utility.yul\":4889:4912   */\n      sub\n        /* \"#utility.yul\":4885:4917   */\n      slt\n        /* \"#utility.yul\":4882:5001   */\n      iszero\n      tag_232\n      jumpi\n        /* \"#utility.yul\":4920:4999   */\n      tag_233\n      tag_112\n      jump\t// in\n    tag_233:\n        /* \"#utility.yul\":4882:5001   */\n    tag_232:\n        /* \"#utility.yul\":5040:5041   */\n      0x00\n        /* \"#utility.yul\":5065:5118   */\n      tag_234\n        /* \"#utility.yul\":5110:5117   */\n      dup6\n        /* \"#utility.yul\":5101:5107   */\n      dup3\n        /* \"#utility.yul\":5090:5099   */\n      dup7\n        /* \"#utility.yul\":5086:5108   */\n      add\n        /* \"#utility.yul\":5065:5118   */\n      tag_116\n      jump\t// in\n    tag_234:\n        /* \"#utility.yul\":5055:5118   */\n      swap3\n      pop\n        /* \"#utility.yul\":5011:5128   */\n      pop\n        /* \"#utility.yul\":5167:5169   */\n      0x20\n        /* \"#utility.yul\":5193:5243   */\n      tag_235\n        /* \"#utility.yul\":5235:5242   */\n      dup6\n        /* \"#utility.yul\":5226:5232   */\n      dup3\n        /* \"#utility.yul\":5215:5224   */\n      dup7\n        /* \"#utility.yul\":5211:5233   */\n      add\n        /* \"#utility.yul\":5193:5243   */\n      tag_133\n      jump\t// in\n    tag_235:\n        /* \"#utility.yul\":5183:5243   */\n      swap2\n      pop\n        /* \"#utility.yul\":5138:5253   */\n      pop\n        /* \"#utility.yul\":4792:5260   */\n      swap3\n      pop\n      swap3\n      swap1\n      pop\n      jump\t// out\n        /* \"#utility.yul\":5266:5488   */\n    tag_37:\n        /* \"#utility.yul\":5359:5363   */\n      0x00\n        /* \"#utility.yul\":5397:5399   */\n      0x20\n        /* \"#utility.yul\":5386:5395   */\n      dup3\n        /* \"#utility.yul\":5382:5400   */\n      add\n        /* \"#utility.yul\":5374:5400   */\n      swap1\n      pop\n        /* \"#utility.yul\":5410:5481   */\n      tag_237\n        /* \"#utility.yul\":5478:5479   */\n      0x00\n        /* \"#utility.yul\":5467:5476   */\n      dup4\n        /* \"#utility.yul\":5463:5480   */\n      add\n        /* \"#utility.yul\":5454:5460   */\n      dup5\n        /* \"#utility.yul\":5410:5481   */\n      tag_128\n      jump\t// in\n    tag_237:\n        /* \"#utility.yul\":5266:5488   */\n      swap3\n      swap2\n      pop\n      pop\n      jump\t// out\n        /* \"#utility.yul\":5494:5968   */\n    tag_40:\n        /* \"#utility.yul\":5562:5568   */\n      0x00\n        /* \"#utility.yul\":5570:5576   */\n      0x00\n        /* \"#utility.yul\":5619:5621   */\n      0x40\n        /* \"#utility.yul\":5607:5616   */\n      dup4\n        /* \"#utility.yul\":5598:5605   */\n      dup6\n        /* \"#utility.yul\":5594:5617   */\n      sub\n        /* \"#utility.yul\":5590:5622   */\n      slt\n        /* \"#utility.yul\":5587:5706   */\n      iszero\n      tag_239\n      jumpi\n        /* \"#utility.yul\":5625:5704   */\n      tag_240\n      tag_112\n      jump\t// in\n    tag_240:\n        /* \"#utility.yul\":5587:5706   */\n    tag_239:\n        /* \"#utility.yul\":5745:5746   */\n      0x00\n        /* \"#utility.yul\":5770:5823   */\n      tag_241\n        /* \"#utility.yul\":5815:5822   */\n      dup6\n        /* \"#utility.yul\":5806:5812   */\n      dup3\n        /* \"#utility.yul\":5795:5804   */\n      dup7\n        /* \"#utility.yul\":5791:5813   */\n      add\n        /* \"#utility.yul\":5770:5823   */\n      tag_116\n      jump\t// in\n    tag_241:\n        /* \"#utility.yul\":5760:5823   */\n      swap3\n      pop\n        /* \"#utility.yul\":5716:5833   */\n      pop\n        /* \"#utility.yul\":5872:5874   */\n      0x20\n        /* \"#utility.yul\":5898:5951   */\n      tag_242\n        /* \"#utility.yul\":5943:5950   */\n      dup6\n        /* \"#utility.yul\":5934:5940   */\n      dup3\n        /* \"#utility.yul\":5923:5932   */\n      dup7\n        /* \"#utility.yul\":5919:5941   */\n      add\n        /* \"#utility.yul\":5898:5951   */\n      tag_130\n      jump\t// in\n    tag_242:\n        /* \"#utility.yul\":5888:5951   */\n      swap2\n      pop\n        /* \"#utility.yul\":5843:5961   */\n      pop\n        /* \"#utility.yul\":5494:5968   */\n      swap3\n      pop\n      swap3\n      swap1\n      pop\n      jump\t// out\n        /* \"#utility.yul\":5974:6096   */\n    tag_134:\n        /* \"#utility.yul\":6047:6071   */\n      tag_244\n        /* \"#utility.yul\":6065:6070   */\n      dup2\n        /* \"#utility.yul\":6047:6071   */\n      tag_119\n      jump\t// in\n    tag_244:\n        /* \"#utility.yul\":6040:6045   */\n      dup2\n        /* \"#utility.yul\":6037:6072   */\n      eq\n        /* \"#utility.yul\":6027:6090   */\n      tag_245\n      jumpi\n        /* \"#utility.yul\":6086:6087   */\n      0x00\n        /* \"#utility.yul\":6083:6084   */\n      0x00\n        /* \"#utility.yul\":6076:6088   */\n      revert\n        /* \"#utility.yul\":6027:6090   */\n    tag_245:\n        /* \"#utility.yul\":5974:6096   */\n      pop\n      jump\t// out\n        /* \"#utility.yul\":6102:6241   */\n    tag_135:\n        /* \"#utility.yul\":6148:6153   */\n      0x00\n        /* \"#utility.yul\":6186:6192   */\n      dup2\n        /* \"#utility.yul\":6173:6193   */\n      calldataload\n        /* \"#utility.yul\":6164:6193   */\n      swap1\n      pop\n        /* \"#utility.yul\":6202:6235   */\n      tag_247\n        /* \"#utility.yul\":6229:6234   */\n      dup2\n        /* \"#utility.yul\":6202:6235   */\n      tag_134\n      jump\t// in\n    tag_247:\n        /* \"#utility.yul\":6102:6241   */\n      swap3\n      swap2\n      pop\n      pop\n      jump\t// out\n        /* \"#utility.yul\":6247:6364   */\n    tag_136:\n        /* \"#utility.yul\":6356:6357   */\n      0x00\n        /* \"#utility.yul\":6353:6354   */\n      0x00\n        /* \"#utility.yul\":6346:6358   */\n      revert\n        /* \"#utility.yul\":6370:6487   */\n    tag_137:\n        /* \"#utility.yul\":6479:6480   */\n      0x00\n        /* \"#utility.yul\":6476:6477   */\n      0x00\n        /* \"#utility.yul\":6469:6481   */\n      revert\n        /* \"#utility.yul\":6493:6610   */\n    tag_138:\n        /* \"#utility.yul\":6602:6603   */\n      0x00\n        /* \"#utility.yul\":6599:6600   */\n      0x00\n        /* \"#utility.yul\":6592:6604   */\n      revert\n        /* \"#utility.yul\":6630:7183   */\n    tag_139:\n        /* \"#utility.yul\":6688:6696   */\n      0x00\n        /* \"#utility.yul\":6698:6704   */\n      0x00\n        /* \"#utility.yul\":6748:6751   */\n      dup4\n        /* \"#utility.yul\":6741:6745   */\n      0x1f\n        /* \"#utility.yul\":6733:6739   */\n      dup5\n        /* \"#utility.yul\":6729:6746   */\n      add\n        /* \"#utility.yul\":6725:6752   */\n      slt\n        /* \"#utility.yul\":6715:6837   */\n      tag_252\n      jumpi\n        /* \"#utility.yul\":6756:6835   */\n      tag_253\n      tag_136\n      jump\t// in\n    tag_253:\n        /* \"#utility.yul\":6715:6837   */\n    tag_252:\n        /* \"#utility.yul\":6869:6875   */\n      dup3\n        /* \"#utility.yul\":6856:6876   */\n      calldataload\n        /* \"#utility.yul\":6846:6876   */\n      swap1\n      pop\n        /* \"#utility.yul\":6899:6917   */\n      0xffffffffffffffff\n        /* \"#utility.yul\":6891:6897   */\n      dup2\n        /* \"#utility.yul\":6888:6918   */\n      gt\n        /* \"#utility.yul\":6885:7002   */\n      iszero\n      tag_254\n      jumpi\n        /* \"#utility.yul\":6921:7000   */\n      tag_255\n      tag_137\n      jump\t// in\n    tag_255:\n        /* \"#utility.yul\":6885:7002   */\n    tag_254:\n        /* \"#utility.yul\":7035:7039   */\n      0x20\n        /* \"#utility.yul\":7027:7033   */\n      dup4\n        /* \"#utility.yul\":7023:7040   */\n      add\n        /* \"#utility.yul\":7011:7040   */\n      swap2\n      pop\n        /* \"#utility.yul\":7089:7092   */\n      dup4\n        /* \"#utility.yul\":7081:7085   */\n      0x01\n        /* \"#utility.yul\":7073:7079   */\n      dup3\n        /* \"#utility.yul\":7069:7086   */\n      mul\n        /* \"#utility.yul\":7059:7067   */\n      dup4\n        /* \"#utility.yul\":7055:7087   */\n      add\n        /* \"#utility.yul\":7052:7093   */\n      gt\n        /* \"#utility.yul\":7049:7177   */\n      iszero\n      tag_256\n      jumpi\n        /* \"#utility.yul\":7096:7175   */\n      tag_257\n      tag_138\n      jump\t// in\n    tag_257:\n        /* \"#utility.yul\":7049:7177   */\n    tag_256:\n        /* \"#utility.yul\":6630:7183   */\n      swap3\n      pop\n      swap3\n      swap1\n      pop\n      jump\t// out\n        /* \"#utility.yul\":7189:8008   */\n    tag_44:\n        /* \"#utility.yul\":7278:7284   */\n      0x00\n        /* \"#utility.yul\":7286:7292   */\n      0x00\n        /* \"#utility.yul\":7294:7300   */\n      0x00\n        /* \"#utility.yul\":7302:7308   */\n      0x00\n        /* \"#utility.yul\":7351:7353   */\n      0x60\n        /* \"#utility.yul\":7339:7348   */\n      dup6\n        /* \"#utility.yul\":7330:7337   */\n      dup8\n        /* \"#utility.yul\":7326:7349   */\n      sub\n        /* \"#utility.yul\":7322:7354   */\n      slt\n        /* \"#utility.yul\":7319:7438   */\n      iszero\n      tag_259\n      jumpi\n        /* \"#utility.yul\":7357:7436   */\n      tag_260\n      tag_112\n      jump\t// in\n    tag_260:\n        /* \"#utility.yul\":7319:7438   */\n    tag_259:\n        /* \"#utility.yul\":7477:7478   */\n      0x00\n        /* \"#utility.yul\":7502:7555   */\n      tag_261\n        /* \"#utility.yul\":7547:7554   */\n      dup8\n        /* \"#utility.yul\":7538:7544   */\n      dup3\n        /* \"#utility.yul\":7527:7536   */\n      dup9\n        /* \"#utility.yul\":7523:7545   */\n      add\n        /* \"#utility.yul\":7502:7555   */\n      tag_135\n      jump\t// in\n    tag_261:\n        /* \"#utility.yul\":7492:7555   */\n      swap5\n      pop\n        /* \"#utility.yul\":7448:7565   */\n      pop\n        /* \"#utility.yul\":7632:7634   */\n      0x20\n        /* \"#utility.yul\":7621:7630   */\n      dup6\n        /* \"#utility.yul\":7617:7635   */\n      add\n        /* \"#utility.yul\":7604:7636   */\n      calldataload\n        /* \"#utility.yul\":7663:7681   */\n      0xffffffffffffffff\n        /* \"#utility.yul\":7655:7661   */\n      dup2\n        /* \"#utility.yul\":7652:7682   */\n      gt\n        /* \"#utility.yul\":7649:7766   */\n      iszero\n      tag_262\n      jumpi\n        /* \"#utility.yul\":7685:7764   */\n      tag_263\n      tag_113\n      jump\t// in\n    tag_263:\n        /* \"#utility.yul\":7649:7766   */\n    tag_262:\n        /* \"#utility.yul\":7798:7863   */\n      tag_264\n        /* \"#utility.yul\":7855:7862   */\n      dup8\n        /* \"#utility.yul\":7846:7852   */\n      dup3\n        /* \"#utility.yul\":7835:7844   */\n      dup9\n        /* \"#utility.yul\":7831:7853   */\n      add\n        /* \"#utility.yul\":7798:7863   */\n      tag_139\n      jump\t// in\n    tag_264:\n        /* \"#utility.yul\":7780:7863   */\n      swap4\n      pop\n      swap4\n      pop\n        /* \"#utility.yul\":7575:7873   */\n      pop\n        /* \"#utility.yul\":7912:7914   */\n      0x40\n        /* \"#utility.yul\":7938:7991   */\n      tag_265\n        /* \"#utility.yul\":7983:7990   */\n      dup8\n        /* \"#utility.yul\":7974:7980   */\n      dup3\n        /* \"#utility.yul\":7963:7972   */\n      dup9\n        /* \"#utility.yul\":7959:7981   */\n      add\n        /* \"#utility.yul\":7938:7991   */\n      tag_130\n      jump\t// in\n    tag_265:\n        /* \"#utility.yul\":7928:7991   */\n      swap2\n      pop\n        /* \"#utility.yul\":7883:8001   */\n      pop\n        /* \"#utility.yul\":7189:8008   */\n      swap3\n      swap6\n      swap2\n      swap5\n      pop\n      swap3\n      pop\n      jump\t// out\n        /* \"#utility.yul\":8014:8757   */\n    tag_55:\n        /* \"#utility.yul\":8233:8237   */\n      0x00\n        /* \"#utility.yul\":8271:8274   */\n      0xa0\n        /* \"#utility.yul\":8260:8269   */\n      dup3\n        /* \"#utility.yul\":8256:8275   */\n      add\n        /* \"#utility.yul\":8248:8275   */\n      swap1\n      pop\n        /* \"#utility.yul\":8285:8356   */\n      tag_267\n        /* \"#utility.yul\":8353:8354   */\n      0x00\n        /* \"#utility.yul\":8342:8351   */\n      dup4\n        /* \"#utility.yul\":8338:8355   */\n      add\n        /* \"#utility.yul\":8329:8335   */\n      dup9\n        /* \"#utility.yul\":8285:8356   */\n      tag_131\n      jump\t// in\n    tag_267:\n        /* \"#utility.yul\":8366:8438   */\n      tag_268\n        /* \"#utility.yul\":8434:8436   */\n      0x20\n        /* \"#utility.yul\":8423:8432   */\n      dup4\n        /* \"#utility.yul\":8419:8437   */\n      add\n        /* \"#utility.yul\":8410:8416   */\n      dup8\n        /* \"#utility.yul\":8366:8438   */\n      tag_120\n      jump\t// in\n    tag_268:\n        /* \"#utility.yul\":8485:8494   */\n      dup2\n        /* \"#utility.yul\":8479:8483   */\n      dup2\n        /* \"#utility.yul\":8475:8495   */\n      sub\n        /* \"#utility.yul\":8470:8472   */\n      0x40\n        /* \"#utility.yul\":8459:8468   */\n      dup4\n        /* \"#utility.yul\":8455:8473   */\n      add\n        /* \"#utility.yul\":8448:8496   */\n      mstore\n        /* \"#utility.yul\":8513:8591   */\n      tag_269\n        /* \"#utility.yul\":8586:8590   */\n      dup2\n        /* \"#utility.yul\":8577:8583   */\n      dup7\n        /* \"#utility.yul\":8513:8591   */\n      tag_125\n      jump\t// in\n    tag_269:\n        /* \"#utility.yul\":8505:8591   */\n      swap1\n      pop\n        /* \"#utility.yul\":8601:8673   */\n      tag_270\n        /* \"#utility.yul\":8669:8671   */\n      0x60\n        /* \"#utility.yul\":8658:8667   */\n      dup4\n        /* \"#utility.yul\":8654:8672   */\n      add\n        /* \"#utility.yul\":8645:8651   */\n      dup6\n        /* \"#utility.yul\":8601:8673   */\n      tag_128\n      jump\t// in\n    tag_270:\n        /* \"#utility.yul\":8683:8750   */\n      tag_271\n        /* \"#utility.yul\":8745:8748   */\n      0x80\n        /* \"#utility.yul\":8734:8743   */\n      dup4\n        /* \"#utility.yul\":8730:8749   */\n      add\n        /* \"#utility.yul\":8721:8727   */\n      dup5\n        /* \"#utility.yul\":8683:8750   */\n      tag_118\n      jump\t// in\n    tag_271:\n        /* \"#utility.yul\":8014:8757   */\n      swap7\n      swap6\n      pop\n      pop\n      pop\n      pop\n      pop\n      pop\n      jump\t// out\n        /* \"#utility.yul\":8763:8933   */\n    tag_140:\n        /* \"#utility.yul\":8903:8925   */\n      0x556e6b6e6f776e206f7267616e697a6174696f6e000000000000000000000000\n        /* \"#utility.yul\":8899:8900   */\n      0x00\n        /* \"#utility.yul\":8891:8897   */\n      dup3\n        /* \"#utility.yul\":8887:8901   */\n      add\n        /* \"#utility.yul\":8880:8926   */\n      mstore\n        /* \"#utility.yul\":8763:8933   */\n      pop\n      jump\t// out\n        /* \"#utility.yul\":8939:9305   */\n    tag_141:\n        /* \"#utility.yul\":9081:9084   */\n      0x00\n        /* \"#utility.yul\":9102:9169   */\n      tag_274\n        /* \"#utility.yul\":9166:9168   */\n      0x14\n        /* \"#utility.yul\":9161:9164   */\n      dup4\n        /* \"#utility.yul\":9102:9169   */\n      tag_122\n      jump\t// in\n    tag_274:\n        /* \"#utility.yul\":9095:9169   */\n      swap2\n      pop\n        /* \"#utility.yul\":9178:9271   */\n      tag_275\n        /* \"#utility.yul\":9267:9270   */\n      dup3\n        /* \"#utility.yul\":9178:9271   */\n      tag_140\n      jump\t// in\n    tag_275:\n        /* \"#utility.yul\":9296:9298   */\n      0x20\n        /* \"#utility.yul\":9291:9294   */\n      dup3\n        /* \"#utility.yul\":9287:9299   */\n      add\n        /* \"#utility.yul\":9280:9299   */\n      swap1\n      pop\n        /* \"#utility.yul\":8939:9305   */\n      swap2\n      swap1\n      pop\n      jump\t// out\n        /* \"#utility.yul\":9311:9730   */\n    tag_61:\n        /* \"#utility.yul\":9477:9481   */\n      0x00\n        /* \"#utility.yul\":9515:9517   */\n      0x20\n        /* \"#utility.yul\":9504:9513   */\n      dup3\n        /* \"#utility.yul\":9500:9518   */\n      add\n        /* \"#utility.yul\":9492:9518   */\n      swap1\n      pop\n        /* \"#utility.yul\":9564:9573   */\n      dup2\n        /* \"#utility.yul\":9558:9562   */\n      dup2\n        /* \"#utility.yul\":9554:9574   */\n      sub\n        /* \"#utility.yul\":9550:9551   */\n      0x00\n        /* \"#utility.yul\":9539:9548   */\n      dup4\n        /* \"#utility.yul\":9535:9552   */\n      add\n        /* \"#utility.yul\":9528:9575   */\n      mstore\n        /* \"#utility.yul\":9592:9723   */\n      tag_277\n        /* \"#utility.yul\":9718:9722   */\n      dup2\n        /* \"#utility.yul\":9592:9723   */\n      tag_141\n      jump\t// in\n    tag_277:\n        /* \"#utility.yul\":9584:9723   */\n      swap1\n      pop\n        /* \"#utility.yul\":9311:9730   */\n      swap2\n      swap1\n      pop\n      jump\t// out\n        /* \"#utility.yul\":9736:9916   */\n    tag_142:\n        /* \"#utility.yul\":9784:9861   */\n      0x4e487b7100000000000000000000000000000000000000000000000000000000\n        /* \"#utility.yul\":9781:9782   */\n      0x00\n        /* \"#utility.yul\":9774:9862   */\n      mstore\n        /* \"#utility.yul\":9881:9885   */\n      0x22\n        /* \"#utility.yul\":9878:9879   */\n      0x04\n        /* \"#utility.yul\":9871:9886   */\n      mstore\n        /* \"#utility.yul\":9905:9909   */\n      0x24\n        /* \"#utility.yul\":9902:9903   */\n      0x00\n        /* \"#utility.yul\":9895:9910   */\n      revert\n        /* \"#utility.yul\":9922:10242   */\n    tag_63:\n        /* \"#utility.yul\":9966:9972   */\n      0x00\n        /* \"#utility.yul\":10003:10004   */\n      0x02\n        /* \"#utility.yul\":9997:10001   */\n      dup3\n        /* \"#utility.yul\":9993:10005   */\n      div\n        /* \"#utility.yul\":9983:10005   */\n      swap1\n      pop\n        /* \"#utility.yul\":10050:10051   */\n      0x01\n        /* \"#utility.yul\":10044:10048   */\n      dup3\n        /* \"#utility.yul\":10040:10052   */\n      and\n        /* \"#utility.yul\":10071:10089   */\n      dup1\n        /* \"#utility.yul\":10061:10142   */\n      tag_280\n      jumpi\n        /* \"#utility.yul\":10127:10131   */\n      0x7f\n        /* \"#utility.yul\":10119:10125   */\n      dup3\n        /* \"#utility.yul\":10115:10132   */\n      and\n        /* \"#utility.yul\":10105:10132   */\n      swap2\n      pop\n        /* \"#utility.yul\":10061:10142   */\n    tag_280:\n        /* \"#utility.yul\":10189:10191   */\n      0x20\n        /* \"#utility.yul\":10181:10187   */\n      dup3\n        /* \"#utility.yul\":10178:10192   */\n      lt\n        /* \"#utility.yul\":10158:10176   */\n      dup2\n        /* \"#utility.yul\":10155:10193   */\n      sub\n        /* \"#utility.yul\":10152:10236   */\n      tag_281\n      jumpi\n        /* \"#utility.yul\":10208:10226   */\n      tag_282\n      tag_142\n      jump\t// in\n    tag_282:\n        /* \"#utility.yul\":10152:10236   */\n    tag_281:\n        /* \"#utility.yul\":9973:10242   */\n      pop\n        /* \"#utility.yul\":9922:10242   */\n      swap2\n      swap1\n      pop\n      jump\t// out\n        /* \"#utility.yul\":10248:10415   */\n    tag_143:\n        /* \"#utility.yul\":10388:10407   */\n      0x4f6e6c792073797374656d2061646d696e000000000000000000000000000000\n        /* \"#utility.yul\":10384:10385   */\n      0x00\n        /* \"#utility.yul\":10376:10382   */\n      dup3\n        /* \"#utility.yul\":10372:10386   */\n      add\n        /* \"#utility.yul\":10365:10408   */\n      mstore\n        /* \"#utility.yul\":10248:10415   */\n      pop\n      jump\t// out\n        /* \"#utility.yul\":10421:10787   */\n    tag_144:\n        /* \"#utility.yul\":10563:10566   */\n      0x00\n        /* \"#utility.yul\":10584:10651   */\n      tag_285\n        /* \"#utility.yul\":10648:10650   */\n      0x11\n        /* \"#utility.yul\":10643:10646   */\n      dup4\n        /* \"#utility.yul\":10584:10651   */\n      tag_122\n      jump\t// in\n    tag_285:\n        /* \"#utility.yul\":10577:10651   */\n      swap2\n      pop\n        /* \"#utility.yul\":10660:10753   */\n      tag_286\n        /* \"#utility.yul\":10749:10752   */\n      dup3\n        /* \"#utility.yul\":10660:10753   */\n      tag_143\n      jump\t// in\n    tag_286:\n        /* \"#utility.yul\":10778:10780   */\n      0x20\n        /* \"#utility.yul\":10773:10776   */\n      dup3\n        /* \"#utility.yul\":10769:10781   */\n      add\n        /* \"#utility.yul\":10762:10781   */\n      swap1\n      pop\n        /* \"#utility.yul\":10421:10787   */\n      swap2\n      swap1\n      pop\n      jump\t// out\n        /* \"#utility.yul\":10793:11212   */\n    tag_72:\n        /* \"#utility.yul\":10959:10963   */\n      0x00\n        /* \"#utility.yul\":10997:10999   */\n      0x20\n        /* \"#utility.yul\":10986:10995   */\n      dup3\n        /* \"#utility.yul\":10982:11000   */\n      add\n        /* \"#utility.yul\":10974:11000   */\n      swap1\n      pop\n        /* \"#utility.yul\":11046:11055   */\n      dup2\n        /* \"#utility.yul\":11040:11044   */\n      dup2\n        /* \"#utility.yul\":11036:11056   */\n      sub\n        /* \"#utility.yul\":11032:11033   */\n      0x00\n        /* \"#utility.yul\":11021:11030   */\n      dup4\n        /* \"#utility.yul\":11017:11034   */\n      add\n        /* \"#utility.yul\":11010:11057   */\n      mstore\n        /* \"#utility.yul\":11074:11205   */\n      tag_288\n        /* \"#utility.yul\":11200:11204   */\n      dup2\n        /* \"#utility.yul\":11074:11205   */\n      tag_144\n      jump\t// in\n    tag_288:\n        /* \"#utility.yul\":11066:11205   */\n      swap1\n      pop\n        /* \"#utility.yul\":10793:11212   */\n      swap2\n      swap1\n      pop\n      jump\t// out\n        /* \"#utility.yul\":11218:11385   */\n    tag_145:\n        /* \"#utility.yul\":11358:11377   */\n      0x496e76616c6964206e65772061646d696e000000000000000000000000000000\n        /* \"#utility.yul\":11354:11355   */\n      0x00\n        /* \"#utility.yul\":11346:11352   */\n      dup3\n        /* \"#utility.yul\":11342:11356   */\n      add\n        /* \"#utility.yul\":11335:11378   */\n      mstore\n        /* \"#utility.yul\":11218:11385   */\n      pop\n      jump\t// out\n        /* \"#utility.yul\":11391:11757   */\n    tag_146:\n        /* \"#utility.yul\":11533:11536   */\n      0x00\n        /* \"#utility.yul\":11554:11621   */\n      tag_291\n        /* \"#utility.yul\":11618:11620   */\n      0x11\n        /* \"#utility.yul\":11613:11616   */\n      dup4\n        /* \"#utility.yul\":11554:11621   */\n      tag_122\n      jump\t// in\n    tag_291:\n        /* \"#utility.yul\":11547:11621   */\n      swap2\n      pop\n        /* \"#utility.yul\":11630:11723   */\n      tag_292\n        /* \"#utility.yul\":11719:11722   */\n      dup3\n        /* \"#utility.yul\":11630:11723   */\n      tag_145\n      jump\t// in\n    tag_292:\n        /* \"#utility.yul\":11748:11750   */\n      0x20\n        /* \"#utility.yul\":11743:11746   */\n      dup3\n        /* \"#utility.yul\":11739:11751   */\n      add\n        /* \"#utility.yul\":11732:11751   */\n      swap1\n      pop\n        /* \"#utility.yul\":11391:11757   */\n      swap2\n      swap1\n      pop\n      jump\t// out\n        /* \"#utility.yul\":11763:12182   */\n    tag_83:\n        /* \"#utility.yul\":11929:11933   */\n      0x00\n        /* \"#utility.yul\":11967:11969   */\n      0x20\n        /* \"#utility.yul\":11956:11965   */\n      dup3\n        /* \"#utility.yul\":11952:11970   */\n      add\n        /* \"#utility.yul\":11944:11970   */\n      swap1\n      pop\n        /* \"#utility.yul\":12016:12025   */\n      dup2\n        /* \"#utility.yul\":12010:12014   */\n      dup2\n        /* \"#utility.yul\":12006:12026   */\n      sub\n        /* \"#utility.yul\":12002:12003   */\n      0x00\n        /* \"#utility.yul\":11991:12000   */\n      dup4\n        /* \"#utility.yul\":11987:12004   */\n      add\n        /* \"#utility.yul\":11980:12027   */\n      mstore\n        /* \"#utility.yul\":12044:12175   */\n      tag_294\n        /* \"#utility.yul\":12170:12174   */\n      dup2\n        /* \"#utility.yul\":12044:12175   */\n      tag_146\n      jump\t// in\n    tag_294:\n        /* \"#utility.yul\":12036:12175   */\n      swap1\n      pop\n        /* \"#utility.yul\":11763:12182   */\n      swap2\n      swap1\n      pop\n      jump\t// out\n        /* \"#utility.yul\":12188:12353   */\n    tag_147:\n        /* \"#utility.yul\":12328:12345   */\n      0x456d707479206e616d6520686173680000000000000000000000000000000000\n        /* \"#utility.yul\":12324:12325   */\n      0x00\n        /* \"#utility.yul\":12316:12322   */\n      dup3\n        /* \"#utility.yul\":12312:12326   */\n      add\n        /* \"#utility.yul\":12305:12346   */\n      mstore\n        /* \"#utility.yul\":12188:12353   */\n      pop\n      jump\t// out\n        /* \"#utility.yul\":12359:12725   */\n    tag_148:\n        /* \"#utility.yul\":12501:12504   */\n      0x00\n        /* \"#utility.yul\":12522:12589   */\n      tag_297\n        /* \"#utility.yul\":12586:12588   */\n      0x0f\n        /* \"#utility.yul\":12581:12584   */\n      dup4\n        /* \"#utility.yul\":12522:12589   */\n      tag_122\n      jump\t// in\n    tag_297:\n        /* \"#utility.yul\":12515:12589   */\n      swap2\n      pop\n        /* \"#utility.yul\":12598:12691   */\n      tag_298\n        /* \"#utility.yul\":12687:12690   */\n      dup3\n        /* \"#utility.yul\":12598:12691   */\n      tag_147\n      jump\t// in\n    tag_298:\n        /* \"#utility.yul\":12716:12718   */\n      0x20\n        /* \"#utility.yul\":12711:12714   */\n      dup3\n        /* \"#utility.yul\":12707:12719   */\n      add\n        /* \"#utility.yul\":12700:12719   */\n      swap1\n      pop\n        /* \"#utility.yul\":12359:12725   */\n      swap2\n      swap1\n      pop\n      jump\t// out\n        /* \"#utility.yul\":12731:13150   */\n    tag_93:\n        /* \"#utility.yul\":12897:12901   */\n      0x00\n        /* \"#utility.yul\":12935:12937   */\n      0x20\n        /* \"#utility.yul\":12924:12933   */\n      dup3\n        /* \"#utility.yul\":12920:12938   */\n      add\n        /* \"#utility.yul\":12912:12938   */\n      swap1\n      pop\n        /* \"#utility.yul\":12984:12993   */\n      dup2\n        /* \"#utility.yul\":12978:12982   */\n      dup2\n        /* \"#utility.yul\":12974:12994   */\n      sub\n        /* \"#utility.yul\":12970:12971   */\n      0x00\n        /* \"#utility.yul\":12959:12968   */\n      dup4\n        /* \"#utility.yul\":12955:12972   */\n      add\n        /* \"#utility.yul\":12948:12995   */\n      mstore\n        /* \"#utility.yul\":13012:13143   */\n      tag_300\n        /* \"#utility.yul\":13138:13142   */\n      dup2\n        /* \"#utility.yul\":13012:13143   */\n      tag_148\n      jump\t// in\n    tag_300:\n        /* \"#utility.yul\":13004:13143   */\n      swap1\n      pop\n        /* \"#utility.yul\":12731:13150   */\n      swap2\n      swap1\n      pop\n      jump\t// out\n        /* \"#utility.yul\":13156:13327   */\n    tag_149:\n        /* \"#utility.yul\":13296:13319   */\n      0x496e76616c69642061646d696e20616464726573730000000000000000000000\n        /* \"#utility.yul\":13292:13293   */\n      0x00\n        /* \"#utility.yul\":13284:13290   */\n      dup3\n        /* \"#utility.yul\":13280:13294   */\n      add\n        /* \"#utility.yul\":13273:13320   */\n      mstore\n        /* \"#utility.yul\":13156:13327   */\n      pop\n      jump\t// out\n        /* \"#utility.yul\":13333:13699   */\n    tag_150:\n        /* \"#utility.yul\":13475:13478   */\n      0x00\n        /* \"#utility.yul\":13496:13563   */\n      tag_303\n        /* \"#utility.yul\":13560:13562   */\n      0x15\n        /* \"#utility.yul\":13555:13558   */\n      dup4\n        /* \"#utility.yul\":13496:13563   */\n      tag_122\n      jump\t// in\n    tag_303:\n        /* \"#utility.yul\":13489:13563   */\n      swap2\n      pop\n        /* \"#utility.yul\":13572:13665   */\n      tag_304\n        /* \"#utility.yul\":13661:13664   */\n      dup3\n        /* \"#utility.yul\":13572:13665   */\n      tag_149\n      jump\t// in\n    tag_304:\n        /* \"#utility.yul\":13690:13692   */\n      0x20\n        /* \"#utility.yul\":13685:13688   */\n      dup3\n        /* \"#utility.yul\":13681:13693   */\n      add\n        /* \"#utility.yul\":13674:13693   */\n      swap1\n      pop\n        /* \"#utility.yul\":13333:13699   */\n      swap2\n      swap1\n      pop\n      jump\t// out\n        /* \"#utility.yul\":13705:14124   */\n    tag_96:\n        /* \"#utility.yul\":13871:13875   */\n      0x00\n        /* \"#utility.yul\":13909:13911   */\n      0x20\n        /* \"#utility.yul\":13898:13907   */\n      dup3\n        /* \"#utility.yul\":13894:13912   */\n      add\n        /* \"#utility.yul\":13886:13912   */\n      swap1\n      pop\n        /* \"#utility.yul\":13958:13967   */\n      dup2\n        /* \"#utility.yul\":13952:13956   */\n      dup2\n        /* \"#utility.yul\":13948:13968   */\n      sub\n        /* \"#utility.yul\":13944:13945   */\n      0x00\n        /* \"#utility.yul\":13933:13942   */\n      dup4\n        /* \"#utility.yul\":13929:13946   */\n      add\n        /* \"#utility.yul\":13922:13969   */\n      mstore\n        /* \"#utility.yul\":13986:14117   */\n      tag_306\n        /* \"#utility.yul\":14112:14116   */\n      dup2\n        /* \"#utility.yul\":13986:14117   */\n      tag_150\n      jump\t// in\n    tag_306:\n        /* \"#utility.yul\":13978:14117   */\n      swap1\n      pop\n        /* \"#utility.yul\":13705:14124   */\n      swap2\n      swap1\n      pop\n      jump\t// out\n        /* \"#utility.yul\":14130:14300   */\n    tag_151:\n        /* \"#utility.yul\":14270:14292   */\n      0x41646d696e20616c7265616479206c696e6b6564000000000000000000000000\n        /* \"#utility.yul\":14266:14267   */\n      0x00\n        /* \"#utility.yul\":14258:14264   */\n      dup3\n        /* \"#utility.yul\":14254:14268   */\n      add\n        /* \"#utility.yul\":14247:14293   */\n      mstore\n        /* \"#utility.yul\":14130:14300   */\n      pop\n      jump\t// out\n        /* \"#utility.yul\":14306:14672   */\n    tag_152:\n        /* \"#utility.yul\":14448:14451   */\n      0x00\n        /* \"#utility.yul\":14469:14536   */\n      tag_309\n        /* \"#utility.yul\":14533:14535   */\n      0x14\n        /* \"#utility.yul\":14528:14531   */\n      dup4\n        /* \"#utility.yul\":14469:14536   */\n      tag_122\n      jump\t// in\n    tag_309:\n        /* \"#utility.yul\":14462:14536   */\n      swap2\n      pop\n        /* \"#utility.yul\":14545:14638   */\n      tag_310\n        /* \"#utility.yul\":14634:14637   */\n      dup3\n        /* \"#utility.yul\":14545:14638   */\n      tag_151\n      jump\t// in\n    tag_310:\n        /* \"#utility.yul\":14663:14665   */\n      0x20\n        /* \"#utility.yul\":14658:14661   */\n      dup3\n        /* \"#utility.yul\":14654:14666   */\n      add\n        /* \"#utility.yul\":14647:14666   */\n      swap1\n      pop\n        /* \"#utility.yul\":14306:14672   */\n      swap2\n      swap1\n      pop\n      jump\t// out\n        /* \"#utility.yul\":14678:15097   */\n    tag_99:\n        /* \"#utility.yul\":14844:14848   */\n      0x00\n        /* \"#utility.yul\":14882:14884   */\n      0x20\n        /* \"#utility.yul\":14871:14880   */\n      dup3\n        /* \"#utility.yul\":14867:14885   */\n      add\n        /* \"#utility.yul\":14859:14885   */\n      swap1\n      pop\n        /* \"#utility.yul\":14931:14940   */\n      dup2\n        /* \"#utility.yul\":14925:14929   */\n      dup2\n        /* \"#utility.yul\":14921:14941   */\n      sub\n        /* \"#utility.yul\":14917:14918   */\n      0x00\n        /* \"#utility.yul\":14906:14915   */\n      dup4\n        /* \"#utility.yul\":14902:14919   */\n      add\n        /* \"#utility.yul\":14895:14942   */\n      mstore\n        /* \"#utility.yul\":14959:15090   */\n      tag_312\n        /* \"#utility.yul\":15085:15089   */\n      dup2\n        /* \"#utility.yul\":14959:15090   */\n      tag_152\n      jump\t// in\n    tag_312:\n        /* \"#utility.yul\":14951:15090   */\n      swap1\n      pop\n        /* \"#utility.yul\":14678:15097   */\n      swap2\n      swap1\n      pop\n      jump\t// out\n        /* \"#utility.yul\":15103:15283   */\n    tag_153:\n        /* \"#utility.yul\":15151:15228   */\n      0x4e487b7100000000000000000000000000000000000000000000000000000000\n        /* \"#utility.yul\":15148:15149   */\n      0x00\n        /* \"#utility.yul\":15141:15229   */\n      mstore\n        /* \"#utility.yul\":15248:15252   */\n      0x11\n        /* \"#utility.yul\":15245:15246   */\n      0x04\n        /* \"#utility.yul\":15238:15253   */\n      mstore\n        /* \"#utility.yul\":15272:15276   */\n      0x24\n        /* \"#utility.yul\":15269:15270   */\n      0x00\n        /* \"#utility.yul\":15262:15277   */\n      revert\n        /* \"#utility.yul\":15289:15480   */\n    tag_101:\n        /* \"#utility.yul\":15329:15332   */\n      0x00\n        /* \"#utility.yul\":15348:15368   */\n      tag_315\n        /* \"#utility.yul\":15366:15367   */\n      dup3\n        /* \"#utility.yul\":15348:15368   */\n      tag_114\n      jump\t// in\n    tag_315:\n        /* \"#utility.yul\":15343:15368   */\n      swap2\n      pop\n        /* \"#utility.yul\":15382:15402   */\n      tag_316\n        /* \"#utility.yul\":15400:15401   */\n      dup4\n        /* \"#utility.yul\":15382:15402   */\n      tag_114\n      jump\t// in\n    tag_316:\n        /* \"#utility.yul\":15377:15402   */\n      swap3\n      pop\n        /* \"#utility.yul\":15425:15426   */\n      dup3\n        /* \"#utility.yul\":15422:15423   */\n      dup3\n        /* \"#utility.yul\":15418:15427   */\n      add\n        /* \"#utility.yul\":15411:15427   */\n      swap1\n      pop\n        /* \"#utility.yul\":15446:15449   */\n      dup1\n        /* \"#utility.yul\":15443:15444   */\n      dup3\n        /* \"#utility.yul\":15440:15450   */\n      gt\n        /* \"#utility.yul\":15437:15473   */\n      iszero\n      tag_317\n      jumpi\n        /* \"#utility.yul\":15453:15471   */\n      tag_318\n      tag_153\n      jump\t// in\n    tag_318:\n        /* \"#utility.yul\":15437:15473   */\n    tag_317:\n        /* \"#utility.yul\":15289:15480   */\n      swap3\n      swap2\n      pop\n      pop\n      jump\t// out\n        /* \"#utility.yul\":15486:15666   */\n    tag_154:\n        /* \"#utility.yul\":15534:15611   */\n      0x4e487b7100000000000000000000000000000000000000000000000000000000\n        /* \"#utility.yul\":15531:15532   */\n      0x00\n        /* \"#utility.yul\":15524:15612   */\n      mstore\n        /* \"#utility.yul\":15631:15635   */\n      0x41\n        /* \"#utility.yul\":15628:15629   */\n      0x04\n        /* \"#utility.yul\":15621:15636   */\n      mstore\n        /* \"#utility.yul\":15655:15659   */\n      0x24\n        /* \"#utility.yul\":15652:15653   */\n      0x00\n        /* \"#utility.yul\":15645:15660   */\n      revert\n        /* \"#utility.yul\":15672:15813   */\n    tag_155:\n        /* \"#utility.yul\":15721:15725   */\n      0x00\n        /* \"#utility.yul\":15744:15747   */\n      dup2\n        /* \"#utility.yul\":15736:15747   */\n      swap1\n      pop\n        /* \"#utility.yul\":15767:15770   */\n      dup2\n        /* \"#utility.yul\":15764:15765   */\n      0x00\n        /* \"#utility.yul\":15757:15771   */\n      mstore\n        /* \"#utility.yul\":15801:15805   */\n      0x20\n        /* \"#utility.yul\":15798:15799   */\n      0x00\n        /* \"#utility.yul\":15788:15806   */\n      keccak256\n        /* \"#utility.yul\":15780:15806   */\n      swap1\n      pop\n        /* \"#utility.yul\":15672:15813   */\n      swap2\n      swap1\n      pop\n      jump\t// out\n        /* \"#utility.yul\":15819:15912   */\n    tag_156:\n        /* \"#utility.yul\":15856:15862   */\n      0x00\n        /* \"#utility.yul\":15903:15905   */\n      0x20\n        /* \"#utility.yul\":15898:15900   */\n      0x1f\n        /* \"#utility.yul\":15891:15896   */\n      dup4\n        /* \"#utility.yul\":15887:15901   */\n      add\n        /* \"#utility.yul\":15883:15906   */\n      div\n        /* \"#utility.yul\":15873:15906   */\n      swap1\n      pop\n        /* \"#utility.yul\":15819:15912   */\n      swap2\n      swap1\n      pop\n      jump\t// out\n        /* \"#utility.yul\":15918:16025   */\n    tag_157:\n        /* \"#utility.yul\":15962:15970   */\n      0x00\n        /* \"#utility.yul\":16012:16017   */\n      dup3\n        /* \"#utility.yul\":16006:16010   */\n      dup3\n        /* \"#utility.yul\":16002:16018   */\n      shl\n        /* \"#utility.yul\":15981:16018   */\n      swap1\n      pop\n        /* \"#utility.yul\":15918:16025   */\n      swap3\n      swap2\n      pop\n      pop\n      jump\t// out\n        /* \"#utility.yul\":16031:16424   */\n    tag_158:\n        /* \"#utility.yul\":16100:16106   */\n      0x00\n        /* \"#utility.yul\":16150:16151   */\n      0x08\n        /* \"#utility.yul\":16138:16148   */\n      dup4\n        /* \"#utility.yul\":16134:16152   */\n      mul\n        /* \"#utility.yul\":16173:16270   */\n      tag_324\n        /* \"#utility.yul\":16203:16269   */\n      0xffffffffffffffffffffffffffffffffffffffffffffffffffffffffffffffff\n        /* \"#utility.yul\":16192:16201   */\n      dup3\n        /* \"#utility.yul\":16173:16270   */\n      tag_157\n      jump\t// in\n    tag_324:\n        /* \"#utility.yul\":16291:16330   */\n      tag_325\n        /* \"#utility.yul\":16321:16329   */\n      dup7\n        /* \"#utility.yul\":16310:16319   */\n      dup4\n        /* \"#utility.yul\":16291:16330   */\n      tag_157\n      jump\t// in\n    tag_325:\n        /* \"#utility.yul\":16279:16330   */\n      swap6\n      pop\n        /* \"#utility.yul\":16363:16367   */\n      dup1\n        /* \"#utility.yul\":16359:16368   */\n      not\n        /* \"#utility.yul\":16352:16357   */\n      dup5\n        /* \"#utility.yul\":16348:16369   */\n      and\n        /* \"#utility.yul\":16339:16369   */\n      swap4\n      pop\n        /* \"#utility.yul\":16412:16416   */\n      dup1\n        /* \"#utility.yul\":16402:16410   */\n      dup7\n        /* \"#utility.yul\":16398:16417   */\n      and\n        /* \"#utility.yul\":16391:16396   */\n      dup5\n        /* \"#utility.yul\":16388:16418   */\n      or\n        /* \"#utility.yul\":16378:16418   */\n      swap3\n      pop\n        /* \"#utility.yul\":16107:16424   */\n      pop\n      pop\n        /* \"#utility.yul\":16031:16424   */\n      swap4\n      swap3\n      pop\n      pop\n      pop\n      jump\t// out\n        /* \"#utility.yul\":16430:16490   */\n    tag_159:\n        /* \"#utility.yul\":16458:16461   */\n      0x00\n        /* \"#utility.yul\":16479:16484   */\n      dup2\n        /* \"#utility.yul\":16472:16484   */\n      swap1\n      pop\n        /* \"#utility.yul\":16430:16490   */\n      swap2\n      swap1\n      pop\n      jump\t// out\n        /* \"#utility.yul\":16496:16638   */\n    tag_160:\n        /* \"#utility.yul\":16546:16555   */\n      0x00\n        /* \"#utility.yul\":16579:16632   */\n      tag_328\n        /* \"#utility.yul\":16597:16631   */\n      tag_329\n        /* \"#utility.yul\":16606:16630   */\n      tag_330\n        /* \"#utility.yul\":16624:16629   */\n      dup5\n        /* \"#utility.yul\":16606:16630   */\n      tag_114\n      jump\t// in\n    tag_330:\n        /* \"#utility.yul\":16597:16631   */\n      tag_159\n      jump\t// in\n    tag_329:\n        /* \"#utility.yul\":16579:16632   */\n      tag_114\n      jump\t// in\n    tag_328:\n        /* \"#utility.yul\":16566:16632   */\n      swap1\n      pop\n        /* \"#utility.yul\":16496:16638   */\n      swap2\n      swap1\n      pop\n      jump\t// out\n        /* \"#utility.yul\":16644:16719   */\n    tag_161:\n        /* \"#utility.yul\":16687:16690   */\n      0x00\n        /* \"#utility.yul\":16708:16713   */\n      dup2\n        /* \"#utility.yul\":16701:16713   */\n      swap1\n      pop\n        /* \"#utility.yul\":16644:16719   */\n      swap2\n      swap1\n      pop\n      jump\t// out\n        /* \"#utility.yul\":16725:16994   */\n    tag_162:\n        /* \"#utility.yul\":16835:16874   */\n      tag_333\n        /* \"#utility.yul\":16866:16873   */\n      dup4\n        /* \"#utility.yul\":16835:16874   */\n      tag_160\n      jump\t// in\n    tag_333:\n        /* \"#utility.yul\":16896:16987   */\n      tag_334\n        /* \"#utility.yul\":16945:16986   */\n      tag_335\n        /* \"#utility.yul\":16969:16985   */\n      dup3\n        /* \"#utility.yul\":16945:16986   */\n      tag_161\n      jump\t// in\n    tag_335:\n        /* \"#utility.yul\":16937:16943   */\n      dup5\n        /* \"#utility.yul\":16930:16934   */\n      dup5\n        /* \"#utility.yul\":16924:16935   */\n      sload\n        /* \"#utility.yul\":16896:16987   */\n      tag_158\n      jump\t// in\n    tag_334:\n        /* \"#utility.yul\":16890:16894   */\n      dup3\n        /* \"#utility.yul\":16883:16988   */\n      sstore\n        /* \"#utility.yul\":16801:16994   */\n      pop\n        /* \"#utility.yul\":16725:16994   */\n      pop\n      pop\n      pop\n      jump\t// out\n        /* \"#utility.yul\":17000:17073   */\n    tag_163:\n        /* \"#utility.yul\":17045:17048   */\n      0x00\n        /* \"#utility.yul\":17066:17067   */\n      0x00\n        /* \"#utility.yul\":17059:17067   */\n      swap1\n      pop\n        /* \"#utility.yul\":17000:17073   */\n      swap1\n      jump\t// out\n        /* \"#utility.yul\":17079:17268   */\n    tag_164:\n        /* \"#utility.yul\":17156:17188   */\n      tag_338\n      tag_163\n      jump\t// in\n    tag_338:\n        /* \"#utility.yul\":17197:17262   */\n      tag_339\n        /* \"#utility.yul\":17255:17261   */\n      dup2\n        /* \"#utility.yul\":17247:17253   */\n      dup5\n        /* \"#utility.yul\":17241:17245   */\n      dup5\n        /* \"#utility.yul\":17197:17262   */\n      tag_162\n      jump\t// in\n    tag_339:\n        /* \"#utility.yul\":17132:17268   */\n      pop\n        /* \"#utility.yul\":17079:17268   */\n      pop\n      pop\n      jump\t// out\n        /* \"#utility.yul\":17274:17460   */\n    tag_165:\n        /* \"#utility.yul\":17334:17454   */\n    tag_341:\n        /* \"#utility.yul\":17351:17354   */\n      dup2\n        /* \"#utility.yul\":17344:17349   */\n      dup2\n        /* \"#utility.yul\":17341:17355   */\n      lt\n        /* \"#utility.yul\":17334:17454   */\n      iszero\n      tag_343\n      jumpi\n        /* \"#utility.yul\":17405:17444   */\n      tag_344\n        /* \"#utility.yul\":17442:17443   */\n      0x00\n        /* \"#utility.yul\":17435:17440   */\n      dup3\n        /* \"#utility.yul\":17405:17444   */\n      tag_164\n      jump\t// in\n    tag_344:\n        /* \"#utility.yul\":17378:17379   */\n      0x01\n        /* \"#utility.yul\":17371:17376   */\n      dup2\n        /* \"#utility.yul\":17367:17380   */\n      add\n        /* \"#utility.yul\":17358:17380   */\n      swap1\n      pop\n        /* \"#utility.yul\":17334:17454   */\n      jump(tag_341)\n    tag_343:\n        /* \"#utility.yul\":17274:17460   */\n      pop\n      pop\n      jump\t// out\n        /* \"#utility.yul\":17466:18009   */\n    tag_166:\n        /* \"#utility.yul\":17567:17569   */\n      0x1f\n        /* \"#utility.yul\":17562:17565   */\n      dup3\n        /* \"#utility.yul\":17559:17570   */\n      gt\n        /* \"#utility.yul\":17556:18002   */\n      iszero\n      tag_346\n      jumpi\n        /* \"#utility.yul\":17601:17639   */\n      tag_347\n        /* \"#utility.yul\":17633:17638   */\n      dup2\n        /* \"#utility.yul\":17601:17639   */\n      tag_155\n      jump\t// in\n    tag_347:\n        /* \"#utility.yul\":17685:17714   */\n      tag_348\n        /* \"#utility.yul\":17703:17713   */\n      dup5\n        /* \"#utility.yul\":17685:17714   */\n      tag_156\n      jump\t// in\n    tag_348:\n        /* \"#utility.yul\":17675:17683   */\n      dup2\n        /* \"#utility.yul\":17671:17715   */\n      add\n        /* \"#utility.yul\":17868:17870   */\n      0x20\n        /* \"#utility.yul\":17856:17866   */\n      dup6\n        /* \"#utility.yul\":17853:17871   */\n      lt\n        /* \"#utility.yul\":17850:17899   */\n      iszero\n      tag_349\n      jumpi\n        /* \"#utility.yul\":17889:17897   */\n      dup2\n        /* \"#utility.yul\":17874:17897   */\n      swap1\n      pop\n        /* \"#utility.yul\":17850:17899   */\n    tag_349:\n        /* \"#utility.yul\":17912:17992   */\n      tag_350\n        /* \"#utility.yul\":17968:17990   */\n      tag_351\n        /* \"#utility.yul\":17986:17989   */\n      dup6\n        /* \"#utility.yul\":17968:17990   */\n      tag_156\n      jump\t// in\n    tag_351:\n        /* \"#utility.yul\":17958:17966   */\n      dup4\n        /* \"#utility.yul\":17954:17991   */\n      add\n        /* \"#utility.yul\":17941:17952   */\n      dup3\n        /* \"#utility.yul\":17912:17992   */\n      tag_165\n      jump\t// in\n    tag_350:\n        /* \"#utility.yul\":17571:18002   */\n      pop\n      pop\n        /* \"#utility.yul\":17556:18002   */\n    tag_346:\n        /* \"#utility.yul\":17466:18009   */\n      pop\n      pop\n      pop\n      jump\t// out\n        /* \"#utility.yul\":18015:18132   */\n    tag_167:\n        /* \"#utility.yul\":18069:18077   */\n      0x00\n        /* \"#utility.yul\":18119:18124   */\n      dup3\n        /* \"#utility.yul\":18113:18117   */\n      dup3\n        /* \"#utility.yul\":18109:18125   */\n      shr\n        /* \"#utility.yul\":18088:18125   */\n      swap1\n      pop\n        /* \"#utility.yul\":18015:18132   */\n      swap3\n      swap2\n      pop\n      pop\n      jump\t// out\n        /* \"#utility.yul\":18138:18307   */\n    tag_168:\n        /* \"#utility.yul\":18182:18188   */\n      0x00\n        /* \"#utility.yul\":18215:18266   */\n      tag_354\n        /* \"#utility.yul\":18263:18264   */\n      0x00\n        /* \"#utility.yul\":18259:18265   */\n      not\n        /* \"#utility.yul\":18251:18256   */\n      dup5\n        /* \"#utility.yul\":18248:18249   */\n      0x08\n        /* \"#utility.yul\":18244:18257   */\n      mul\n        /* \"#utility.yul\":18215:18266   */\n      tag_167\n      jump\t// in\n    tag_354:\n        /* \"#utility.yul\":18211:18267   */\n      not\n        /* \"#utility.yul\":18296:18300   */\n      dup1\n        /* \"#utility.yul\":18290:18294   */\n      dup4\n        /* \"#utility.yul\":18286:18301   */\n      and\n        /* \"#utility.yul\":18276:18301   */\n      swap2\n      pop\n        /* \"#utility.yul\":18189:18307   */\n      pop\n        /* \"#utility.yul\":18138:18307   */\n      swap3\n      swap2\n      pop\n      pop\n      jump\t// out\n        /* \"#utility.yul\":18312:18607   */\n    tag_169:\n        /* \"#utility.yul\":18388:18392   */\n      0x00\n        /* \"#utility.yul\":18534:18563   */\n      tag_356\n        /* \"#utility.yul\":18559:18562   */\n      dup4\n        /* \"#utility.yul\":18553:18557   */\n      dup4\n        /* \"#utility.yul\":18534:18563   */\n      tag_168\n      jump\t// in\n    tag_356:\n        /* \"#utility.yul\":18526:18563   */\n      swap2\n      pop\n        /* \"#utility.yul\":18596:18599   */\n      dup3\n        /* \"#utility.yul\":18593:18594   */\n      0x02\n        /* \"#utility.yul\":18589:18600   */\n      mul\n        /* \"#utility.yul\":18583:18587   */\n      dup3\n        /* \"#utility.yul\":18580:18601   */\n      or\n        /* \"#utility.yul\":18572:18601   */\n      swap1\n      pop\n        /* \"#utility.yul\":18312:18607   */\n      swap3\n      swap2\n      pop\n      pop\n      jump\t// out\n        /* \"#utility.yul\":18612:20007   */\n    tag_103:\n        /* \"#utility.yul\":18729:18766   */\n      tag_358\n        /* \"#utility.yul\":18762:18765   */\n      dup3\n        /* \"#utility.yul\":18729:18766   */\n      tag_121\n      jump\t// in\n    tag_358:\n        /* \"#utility.yul\":18831:18849   */\n      0xffffffffffffffff\n        /* \"#utility.yul\":18823:18829   */\n      dup2\n        /* \"#utility.yul\":18820:18850   */\n      gt\n        /* \"#utility.yul\":18817:18873   */\n      iszero\n      tag_359\n      jumpi\n        /* \"#utility.yul\":18853:18871   */\n      tag_360\n      tag_154\n      jump\t// in\n    tag_360:\n        /* \"#utility.yul\":18817:18873   */\n    tag_359:\n        /* \"#utility.yul\":18897:18935   */\n      tag_361\n        /* \"#utility.yul\":18929:18933   */\n      dup3\n        /* \"#utility.yul\":18923:18934   */\n      sload\n        /* \"#utility.yul\":18897:18935   */\n      tag_63\n      jump\t// in\n    tag_361:\n        /* \"#utility.yul\":18982:19049   */\n      tag_362\n        /* \"#utility.yul\":19042:19048   */\n      dup3\n        /* \"#utility.yul\":19034:19040   */\n      dup3\n        /* \"#utility.yul\":19028:19032   */\n      dup6\n        /* \"#utility.yul\":18982:19049   */\n      tag_166\n      jump\t// in\n    tag_362:\n        /* \"#utility.yul\":19076:19077   */\n      0x00\n        /* \"#utility.yul\":19100:19104   */\n      0x20\n        /* \"#utility.yul\":19087:19104   */\n      swap1\n      pop\n        /* \"#utility.yul\":19132:19134   */\n      0x1f\n        /* \"#utility.yul\":19124:19130   */\n      dup4\n        /* \"#utility.yul\":19121:19135   */\n      gt\n        /* \"#utility.yul\":19149:19150   */\n      0x01\n        /* \"#utility.yul\":19144:19762   */\n      dup2\n      eq\n      tag_364\n      jumpi\n        /* \"#utility.yul\":19806:19807   */\n      0x00\n        /* \"#utility.yul\":19823:19829   */\n      dup5\n        /* \"#utility.yul\":19820:19897   */\n      iszero\n      tag_365\n      jumpi\n        /* \"#utility.yul\":19872:19881   */\n      dup3\n        /* \"#utility.yul\":19867:19870   */\n      dup8\n        /* \"#utility.yul\":19863:19882   */\n      add\n        /* \"#utility.yul\":19857:19883   */\n      mload\n        /* \"#utility.yul\":19848:19883   */\n      swap1\n      pop\n        /* \"#utility.yul\":19820:19897   */\n    tag_365:\n        /* \"#utility.yul\":19923:19990   */\n      tag_366\n        /* \"#utility.yul\":19983:19989   */\n      dup6\n        /* \"#utility.yul\":19976:19981   */\n      dup3\n        /* \"#utility.yul\":19923:19990   */\n      tag_169\n      jump\t// in\n    tag_366:\n        /* \"#utility.yul\":19917:19921   */\n      dup7\n        /* \"#utility.yul\":19910:19991   */\n      sstore\n        /* \"#utility.yul\":19779:20001   */\n      pop\n        /* \"#utility.yul\":19114:20001   */\n      jump(tag_363)\n        /* \"#utility.yul\":19144:19762   */\n    tag_364:\n        /* \"#utility.yul\":19196:19200   */\n      0x1f\n        /* \"#utility.yul\":19192:19201   */\n      not\n        /* \"#utility.yul\":19184:19190   */\n      dup5\n        /* \"#utility.yul\":19180:19202   */\n      and\n        /* \"#utility.yul\":19230:19267   */\n      tag_367\n        /* \"#utility.yul\":19262:19266   */\n      dup7\n        /* \"#utility.yul\":19230:19267   */\n      tag_155\n      jump\t// in\n    tag_367:\n        /* \"#utility.yul\":19289:19290   */\n      0x00\n        /* \"#utility.yul\":19303:19511   */\n    tag_368:\n        /* \"#utility.yul\":19317:19324   */\n      dup3\n        /* \"#utility.yul\":19314:19315   */\n      dup2\n        /* \"#utility.yul\":19311:19325   */\n      lt\n        /* \"#utility.yul\":19303:19511   */\n      iszero\n      tag_370\n      jumpi\n        /* \"#utility.yul\":19396:19405   */\n      dup5\n        /* \"#utility.yul\":19391:19394   */\n      dup10\n        /* \"#utility.yul\":19387:19406   */\n      add\n        /* \"#utility.yul\":19381:19407   */\n      mload\n        /* \"#utility.yul\":19373:19379   */\n      dup3\n        /* \"#utility.yul\":19366:19408   */\n      sstore\n        /* \"#utility.yul\":19447:19448   */\n      0x01\n        /* \"#utility.yul\":19439:19445   */\n      dup3\n        /* \"#utility.yul\":19435:19449   */\n      add\n        /* \"#utility.yul\":19425:19449   */\n      swap2\n      pop\n        /* \"#utility.yul\":19494:19496   */\n      0x20\n        /* \"#utility.yul\":19483:19492   */\n      dup6\n        /* \"#utility.yul\":19479:19497   */\n      add\n        /* \"#utility.yul\":19466:19497   */\n      swap5\n      pop\n        /* \"#utility.yul\":19340:19344   */\n      0x20\n        /* \"#utility.yul\":19337:19338   */\n      dup2\n        /* \"#utility.yul\":19333:19345   */\n      add\n        /* \"#utility.yul\":19328:19345   */\n      swap1\n      pop\n        /* \"#utility.yul\":19303:19511   */\n      jump(tag_368)\n    tag_370:\n        /* \"#utility.yul\":19539:19545   */\n      dup7\n        /* \"#utility.yul\":19530:19537   */\n      dup4\n        /* \"#utility.yul\":19527:19546   */\n      lt\n        /* \"#utility.yul\":19524:19703   */\n      iszero\n      tag_371\n      jumpi\n        /* \"#utility.yul\":19597:19606   */\n      dup5\n        /* \"#utility.yul\":19592:19595   */\n      dup10\n        /* \"#utility.yul\":19588:19607   */\n      add\n        /* \"#utility.yul\":19582:19608   */\n      mload\n        /* \"#utility.yul\":19640:19688   */\n      tag_372\n        /* \"#utility.yul\":19682:19686   */\n      0x1f\n        /* \"#utility.yul\":19674:19680   */\n      dup10\n        /* \"#utility.yul\":19670:19687   */\n      and\n        /* \"#utility.yul\":19659:19668   */\n      dup3\n        /* \"#utility.yul\":19640:19688   */\n      tag_168\n      jump\t// in\n    tag_372:\n        /* \"#utility.yul\":19632:19638   */\n      dup4\n        /* \"#utility.yul\":19625:19689   */\n      sstore\n        /* \"#utility.yul\":19547:19703   */\n      pop\n        /* \"#utility.yul\":19524:19703   */\n    tag_371:\n        /* \"#utility.yul\":19749:19750   */\n      0x01\n        /* \"#utility.yul\":19745:19746   */\n      0x02\n        /* \"#utility.yul\":19737:19743   */\n      dup9\n        /* \"#utility.yul\":19733:19747   */\n      mul\n        /* \"#utility.yul\":19729:19751   */\n      add\n        /* \"#utility.yul\":19723:19727   */\n      dup9\n        /* \"#utility.yul\":19716:19752   */\n      sstore\n        /* \"#utility.yul\":19151:19762   */\n      pop\n      pop\n      pop\n        /* \"#utility.yul\":19114:20001   */\n    tag_363:\n      pop\n        /* \"#utility.yul\":18704:20007   */\n      pop\n      pop\n      pop\n        /* \"#utility.yul\":18612:20007   */\n      pop\n      pop\n      jump\t// out\n        /* \"#utility.yul\":20013:20161   */\n    tag_170:\n        /* \"#utility.yul\":20111:20117   */\n      dup3\n        /* \"#utility.yul\":20106:20109   */\n      dup2\n        /* \"#utility.yul\":20101:20104   */\n      dup4\n        /* \"#utility.yul\":20088:20118   */\n      calldatacopy\n        /* \"#utility.yul\":20152:20153   */\n      0x00\n        /* \"#utility.yul\":20143:20149   */\n      dup4\n        /* \"#utility.yul\":20138:20141   */\n      dup4\n        /* \"#utility.yul\":20134:20150   */\n      add\n        /* \"#utility.yul\":20127:20154   */\n      mstore\n        /* \"#utility.yul\":20013:20161   */\n      pop\n      pop\n      pop\n      jump\t// out\n        /* \"#utility.yul\":20191:20508   */\n    tag_171:\n        /* \"#utility.yul\":20289:20292   */\n      0x00\n        /* \"#utility.yul\":20310:20381   */\n      tag_375\n        /* \"#utility.yul\":20374:20380   */\n      dup4\n        /* \"#utility.yul\":20369:20372   */\n      dup6\n        /* \"#utility.yul\":20310:20381   */\n      tag_122\n      jump\t// in\n    tag_375:\n        /* \"#utility.yul\":20303:20381   */\n      swap4\n      pop\n        /* \"#utility.yul\":20391:20447   */\n      tag_376\n        /* \"#utility.yul\":20440:20446   */\n      dup4\n        /* \"#utility.yul\":20435:20438   */\n      dup6\n        /* \"#utility.yul\":20428:20433   */\n      dup5\n        /* \"#utility.yul\":20391:20447   */\n      tag_170\n      jump\t// in\n    tag_376:\n        /* \"#utility.yul\":20472:20501   */\n      tag_377\n        /* \"#utility.yul\":20494:20500   */\n      dup4\n        /* \"#utility.yul\":20472:20501   */\n      tag_124\n      jump\t// in\n    tag_377:\n        /* \"#utility.yul\":20467:20470   */\n      dup5\n        /* \"#utility.yul\":20463:20502   */\n      add\n        /* \"#utility.yul\":20456:20502   */\n      swap1\n      pop\n        /* \"#utility.yul\":20191:20508   */\n      swap4\n      swap3\n      pop\n      pop\n      pop\n      jump\t// out\n        /* \"#utility.yul\":20514:20847   */\n    tag_105:\n        /* \"#utility.yul\":20637:20641   */\n      0x00\n        /* \"#utility.yul\":20675:20677   */\n      0x20\n        /* \"#utility.yul\":20664:20673   */\n      dup3\n        /* \"#utility.yul\":20660:20678   */\n      add\n        /* \"#utility.yul\":20652:20678   */\n      swap1\n      pop\n        /* \"#utility.yul\":20724:20733   */\n      dup2\n        /* \"#utility.yul\":20718:20722   */\n      dup2\n        /* \"#utility.yul\":20714:20734   */\n      sub\n        /* \"#utility.yul\":20710:20711   */\n      0x00\n        /* \"#utility.yul\":20699:20708   */\n      dup4\n        /* \"#utility.yul\":20695:20712   */\n      add\n        /* \"#utility.yul\":20688:20735   */\n      mstore\n        /* \"#utility.yul\":20752:20840   */\n      tag_379\n        /* \"#utility.yul\":20835:20839   */\n      dup2\n        /* \"#utility.yul\":20826:20832   */\n      dup5\n        /* \"#utility.yul\":20818:20824   */\n      dup7\n        /* \"#utility.yul\":20752:20840   */\n      tag_171\n      jump\t// in\n    tag_379:\n        /* \"#utility.yul\":20744:20840   */\n      swap1\n      pop\n        /* \"#utility.yul\":20514:20847   */\n      swap4\n      swap3\n      pop\n      pop\n      pop\n      jump\t// out\n\n    auxdata: 0xa26469706673582212208f09272ea5e175f1ff5725cba45f63d1986a46e30a7d061956753564969663ba64736f6c634300081e0033\n}\n",
				"bytecode": {
					"linkReferences": {},
					"object": "608060405234801561000f575f5ffd5b5060405161192638038061192683398181016040528101906100319190610142565b5f73ffffffffffffffffffffffffffffffffffffffff168173ffffffffffffffffffffffffffffffffffffffff160361009f576040517f08c379a0000000000000000000000000000000000000000000000000000000008152600401610096906101c7565b60405180910390fd5b805f5f6101000a81548173ffffffffffffffffffffffffffffffffffffffff021916908373ffffffffffffffffffffffffffffffffffffffff160217905550506101e5565b5f5ffd5b5f73ffffffffffffffffffffffffffffffffffffffff82169050919050565b5f610111826100e8565b9050919050565b61012181610107565b811461012b575f5ffd5b50565b5f8151905061013c81610118565b92915050565b5f60208284031215610157576101566100e4565b5b5f6101648482850161012e565b91505092915050565b5f82825260208201905092915050565b7f496e76616c69642061646d696e000000000000000000000000000000000000005f82015250565b5f6101b1600d8361016d565b91506101bc8261017d565b602082019050919050565b5f6020820190508181035f8301526101de816101a5565b9050919050565b611734806101f25f395ff3fe608060405234801561000f575f5ffd5b5060043610610091575f3560e01c8063a239e33d11610064578063a239e33d14610144578063b6e8fbbd14610162578063c9a49cd81461017e578063e21fc185146101ae578063e792dd8a146101de57610091565b80633876681b146100955780634526f690146100c557806378a13adf146100f85780638bb7796a14610128575b5f5ffd5b6100af60048036038101906100aa9190610cda565b610212565b6040516100bc9190610d1f565b60405180910390f35b6100df60048036038101906100da9190610cda565b610250565b6040516100ef9493929190610dff565b60405180910390f35b610112600480360381019061010d9190610e73565b610387565b60405161011f9190610ead565b60405180910390f35b610142600480360381019061013d9190610ef0565b6103cd565b005b61014c61050d565b6040516101599190610f2e565b60405180910390f35b61017c60048036038101906101779190610f47565b610531565b005b61019860048036038101906101939190611010565b610808565b6040516101a59190610ead565b60405180910390f35b6101c860048036038101906101c39190610e73565b610ba6565b6040516101d59190610ead565b60405180910390f35b6101f860048036038101906101f39190610cda565b610bbb565b604051610209959493929190611081565b60405180910390f35b5f5f60025f8481526020019081526020015f2090505f815f01541415801561024857508060030160149054906101000a900460ff165b915050919050565b5f60605f5f5f60025f8781526020019081526020015f2090505f815f0154036102ae576040517f08c379a00000000000000000000000000000000000000000000000000000000081526004016102a590611123565b60405180910390fd5b806001015481600201826003015f9054906101000a900473ffffffffffffffffffffffffffffffffffffffff168360030160149054906101000a900460ff168280546102f99061116e565b80601f01602080910402602001604051908101604052809291908181526020018280546103259061116e565b80156103705780601f1061034757610100808354040283529160200191610370565b820191905f5260205f20905b81548152906001019060200180831161035357829003601f168201915b505050505092509450945094509450509193509193565b5f60035f8373ffffffffffffffffffffffffffffffffffffffff1673ffffffffffffffffffffffffffffffffffffffff1681526020019081526020015f20549050919050565b5f5f9054906101000a900473ffffffffffffffffffffffffffffffffffffffff1673ffffffffffffffffffffffffffffffffffffffff163373ffffffffffffffffffffffffffffffffffffffff161461045b576040517f08c379a0000000000000000000000000000000000000000000000000000000008152600401610452906111e8565b60405180910390fd5b5f60025f8481526020019081526020015f2090505f815f0154036104b4576040517f08c379a00000000000000000000000000000000000000000000000000000000081526004016104ab90611123565b60405180910390fd5b818160030160146101000a81548160ff021916908315150217905550827fd7f8cdc314decf9909736ed5fd160baf345e0a3e07d4da506f3983ee2a66056c836040516105009190610d1f565b60405180910390a2505050565b5f5f9054906101000a900473ffffffffffffffffffffffffffffffffffffffff1681565b5f5f9054906101000a900473ffffffffffffffffffffffffffffffffffffffff1673ffffffffffffffffffffffffffffffffffffffff163373ffffffffffffffffffffffffffffffffffffffff16146105bf576040517f08c379a00000000000000000000000000000000000000000000000000000000081526004016105b6906111e8565b60405180910390fd5b5f73ffffffffffffffffffffffffffffffffffffffff168173ffffffffffffffffffffffffffffffffffffffff160361062d576040517f08c379a000000000000000000000000000000000000000000000000000000000815260040161062490611250565b60405180910390fd5b5f60025f8481526020019081526020015f2090505f815f015403610686576040517f08c379a000000000000000000000000000000000000000000000000000000000815260040161067d90611123565b60405180910390fd5b5f816003015f9054906101000a900473ffffffffffffffffffffffffffffffffffffffff1690505f73ffffffffffffffffffffffffffffffffffffffff168173ffffffffffffffffffffffffffffffffffffffff1614610723575f60035f8373ffffffffffffffffffffffffffffffffffffffff1673ffffffffffffffffffffffffffffffffffffffff1681526020019081526020015f20819055505b82826003015f6101000a81548173ffffffffffffffffffffffffffffffffffffffff021916908373ffffffffffffffffffffffffffffffffffffffff1602179055508360035f8573ffffffffffffffffffffffffffffffffffffffff1673ffffffffffffffffffffffffffffffffffffffff1681526020019081526020015f20819055508273ffffffffffffffffffffffffffffffffffffffff168173ffffffffffffffffffffffffffffffffffffffff16857f55113a3eec51c2635110f897a667a04457f92be821cdb19bfb549ddb0f30dabf60405160405180910390a450505050565b5f5f5f9054906101000a900473ffffffffffffffffffffffffffffffffffffffff1673ffffffffffffffffffffffffffffffffffffffff163373ffffffffffffffffffffffffffffffffffffffff1614610897576040517f08c379a000000000000000000000000000000000000000000000000000000000815260040161088e906111e8565b60405180910390fd5b5f5f1b85036108db576040517f08c379a00000000000000000000000000000000000000000000000000000000081526004016108d2906112b8565b60405180910390fd5b5f73ffffffffffffffffffffffffffffffffffffffff168273ffffffffffffffffffffffffffffffffffffffff1603610949576040517f08c379a000000000000000000000000000000000000000000000000000000000815260040161094090611320565b60405180910390fd5b5f60035f8473ffffffffffffffffffffffffffffffffffffffff1673ffffffffffffffffffffffffffffffffffffffff1681526020019081526020015f2054146109c8576040517f08c379a00000000000000000000000000000000000000000000000000000000081526004016109bf90611388565b60405180910390fd5b6001805f8282546109d991906113d3565b9250508190555060015490506040518060a0016040528082815260200186815260200185858080601f0160208091040260200160405190810160405280939291908181526020018383808284375f81840152601f19601f8201169050808301925050505050505081526020018373ffffffffffffffffffffffffffffffffffffffff1681526020016001151581525060025f8381526020019081526020015f205f820151815f0155602082015181600101556040820151816002019081610aa091906115d3565b506060820151816003015f6101000a81548173ffffffffffffffffffffffffffffffffffffffff021916908373ffffffffffffffffffffffffffffffffffffffff16021790555060808201518160030160146101000a81548160ff0219169083151502179055509050508060035f8473ffffffffffffffffffffffffffffffffffffffff1673ffffffffffffffffffffffffffffffffffffffff1681526020019081526020015f20819055508173ffffffffffffffffffffffffffffffffffffffff1685827f6dc58a50bd1af85f2a33a2e94ac0a5177a3c092ed29cfbb353c1ec0b95f927108787604051610b969291906116dc565b60405180910390a4949350505050565b6003602052805f5260405f205f915090505481565b6002602052805f5260405f205f91509050805f015490806001015490806002018054610be69061116e565b80601f0160208091040260200160405190810160405280929190818152602001828054610c129061116e565b8015610c5d5780601f10610c3457610100808354040283529160200191610c5d565b820191905f5260205f20905b815481529060010190602001808311610c4057829003601f168201915b505050505090806003015f9054906101000a900473ffffffffffffffffffffffffffffffffffffffff16908060030160149054906101000a900460ff16905085565b5f5ffd5b5f5ffd5b5f819050919050565b610cb981610ca7565b8114610cc3575f5ffd5b50565b5f81359050610cd481610cb0565b92915050565b5f60208284031215610cef57610cee610c9f565b5b5f610cfc84828501610cc6565b91505092915050565b5f8115159050919050565b610d1981610d05565b82525050565b5f602082019050610d325f830184610d10565b92915050565b5f819050919050565b610d4a81610d38565b82525050565b5f81519050919050565b5f82825260208201905092915050565b8281835e5f83830152505050565b5f601f19601f8301169050919050565b5f610d9282610d50565b610d9c8185610d5a565b9350610dac818560208601610d6a565b610db581610d78565b840191505092915050565b5f73ffffffffffffffffffffffffffffffffffffffff82169050919050565b5f610de982610dc0565b9050919050565b610df981610ddf565b82525050565b5f608082019050610e125f830187610d41565b8181036020830152610e248186610d88565b9050610e336040830185610df0565b610e406060830184610d10565b95945050505050565b610e5281610ddf565b8114610e5c575f5ffd5b50565b5f81359050610e6d81610e49565b92915050565b5f60208284031215610e8857610e87610c9f565b5b5f610e9584828501610e5f565b91505092915050565b610ea781610ca7565b82525050565b5f602082019050610ec05f830184610e9e565b92915050565b610ecf81610d05565b8114610ed9575f5ffd5b50565b5f81359050610eea81610ec6565b92915050565b5f5f60408385031215610f0657610f05610c9f565b5b5f610f1385828601610cc6565b9250506020610f2485828601610edc565b9150509250929050565b5f602082019050610f415f830184610df0565b92915050565b5f5f60408385031215610f5d57610f5c610c9f565b5b5f610f6a85828601610cc6565b9250506020610f7b85828601610e5f565b9150509250929050565b610f8e81610d38565b8114610f98575f5ffd5b50565b5f81359050610fa981610f85565b92915050565b5f5ffd5b5f5ffd5b5f5ffd5b5f5f83601f840112610fd057610fcf610faf565b5b8235905067ffffffffffffffff811115610fed57610fec610fb3565b5b60208301915083600182028301111561100957611008610fb7565b5b9250929050565b5f5f5f5f6060858703121561102857611027610c9f565b5b5f61103587828801610f9b565b945050602085013567ffffffffffffffff81111561105657611055610ca3565b5b61106287828801610fbb565b9350935050604061107587828801610e5f565b91505092959194509250565b5f60a0820190506110945f830188610e9e565b6110a16020830187610d41565b81810360408301526110b38186610d88565b90506110c26060830185610df0565b6110cf6080830184610d10565b9695505050505050565b7f556e6b6e6f776e206f7267616e697a6174696f6e0000000000000000000000005f82015250565b5f61110d601483610d5a565b9150611118826110d9565b602082019050919050565b5f6020820190508181035f83015261113a81611101565b9050919050565b7f4e487b71000000000000000000000000000000000000000000000000000000005f52602260045260245ffd5b5f600282049050600182168061118557607f821691505b60208210810361119857611197611141565b5b50919050565b7f4f6e6c792073797374656d2061646d696e0000000000000000000000000000005f82015250565b5f6111d2601183610d5a565b91506111dd8261119e565b602082019050919050565b5f6020820190508181035f8301526111ff816111c6565b9050919050565b7f496e76616c6964206e65772061646d696e0000000000000000000000000000005f82015250565b5f61123a601183610d5a565b915061124582611206565b602082019050919050565b5f6020820190508181035f8301526112678161122e565b9050919050565b7f456d707479206e616d65206861736800000000000000000000000000000000005f82015250565b5f6112a2600f83610d5a565b91506112ad8261126e565b602082019050919050565b5f6020820190508181035f8301526112cf81611296565b9050919050565b7f496e76616c69642061646d696e206164647265737300000000000000000000005f82015250565b5f61130a601583610d5a565b9150611315826112d6565b602082019050919050565b5f6020820190508181035f830152611337816112fe565b9050919050565b7f41646d696e20616c7265616479206c696e6b65640000000000000000000000005f82015250565b5f611372601483610d5a565b915061137d8261133e565b602082019050919050565b5f6020820190508181035f83015261139f81611366565b9050919050565b7f4e487b71000000000000000000000000000000000000000000000000000000005f52601160045260245ffd5b5f6113dd82610ca7565b91506113e883610ca7565b9250828201905080821115611400576113ff6113a6565b5b92915050565b7f4e487b71000000000000000000000000000000000000000000000000000000005f52604160045260245ffd5b5f819050815f5260205f209050919050565b5f6020601f8301049050919050565b5f82821b905092915050565b5f6008830261148f7fffffffffffffffffffffffffffffffffffffffffffffffffffffffffffffffff82611454565b6114998683611454565b95508019841693508086168417925050509392505050565b5f819050919050565b5f6114d46114cf6114ca84610ca7565b6114b1565b610ca7565b9050919050565b5f819050919050565b6114ed836114ba565b6115016114f9826114db565b848454611460565b825550505050565b5f5f905090565b611518611509565b6115238184846114e4565b505050565b5b818110156115465761153b5f82611510565b600181019050611529565b5050565b601f82111561158b5761155c81611433565b61156584611445565b81016020851015611574578190505b61158861158085611445565b830182611528565b50505b505050565b5f82821c905092915050565b5f6115ab5f1984600802611590565b1980831691505092915050565b5f6115c3838361159c565b9150826002028217905092915050565b6115dc82610d50565b67ffffffffffffffff8111156115f5576115f4611406565b5b6115ff825461116e565b61160a82828561154a565b5f60209050601f83116001811461163b575f8415611629578287015190505b61163385826115b8565b86555061169a565b601f19841661164986611433565b5f5b828110156116705784890151825560018201915060208501945060208101905061164b565b8683101561168d5784890151611689601f89168261159c565b8355505b6001600288020188555050505b505050505050565b828183375f83830152505050565b5f6116bb8385610d5a565b93506116c88385846116a2565b6116d183610d78565b840190509392505050565b5f6020820190508181035f8301526116f58184866116b0565b9050939250505056fea26469706673582212208f09272ea5e175f1ff5725cba45f63d1986a46e30a7d061956753564969663ba64736f6c634300081e0033",
					"opcodes": "PUSH1 0x80 PUSH1 0x40 MSTORE CALLVALUE DUP1 ISZERO PUSH2 0xF JUMPI PUSH0 PUSH0 REVERT JUMPDEST POP PUSH1 0x40 MLOAD PUSH2 0x1926 CODESIZE SUB DUP1 PUSH2 0x1926 DUP4 CODECOPY DUP2 DUP2 ADD PUSH1 0x40 MSTORE DUP2 ADD SWAP1 PUSH2 0x31 SWAP2 SWAP1 PUSH2 0x142 JUMP JUMPDEST PUSH0 PUSH20 0xFFFFFFFFFFFFFFFFFFFFFFFFFFFFFFFFFFFFFFFF AND DUP2 PUSH20 0xFFFFFFFFFFFFFFFFFFFFFFFFFFFFFFFFFFFFFFFF AND SUB PUSH2 0x9F JUMPI PUSH1 0x40 MLOAD PUSH32 0x8C379A000000000000000000000000000000000000000000000000000000000 DUP2 MSTORE PUSH1 0x4 ADD PUSH2 0x96 SWAP1 PUSH2 0x1C7 JUMP JUMPDEST PUSH1 0x40 MLOAD DUP1 SWAP2 SUB SWAP1 REVERT JUMPDEST DUP1 PUSH0 PUSH0 PUSH2 0x100 EXP DUP2 SLOAD DUP2 PUSH20 0xFFFFFFFFFFFFFFFFFFFFFFFFFFFFFFFFFFFFFFFF MUL NOT AND SWAP1 DUP4 PUSH20 0xFFFFFFFFFFFFFFFFFFFFFFFFFFFFFFFFFFFFFFFF AND MUL OR SWAP1 SSTORE POP POP PUSH2 0x1E5 JUMP JUMPDEST PUSH0 PUSH0 REVERT JUMPDEST PUSH0 PUSH20 0xFFFFFFFFFFFFFFFFFFFFFFFFFFFFFFFFFFFFFFFF DUP3 AND SWAP1 POP SWAP2 SWAP1 POP JUMP JUMPDEST PUSH0 PUSH2 0x111 DUP3 PUSH2 0xE8 JUMP JUMPDEST SWAP1 POP SWAP2 SWAP1 POP JUMP JUMPDEST PUSH2 0x121 DUP2 PUSH2 0x107 JUMP JUMPDEST DUP2 EQ PUSH2 0x12B JUMPI PUSH0 PUSH0 REVERT JUMPDEST POP JUMP JUMPDEST PUSH0 DUP2 MLOAD SWAP1 POP PUSH2 0x13C DUP2 PUSH2 0x118 JUMP JUMPDEST SWAP3 SWAP2 POP POP JUMP JUMPDEST PUSH0 PUSH1 0x20 DUP3 DUP5 SUB SLT ISZERO PUSH2 0x157 JUMPI PUSH2 0x156 PUSH2 0xE4 JUMP JUMPDEST JUMPDEST PUSH0 PUSH2 0x164 DUP5 DUP3 DUP6 ADD PUSH2 0x12E JUMP JUMPDEST SWAP2 POP POP SWAP3 SWAP2 POP POP JUMP JUMPDEST PUSH0 DUP3 DUP3 MSTORE PUSH1 0x20 DUP3 ADD SWAP1 POP SWAP3 SWAP2 POP POP JUMP JUMPDEST PUSH32 0x496E76616C69642061646D696E00000000000000000000000000000000000000 PUSH0 DUP3 ADD MSTORE POP JUMP JUMPDEST PUSH0 PUSH2 0x1B1 PUSH1 0xD DUP4 PUSH2 0x16D JUMP JUMPDEST SWAP2 POP PUSH2 0x1BC DUP3 PUSH2 0x17D JUMP JUMPDEST PUSH1 0x20 DUP3 ADD SWAP1 POP SWAP2 SWAP1 POP JUMP JUMPDEST PUSH0 PUSH1 0x20 DUP3 ADD SWAP1 POP DUP2 DUP2 SUB PUSH0 DUP4 ADD MSTORE PUSH2 0x1DE DUP2 PUSH2 0x1A5 JUMP JUMPDEST SWAP1 POP SWAP2 SWAP1 POP JUMP JUMPDEST PUSH2 0x1734 DUP1 PUSH2 0x1F2 PUSH0 CODECOPY PUSH0 RETURN INVALID PUSH1 0x80 PUSH1 0x40 MSTORE CALLVALUE DUP1 ISZERO PUSH2 0xF JUMPI PUSH0 PUSH0 REVERT JUMPDEST POP PUSH1 0x4 CALLDATASIZE LT PUSH2 0x91 JUMPI PUSH0 CALLDATALOAD PUSH1 0xE0 SHR DUP1 PUSH4 0xA239E33D GT PUSH2 0x64 JUMPI DUP1 PUSH4 0xA239E33D EQ PUSH2 0x144 JUMPI DUP1 PUSH4 0xB6E8FBBD EQ PUSH2 0x162 JUMPI DUP1 PUSH4 0xC9A49CD8 EQ PUSH2 0x17E JUMPI DUP1 PUSH4 0xE21FC185 EQ PUSH2 0x1AE JUMPI DUP1 PUSH4 0xE792DD8A EQ PUSH2 0x1DE JUMPI PUSH2 0x91 JUMP JUMPDEST DUP1 PUSH4 0x3876681B EQ PUSH2 0x95 JUMPI DUP1 PUSH4 0x4526F690 EQ PUSH2 0xC5 JUMPI DUP1 PUSH4 0x78A13ADF EQ PUSH2 0xF8 JUMPI DUP1 PUSH4 0x8BB7796A EQ PUSH2 0x128 JUMPI JUMPDEST PUSH0 PUSH0 REVERT JUMPDEST PUSH2 0xAF PUSH1 0x4 DUP1 CALLDATASIZE SUB DUP2 ADD SWAP1 PUSH2 0xAA SWAP2 SWAP1 PUSH2 0xCDA JUMP JUMPDEST PUSH2 0x212 JUMP JUMPDEST PUSH1 0x40 MLOAD PUSH2 0xBC SWAP2 SWAP1 PUSH2 0xD1F JUMP JUMPDEST PUSH1 0x40 MLOAD DUP1 SWAP2 SUB SWAP1 RETURN JUMPDEST PUSH2 0xDF PUSH1 0x4 DUP1 CALLDATASIZE SUB DUP2 ADD SWAP1 PUSH2 0xDA SWAP2 SWAP1 PUSH2 0xCDA JUMP JUMPDEST PUSH2 0x250 JUMP JUMPDEST PUSH1 0x40 MLOAD PUSH2 0xEF SWAP5 SWAP4 SWAP3 SWAP2 SWAP1 PUSH2 0xDFF JUMP JUMPDEST PUSH1 0x40 MLOAD DUP1 SWAP2 SUB SWAP1 RETURN JUMPDEST PUSH2 0x112 PUSH1 0x4 DUP1 CALLDATASIZE SUB DUP2 ADD SWAP1 PUSH2 0x10D SWAP2 SWAP1 PUSH2 0xE73 JUMP JUMPDEST PUSH2 0x387 JUMP JUMPDEST PUSH1 0x40 MLOAD PUSH2 0x11F SWAP2 SWAP1 PUSH2 0xEAD JUMP JUMPDEST PUSH1 0x40 MLOAD DUP1 SWAP2 SUB SWAP1 RETURN JUMPDEST PUSH2 0x142 PUSH1 0x4 DUP1 CALLDATASIZE SUB DUP2 ADD SWAP1 PUSH2 0x13D SWAP2 SWAP1 PUSH2 0xEF0 JUMP JUMPDEST PUSH2 0x3CD JUMP JUMPDEST STOP JUMPDEST PUSH2 0x14C PUSH2 0x50D JUMP JUMPDEST PUSH1 0x40 MLOAD PUSH2 0x159 SWAP2 SWAP1 PUSH2 0xF2E JUMP JUMPDEST PUSH1 0x40 MLOAD DUP1 SWAP2 SUB SWAP1 RETURN JUMPDEST PUSH2 0x17C PUSH1 0x4 DUP1 CALLDATASIZE SUB DUP2 ADD SWAP1 PUSH2 0x177 SWAP2 SWAP1 PUSH2 0xF47 JUMP JUMPDEST PUSH2 0x531 JUMP JUMPDEST STOP JUMPDEST PUSH2 0x198 PUSH1 0x4 DUP1 CALLDATASIZE SUB DUP2 ADD SWAP1 PUSH2 0x193 SWAP2 SWAP1 PUSH2 0x1010 JUMP JUMPDEST PUSH2 0x808 JUMP JUMPDEST PUSH1 0x40 MLOAD PUSH2 0x1A5 SWAP2 SWAP1 PUSH2 0xEAD JUMP JUMPDEST PUSH1 0x40 MLOAD DUP1 SWAP2 SUB SWAP1 RETURN JUMPDEST PUSH2 0x1C8 PUSH1 0x4 DUP1 CALLDATASIZE SUB DUP2 ADD SWAP1 PUSH2 0x1C3 SWAP2 SWAP1 PUSH2 0xE73 JUMP JUMPDEST PUSH2 0xBA6 JUMP JUMPDEST PUSH1 0x40 MLOAD PUSH2 0x1D5 SWAP2 SWAP1 PUSH2 0xEAD JUMP JUMPDEST PUSH1 0x40 MLOAD DUP1 SWAP2 SUB SWAP1 RETURN JUMPDEST PUSH2 0x1F8 PUSH1 0x4 DUP1 CALLDATASIZE SUB DUP2 ADD SWAP1 PUSH2 0x1F3 SWAP2 SWAP1 PUSH2 0xCDA JUMP JUMPDEST PUSH2 0xBBB JUMP JUMPDEST PUSH1 0x40 MLOAD PUSH2 0x209 SWAP6 SWAP5 SWAP4 SWAP3 SWAP2 SWAP1 PUSH2 0x1081 JUMP JUMPDEST PUSH1 0x40 MLOAD DUP1 SWAP2 SUB SWAP1 RETURN JUMPDEST PUSH0 PUSH0 PUSH1 0x2 PUSH0 DUP5 DUP2 MSTORE PUSH1 0x20 ADD SWAP1 DUP2 MSTORE PUSH1 0x20 ADD PUSH0 KECCAK256 SWAP1 POP PUSH0 DUP2 PUSH0 ADD SLOAD EQ ISZERO DUP1 ISZERO PUSH2 0x248 JUMPI POP DUP1 PUSH1 0x3 ADD PUSH1 0x14 SWAP1 SLOAD SWAP1 PUSH2 0x100 EXP SWAP1 DIV PUSH1 0xFF AND JUMPDEST SWAP2 POP POP SWAP2 SWAP1 POP JUMP JUMPDEST PUSH0 PUSH1 0x60 PUSH0 PUSH0 PUSH0 PUSH1 0x2 PUSH0 DUP8 DUP2 MSTORE PUSH1 0x20 ADD SWAP1 DUP2 MSTORE PUSH1 0x20 ADD PUSH0 KECCAK256 SWAP1 POP PUSH0 DUP2 PUSH0 ADD SLOAD SUB PUSH2 0x2AE JUMPI PUSH1 0x40 MLOAD PUSH32 0x8C379A000000000000000000000000000000000000000000000000000000000 DUP2 MSTORE PUSH1 0x4 ADD PUSH2 0x2A5 SWAP1 PUSH2 0x1123 JUMP JUMPDEST PUSH1 0x40 MLOAD DUP1 SWAP2 SUB SWAP1 REVERT JUMPDEST DUP1 PUSH1 0x1 ADD SLOAD DUP2 PUSH1 0x2 ADD DUP3 PUSH1 0x3 ADD PUSH0 SWAP1 SLOAD SWAP1 PUSH2 0x100 EXP SWAP1 DIV PUSH20 0xFFFFFFFFFFFFFFFFFFFFFFFFFFFFFFFFFFFFFFFF AND DUP4 PUSH1 0x3 ADD PUSH1 0x14 SWAP1 SLOAD SWAP1 PUSH2 0x100 EXP SWAP1 DIV PUSH1 0xFF AND DUP3 DUP1 SLOAD PUSH2 0x2F9 SWAP1 PUSH2 0x116E JUMP JUMPDEST DUP1 PUSH1 0x1F ADD PUSH1 0x20 DUP1 SWAP2 DIV MUL PUSH1 0x20 ADD PUSH1 0x40 MLOAD SWAP1 DUP2 ADD PUSH1 0x40 MSTORE DUP1 SWAP3 SWAP2 SWAP1 DUP2 DUP2 MSTORE PUSH1 0x20 ADD DUP3 DUP1 SLOAD PUSH2 0x325 SWAP1 PUSH2 0x116E JUMP JUMPDEST DUP1 ISZERO PUSH2 0x370 JUMPI DUP1 PUSH1 0x1F LT PUSH2 0x347 JUMPI PUSH2 0x100 DUP1 DUP4 SLOAD DIV MUL DUP4 MSTORE SWAP2 PUSH1 0x20 ADD SWAP2 PUSH2 0x370 JUMP JUMPDEST DUP3 ADD SWAP2 SWAP1 PUSH0 MSTORE PUSH1 0x20 PUSH0 KECCAK256 SWAP1 JUMPDEST DUP2 SLOAD DUP2 MSTORE SWAP1 PUSH1 0x1 ADD SWAP1 PUSH1 0x20 ADD DUP1 DUP4 GT PUSH2 0x353 JUMPI DUP3 SWAP1 SUB PUSH1 0x1F AND DUP3 ADD SWAP2 JUMPDEST POP POP POP POP POP SWAP3 POP SWAP5 POP SWAP5 POP SWAP5 POP SWAP5 POP POP SWAP2 SWAP4 POP SWAP2 SWAP4 JUMP JUMPDEST PUSH0 PUSH1 0x3 PUSH0 DUP4 PUSH20 0xFFFFFFFFFFFFFFFFFFFFFFFFFFFFFFFFFFFFFFFF AND PUSH20 0xFFFFFFFFFFFFFFFFFFFFFFFFFFFFFFFFFFFFFFFF AND DUP2 MSTORE PUSH1 0x20 ADD SWAP1 DUP2 MSTORE PUSH1 0x20 ADD PUSH0 KECCAK256 SLOAD SWAP1 POP SWAP2 SWAP1 POP JUMP JUMPDEST PUSH0 PUSH0 SWAP1 SLOAD SWAP1 PUSH2 0x100 EXP SWAP1 DIV PUSH20 0xFFFFFFFFFFFFFFFFFFFFFFFFFFFFFFFFFFFFFFFF AND PUSH20 0xFFFFFFFFFFFFFFFFFFFFFFFFFFFFFFFFFFFFFFFF AND CALLER PUSH20 0xFFFFFFFFFFFFFFFFFFFFFFFFFFFFFFFFFFFFFFFF AND EQ PUSH2 0x45B JUMPI PUSH1 0x40 MLOAD PUSH32 0x8C379A000000000000000000000000000000000000000000000000000000000 DUP2 MSTORE PUSH1 0x4 ADD PUSH2 0x452 SWAP1 PUSH2 0x11E8 JUMP JUMPDEST PUSH1 0x40 MLOAD DUP1 SWAP2 SUB SWAP1 REVERT JUMPDEST PUSH0 PUSH1 0x2 PUSH0 DUP5 DUP2 MSTORE PUSH1 0x20 ADD SWAP1 DUP2 MSTORE PUSH1 0x20 ADD PUSH0 KECCAK256 SWAP1 POP PUSH0 DUP2 PUSH0 ADD SLOAD SUB PUSH2 0x4B4 JUMPI PUSH1 0x40 MLOAD PUSH32 0x8C379A000000000000000000000000000000000000000000000000000000000 DUP2 MSTORE PUSH1 0x4 ADD PUSH2 0x4AB SWAP1 PUSH2 0x1123 JUMP JUMPDEST PUSH1 0x40 MLOAD DUP1 SWAP2 SUB SWAP1 REVERT JUMPDEST DUP2 DUP2 PUSH1 0x3 ADD PUSH1 0x14 PUSH2 0x100 EXP DUP2 SLOAD DUP2 PUSH1 0xFF MUL NOT AND SWAP1 DUP4 ISZERO ISZERO MUL OR SWAP1 SSTORE POP DUP3 PUSH32 0xD7F8CDC314DECF9909736ED5FD160BAF345E0A3E07D4DA506F3983EE2A66056C DUP4 PUSH1 0x40 MLOAD PUSH2 0x500 SWAP2 SWAP1 PUSH2 0xD1F JUMP JUMPDEST PUSH1 0x40 MLOAD DUP1 SWAP2 SUB SWAP1 LOG2 POP POP POP JUMP JUMPDEST PUSH0 PUSH0 SWAP1 SLOAD SWAP1 PUSH2 0x100 EXP SWAP1 DIV PUSH20 0xFFFFFFFFFFFFFFFFFFFFFFFFFFFFFFFFFFFFFFFF AND DUP2 JUMP JUMPDEST PUSH0 PUSH0 SWAP1 SLOAD SWAP1 PUSH2 0x100 EXP SWAP1 DIV PUSH20 0xFFFFFFFFFFFFFFFFFFFFFFFFFFFFFFFFFFFFFFFF AND PUSH20 0xFFFFFFFFFFFFFFFFFFFFFFFFFFFFFFFFFFFFFFFF AND CALLER PUSH20 0xFFFFFFFFFFFFFFFFFFFFFFFFFFFFFFFFFFFFFFFF AND EQ PUSH2 0x5BF JUMPI PUSH1 0x40 MLOAD PUSH32 0x8C379A000000000000000000000000000000000000000000000000000000000 DUP2 MSTORE PUSH1 0x4 ADD PUSH2 0x5B6 SWAP1 PUSH2 0x11E8 JUMP JUMPDEST PUSH1 0x40 MLOAD DUP1 SWAP2 SUB SWAP1 REVERT JUMPDEST PUSH0 PUSH20 0xFFFFFFFFFFFFFFFFFFFFFFFFFFFFFFFFFFFFFFFF AND DUP2 PUSH20 0xFFFFFFFFFFFFFFFFFFFFFFFFFFFFFFFFFFFFFFFF AND SUB PUSH2 0x62D JUMPI PUSH1 0x40 MLOAD PUSH32 0x8C379A000000000000000000000000000000000000000000000000000000000 DUP2 MSTORE PUSH1 0x4 ADD PUSH2 0x624 SWAP1 PUSH2 0x1250 JUMP JUMPDEST PUSH1 0x40 MLOAD DUP1 SWAP2 SUB SWAP1 REVERT JUMPDEST PUSH0 PUSH1 0x2 PUSH0 DUP5 DUP2 MSTORE PUSH1 0x20 ADD SWAP1 DUP2 MSTORE PUSH1 0x20 ADD PUSH0 KECCAK256 SWAP1 POP PUSH0 DUP2 PUSH0 ADD SLOAD SUB PUSH2 0x686 JUMPI PUSH1 0x40 MLOAD PUSH32 0x8C379A000000000000000000000000000000000000000000000000000000000 DUP2 MSTORE PUSH1 0x4 ADD PUSH2 0x67D SWAP1 PUSH2 0x1123 JUMP JUMPDEST PUSH1 0x40 MLOAD DUP1 SWAP2 SUB SWAP1 REVERT JUMPDEST PUSH0 DUP2 PUSH1 0x3 ADD PUSH0 SWAP1 SLOAD SWAP1 PUSH2 0x100 EXP SWAP1 DIV PUSH20 0xFFFFFFFFFFFFFFFFFFFFFFFFFFFFFFFFFFFFFFFF AND SWAP1 POP PUSH0 PUSH20 0xFFFFFFFFFFFFFFFFFFFFFFFFFFFFFFFFFFFFFFFF AND DUP2 PUSH20 0xFFFFFFFFFFFFFFFFFFFFFFFFFFFFFFFFFFFFFFFF AND EQ PUSH2 0x723 JUMPI PUSH0 PUSH1 0x3 PUSH0 DUP4 PUSH20 0xFFFFFFFFFFFFFFFFFFFFFFFFFFFFFFFFFFFFFFFF AND PUSH20 0xFFFFFFFFFFFFFFFFFFFFFFFFFFFFFFFFFFFFFFFF AND DUP2 MSTORE PUSH1 0x20 ADD SWAP1 DUP2 MSTORE PUSH1 0x20 ADD PUSH0 KECCAK256 DUP2 SWAP1 SSTORE POP JUMPDEST DUP3 DUP3 PUSH1 0x3 ADD PUSH0 PUSH2 0x100 EXP DUP2 SLOAD DUP2 PUSH20 0xFFFFFFFFFFFFFFFFFFFFFFFFFFFFFFFFFFFFFFFF MUL NOT AND SWAP1 DUP4 PUSH20 0xFFFFFFFFFFFFFFFFFFFFFFFFFFFFFFFFFFFFFFFF AND MUL OR SWAP1 SSTORE POP DUP4 PUSH1 0x3 PUSH0 DUP6 PUSH20 0xFFFFFFFFFFFFFFFFFFFFFFFFFFFFFFFFFFFFFFFF AND PUSH20 0xFFFFFFFFFFFFFFFFFFFFFFFFFFFFFFFFFFFFFFFF AND DUP2 MSTORE PUSH1 0x20 ADD SWAP1 DUP2 MSTORE PUSH1 0x20 ADD PUSH0 KECCAK256 DUP2 SWAP1 SSTORE POP DUP3 PUSH20 0xFFFFFFFFFFFFFFFFFFFFFFFFFFFFFFFFFFFFFFFF AND DUP2 PUSH20 0xFFFFFFFFFFFFFFFFFFFFFFFFFFFFFFFFFFFFFFFF AND DUP6 PUSH32 0x55113A3EEC51C2635110F897A667A04457F92BE821CDB19BFB549DDB0F30DABF PUSH1 0x40 MLOAD PUSH1 0x40 MLOAD DUP1 SWAP2 SUB SWAP1 LOG4 POP POP POP POP JUMP JUMPDEST PUSH0 PUSH0 PUSH0 SWAP1 SLOAD SWAP1 PUSH2 0x100 EXP SWAP1 DIV PUSH20 0xFFFFFFFFFFFFFFFFFFFFFFFFFFFFFFFFFFFFFFFF AND PUSH20 0xFFFFFFFFFFFFFFFFFFFFFFFFFFFFFFFFFFFFFFFF AND CALLER PUSH20 0xFFFFFFFFFFFFFFFFFFFFFFFFFFFFFFFFFFFFFFFF AND EQ PUSH2 0x897 JUMPI PUSH1 0x40 MLOAD PUSH32 0x8C379A000000000000000000000000000000000000000000000000000000000 DUP2 MSTORE PUSH1 0x4 ADD PUSH2 0x88E SWAP1 PUSH2 0x11E8 JUMP JUMPDEST PUSH1 0x40 MLOAD DUP1 SWAP2 SUB SWAP1 REVERT JUMPDEST PUSH0 PUSH0 SHL DUP6 SUB PUSH2 0x8DB JUMPI PUSH1 0x40 MLOAD PUSH32 0x8C379A000000000000000000000000000000000000000000000000000000000 DUP2 MSTORE PUSH1 0x4 ADD PUSH2 0x8D2 SWAP1 PUSH2 0x12B8 JUMP JUMPDEST PUSH1 0x40 MLOAD DUP1 SWAP2 SUB SWAP1 REVERT JUMPDEST PUSH0 PUSH20 0xFFFFFFFFFFFFFFFFFFFFFFFFFFFFFFFFFFFFFFFF AND DUP3 PUSH20 0xFFFFFFFFFFFFFFFFFFFFFFFFFFFFFFFFFFFFFFFF AND SUB PUSH2 0x949 JUMPI PUSH1 0x40 MLOAD PUSH32 0x8C379A000000000000000000000000000000000000000000000000000000000 DUP2 MSTORE PUSH1 0x4 ADD PUSH2 0x940 SWAP1 PUSH2 0x1320 JUMP JUMPDEST PUSH1 0x40 MLOAD DUP1 SWAP2 SUB SWAP1 REVERT JUMPDEST PUSH0 PUSH1 0x3 PUSH0 DUP5 PUSH20 0xFFFFFFFFFFFFFFFFFFFFFFFFFFFFFFFFFFFFFFFF AND PUSH20 0xFFFFFFFFFFFFFFFFFFFFFFFFFFFFFFFFFFFFFFFF AND DUP2 MSTORE PUSH1 0x20 ADD SWAP1 DUP2 MSTORE PUSH1 0x20 ADD PUSH0 KECCAK256 SLOAD EQ PUSH2 0x9C8 JUMPI PUSH1 0x40 MLOAD PUSH32 0x8C379A000000000000000000000000000000000000000000000000000000000 DUP2 MSTORE PUSH1 0x4 ADD PUSH2 0x9BF SWAP1 PUSH2 0x1388 JUMP JUMPDEST PUSH1 0x40 MLOAD DUP1 SWAP2 SUB SWAP1 REVERT JUMPDEST PUSH1 0x1 DUP1 PUSH0 DUP3 DUP3 SLOAD PUSH2 0x9D9 SWAP2 SWAP1 PUSH2 0x13D3 JUMP JUMPDEST SWAP3 POP POP DUP2 SWAP1 SSTORE POP PUSH1 0x1 SLOAD SWAP1 POP PUSH1 0x40 MLOAD DUP1 PUSH1 0xA0 ADD PUSH1 0x40 MSTORE DUP1 DUP3 DUP2 MSTORE PUSH1 0x20 ADD DUP7 DUP2 MSTORE PUSH1 0x20 ADD DUP6 DUP6 DUP1 DUP1 PUSH1 0x1F ADD PUSH1 0x20 DUP1 SWAP2 DIV MUL PUSH1 0x20 ADD PUSH1 0x40 MLOAD SWAP1 DUP2 ADD PUSH1 0x40 MSTORE DUP1 SWAP4 SWAP3 SWAP2 SWAP1 DUP2 DUP2 MSTORE PUSH1 0x20 ADD DUP4 DUP4 DUP1 DUP3 DUP5 CALLDATACOPY PUSH0 DUP2 DUP5 ADD MSTORE PUSH1 0x1F NOT PUSH1 0x1F DUP3 ADD AND SWAP1 POP DUP1 DUP4 ADD SWAP3 POP POP POP POP POP POP POP DUP2 MSTORE PUSH1 0x20 ADD DUP4 PUSH20 0xFFFFFFFFFFFFFFFFFFFFFFFFFFFFFFFFFFFFFFFF AND DUP2 MSTORE PUSH1 0x20 ADD PUSH1 0x1 ISZERO ISZERO DUP2 MSTORE POP PUSH1 0x2 PUSH0 DUP4 DUP2 MSTORE PUSH1 0x20 ADD SWAP1 DUP2 MSTORE PUSH1 0x20 ADD PUSH0 KECCAK256 PUSH0 DUP3 ADD MLOAD DUP2 PUSH0 ADD SSTORE PUSH1 0x20 DUP3 ADD MLOAD DUP2 PUSH1 0x1 ADD SSTORE PUSH1 0x40 DUP3 ADD MLOAD DUP2 PUSH1 0x2 ADD SWAP1 DUP2 PUSH2 0xAA0 SWAP2 SWAP1 PUSH2 0x15D3 JUMP JUMPDEST POP PUSH1 0x60 DUP3 ADD MLOAD DUP2 PUSH1 0x3 ADD PUSH0 PUSH2 0x100 EXP DUP2 SLOAD DUP2 PUSH20 0xFFFFFFFFFFFFFFFFFFFFFFFFFFFFFFFFFFFFFFFF MUL NOT AND SWAP1 DUP4 PUSH20 0xFFFFFFFFFFFFFFFFFFFFFFFFFFFFFFFFFFFFFFFF AND MUL OR SWAP1 SSTORE POP PUSH1 0x80 DUP3 ADD MLOAD DUP2 PUSH1 0x3 ADD PUSH1 0x14 PUSH2 0x100 EXP DUP2 SLOAD DUP2 PUSH1 0xFF MUL NOT AND SWAP1 DUP4 ISZERO ISZERO MUL OR SWAP1 SSTORE POP SWAP1 POP POP DUP1 PUSH1 0x3 PUSH0 DUP5 PUSH20 0xFFFFFFFFFFFFFFFFFFFFFFFFFFFFFFFFFFFFFFFF AND PUSH20 0xFFFFFFFFFFFFFFFFFFFFFFFFFFFFFFFFFFFFFFFF AND DUP2 MSTORE PUSH1 0x20 ADD SWAP1 DUP2 MSTORE PUSH1 0x20 ADD PUSH0 KECCAK256 DUP2 SWAP1 SSTORE POP DUP2 PUSH20 0xFFFFFFFFFFFFFFFFFFFFFFFFFFFFFFFFFFFFFFFF AND DUP6 DUP3 PUSH32 0x6DC58A50BD1AF85F2A33A2E94AC0A5177A3C092ED29CFBB353C1EC0B95F92710 DUP8 DUP8 PUSH1 0x40 MLOAD PUSH2 0xB96 SWAP3 SWAP2 SWAP1 PUSH2 0x16DC JUMP JUMPDEST PUSH1 0x40 MLOAD DUP1 SWAP2 SUB SWAP1 LOG4 SWAP5 SWAP4 POP POP POP POP JUMP JUMPDEST PUSH1 0x3 PUSH1 0x20 MSTORE DUP1 PUSH0 MSTORE PUSH1 0x40 PUSH0 KECCAK256 PUSH0 SWAP2 POP SWAP1 POP SLOAD DUP2 JUMP JUMPDEST PUSH1 0x2 PUSH1 0x20 MSTORE DUP1 PUSH0 MSTORE PUSH1 0x40 PUSH0 KECCAK256 PUSH0 SWAP2 POP SWAP1 POP DUP1 PUSH0 ADD SLOAD SWAP1 DUP1 PUSH1 0x1 ADD SLOAD SWAP1 DUP1 PUSH1 0x2 ADD DUP1 SLOAD PUSH2 0xBE6 SWAP1 PUSH2 0x116E JUMP JUMPDEST DUP1 PUSH1 0x1F ADD PUSH1 0x20 DUP1 SWAP2 DIV MUL PUSH1 0x20 ADD PUSH1 0x40 MLOAD SWAP1 DUP2 ADD PUSH1 0x40 MSTORE DUP1 SWAP3 SWAP2 SWAP1 DUP2 DUP2 MSTORE PUSH1 0x20 ADD DUP3 DUP1 SLOAD PUSH2 0xC12 SWAP1 PUSH2 0x116E JUMP JUMPDEST DUP1 ISZERO PUSH2 0xC5D JUMPI DUP1 PUSH1 0x1F LT PUSH2 0xC34 JUMPI PUSH2 0x100 DUP1 DUP4 SLOAD DIV MUL DUP4 MSTORE SWAP2 PUSH1 0x20 ADD SWAP2 PUSH2 0xC5D JUMP JUMPDEST DUP3 ADD SWAP2 SWAP1 PUSH0 MSTORE PUSH1 0x20 PUSH0 KECCAK256 SWAP1 JUMPDEST DUP2 SLOAD DUP2 MSTORE SWAP1 PUSH1 0x1 ADD SWAP1 PUSH1 0x20 ADD DUP1 DUP4 GT PUSH2 0xC40 JUMPI DUP3 SWAP1 SUB PUSH1 0x1F AND DUP3 ADD SWAP2 JUMPDEST POP POP POP POP POP SWAP1 DUP1 PUSH1 0x3 ADD PUSH0 SWAP1 SLOAD SWAP1 PUSH2 0x100 EXP SWAP1 DIV PUSH20 0xFFFFFFFFFFFFFFFFFFFFFFFFFFFFFFFFFFFFFFFF AND SWAP1 DUP1 PUSH1 0x3 ADD PUSH1 0x14 SWAP1 SLOAD SWAP1 PUSH2 0x100 EXP SWAP1 DIV PUSH1 0xFF AND SWAP1 POP DUP6 JUMP JUMPDEST PUSH0 PUSH0 REVERT JUMPDEST PUSH0 PUSH0 REVERT JUMPDEST PUSH0 DUP2 SWAP1 POP SWAP2 SWAP1 POP JUMP JUMPDEST PUSH2 0xCB9 DUP2 PUSH2 0xCA7 JUMP JUMPDEST DUP2 EQ PUSH2 0xCC3 JUMPI PUSH0 PUSH0 REVERT JUMPDEST POP JUMP JUMPDEST PUSH0 DUP2 CALLDATALOAD SWAP1 POP PUSH2 0xCD4 DUP2 PUSH2 0xCB0 JUMP JUMPDEST SWAP3 SWAP2 POP POP JUMP JUMPDEST PUSH0 PUSH1 0x20 DUP3 DUP5 SUB SLT ISZERO PUSH2 0xCEF JUMPI PUSH2 0xCEE PUSH2 0xC9F JUMP JUMPDEST JUMPDEST PUSH0 PUSH2 0xCFC DUP5 DUP3 DUP6 ADD PUSH2 0xCC6 JUMP JUMPDEST SWAP2 POP POP SWAP3 SWAP2 POP POP JUMP JUMPDEST PUSH0 DUP2 ISZERO ISZERO SWAP1 POP SWAP2 SWAP1 POP JUMP JUMPDEST PUSH2 0xD19 DUP2 PUSH2 0xD05 JUMP JUMPDEST DUP3 MSTORE POP POP JUMP JUMPDEST PUSH0 PUSH1 0x20 DUP3 ADD SWAP1 POP PUSH2 0xD32 PUSH0 DUP4 ADD DUP5 PUSH2 0xD10 JUMP JUMPDEST SWAP3 SWAP2 POP POP JUMP JUMPDEST PUSH0 DUP2 SWAP1 POP SWAP2 SWAP1 POP JUMP JUMPDEST PUSH2 0xD4A DUP2 PUSH2 0xD38 JUMP JUMPDEST DUP3 MSTORE POP POP JUMP JUMPDEST PUSH0 DUP2 MLOAD SWAP1 POP SWAP2 SWAP1 POP JUMP JUMPDEST PUSH0 DUP3 DUP3 MSTORE PUSH1 0x20 DUP3 ADD SWAP1 POP SWAP3 SWAP2 POP POP JUMP JUMPDEST DUP3 DUP2 DUP4 MCOPY PUSH0 DUP4 DUP4 ADD MSTORE POP POP POP JUMP JUMPDEST PUSH0 PUSH1 0x1F NOT PUSH1 0x1F DUP4 ADD AND SWAP1 POP SWAP2 SWAP1 POP JUMP JUMPDEST PUSH0 PUSH2 0xD92 DUP3 PUSH2 0xD50 JUMP JUMPDEST PUSH2 0xD9C DUP2 DUP6 PUSH2 0xD5A JUMP JUMPDEST SWAP4 POP PUSH2 0xDAC DUP2 DUP6 PUSH1 0x20 DUP7 ADD PUSH2 0xD6A JUMP JUMPDEST PUSH2 0xDB5 DUP2 PUSH2 0xD78 JUMP JUMPDEST DUP5 ADD SWAP2 POP POP SWAP3 SWAP2 POP POP JUMP JUMPDEST PUSH0 PUSH20 0xFFFFFFFFFFFFFFFFFFFFFFFFFFFFFFFFFFFFFFFF DUP3 AND SWAP1 POP SWAP2 SWAP1 POP JUMP JUMPDEST PUSH0 PUSH2 0xDE9 DUP3 PUSH2 0xDC0 JUMP JUMPDEST SWAP1 POP SWAP2 SWAP1 POP JUMP JUMPDEST PUSH2 0xDF9 DUP2 PUSH2 0xDDF JUMP JUMPDEST DUP3 MSTORE POP POP JUMP JUMPDEST PUSH0 PUSH1 0x80 DUP3 ADD SWAP1 POP PUSH2 0xE12 PUSH0 DUP4 ADD DUP8 PUSH2 0xD41 JUMP JUMPDEST DUP2 DUP2 SUB PUSH1 0x20 DUP4 ADD MSTORE PUSH2 0xE24 DUP2 DUP7 PUSH2 0xD88 JUMP JUMPDEST SWAP1 POP PUSH2 0xE33 PUSH1 0x40 DUP4 ADD DUP6 PUSH2 0xDF0 JUMP JUMPDEST PUSH2 0xE40 PUSH1 0x60 DUP4 ADD DUP5 PUSH2 0xD10 JUMP JUMPDEST SWAP6 SWAP5 POP POP POP POP POP JUMP JUMPDEST PUSH2 0xE52 DUP2 PUSH2 0xDDF JUMP JUMPDEST DUP2 EQ PUSH2 0xE5C JUMPI PUSH0 PUSH0 REVERT JUMPDEST POP JUMP JUMPDEST PUSH0 DUP2 CALLDATALOAD SWAP1 POP PUSH2 0xE6D DUP2 PUSH2 0xE49 JUMP JUMPDEST SWAP3 SWAP2 POP POP JUMP JUMPDEST PUSH0 PUSH1 0x20 DUP3 DUP5 SUB SLT ISZERO PUSH2 0xE88 JUMPI PUSH2 0xE87 PUSH2 0xC9F JUMP JUMPDEST JUMPDEST PUSH0 PUSH2 0xE95 DUP5 DUP3 DUP6 ADD PUSH2 0xE5F JUMP JUMPDEST SWAP2 POP POP SWAP3 SWAP2 POP POP JUMP JUMPDEST PUSH2 0xEA7 DUP2 PUSH2 0xCA7 JUMP JUMPDEST DUP3 MSTORE POP POP JUMP JUMPDEST PUSH0 PUSH1 0x20 DUP3 ADD SWAP1 POP PUSH2 0xEC0 PUSH0 DUP4 ADD DUP5 PUSH2 0xE9E JUMP JUMPDEST SWAP3 SWAP2 POP POP JUMP JUMPDEST PUSH2 0xECF DUP2 PUSH2 0xD05 JUMP JUMPDEST DUP2 EQ PUSH2 0xED9 JUMPI PUSH0 PUSH0 REVERT JUMPDEST POP JUMP JUMPDEST PUSH0 DUP2 CALLDATALOAD SWAP1 POP PUSH2 0xEEA DUP2 PUSH2 0xEC6 JUMP JUMPDEST SWAP3 SWAP2 POP POP JUMP JUMPDEST PUSH0 PUSH0 PUSH1 0x40 DUP4 DUP6 SUB SLT ISZERO PUSH2 0xF06 JUMPI PUSH2 0xF05 PUSH2 0xC9F JUMP JUMPDEST JUMPDEST PUSH0 PUSH2 0xF13 DUP6 DUP3 DUP7 ADD PUSH2 0xCC6 JUMP JUMPDEST SWAP3 POP POP PUSH1 0x20 PUSH2 0xF24 DUP6 DUP3 DUP7 ADD PUSH2 0xEDC JUMP JUMPDEST SWAP2 POP POP SWAP3 POP SWAP3 SWAP1 POP JUMP JUMPDEST PUSH0 PUSH1 0x20 DUP3 ADD SWAP1 POP PUSH2 0xF41 PUSH0 DUP4 ADD DUP5 PUSH2 0xDF0 JUMP JUMPDEST SWAP3 SWAP2 POP POP JUMP JUMPDEST PUSH0 PUSH0 PUSH1 0x40 DUP4 DUP6 SUB SLT ISZERO PUSH2 0xF5D JUMPI PUSH2 0xF5C PUSH2 0xC9F JUMP JUMPDEST JUMPDEST PUSH0 PUSH2 0xF6A DUP6 DUP3 DUP7 ADD PUSH2 0xCC6 JUMP JUMPDEST SWAP3 POP POP PUSH1 0x20 PUSH2 0xF7B DUP6 DUP3 DUP7 ADD PUSH2 0xE5F JUMP JUMPDEST SWAP2 POP POP SWAP3 POP SWAP3 SWAP1 POP JUMP JUMPDEST PUSH2 0xF8E DUP2 PUSH2 0xD38 JUMP JUMPDEST DUP2 EQ PUSH2 0xF98 JUMPI PUSH0 PUSH0 REVERT JUMPDEST POP JUMP JUMPDEST PUSH0 DUP2 CALLDATALOAD SWAP1 POP PUSH2 0xFA9 DUP2 PUSH2 0xF85 JUMP JUMPDEST SWAP3 SWAP2 POP POP JUMP JUMPDEST PUSH0 PUSH0 REVERT JUMPDEST PUSH0 PUSH0 REVERT JUMPDEST PUSH0 PUSH0 REVERT JUMPDEST PUSH0 PUSH0 DUP4 PUSH1 0x1F DUP5 ADD SLT PUSH2 0xFD0 JUMPI PUSH2 0xFCF PUSH2 0xFAF JUMP JUMPDEST JUMPDEST DUP3 CALLDATALOAD SWAP1 POP PUSH8 0xFFFFFFFFFFFFFFFF DUP2 GT ISZERO PUSH2 0xFED JUMPI PUSH2 0xFEC PUSH2 0xFB3 JUMP JUMPDEST JUMPDEST PUSH1 0x20 DUP4 ADD SWAP2 POP DUP4 PUSH1 0x1 DUP3 MUL DUP4 ADD GT ISZERO PUSH2 0x1009 JUMPI PUSH2 0x1008 PUSH2 0xFB7 JUMP JUMPDEST JUMPDEST SWAP3 POP SWAP3 SWAP1 POP JUMP JUMPDEST PUSH0 PUSH0 PUSH0 PUSH0 PUSH1 0x60 DUP6 DUP8 SUB SLT ISZERO PUSH2 0x1028 JUMPI PUSH2 0x1027 PUSH2 0xC9F JUMP JUMPDEST JUMPDEST PUSH0 PUSH2 0x1035 DUP8 DUP3 DUP9 ADD PUSH2 0xF9B JUMP JUMPDEST SWAP5 POP POP PUSH1 0x20 DUP6 ADD CALLDATALOAD PUSH8 0xFFFFFFFFFFFFFFFF DUP2 GT ISZERO PUSH2 0x1056 JUMPI PUSH2 0x1055 PUSH2 0xCA3 JUMP JUMPDEST JUMPDEST PUSH2 0x1062 DUP8 DUP3 DUP9 ADD PUSH2 0xFBB JUMP JUMPDEST SWAP4 POP SWAP4 POP POP PUSH1 0x40 PUSH2 0x1075 DUP8 DUP3 DUP9 ADD PUSH2 0xE5F JUMP JUMPDEST SWAP2 POP POP SWAP3 SWAP6 SWAP2 SWAP5 POP SWAP3 POP JUMP JUMPDEST PUSH0 PUSH1 0xA0 DUP3 ADD SWAP1 POP PUSH2 0x1094 PUSH0 DUP4 ADD DUP9 PUSH2 0xE9E JUMP JUMPDEST PUSH2 0x10A1 PUSH1 0x20 DUP4 ADD DUP8 PUSH2 0xD41 JUMP JUMPDEST DUP2 DUP2 SUB PUSH1 0x40 DUP4 ADD MSTORE PUSH2 0x10B3 DUP2 DUP7 PUSH2 0xD88 JUMP JUMPDEST SWAP1 POP PUSH2 0x10C2 PUSH1 0x60 DUP4 ADD DUP6 PUSH2 0xDF0 JUMP JUMPDEST PUSH2 0x10CF PUSH1 0x80 DUP4 ADD DUP5 PUSH2 0xD10 JUMP JUMPDEST SWAP7 SWAP6 POP POP POP POP POP POP JUMP JUMPDEST PUSH32 0x556E6B6E6F776E206F7267616E697A6174696F6E000000000000000000000000 PUSH0 DUP3 ADD MSTORE POP JUMP JUMPDEST PUSH0 PUSH2 0x110D PUSH1 0x14 DUP4 PUSH2 0xD5A JUMP JUMPDEST SWAP2 POP PUSH2 0x1118 DUP3 PUSH2 0x10D9 JUMP JUMPDEST PUSH1 0x20 DUP3 ADD SWAP1 POP SWAP2 SWAP1 POP JUMP JUMPDEST PUSH0 PUSH1 0x20 DUP3 ADD SWAP1 POP DUP2 DUP2 SUB PUSH0 DUP4 ADD MSTORE PUSH2 0x113A DUP2 PUSH2 0x1101 JUMP JUMPDEST SWAP1 POP SWAP2 SWAP1 POP JUMP JUMPDEST PUSH32 0x4E487B7100000000000000000000000000000000000000000000000000000000 PUSH0 MSTORE PUSH1 0x22 PUSH1 0x4 MSTORE PUSH1 0x24 PUSH0 REVERT JUMPDEST PUSH0 PUSH1 0x2 DUP3 DIV SWAP1 POP PUSH1 0x1 DUP3 AND DUP1 PUSH2 0x1185 JUMPI PUSH1 0x7F DUP3 AND SWAP2 POP JUMPDEST PUSH1 0x20 DUP3 LT DUP2 SUB PUSH2 0x1198 JUMPI PUSH2 0x1197 PUSH2 0x1141 JUMP JUMPDEST JUMPDEST POP SWAP2 SWAP1 POP JUMP JUMPDEST PUSH32 0x4F6E6C792073797374656D2061646D696E000000000000000000000000000000 PUSH0 DUP3 ADD MSTORE POP JUMP JUMPDEST PUSH0 PUSH2 0x11D2 PUSH1 0x11 DUP4 PUSH2 0xD5A JUMP JUMPDEST SWAP2 POP PUSH2 0x11DD DUP3 PUSH2 0x119E JUMP JUMPDEST PUSH1 0x20 DUP3 ADD SWAP1 POP SWAP2 SWAP1 POP JUMP JUMPDEST PUSH0 PUSH1 0x20 DUP3 ADD SWAP1 POP DUP2 DUP2 SUB PUSH0 DUP4 ADD MSTORE PUSH2 0x11FF DUP2 PUSH2 0x11C6 JUMP JUMPDEST SWAP1 POP SWAP2 SWAP1 POP JUMP JUMPDEST PUSH32 0x496E76616C6964206E65772061646D696E000000000000000000000000000000 PUSH0 DUP3 ADD MSTORE POP JUMP JUMPDEST PUSH0 PUSH2 0x123A PUSH1 0x11 DUP4 PUSH2 0xD5A JUMP JUMPDEST SWAP2 POP PUSH2 0x1245 DUP3 PUSH2 0x1206 JUMP JUMPDEST PUSH1 0x20 DUP3 ADD SWAP1 POP SWAP2 SWAP1 POP JUMP JUMPDEST PUSH0 PUSH1 0x20 DUP3 ADD SWAP1 POP DUP2 DUP2 SUB PUSH0 DUP4 ADD MSTORE PUSH2 0x1267 DUP2 PUSH2 0x122E JUMP JUMPDEST SWAP1 POP SWAP2 SWAP1 POP JUMP JUMPDEST PUSH32 0x456D707479206E616D6520686173680000000000000000000000000000000000 PUSH0 DUP3 ADD MSTORE POP JUMP JUMPDEST PUSH0 PUSH2 0x12A2 PUSH1 0xF DUP4 PUSH2 0xD5A JUMP JUMPDEST SWAP2 POP PUSH2 0x12AD DUP3 PUSH2 0x126E JUMP JUMPDEST PUSH1 0x20 DUP3 ADD SWAP1 POP SWAP2 SWAP1 POP JUMP JUMPDEST PUSH0 PUSH1 0x20 DUP3 ADD SWAP1 POP DUP2 DUP2 SUB PUSH0 DUP4 ADD MSTORE PUSH2 0x12CF DUP2 PUSH2 0x1296 JUMP JUMPDEST SWAP1 POP SWAP2 SWAP1 POP JUMP JUMPDEST PUSH32 0x496E76616C69642061646D696E20616464726573730000000000000000000000 PUSH0 DUP3 ADD MSTORE POP JUMP JUMPDEST PUSH0 PUSH2 0x130A PUSH1 0x15 DUP4 PUSH2 0xD5A JUMP JUMPDEST SWAP2 POP PUSH2 0x1315 DUP3 PUSH2 0x12D6 JUMP JUMPDEST PUSH1 0x20 DUP3 ADD SWAP1 POP SWAP2 SWAP1 POP JUMP JUMPDEST PUSH0 PUSH1 0x20 DUP3 ADD SWAP1 POP DUP2 DUP2 SUB PUSH0 DUP4 ADD MSTORE PUSH2 0x1337 DUP2 PUSH2 0x12FE JUMP JUMPDEST SWAP1 POP SWAP2 SWAP1 POP JUMP JUMPDEST PUSH32 0x41646D696E20616C7265616479206C696E6B6564000000000000000000000000 PUSH0 DUP3 ADD MSTORE POP JUMP JUMPDEST PUSH0 PUSH2 0x1372 PUSH1 0x14 DUP4 PUSH2 0xD5A JUMP JUMPDEST SWAP2 POP PUSH2 0x137D DUP3 PUSH2 0x133E JUMP JUMPDEST PUSH1 0x20 DUP3 ADD SWAP1 POP SWAP2 SWAP1 POP JUMP JUMPDEST PUSH0 PUSH1 0x20 DUP3 ADD SWAP1 POP DUP2 DUP2 SUB PUSH0 DUP4 ADD MSTORE PUSH2 0x139F DUP2 PUSH2 0x1366 JUMP JUMPDEST SWAP1 POP SWAP2 SWAP1 POP JUMP JUMPDEST PUSH32 0x4E487B7100000000000000000000000000000000000000000000000000000000 PUSH0 MSTORE PUSH1 0x11 PUSH1 0x4 MSTORE PUSH1 0x24 PUSH0 REVERT JUMPDEST PUSH0 PUSH2 0x13DD DUP3 PUSH2 0xCA7 JUMP JUMPDEST SWAP2 POP PUSH2 0x13E8 DUP4 PUSH2 0xCA7 JUMP JUMPDEST SWAP3 POP DUP3 DUP3 ADD SWAP1 POP DUP1 DUP3 GT ISZERO PUSH2 0x1400 JUMPI PUSH2 0x13FF PUSH2 0x13A6 JUMP JUMPDEST JUMPDEST SWAP3 SWAP2 POP POP JUMP JUMPDEST PUSH32 0x4E487B7100000000000000000000000000000000000000000000000000000000 PUSH0 MSTORE PUSH1 0x41 PUSH1 0x4 MSTORE PUSH1 0x24 PUSH0 REVERT JUMPDEST PUSH0 DUP2 SWAP1 POP DUP2 PUSH0 MSTORE PUSH1 0x20 PUSH0 KECCAK256 SWAP1 POP SWAP2 SWAP1 POP JUMP JUMPDEST PUSH0 PUSH1 0x20 PUSH1 0x1F DUP4 ADD DIV SWAP1 POP SWAP2 SWAP1 POP JUMP JUMPDEST PUSH0 DUP3 DUP3 SHL SWAP1 POP SWAP3 SWAP2 POP POP JUMP JUMPDEST PUSH0 PUSH1 0x8 DUP4 MUL PUSH2 0x148F PUSH32 0xFFFFFFFFFFFFFFFFFFFFFFFFFFFFFFFFFFFFFFFFFFFFFFFFFFFFFFFFFFFFFFFF DUP3 PUSH2 0x1454 JUMP JUMPDEST PUSH2 0x1499 DUP7 DUP4 PUSH2 0x1454 JUMP JUMPDEST SWAP6 POP DUP1 NOT DUP5 AND SWAP4 POP DUP1 DUP7 AND DUP5 OR SWAP3 POP POP POP SWAP4 SWAP3 POP POP POP JUMP JUMPDEST PUSH0 DUP2 SWAP1 POP SWAP2 SWAP1 POP JUMP JUMPDEST PUSH0 PUSH2 0x14D4 PUSH2 0x14CF PUSH2 0x14CA DUP5 PUSH2 0xCA7 JUMP JUMPDEST PUSH2 0x14B1 JUMP JUMPDEST PUSH2 0xCA7 JUMP JUMPDEST SWAP1 POP SWAP2 SWAP1 POP JUMP JUMPDEST PUSH0 DUP2 SWAP1 POP SWAP2 SWAP1 POP JUMP JUMPDEST PUSH2 0x14ED DUP4 PUSH2 0x14BA JUMP JUMPDEST PUSH2 0x1501 PUSH2 0x14F9 DUP3 PUSH2 0x14DB JUMP JUMPDEST DUP5 DUP5 SLOAD PUSH2 0x1460 JUMP JUMPDEST DUP3 SSTORE POP POP POP POP JUMP JUMPDEST PUSH0 PUSH0 SWAP1 POP SWAP1 JUMP JUMPDEST PUSH2 0x1518 PUSH2 0x1509 JUMP JUMPDEST PUSH2 0x1523 DUP2 DUP5 DUP5 PUSH2 0x14E4 JUMP JUMPDEST POP POP POP JUMP JUMPDEST JUMPDEST DUP2 DUP2 LT ISZERO PUSH2 0x1546 JUMPI PUSH2 0x153B PUSH0 DUP3 PUSH2 0x1510 JUMP JUMPDEST PUSH1 0x1 DUP2 ADD SWAP1 POP PUSH2 0x1529 JUMP JUMPDEST POP POP JUMP JUMPDEST PUSH1 0x1F DUP3 GT ISZERO PUSH2 0x158B JUMPI PUSH2 0x155C DUP2 PUSH2 0x1433 JUMP JUMPDEST PUSH2 0x1565 DUP5 PUSH2 0x1445 JUMP JUMPDEST DUP2 ADD PUSH1 0x20 DUP6 LT ISZERO PUSH2 0x1574 JUMPI DUP2 SWAP1 POP JUMPDEST PUSH2 0x1588 PUSH2 0x1580 DUP6 PUSH2 0x1445 JUMP JUMPDEST DUP4 ADD DUP3 PUSH2 0x1528 JUMP JUMPDEST POP POP JUMPDEST POP POP POP JUMP JUMPDEST PUSH0 DUP3 DUP3 SHR SWAP1 POP SWAP3 SWAP2 POP POP JUMP JUMPDEST PUSH0 PUSH2 0x15AB PUSH0 NOT DUP5 PUSH1 0x8 MUL PUSH2 0x1590 JUMP JUMPDEST NOT DUP1 DUP4 AND SWAP2 POP POP SWAP3 SWAP2 POP POP JUMP JUMPDEST PUSH0 PUSH2 0x15C3 DUP4 DUP4 PUSH2 0x159C JUMP JUMPDEST SWAP2 POP DUP3 PUSH1 0x2 MUL DUP3 OR SWAP1 POP SWAP3 SWAP2 POP POP JUMP JUMPDEST PUSH2 0x15DC DUP3 PUSH2 0xD50 JUMP JUMPDEST PUSH8 0xFFFFFFFFFFFFFFFF DUP2 GT ISZERO PUSH2 0x15F5 JUMPI PUSH2 0x15F4 PUSH2 0x1406 JUMP JUMPDEST JUMPDEST PUSH2 0x15FF DUP3 SLOAD PUSH2 0x116E JUMP JUMPDEST PUSH2 0x160A DUP3 DUP3 DUP6 PUSH2 0x154A JUMP JUMPDEST PUSH0 PUSH1 0x20 SWAP1 POP PUSH1 0x1F DUP4 GT PUSH1 0x1 DUP2 EQ PUSH2 0x163B JUMPI PUSH0 DUP5 ISZERO PUSH2 0x1629 JUMPI DUP3 DUP8 ADD MLOAD SWAP1 POP JUMPDEST PUSH2 0x1633 DUP6 DUP3 PUSH2 0x15B8 JUMP JUMPDEST DUP7 SSTORE POP PUSH2 0x169A JUMP JUMPDEST PUSH1 0x1F NOT DUP5 AND PUSH2 0x1649 DUP7 PUSH2 0x1433 JUMP JUMPDEST PUSH0 JUMPDEST DUP3 DUP2 LT ISZERO PUSH2 0x1670 JUMPI DUP5 DUP10 ADD MLOAD DUP3 SSTORE PUSH1 0x1 DUP3 ADD SWAP2 POP PUSH1 0x20 DUP6 ADD SWAP5 POP PUSH1 0x20 DUP2 ADD SWAP1 POP PUSH2 0x164B JUMP JUMPDEST DUP7 DUP4 LT ISZERO PUSH2 0x168D JUMPI DUP5 DUP10 ADD MLOAD PUSH2 0x1689 PUSH1 0x1F DUP10 AND DUP3 PUSH2 0x159C JUMP JUMPDEST DUP4 SSTORE POP JUMPDEST PUSH1 0x1 PUSH1 0x2 DUP9 MUL ADD DUP9 SSTORE POP POP POP JUMPDEST POP POP POP POP POP POP JUMP JUMPDEST DUP3 DUP2 DUP4 CALLDATACOPY PUSH0 DUP4 DUP4 ADD MSTORE POP POP POP JUMP JUMPDEST PUSH0 PUSH2 0x16BB DUP4 DUP6 PUSH2 0xD5A JUMP JUMPDEST SWAP4 POP PUSH2 0x16C8 DUP4 DUP6 DUP5 PUSH2 0x16A2 JUMP JUMPDEST PUSH2 0x16D1 DUP4 PUSH2 0xD78 JUMP JUMPDEST DUP5 ADD SWAP1 POP SWAP4 SWAP3 POP POP POP JUMP JUMPDEST PUSH0 PUSH1 0x20 DUP3 ADD SWAP1 POP DUP2 DUP2 SUB PUSH0 DUP4 ADD MSTORE PUSH2 0x16F5 DUP2 DUP5 DUP7 PUSH2 0x16B0 JUMP JUMPDEST SWAP1 POP SWAP4 SWAP3 POP POP POP JUMP INVALID LOG2 PUSH5 0x6970667358 0x22 SLT KECCAK256 DUP16 MULMOD 0x27 0x2E 0xA5 RJUMPI 0x75F1 SELFDESTRUCT JUMPI 0x25 0xCB LOG4 PUSH0 PUSH4 0xD1986A46 CALLF 0xA7D MOD NOT JUMP PUSH22 0x3564969663BA64736F6C634300081E00330000000000 "
				},
				"gasEstimates": {
					"creation": {
						"codeDepositCost": "1188000",
						"executionCost": "infinite",
						"totalCost": "infinite"
					},
					"external": {
						"adminToOrgId(address)": "2868",
						"getOrgIdForAdmin(address)": "2874",
						"getOrganization(uint256)": "infinite",
						"isActiveOrganization(uint256)": "5018",
						"organizations(uint256)": "infinite",
						"registerOrganization(bytes32,string,address)": "infinite",
						"setOrgStatus(uint256,bool)": "infinite",
						"systemAdmin()": "2507",
						"updateOrganizationAdmin(uint256,address)": "60743"
					}
				},
				"methodIdentifiers": {
					"adminToOrgId(address)": "e21fc185",
					"getOrgIdForAdmin(address)": "78a13adf",
					"getOrganization(uint256)": "4526f690",
					"isActiveOrganization(uint256)": "3876681b",
					"organizations(uint256)": "e792dd8a",
					"registerOrganization(bytes32,string,address)": "c9a49cd8",
					"setOrgStatus(uint256,bool)": "8bb7796a",
					"systemAdmin()": "a239e33d",
					"updateOrganizationAdmin(uint256,address)": "b6e8fbbd"
				}
			},
			"storageLayout": {
				"storage": [
					{
						"astId": 3,
						"contract": "contracts/OrganizationRegistry.sol:OrganizationRegistry",
						"label": "systemAdmin",
						"offset": 0,
						"slot": "0",
						"type": "t_address"
					},
					{
						"astId": 5,
						"contract": "contracts/OrganizationRegistry.sol:OrganizationRegistry",
						"label": "orgCounter",
						"offset": 0,
						"slot": "1",
						"type": "t_uint256"
					},
					{
						"astId": 21,
						"contract": "contracts/OrganizationRegistry.sol:OrganizationRegistry",
						"label": "organizations",
						"offset": 0,
						"slot": "2",
						"type": "t_mapping(t_uint256,t_struct(Organization)16_storage)"
					},
					{
						"astId": 25,
						"contract": "contracts/OrganizationRegistry.sol:OrganizationRegistry",
						"label": "adminToOrgId",
						"offset": 0,
						"slot": "3",
						"type": "t_mapping(t_address,t_uint256)"
					}
				],
				"types": {
					"t_address": {
						"encoding": "inplace",
						"label": "address",
						"numberOfBytes": "20"
					},
					"t_bool": {
						"encoding": "inplace",
						"label": "bool",
						"numberOfBytes": "1"
					},
					"t_bytes32": {
						"encoding": "inplace",
						"label": "bytes32",
						"numberOfBytes": "32"
					},
					"t_mapping(t_address,t_uint256)": {
						"encoding": "mapping",
						"key": "t_address",
						"label": "mapping(address => uint256)",
						"numberOfBytes": "32",
						"value": "t_uint256"
					},
					"t_mapping(t_uint256,t_struct(Organization)16_storage)": {
						"encoding": "mapping",
						"key": "t_uint256",
						"label": "mapping(uint256 => struct OrganizationRegistry.Organization)",
						"numberOfBytes": "32",
						"value": "t_struct(Organization)16_storage"
					},
					"t_string_storage": {
						"encoding": "bytes",
						"label": "string",
						"numberOfBytes": "32"
					},
					"t_struct(Organization)16_storage": {
						"encoding": "inplace",
						"label": "struct OrganizationRegistry.Organization",
						"members": [
							{
								"astId": 7,
								"contract": "contracts/OrganizationRegistry.sol:OrganizationRegistry",
								"label": "orgId",
								"offset": 0,
								"slot": "0",
								"type": "t_uint256"
							},
							{
								"astId": 9,
								"contract": "contracts/OrganizationRegistry.sol:OrganizationRegistry",
								"label": "hashName",
								"offset": 0,
								"slot": "1",
								"type": "t_bytes32"
							},
							{
								"astId": 11,
								"contract": "contracts/OrganizationRegistry.sol:OrganizationRegistry",
								"label": "countryCode",
								"offset": 0,
								"slot": "2",
								"type": "t_string_storage"
							},
							{
								"astId": 13,
								"contract": "contracts/OrganizationRegistry.sol:OrganizationRegistry",
								"label": "admin",
								"offset": 0,
								"slot": "3",
								"type": "t_address"
							},
							{
								"astId": 15,
								"contract": "contracts/OrganizationRegistry.sol:OrganizationRegistry",
								"label": "isActive",
								"offset": 20,
								"slot": "3",
								"type": "t_bool"
							}
						],
						"numberOfBytes": "128"
					},
					"t_uint256": {
						"encoding": "inplace",
						"label": "uint256",
						"numberOfBytes": "32"
					}
				}
			},
			"userdoc": {
				"kind": "user",
				"methods": {},
				"version": 1
			}
		}
	}
}